{
  "_format": "hh-sol-artifact-1",
  "contractName": "Celorean",
  "sourceName": "contracts/Celorean.sol",
  "abi": [
    {
      "inputs": [
        {
          "internalType": "address",
          "name": "target",
          "type": "address"
        }
      ],
      "name": "AddressEmptyCode",
      "type": "error"
    },
    {
      "inputs": [
        {
          "internalType": "address",
          "name": "implementation",
          "type": "address"
        }
      ],
      "name": "ERC1967InvalidImplementation",
      "type": "error"
    },
    {
      "inputs": [],
      "name": "ERC1967NonPayable",
      "type": "error"
    },
    {
      "inputs": [
        {
          "internalType": "address",
          "name": "sender",
          "type": "address"
        },
        {
          "internalType": "uint256",
          "name": "tokenId",
          "type": "uint256"
        },
        {
          "internalType": "address",
          "name": "owner",
          "type": "address"
        }
      ],
      "name": "ERC721IncorrectOwner",
      "type": "error"
    },
    {
      "inputs": [
        {
          "internalType": "address",
          "name": "operator",
          "type": "address"
        },
        {
          "internalType": "uint256",
          "name": "tokenId",
          "type": "uint256"
        }
      ],
      "name": "ERC721InsufficientApproval",
      "type": "error"
    },
    {
      "inputs": [
        {
          "internalType": "address",
          "name": "approver",
          "type": "address"
        }
      ],
      "name": "ERC721InvalidApprover",
      "type": "error"
    },
    {
      "inputs": [
        {
          "internalType": "address",
          "name": "operator",
          "type": "address"
        }
      ],
      "name": "ERC721InvalidOperator",
      "type": "error"
    },
    {
      "inputs": [
        {
          "internalType": "address",
          "name": "owner",
          "type": "address"
        }
      ],
      "name": "ERC721InvalidOwner",
      "type": "error"
    },
    {
      "inputs": [
        {
          "internalType": "address",
          "name": "receiver",
          "type": "address"
        }
      ],
      "name": "ERC721InvalidReceiver",
      "type": "error"
    },
    {
      "inputs": [
        {
          "internalType": "address",
          "name": "sender",
          "type": "address"
        }
      ],
      "name": "ERC721InvalidSender",
      "type": "error"
    },
    {
      "inputs": [
        {
          "internalType": "uint256",
          "name": "tokenId",
          "type": "uint256"
        }
      ],
      "name": "ERC721NonexistentToken",
      "type": "error"
    },
    {
      "inputs": [],
      "name": "FailedCall",
      "type": "error"
    },
    {
      "inputs": [],
      "name": "InvalidInitialization",
      "type": "error"
    },
    {
      "inputs": [],
      "name": "NotInitializing",
      "type": "error"
    },
    {
      "inputs": [
        {
          "internalType": "address",
          "name": "owner",
          "type": "address"
        }
      ],
      "name": "OwnableInvalidOwner",
      "type": "error"
    },
    {
      "inputs": [
        {
          "internalType": "address",
          "name": "account",
          "type": "address"
        }
      ],
      "name": "OwnableUnauthorizedAccount",
      "type": "error"
    },
    {
      "inputs": [],
      "name": "ReentrancyGuardReentrantCall",
      "type": "error"
    },
    {
      "inputs": [],
      "name": "UUPSUnauthorizedCallContext",
      "type": "error"
    },
    {
      "inputs": [
        {
          "internalType": "bytes32",
          "name": "slot",
          "type": "bytes32"
        }
      ],
      "name": "UUPSUnsupportedProxiableUUID",
      "type": "error"
    },
    {
      "anonymous": false,
      "inputs": [
        {
          "indexed": true,
          "internalType": "address",
          "name": "owner",
          "type": "address"
        },
        {
          "indexed": true,
          "internalType": "address",
          "name": "approved",
          "type": "address"
        },
        {
          "indexed": true,
          "internalType": "uint256",
          "name": "tokenId",
          "type": "uint256"
        }
      ],
      "name": "Approval",
      "type": "event"
    },
    {
      "anonymous": false,
      "inputs": [
        {
          "indexed": true,
          "internalType": "address",
          "name": "owner",
          "type": "address"
        },
        {
          "indexed": true,
          "internalType": "address",
          "name": "operator",
          "type": "address"
        },
        {
          "indexed": false,
          "internalType": "bool",
          "name": "approved",
          "type": "bool"
        }
      ],
      "name": "ApprovalForAll",
      "type": "event"
    },
    {
      "anonymous": false,
      "inputs": [
        {
          "indexed": true,
          "internalType": "uint256",
          "name": "sessionId",
          "type": "uint256"
        },
        {
          "indexed": true,
          "internalType": "address",
          "name": "student",
          "type": "address"
        }
      ],
      "name": "AttendanceMarked",
      "type": "event"
    },
    {
      "anonymous": false,
      "inputs": [
        {
          "indexed": true,
          "internalType": "address",
          "name": "nft",
          "type": "address"
        }
      ],
      "name": "CertificateNFTUpdated",
      "type": "event"
    },
    {
      "anonymous": false,
      "inputs": [
        {
          "indexed": true,
          "internalType": "uint256",
          "name": "sessionId",
          "type": "uint256"
        },
        {
          "indexed": true,
          "internalType": "uint256",
          "name": "courseId",
          "type": "uint256"
        },
        {
          "indexed": false,
          "internalType": "uint256",
          "name": "timestamp",
          "type": "uint256"
        }
      ],
      "name": "ClassSessionCreated",
      "type": "event"
    },
    {
      "anonymous": false,
      "inputs": [
        {
          "indexed": true,
          "internalType": "uint256",
          "name": "courseId",
          "type": "uint256"
        },
        {
          "indexed": true,
          "internalType": "address",
          "name": "student",
          "type": "address"
        },
        {
          "indexed": false,
          "internalType": "uint256",
          "name": "contentIndex",
          "type": "uint256"
        },
        {
          "indexed": false,
          "internalType": "uint256",
          "name": "timestamp",
          "type": "uint256"
        }
      ],
      "name": "ContentCompleted",
      "type": "event"
    },
    {
      "anonymous": false,
      "inputs": [
        {
          "indexed": true,
          "internalType": "uint256",
          "name": "courseId",
          "type": "uint256"
        },
        {
          "indexed": false,
          "internalType": "string",
          "name": "newContentUri",
          "type": "string"
        },
        {
          "indexed": false,
          "internalType": "uint256",
          "name": "contentIndex",
          "type": "uint256"
        }
      ],
      "name": "CourseContentAdded",
      "type": "event"
    },
    {
      "anonymous": false,
      "inputs": [
        {
          "indexed": true,
          "internalType": "uint256",
          "name": "courseId",
          "type": "uint256"
        },
        {
          "indexed": false,
          "internalType": "string[]",
          "name": "newContentUris",
          "type": "string[]"
        }
      ],
      "name": "CourseContentUpdated",
      "type": "event"
    },
    {
      "anonymous": false,
      "inputs": [
        {
          "indexed": true,
          "internalType": "uint256",
          "name": "courseId",
          "type": "uint256"
        },
        {
          "indexed": false,
          "internalType": "string",
          "name": "title",
          "type": "string"
        },
        {
          "indexed": true,
          "internalType": "address",
          "name": "instructor",
          "type": "address"
        },
        {
          "indexed": false,
          "internalType": "string",
          "name": "metadataUri",
          "type": "string"
        }
      ],
      "name": "CourseCreated",
      "type": "event"
    },
    {
      "anonymous": false,
      "inputs": [
        {
          "indexed": true,
          "internalType": "uint256",
          "name": "courseId",
          "type": "uint256"
        },
        {
          "indexed": false,
          "internalType": "string",
          "name": "newMetadataUri",
          "type": "string"
        }
      ],
      "name": "CourseMetadataUpdated",
      "type": "event"
    },
    {
      "anonymous": false,
      "inputs": [
        {
          "indexed": true,
          "internalType": "uint256",
          "name": "courseId",
          "type": "uint256"
        },
        {
          "indexed": true,
          "internalType": "enum CourseModule.CourseStatus",
          "name": "status",
          "type": "uint8"
        }
      ],
      "name": "CourseStatusUpdated",
      "type": "event"
    },
    {
      "anonymous": false,
      "inputs": [
        {
          "indexed": true,
          "internalType": "uint256",
          "name": "courseId",
          "type": "uint256"
        },
        {
          "indexed": true,
          "internalType": "enum CourseModule.CourseType",
          "name": "courseType",
          "type": "uint8"
        }
      ],
      "name": "CourseTypeUpdated",
      "type": "event"
    },
    {
      "anonymous": false,
      "inputs": [
        {
          "indexed": true,
          "internalType": "uint256",
          "name": "id",
          "type": "uint256"
        },
        {
          "indexed": true,
          "internalType": "address",
          "name": "student",
          "type": "address"
        },
        {
          "indexed": true,
          "internalType": "address",
          "name": "issuer",
          "type": "address"
        },
        {
          "indexed": false,
          "internalType": "string",
          "name": "title",
          "type": "string"
        },
        {
          "indexed": false,
          "internalType": "string",
          "name": "metadataUri",
          "type": "string"
        }
      ],
      "name": "CredentialIssued",
      "type": "event"
    },
    {
      "anonymous": false,
      "inputs": [
        {
          "indexed": true,
          "internalType": "address",
          "name": "owner",
          "type": "address"
        },
        {
          "indexed": false,
          "internalType": "uint256",
          "name": "amount",
          "type": "uint256"
        }
      ],
      "name": "FundsWithdrawn",
      "type": "event"
    },
    {
      "anonymous": false,
      "inputs": [
        {
          "indexed": false,
          "internalType": "uint64",
          "name": "version",
          "type": "uint64"
        }
      ],
      "name": "Initialized",
      "type": "event"
    },
    {
      "anonymous": false,
      "inputs": [
        {
          "indexed": true,
          "internalType": "address",
          "name": "lecturer",
          "type": "address"
        }
      ],
      "name": "LecturerEmployed",
      "type": "event"
    },
    {
      "anonymous": false,
      "inputs": [
        {
          "indexed": true,
          "internalType": "address",
          "name": "previousOwner",
          "type": "address"
        },
        {
          "indexed": true,
          "internalType": "address",
          "name": "newOwner",
          "type": "address"
        }
      ],
      "name": "OwnershipTransferred",
      "type": "event"
    },
    {
      "anonymous": false,
      "inputs": [
        {
          "indexed": true,
          "internalType": "address",
          "name": "student",
          "type": "address"
        }
      ],
      "name": "StudentAdmitted",
      "type": "event"
    },
    {
      "anonymous": false,
      "inputs": [
        {
          "indexed": false,
          "internalType": "uint256",
          "name": "courseId",
          "type": "uint256"
        },
        {
          "indexed": false,
          "internalType": "address",
          "name": "student",
          "type": "address"
        }
      ],
      "name": "StudentRegistered",
      "type": "event"
    },
    {
      "anonymous": false,
      "inputs": [
        {
          "indexed": true,
          "internalType": "address",
          "name": "student",
          "type": "address"
        },
        {
          "indexed": false,
          "internalType": "uint256",
          "name": "newAmount",
          "type": "uint256"
        }
      ],
      "name": "StudentTokenUpdated",
      "type": "event"
    },
    {
      "anonymous": false,
      "inputs": [
        {
          "indexed": true,
          "internalType": "address",
          "name": "from",
          "type": "address"
        },
        {
          "indexed": true,
          "internalType": "address",
          "name": "to",
          "type": "address"
        },
        {
          "indexed": true,
          "internalType": "uint256",
          "name": "tokenId",
          "type": "uint256"
        }
      ],
      "name": "Transfer",
      "type": "event"
    },
    {
      "anonymous": false,
      "inputs": [
        {
          "indexed": true,
          "internalType": "address",
          "name": "implementation",
          "type": "address"
        }
      ],
      "name": "Upgraded",
      "type": "event"
    },
    {
      "inputs": [],
      "name": "UPGRADE_INTERFACE_VERSION",
      "outputs": [
        {
          "internalType": "string",
          "name": "",
          "type": "string"
        }
      ],
      "stateMutability": "view",
      "type": "function"
    },
    {
      "inputs": [
        {
          "internalType": "uint256",
          "name": "courseId",
          "type": "uint256"
        },
        {
          "internalType": "string",
          "name": "newContentUri",
          "type": "string"
        }
      ],
      "name": "addCourseContent",
      "outputs": [],
      "stateMutability": "nonpayable",
      "type": "function"
    },
    {
      "inputs": [
        {
          "internalType": "uint256",
          "name": "courseId",
          "type": "uint256"
        },
        {
          "internalType": "string[]",
          "name": "newContentUris",
          "type": "string[]"
        }
      ],
      "name": "addMultipleCourseContent",
      "outputs": [],
      "stateMutability": "nonpayable",
      "type": "function"
    },
    {
      "inputs": [
        {
          "internalType": "address",
          "name": "student",
          "type": "address"
        }
      ],
      "name": "admitStudent",
      "outputs": [],
      "stateMutability": "nonpayable",
      "type": "function"
    },
    {
      "inputs": [
        {
          "internalType": "address",
          "name": "to",
          "type": "address"
        },
        {
          "internalType": "uint256",
          "name": "tokenId",
          "type": "uint256"
        }
      ],
      "name": "approve",
      "outputs": [],
      "stateMutability": "nonpayable",
      "type": "function"
    },
    {
      "inputs": [
        {
          "internalType": "address",
          "name": "owner",
          "type": "address"
        }
      ],
      "name": "balanceOf",
      "outputs": [
        {
          "internalType": "uint256",
          "name": "",
          "type": "uint256"
        }
      ],
      "stateMutability": "view",
      "type": "function"
    },
    {
      "inputs": [],
      "name": "calculateAttendancePercentage",
      "outputs": [
        {
          "internalType": "uint256",
          "name": "",
          "type": "uint256"
        }
      ],
      "stateMutability": "view",
      "type": "function"
    },
    {
      "inputs": [],
      "name": "certificateNFT",
      "outputs": [
        {
          "internalType": "address",
          "name": "",
          "type": "address"
        }
      ],
      "stateMutability": "view",
      "type": "function"
    },
    {
      "inputs": [
        {
          "internalType": "uint256",
          "name": "",
          "type": "uint256"
        }
      ],
      "name": "classSessions",
      "outputs": [
        {
          "internalType": "uint256",
          "name": "id",
          "type": "uint256"
        },
        {
          "internalType": "uint256",
          "name": "courseId",
          "type": "uint256"
        },
        {
          "internalType": "uint256",
          "name": "timestamp",
          "type": "uint256"
        },
        {
          "internalType": "bool",
          "name": "marked",
          "type": "bool"
        }
      ],
      "stateMutability": "view",
      "type": "function"
    },
    {
      "inputs": [
        {
          "internalType": "uint256",
          "name": "",
          "type": "uint256"
        },
        {
          "internalType": "address",
          "name": "",
          "type": "address"
        },
        {
          "internalType": "uint256",
          "name": "",
          "type": "uint256"
        }
      ],
      "name": "completedContents",
      "outputs": [
        {
          "internalType": "bool",
          "name": "",
          "type": "bool"
        }
      ],
      "stateMutability": "view",
      "type": "function"
    },
    {
      "inputs": [
        {
          "internalType": "uint256",
          "name": "",
          "type": "uint256"
        },
        {
          "internalType": "address",
          "name": "",
          "type": "address"
        }
      ],
      "name": "completedCount",
      "outputs": [
        {
          "internalType": "uint256",
          "name": "",
          "type": "uint256"
        }
      ],
      "stateMutability": "view",
      "type": "function"
    },
    {
      "inputs": [
        {
          "internalType": "uint256",
          "name": "",
          "type": "uint256"
        },
        {
          "internalType": "address",
          "name": "",
          "type": "address"
        },
        {
          "internalType": "uint256",
          "name": "",
          "type": "uint256"
        }
      ],
      "name": "completedTimestamps",
      "outputs": [
        {
          "internalType": "uint256",
          "name": "",
          "type": "uint256"
        }
      ],
      "stateMutability": "view",
      "type": "function"
    },
    {
      "inputs": [],
      "name": "courseCount",
      "outputs": [
        {
          "internalType": "uint256",
          "name": "",
          "type": "uint256"
        }
      ],
      "stateMutability": "view",
      "type": "function"
    },
    {
      "inputs": [
        {
          "internalType": "string",
          "name": "",
          "type": "string"
        }
      ],
      "name": "courseNameToId",
      "outputs": [
        {
          "internalType": "uint256",
          "name": "",
          "type": "uint256"
        }
      ],
      "stateMutability": "view",
      "type": "function"
    },
    {
      "inputs": [
        {
          "internalType": "uint256",
          "name": "",
          "type": "uint256"
        },
        {
          "internalType": "uint256",
          "name": "",
          "type": "uint256"
        }
      ],
      "name": "courseStudents",
      "outputs": [
        {
          "internalType": "address",
          "name": "",
          "type": "address"
        }
      ],
      "stateMutability": "view",
      "type": "function"
    },
    {
      "inputs": [
        {
          "internalType": "uint256",
          "name": "courseId",
          "type": "uint256"
        }
      ],
      "name": "createClassSession",
      "outputs": [
        {
          "internalType": "uint256",
          "name": "",
          "type": "uint256"
        }
      ],
      "stateMutability": "nonpayable",
      "type": "function"
    },
    {
      "inputs": [
        {
          "internalType": "string",
          "name": "title",
          "type": "string"
        },
        {
          "internalType": "uint256",
          "name": "duration",
          "type": "uint256"
        },
        {
          "internalType": "string",
          "name": "description",
          "type": "string"
        },
        {
          "internalType": "string[]",
          "name": "tags",
          "type": "string[]"
        },
        {
          "internalType": "string",
          "name": "level",
          "type": "string"
        },
        {
          "internalType": "string",
          "name": "metadataUri",
          "type": "string"
        },
        {
          "internalType": "uint256",
          "name": "capacity",
          "type": "uint256"
        },
        {
          "internalType": "enum CourseModule.CourseType",
          "name": "courseType",
          "type": "uint8"
        }
      ],
      "name": "createCourse",
      "outputs": [
        {
          "internalType": "uint256",
          "name": "",
          "type": "uint256"
        }
      ],
      "stateMutability": "nonpayable",
      "type": "function"
    },
    {
      "inputs": [],
      "name": "credentialCount",
      "outputs": [
        {
          "internalType": "uint256",
          "name": "",
          "type": "uint256"
        }
      ],
      "stateMutability": "view",
      "type": "function"
    },
    {
      "inputs": [
        {
          "internalType": "uint256",
          "name": "id",
          "type": "uint256"
        }
      ],
      "name": "credentials",
      "outputs": [
        {
          "components": [
            {
              "internalType": "uint256",
              "name": "id",
              "type": "uint256"
            },
            {
              "internalType": "address",
              "name": "student",
              "type": "address"
            },
            {
              "internalType": "address",
              "name": "issuer",
              "type": "address"
            },
            {
              "internalType": "uint256",
              "name": "issuedAt",
              "type": "uint256"
            },
            {
              "internalType": "string",
              "name": "title",
              "type": "string"
            },
            {
              "internalType": "string",
              "name": "metadataUri",
              "type": "string"
            }
          ],
          "internalType": "struct CredentialStorage.Credential",
          "name": "",
          "type": "tuple"
        }
      ],
      "stateMutability": "view",
      "type": "function"
    },
    {
      "inputs": [
        {
          "internalType": "address",
          "name": "lecturer",
          "type": "address"
        }
      ],
      "name": "employLecturer",
      "outputs": [],
      "stateMutability": "nonpayable",
      "type": "function"
    },
    {
      "inputs": [],
      "name": "getAllCourseNames",
      "outputs": [
        {
          "internalType": "string[]",
          "name": "",
          "type": "string[]"
        }
      ],
      "stateMutability": "view",
      "type": "function"
    },
    {
      "inputs": [],
      "name": "getAllCourses",
      "outputs": [
        {
          "internalType": "string[]",
          "name": "names",
          "type": "string[]"
        },
        {
          "internalType": "address[]",
          "name": "instructors",
          "type": "address[]"
        },
        {
          "internalType": "uint256[]",
          "name": "capacities",
          "type": "uint256[]"
        },
        {
          "internalType": "uint256[]",
          "name": "enrolledStudents",
          "type": "uint256[]"
        },
        {
          "internalType": "string[]",
          "name": "descriptions",
          "type": "string[]"
        }
      ],
      "stateMutability": "view",
      "type": "function"
    },
    {
      "inputs": [
        {
          "internalType": "uint256",
          "name": "tokenId",
          "type": "uint256"
        }
      ],
      "name": "getApproved",
      "outputs": [
        {
          "internalType": "address",
          "name": "",
          "type": "address"
        }
      ],
      "stateMutability": "view",
      "type": "function"
    },
    {
      "inputs": [
        {
          "internalType": "uint256",
          "name": "courseId",
          "type": "uint256"
        },
        {
          "internalType": "address",
          "name": "student",
          "type": "address"
        }
      ],
      "name": "getCompletedContentCount",
      "outputs": [
        {
          "internalType": "uint256",
          "name": "",
          "type": "uint256"
        }
      ],
      "stateMutability": "view",
      "type": "function"
    },
    {
      "inputs": [
        {
          "internalType": "uint256",
          "name": "courseId",
          "type": "uint256"
        },
        {
          "internalType": "address",
          "name": "student",
          "type": "address"
        },
        {
          "internalType": "uint256",
          "name": "totalContentCount",
          "type": "uint256"
        }
      ],
      "name": "getCompletedContents",
      "outputs": [
        {
          "internalType": "bool[]",
          "name": "",
          "type": "bool[]"
        }
      ],
      "stateMutability": "view",
      "type": "function"
    },
    {
      "inputs": [
        {
          "internalType": "uint256",
          "name": "courseId",
          "type": "uint256"
        },
        {
          "internalType": "address",
          "name": "student",
          "type": "address"
        },
        {
          "internalType": "uint256",
          "name": "totalContentCount",
          "type": "uint256"
        }
      ],
      "name": "getCompletedTimestamps",
      "outputs": [
        {
          "internalType": "uint256[]",
          "name": "",
          "type": "uint256[]"
        }
      ],
      "stateMutability": "view",
      "type": "function"
    },
    {
      "inputs": [
        {
          "internalType": "uint256",
          "name": "courseId",
          "type": "uint256"
        }
      ],
      "name": "getCourse",
      "outputs": [
        {
          "components": [
            {
              "internalType": "uint256",
              "name": "id",
              "type": "uint256"
            },
            {
              "internalType": "string",
              "name": "title",
              "type": "string"
            },
            {
              "internalType": "string",
              "name": "description",
              "type": "string"
            },
            {
              "internalType": "uint256",
              "name": "duration",
              "type": "uint256"
            },
            {
              "internalType": "string[]",
              "name": "tags",
              "type": "string[]"
            },
            {
              "internalType": "string",
              "name": "level",
              "type": "string"
            },
            {
              "internalType": "uint256",
              "name": "rating",
              "type": "uint256"
            },
            {
              "internalType": "uint256",
              "name": "enrolledCount",
              "type": "uint256"
            },
            {
              "internalType": "uint256",
              "name": "capacity",
              "type": "uint256"
            },
            {
              "internalType": "address",
              "name": "instructor",
              "type": "address"
            },
            {
              "internalType": "string",
              "name": "metadataUri",
              "type": "string"
            },
            {
              "internalType": "string[]",
              "name": "contentUris",
              "type": "string[]"
            },
            {
              "internalType": "enum CourseModule.CourseType",
              "name": "courseType",
              "type": "uint8"
            },
            {
              "internalType": "enum CourseModule.CourseStatus",
              "name": "status",
              "type": "uint8"
            }
          ],
          "internalType": "struct CourseModule.Course",
          "name": "",
          "type": "tuple"
        }
      ],
      "stateMutability": "view",
      "type": "function"
    },
    {
      "inputs": [
        {
          "internalType": "uint256",
          "name": "courseId",
          "type": "uint256"
        }
      ],
      "name": "getCourseContentCount",
      "outputs": [
        {
          "internalType": "uint256",
          "name": "",
          "type": "uint256"
        }
      ],
      "stateMutability": "view",
      "type": "function"
    },
    {
      "inputs": [
        {
          "internalType": "uint256",
          "name": "courseId",
          "type": "uint256"
        }
      ],
      "name": "getCourseContentUris",
      "outputs": [
        {
          "internalType": "string[]",
          "name": "",
          "type": "string[]"
        }
      ],
      "stateMutability": "view",
      "type": "function"
    },
    {
      "inputs": [
        {
          "internalType": "uint256",
          "name": "courseId",
          "type": "uint256"
        }
      ],
      "name": "getCourseStudents",
      "outputs": [
        {
          "internalType": "address[]",
          "name": "",
          "type": "address[]"
        }
      ],
      "stateMutability": "view",
      "type": "function"
    },
    {
      "inputs": [
        {
          "internalType": "address",
          "name": "student",
          "type": "address"
        }
      ],
      "name": "getCoursesRegisteredByStudent",
      "outputs": [
        {
          "internalType": "uint256[]",
          "name": "",
          "type": "uint256[]"
        }
      ],
      "stateMutability": "view",
      "type": "function"
    },
    {
      "inputs": [
        {
          "internalType": "address",
          "name": "student",
          "type": "address"
        }
      ],
      "name": "getCredentialsByStudent",
      "outputs": [
        {
          "components": [
            {
              "internalType": "uint256",
              "name": "id",
              "type": "uint256"
            },
            {
              "internalType": "address",
              "name": "student",
              "type": "address"
            },
            {
              "internalType": "address",
              "name": "issuer",
              "type": "address"
            },
            {
              "internalType": "uint256",
              "name": "issuedAt",
              "type": "uint256"
            },
            {
              "internalType": "string",
              "name": "title",
              "type": "string"
            },
            {
              "internalType": "string",
              "name": "metadataUri",
              "type": "string"
            }
          ],
          "internalType": "struct CredentialStorage.Credential[]",
          "name": "",
          "type": "tuple[]"
        }
      ],
      "stateMutability": "view",
      "type": "function"
    },
    {
      "inputs": [],
      "name": "getLecturerList",
      "outputs": [
        {
          "internalType": "address[]",
          "name": "",
          "type": "address[]"
        }
      ],
      "stateMutability": "view",
      "type": "function"
    },
    {
      "inputs": [],
      "name": "getListOfStudents",
      "outputs": [
        {
          "internalType": "address[]",
          "name": "",
          "type": "address[]"
        }
      ],
      "stateMutability": "view",
      "type": "function"
    },
    {
      "inputs": [],
      "name": "getSessionIdsForLecturer",
      "outputs": [
        {
          "internalType": "uint256[]",
          "name": "",
          "type": "uint256[]"
        }
      ],
      "stateMutability": "view",
      "type": "function"
    },
    {
      "inputs": [
        {
          "internalType": "uint256",
          "name": "courseId",
          "type": "uint256"
        }
      ],
      "name": "getSessionsForCourse",
      "outputs": [
        {
          "internalType": "uint256[]",
          "name": "",
          "type": "uint256[]"
        }
      ],
      "stateMutability": "view",
      "type": "function"
    },
    {
      "inputs": [
        {
          "internalType": "address",
          "name": "student",
          "type": "address"
        }
      ],
      "name": "getStudentCourses",
      "outputs": [
        {
          "internalType": "uint256[]",
          "name": "",
          "type": "uint256[]"
        }
      ],
      "stateMutability": "view",
      "type": "function"
    },
    {
      "inputs": [
        {
          "internalType": "address",
          "name": "student",
          "type": "address"
        }
      ],
      "name": "getStudentCredentialIds",
      "outputs": [
        {
          "internalType": "uint256[]",
          "name": "",
          "type": "uint256[]"
        }
      ],
      "stateMutability": "view",
      "type": "function"
    },
    {
      "inputs": [],
      "name": "getTotalRegisteredCourses",
      "outputs": [
        {
          "internalType": "uint256",
          "name": "",
          "type": "uint256"
        }
      ],
      "stateMutability": "view",
      "type": "function"
    },
    {
      "inputs": [
        {
          "internalType": "uint256",
          "name": "courseId",
          "type": "uint256"
        }
      ],
      "name": "incrementEnrollment",
      "outputs": [],
      "stateMutability": "nonpayable",
      "type": "function"
    },
    {
      "inputs": [
        {
          "internalType": "string",
          "name": "name",
          "type": "string"
        },
        {
          "internalType": "string",
          "name": "symbol",
          "type": "string"
        },
        {
          "internalType": "address",
          "name": "owner",
          "type": "address"
        }
      ],
      "name": "initialize",
      "outputs": [],
      "stateMutability": "nonpayable",
      "type": "function"
    },
    {
      "inputs": [
        {
          "internalType": "address",
          "name": "owner",
          "type": "address"
        },
        {
          "internalType": "address",
          "name": "operator",
          "type": "address"
        }
      ],
      "name": "isApprovedForAll",
      "outputs": [
        {
          "internalType": "bool",
          "name": "",
          "type": "bool"
        }
      ],
      "stateMutability": "view",
      "type": "function"
    },
    {
      "inputs": [
        {
          "internalType": "uint256",
          "name": "courseId",
          "type": "uint256"
        },
        {
          "internalType": "address",
          "name": "student",
          "type": "address"
        },
        {
          "internalType": "uint256",
          "name": "contentIndex",
          "type": "uint256"
        }
      ],
      "name": "isContentCompleted",
      "outputs": [
        {
          "internalType": "bool",
          "name": "",
          "type": "bool"
        }
      ],
      "stateMutability": "view",
      "type": "function"
    },
    {
      "inputs": [
        {
          "internalType": "uint256",
          "name": "",
          "type": "uint256"
        },
        {
          "internalType": "address",
          "name": "",
          "type": "address"
        }
      ],
      "name": "isEnrolled",
      "outputs": [
        {
          "internalType": "bool",
          "name": "",
          "type": "bool"
        }
      ],
      "stateMutability": "view",
      "type": "function"
    },
    {
      "inputs": [
        {
          "internalType": "address",
          "name": "account",
          "type": "address"
        }
      ],
      "name": "isLecturer",
      "outputs": [
        {
          "internalType": "bool",
          "name": "",
          "type": "bool"
        }
      ],
      "stateMutability": "view",
      "type": "function"
    },
    {
      "inputs": [
        {
          "internalType": "address",
          "name": "",
          "type": "address"
        }
      ],
      "name": "isStudent",
      "outputs": [
        {
          "internalType": "bool",
          "name": "",
          "type": "bool"
        }
      ],
      "stateMutability": "view",
      "type": "function"
    },
    {
      "inputs": [
        {
          "internalType": "uint256",
          "name": "courseId",
          "type": "uint256"
        },
        {
          "internalType": "address",
          "name": "student",
          "type": "address"
        }
      ],
      "name": "isStudentEnrolled",
      "outputs": [
        {
          "internalType": "bool",
          "name": "",
          "type": "bool"
        }
      ],
      "stateMutability": "view",
      "type": "function"
    },
    {
      "inputs": [
        {
          "internalType": "address",
          "name": "student",
          "type": "address"
        },
        {
          "internalType": "string",
          "name": "title",
          "type": "string"
        },
        {
          "internalType": "string",
          "name": "metadataUri",
          "type": "string"
        }
      ],
      "name": "issueCredentialForStudent",
      "outputs": [
        {
          "internalType": "uint256",
          "name": "",
          "type": "uint256"
        }
      ],
      "stateMutability": "nonpayable",
      "type": "function"
    },
    {
      "inputs": [
        {
          "internalType": "uint256",
          "name": "",
          "type": "uint256"
        }
      ],
      "name": "lecturerList",
      "outputs": [
        {
          "internalType": "address",
          "name": "",
          "type": "address"
        }
      ],
      "stateMutability": "view",
      "type": "function"
    },
    {
      "inputs": [
        {
          "internalType": "address",
          "name": "",
          "type": "address"
        },
        {
          "internalType": "uint256",
          "name": "",
          "type": "uint256"
        }
      ],
      "name": "lecturerSessions",
      "outputs": [
        {
          "internalType": "uint256",
          "name": "",
          "type": "uint256"
        }
      ],
      "stateMutability": "view",
      "type": "function"
    },
    {
      "inputs": [
        {
          "internalType": "address",
          "name": "",
          "type": "address"
        }
      ],
      "name": "lecturers",
      "outputs": [
        {
          "internalType": "uint256",
          "name": "",
          "type": "uint256"
        }
      ],
      "stateMutability": "view",
      "type": "function"
    },
    {
      "inputs": [
        {
          "internalType": "uint256",
          "name": "sessionId",
          "type": "uint256"
        },
        {
          "internalType": "address",
          "name": "student",
          "type": "address"
        }
      ],
      "name": "markAttendance",
      "outputs": [],
      "stateMutability": "nonpayable",
      "type": "function"
    },
    {
      "inputs": [
        {
          "internalType": "uint256",
          "name": "sessionId",
          "type": "uint256"
        }
      ],
      "name": "markAttendance",
      "outputs": [],
      "stateMutability": "nonpayable",
      "type": "function"
    },
    {
      "inputs": [
        {
          "internalType": "uint256",
          "name": "courseId",
          "type": "uint256"
        },
        {
          "internalType": "uint256",
          "name": "contentIndex",
          "type": "uint256"
        }
      ],
      "name": "markContentComplete",
      "outputs": [],
      "stateMutability": "nonpayable",
      "type": "function"
    },
    {
      "inputs": [
        {
          "internalType": "uint256",
          "name": "courseId",
          "type": "uint256"
        }
      ],
      "name": "markCourseAsEnded",
      "outputs": [],
      "stateMutability": "nonpayable",
      "type": "function"
    },
    {
      "inputs": [],
      "name": "name",
      "outputs": [
        {
          "internalType": "string",
          "name": "",
          "type": "string"
        }
      ],
      "stateMutability": "view",
      "type": "function"
    },
    {
      "inputs": [],
      "name": "owner",
      "outputs": [
        {
          "internalType": "address",
          "name": "",
          "type": "address"
        }
      ],
      "stateMutability": "view",
      "type": "function"
    },
    {
      "inputs": [
        {
          "internalType": "uint256",
          "name": "tokenId",
          "type": "uint256"
        }
      ],
      "name": "ownerOf",
      "outputs": [
        {
          "internalType": "address",
          "name": "",
          "type": "address"
        }
      ],
      "stateMutability": "view",
      "type": "function"
    },
    {
      "inputs": [],
      "name": "proxiableUUID",
      "outputs": [
        {
          "internalType": "bytes32",
          "name": "",
          "type": "bytes32"
        }
      ],
      "stateMutability": "view",
      "type": "function"
    },
    {
      "inputs": [
        {
          "internalType": "uint256",
          "name": "courseId",
          "type": "uint256"
        },
        {
          "internalType": "address",
          "name": "student",
          "type": "address"
        }
      ],
      "name": "registerForCourse",
      "outputs": [],
      "stateMutability": "nonpayable",
      "type": "function"
    },
    {
      "inputs": [],
      "name": "renounceOwnership",
      "outputs": [],
      "stateMutability": "nonpayable",
      "type": "function"
    },
    {
      "inputs": [
        {
          "internalType": "address",
          "name": "student",
          "type": "address"
        },
        {
          "internalType": "uint256",
          "name": "amount",
          "type": "uint256"
        }
      ],
      "name": "rewardStudent",
      "outputs": [],
      "stateMutability": "nonpayable",
      "type": "function"
    },
    {
      "inputs": [
        {
          "internalType": "address",
          "name": "from",
          "type": "address"
        },
        {
          "internalType": "address",
          "name": "to",
          "type": "address"
        },
        {
          "internalType": "uint256",
          "name": "tokenId",
          "type": "uint256"
        }
      ],
      "name": "safeTransferFrom",
      "outputs": [],
      "stateMutability": "nonpayable",
      "type": "function"
    },
    {
      "inputs": [
        {
          "internalType": "address",
          "name": "from",
          "type": "address"
        },
        {
          "internalType": "address",
          "name": "to",
          "type": "address"
        },
        {
          "internalType": "uint256",
          "name": "tokenId",
          "type": "uint256"
        },
        {
          "internalType": "bytes",
          "name": "data",
          "type": "bytes"
        }
      ],
      "name": "safeTransferFrom",
      "outputs": [],
      "stateMutability": "nonpayable",
      "type": "function"
    },
    {
      "inputs": [
        {
          "internalType": "address",
          "name": "operator",
          "type": "address"
        },
        {
          "internalType": "bool",
          "name": "approved",
          "type": "bool"
        }
      ],
      "name": "setApprovalForAll",
      "outputs": [],
      "stateMutability": "nonpayable",
      "type": "function"
    },
    {
      "inputs": [
        {
          "internalType": "address",
          "name": "nft",
          "type": "address"
        }
      ],
      "name": "setCertificateNFT",
      "outputs": [],
      "stateMutability": "nonpayable",
      "type": "function"
    },
    {
      "inputs": [
        {
          "internalType": "address",
          "name": "",
          "type": "address"
        },
        {
          "internalType": "uint256",
          "name": "",
          "type": "uint256"
        }
      ],
      "name": "studentCourses",
      "outputs": [
        {
          "internalType": "uint256",
          "name": "",
          "type": "uint256"
        }
      ],
      "stateMutability": "view",
      "type": "function"
    },
    {
      "inputs": [
        {
          "internalType": "address",
          "name": "",
          "type": "address"
        },
        {
          "internalType": "uint256",
          "name": "",
          "type": "uint256"
        }
      ],
      "name": "studentSessionAttendance",
      "outputs": [
        {
          "internalType": "uint256",
          "name": "",
          "type": "uint256"
        }
      ],
      "stateMutability": "view",
      "type": "function"
    },
    {
      "inputs": [
        {
          "internalType": "address",
          "name": "",
          "type": "address"
        }
      ],
      "name": "studentTokens",
      "outputs": [
        {
          "internalType": "uint256",
          "name": "",
          "type": "uint256"
        }
      ],
      "stateMutability": "view",
      "type": "function"
    },
    {
      "inputs": [
        {
          "internalType": "uint256",
          "name": "",
          "type": "uint256"
        }
      ],
      "name": "students",
      "outputs": [
        {
          "internalType": "address",
          "name": "",
          "type": "address"
        }
      ],
      "stateMutability": "view",
      "type": "function"
    },
    {
      "inputs": [
        {
          "internalType": "bytes4",
          "name": "interfaceId",
          "type": "bytes4"
        }
      ],
      "name": "supportsInterface",
      "outputs": [
        {
          "internalType": "bool",
          "name": "",
          "type": "bool"
        }
      ],
      "stateMutability": "view",
      "type": "function"
    },
    {
      "inputs": [],
      "name": "symbol",
      "outputs": [
        {
          "internalType": "string",
          "name": "",
          "type": "string"
        }
      ],
      "stateMutability": "view",
      "type": "function"
    },
    {
      "inputs": [
        {
          "internalType": "uint256",
          "name": "tokenId",
          "type": "uint256"
        }
      ],
      "name": "tokenURI",
      "outputs": [
        {
          "internalType": "string",
          "name": "",
          "type": "string"
        }
      ],
      "stateMutability": "view",
      "type": "function"
    },
    {
      "inputs": [
        {
          "internalType": "address",
          "name": "from",
          "type": "address"
        },
        {
          "internalType": "address",
          "name": "to",
          "type": "address"
        },
        {
          "internalType": "uint256",
          "name": "tokenId",
          "type": "uint256"
        }
      ],
      "name": "transferFrom",
      "outputs": [],
      "stateMutability": "nonpayable",
      "type": "function"
    },
    {
      "inputs": [
        {
          "internalType": "address",
          "name": "newOwner",
          "type": "address"
        }
      ],
      "name": "transferOwnership",
      "outputs": [],
      "stateMutability": "nonpayable",
      "type": "function"
    },
    {
      "inputs": [
        {
          "internalType": "uint256",
          "name": "courseId",
          "type": "uint256"
        },
        {
          "internalType": "string[]",
          "name": "newContentUris",
          "type": "string[]"
        }
      ],
      "name": "updateCourseContent",
      "outputs": [],
      "stateMutability": "nonpayable",
      "type": "function"
    },
    {
      "inputs": [
        {
          "internalType": "uint256",
          "name": "courseId",
          "type": "uint256"
        },
        {
          "internalType": "string",
          "name": "newMetadataUri",
          "type": "string"
        }
      ],
      "name": "updateCourseMetadata",
      "outputs": [],
      "stateMutability": "nonpayable",
      "type": "function"
    },
    {
      "inputs": [
        {
          "internalType": "uint256",
          "name": "courseId",
          "type": "uint256"
        },
        {
          "internalType": "uint256",
          "name": "newRating",
          "type": "uint256"
        }
      ],
      "name": "updateCourseRating",
      "outputs": [],
      "stateMutability": "nonpayable",
      "type": "function"
    },
    {
      "inputs": [
        {
          "internalType": "uint256",
          "name": "courseId",
          "type": "uint256"
        },
        {
          "internalType": "enum CourseModule.CourseStatus",
          "name": "newStatus",
          "type": "uint8"
        }
      ],
      "name": "updateCourseStatus",
      "outputs": [],
      "stateMutability": "nonpayable",
      "type": "function"
    },
    {
      "inputs": [
        {
          "internalType": "uint256",
          "name": "courseId",
          "type": "uint256"
        },
        {
          "internalType": "enum CourseModule.CourseType",
          "name": "newType",
          "type": "uint8"
        }
      ],
      "name": "updateCourseType",
      "outputs": [],
      "stateMutability": "nonpayable",
      "type": "function"
    },
    {
      "inputs": [
        {
          "internalType": "address",
          "name": "newImplementation",
          "type": "address"
        },
        {
          "internalType": "bytes",
          "name": "data",
          "type": "bytes"
        }
      ],
      "name": "upgradeToAndCall",
      "outputs": [],
      "stateMutability": "payable",
      "type": "function"
    },
    {
      "inputs": [],
      "name": "version",
      "outputs": [
        {
          "internalType": "string",
          "name": "",
          "type": "string"
        }
      ],
      "stateMutability": "pure",
      "type": "function"
    },
    {
      "inputs": [],
      "name": "withdraw",
      "outputs": [],
      "stateMutability": "nonpayable",
      "type": "function"
    }
  ],
  "bytecode": "0x60a0806040523461002a57306080526155079081610030823960805181818161287c01526129120152f35b600080fdfe608080604052600436101561001357600080fd5b60003560e01c90816301ffc9a714613e645750806304e48bd114613cad57806306ead22e14613c5257806306fdde0314613ba1578063077f224a14613790578063081812fc14613745578063095ea7b31461365e5780630a5776bb146134d05780630b91e28d1461320c57806310f2672614613126578063115d33881461301657806313065a0f14612cc9578063158dec4f14612fa657806315f6febd14612f1057806316edbe5414612eaf578063189a0f2714612e0b5780631ae4815e14612d6657806323b872dd14612d4f5780632af47f4614612d155780632b6feb5014612cc95780633218e57914612bea5780633c9f93b114610c0f5780633ccfd60b14612b2a57806342842e0e14612b0257806348147ea414612aa65780634f1ef286146128d457806352d1902d1461286957806354fd4d501461282357806356e4bee8146127ba5780635b2babd01461279f5780635cc6fa711461273a5780635fb86e23146126c057806360dd60e31461263a5780636352211e1461260a57806366055159146125ec5780636899316d1461137b5780636aee02d3146125d05780636e274a34146125865780636ecd89bb1461255c57806370a0823114612507578063715018a61461249d578063778375cd146123a6578063798cdb461461208c5780637bb2883814611e9d5780637bf1f66f14611e615780637d92529214611e1857806382f7d39214611dd957806388eda5b214611a0b5780638a954a0314610c515780638bd7a3331461187b5780638c572bbe146118285780638da5cb5b146117f25780638f58c3b21461152157806391aec72a146114f85780639281a96d146114ab57806395d89b41146113c35780639bd4eccd1461137b578063a22cb465146112d2578063a8315343146111e7578063ac412b11146110c0578063ad3cb1cc1461107a578063ade4f8a214611000578063aec9d1b814610f84578063b60da9b014610e70578063b88d4fde14610e22578063bc3a2ff114610d39578063c87b56dd14610ce6578063c8deced614610c9e578063c976831514610c51578063cd0e35b914610c14578063d40761e414610c0f578063d723f2e714610b7c578063d735d7cd14610994578063e0574e3f146108cf578063e334008714610885578063e985e9c514610837578063f2fde38b1461080c578063fa346d8b1461073a578063faf8e8b41461064b578063fc92506014610611578063fd8abc2d146105ca578063fd95cc51146105725763ff6785e0146103b057600080fd5b3461056d576103be3661439c565b9080151580610561575b6103d1906145f1565b80600052600191602083815260018060a01b0360096040600020015416330361051d578260005283815283600b8060406000200180549060008155816104ac575b5050906000905b61045a575b60405183815285907f5f3ecb61e63394d34a984597179063028a9e892ab46083cc23665bc92a81137a908061045581880189613f17565b0390a2005b83518110156104a75790858261047d6104748395886144b3565b51511515614db8565b8660005281855261049f8360406000200161049883896144b3565b5190614e02565b019091610419565b61041e565b6000528284600020918201915b8281106104c65750610412565b6104d081546144c7565b806104df575b500183906104b9565b601f908181116001146104f9575050600081555b386104d6565b610514600092848452898420920160051c82018583016146b0565b818355556104f3565b6084906040519062461bcd60e51b8252600482015260296024820152600080516020615432833981519152604482015268194818dbdb9d195b9d60ba1b6064820152fd5b506000548111156103c8565b600080fd5b3461056d57604036600319011261056d5761058b6140ed565b6001600160a01b031660009081526008602052604090208054602435919082101561056d576020916105bc91613fe5565b90546040519160031b1c8152f35b3461056d576105d8366141a8565b91600052601160205260406000209060018060a01b03166000526020526040600020906000526020526020604060002054604051908152f35b3461056d57602036600319011261056d576001600160a01b036106326140ed565b1660005260036020526020604060002054604051908152f35b3461056d5761065936614176565b8115158061072e575b61066b906145f1565b81600052600160205261068f60018060a01b03600960406000200154163314614d5d565b61069b81511515614db8565b8160005260016020526106b581600b604060002001614e02565b816000526001602052600b604060002001546000198101908111610718577ff04740232fc267e81c1f5142df00ffab820e31dcb32d747e5af68a744c279cee9161070d91604051928392604084526040840190613ef2565b9060208301520390a2005b634e487b7160e01b600052601160045260246000fd5b50600054821115610662565b3461056d57610748366141a8565b61075181614306565b9061075f604051928361406a565b80825261076b81614306565b6020948386019491601f190136863760005b8381106107c957868587604051928392818401908285525180915260408401929160005b8281106107b057505050500390f35b83511515855286955093810193928101926001016107a1565b60008281526010885260408082206001600160a01b0386168352895280822083835289529020546001919060ff1661080182886144b3565b90151590520161077d565b3461056d57602036600319011261056d576108356108286140ed565b6108306151ad565b615002565b005b3461056d57604036600319011261056d576108506140ed565b61086161085b614103565b9161420b565b9060018060a01b0316600052602052602060ff604060002054166040519015158152f35b3461056d57604036600319011261056d5761089e6140ed565b6001600160a01b03166000908152600f602052604090208054602435919082101561056d576020916105bc91613fe5565b3461056d57602036600319011261056d576108e8614fce565b50600435600052600080516020615412833981519152602052610990604060002060056109776040519261091b84614019565b8054845260018060a01b038060018301541660208601526002820154166040850152600381015460608501526040516109628161095b8160048601614501565b038261406a565b608085015261095b6040518094819301614501565b60a08201526040519182916020835260208301906143cb565b0390f35b3461056d5760208060031936011261056d576109ea6109b16140ed565b6001600160a01b031660009081527f0c2c9b5e6b5a5c9d2d2f8d3c1f73b7f1c3b4d5e6f7a8b9c0d1e2f3a4b5c6d7ea6020526040902090565b604051808284829454938481520190600052846000209260005b86828210610b665784610a198186038261406a565b8051610a3d610a2782614306565b91610a35604051938461406a565b808352614306565b601f19018360005b828110610b505750505060005b8251811015610af25780610a68600192856144b3565b51600052600080516020615412833981519152855260406000206005610ad160405192610a9484614019565b80548452858060a01b038087830154168a8601526002820154166040850152600381015460608501526040516109628161095b8160048601614501565b60a0820152610ae082856144b3565b52610aeb81846144b3565b5001610a52565b604080518581528351818701819052600092600582901b830181019186890191899085015b828710610b245785850386f35b909192938280610b40600193603f198a820301865288516143cb565b9601920196019592919092610b17565b610b58614fce565b828286010152018490610a45565b8554845260019586019587955093019201610a04565b3461056d57600036600319011261056d57600054610b9981614428565b906001805b82811115610bbc576040516020808252819061099090820187613f17565b8060005281602052816040600020019060001981019181831161071857610c0a9261095b610bf3610c049360405192838092614501565b610bfd82896144b3565b52866144b3565b506144a4565b610b9e565b614279565b3461056d57600036600319011261056d5760207f0c2c9b5e6b5a5c9d2d2f8d3c1f73b7f1c3b4d5e6f7a8b9c0d1e2f3a4b5c6d7e854604051908152f35b3461056d57604036600319011261056d57610c6a614103565b600435600052600a60205260406000209060018060a01b0316600052602052602060ff604060002054166040519015158152f35b3461056d57604036600319011261056d576001600160a01b03610cbf6140ed565b16600052600c60205260406000206024356000526020526020604060002054604051908152f35b3461056d57602036600319011261056d57610d02600435615076565b506000604051610d1181614034565b52610990604051610d2181614034565b60008152604051918291602083526020830190613ef2565b3461056d57604036600319011261056d57602435600435600382101561056d5780151580610e16575b610d6b906145f1565b6000818152600160205260409020600901546001600160a01b03163303610dcd57806000526001602052610da682600c604060002001614d20565b7f5169868b2c51c55c15085f9ccfd860c4c1f886bd83c51a3e37e1663f477d3eb5600080a3005b60405162461bcd60e51b815260206004820152602d602482015260008051602061543283398151915260448201526c6520636f75727365207479706560981b6064820152608490fd5b50600054811115610d62565b3461056d57608036600319011261056d57610e3b6140ed565b610e43614103565b606435916001600160401b03831161056d57610e666108359336906004016140a6565b9160443591614ea3565b3461056d57610e7e366142f0565b908015158080610f78575b610e92906145f1565b81600052600a60205260406000203360005260205260ff6040600020541615610f335780610f27575b610ec4906145f1565b60328211610ee2576000526001602052600660406000200155600080f35b60405162461bcd60e51b815260206004820152601f60248201527f526174696e67206d757374206265206265747765656e203020616e64203530006044820152606490fd5b50600054811115610ebb565b60405162461bcd60e51b815260206004820152601f60248201527f4f6e6c7920656e726f6c6c65642073747564656e74732063616e2072617465006044820152606490fd5b50600054821115610e89565b3461056d57600036600319011261056d57336000526020600f8152604060002090604051808383829554938481520190600052836000209260005b85828210610fea57505050610fd69250038361406a565b610990604051928284938452830190613fb1565b8554845260019586019588955093019201610fbf565b3461056d57602036600319011261056d5761083560043533600052600660205261103160ff60406000205416614c37565b80600052600b60205260016040600020015461104e81151561482a565b600052600a60205260406000203360005260205261107360ff6040600020541661486a565b33906151e6565b3461056d57600036600319011261056d5761099060405161109a8161404f565b60058152640352e302e360dc1b6020820152604051918291602083526020830190613ef2565b3461056d57602036600319011261056d576110d96140ed565b6110e16151ad565b6001600160a01b03166000818152600360205260409020546111a8578060005260036020526001604060002055600454600160401b81101561119257600181018060045581101561117c57600460009081526000805160206154528339815191529190910180546001600160a01b031916831790557fc5fd418fcf51f4219b1f697d75c015aa2cabe33f61d6e87f477d5ca032df2ca19080a2005b634e487b7160e01b600052603260045260246000fd5b634e487b7160e01b600052604160045260246000fd5b60405162461bcd60e51b81526020600482015260176024820152764c6563747572657220616c72656164792065786973747360481b6044820152606490fd5b3461056d57604036600319011261056d57602435600435600282101561056d57801515806112c6575b611219906145f1565b6000818152600160205260409020600901546001600160a01b0316330361127b5780600052600160205261125482600c604060002001614c18565b7fa6a22954c37b3d13b6b94ddf132e33a30f8312c1cfbdf1018a1a9742dd1c9301600080a3005b60405162461bcd60e51b815260206004820152602f602482015260008051602061543283398151915260448201526e6520636f757273652073746174757360881b6064820152608490fd5b50600054811115611210565b3461056d57604036600319011261056d576112eb6140ed565b602435908115159081830361056d576001600160a01b031691821561136257611334906113173361420b565b8460005260205260406000209060ff801983541691151516179055565b6040519081527f17307eab39ab6107e8899845ad3d59bd9653f200f220920489ca2b5937696c3160203392a3005b604051630b61174360e31b815260048101849052602490fd5b3461056d57604036600319011261056d57611394614103565b600435600052601260205260406000209060018060a01b03166000526020526020604060002054604051908152f35b3461056d57600036600319011261056d576040517f80bb2b638cc20bc4d0a60d66940f3ab4a00c1d7b313497ca82fb0b4ab00793018054826000611406836144c7565b928383526020946001918660018216918260001461148957505060011461144a575b50506114369250038361406a565b610990604051928284938452830190613ef2565b85925060005281600020906000915b85831061147157505061143693508201018580611428565b80548389018501528794508693909201918101611459565b925093505061143694915060ff191682840152151560051b8201018580611428565b3461056d57602036600319011261056d57600435801515806114ec575b6114d1906145f1565b60005260016020526020600b60406000200154604051908152f35b506000548111156114c8565b3461056d57600036600319011261056d576013546040516001600160a01b039091168152602090f35b3461056d57604036600319011261056d5760043561153d614103565b6115456152a2565b811515806117e6575b611557906145f1565b60018060a01b03808216928360005260206006815261157d60ff604060002054166147d2565b81600052600a815260406000208560005281526115a260ff6040600020541615614e47565b816000526001815260406000206040516115bb81613ffd565b815481526040516115d38161095b8160018701614501565b838201526040516115eb8161095b8160028701614501565b60408201526003820154606082015261160660048301614631565b608082015260405161161f8161095b8160058701614501565b60a0820152600682015460c08201526116a960078301549160e081019283526101a060ff600c60088701549661010085019788528a6009820154166101208601526040516116748161095b81600a8601614501565b610140860152611686600b8201614631565b610160860152015461169e8282166101808601614698565b60081c1691016146a4565b51905111156117b15781600052600a815260406000208560005281526116d760ff6040600020541615614e47565b84600052600881526116ed8260406000206150be565b6000828152600982526040902080549091600160401b8210156111925761179d9661178895611745847fc65c83424b9743cd85950d4d05ef8ab686409eafe1bf490c528b98f4eb800048966001604097018155613fe5565b819291549060031b9184831b921b191617905584600052600a82528260002081600052825282600020600160ff19825416179055825191858352820152a1614be0565b6117936014546144a4565b90816014556150f3565b600160008051602061549283398151915255005b6064906040519062461bcd60e51b82526004820152600e60248201526d10dbdd5c9cd9481a5cc8199d5b1b60921b6044820152fd5b5060005482111561154e565b3461056d57600036600319011261056d576000805160206153d2833981519152546040516001600160a01b039091168152602090f35b3461056d57602036600319011261056d57600435600052600b6020526080604060002080549060018101549060ff6003600283015492015416916040519384526020840152604083015215156060820152f35b3461056d576118893661439c565b811515806119ff575b61189b906145f1565b8160005260016020918183526118c260018060a01b03600960406000200154163314614d5d565b8051156119af576000825b61196a575b50509082600052818152600b60406000200190604051928184018285528354809152604085019260408260051b8701019460005280600020936000905b83821061193f57887f5f3ecb61e63394d34a984597179063028a9e892ab46083cc23665bc92a81137a8989038aa2005b90919293838161195a819899603f198c82030186528a614501565b980192019201909493929161190f565b90829181518110156119a957806119856104748593856144b3565b866000528186526119a1600b60406000200161049883866144b3565b0190916118cd565b506118d2565b60405162461bcd60e51b815260048101849052602260248201527f436f6e74656e7420555249732061727261792063616e6e6f7420626520656d70604482015261747960f01b6064820152608490fd5b50600054821115611892565b3461056d5761010036600319011261056d576001600160401b0360043581811161056d57611a3d9036906004016140a6565b9060443581811161056d57611a569036906004016140a6565b9160643582811161056d57611a6f90369060040161431d565b60843583811161056d57611a879036906004016140a6565b9260a43590811161056d57611aa09036906004016140a6565b90600360e435101561056d57336000526003602052611ac56040600020541515614597565b6040516020818551611ada8183858a01613ecf565b8101600281520301902054611d8857611af46000546144a4565b938460005560405191611b0683614034565b6000835260405196611b1788613ffd565b86885285602089015260408801526024356060880152608087015260a0860152600060c0860152600060e086015260c4356101008601523361012086015281610140860152610160850152611b7260e4356101808601614698565b60006101a0850152826000526001602052604060002084518155611b9d6020860151600183016146c7565b611bae6040860151600283016146c7565b60608501516003820155600481016080860151906020825192611bd18484614c8f565b019060005260206000206000915b838310611d6b5750505050611bfb60a0860151600583016146c7565b60c0850151600682015560e0850151600782015561010085015160088201556101208501516009820180546001600160a01b0319166001600160a01b0392909216919091179055610140850151611c5590600a83016146c7565b600b8101610160860151906020825192611c6f8484614c8f565b019060005260206000206000915b838310611d4e5750505050600c0193610180810151906003821015611d3857611ca96101a09287614d20565b0151936002851015611d3857611d158492611ce76020977fd2e3e28143fcecc8ad47c77faf891ac5b154d3b78243d7658ed60a5767c79e5294614c18565b8360405188818851611cfc8183858d01613ecf565b8101600281520301902055604051918291339683614d38565b0390a3611d30611d266014546144a4565b80601455336150f3565b604051908152f35b634e487b7160e01b600052602160045260246000fd5b6001602082611d5f839451866146c7565b01920192019190611c7d565b6001602082611d7c839451866146c7565b01920192019190611bdf565b60405162461bcd60e51b8152602060048201526024808201527f436f7572736520776974682074686973206e616d6520616c72656164792065786044820152636973747360e01b6064820152608490fd5b3461056d57602036600319011261056d576001600160a01b03611dfa6140ed565b166000526006602052602060ff604060002054166040519015158152f35b3461056d57602036600319011261056d5760043560045481101561056d57600460005260008051602061545283398151915201546040516001600160a01b039091168152602090f35b3461056d57602036600319011261056d576001600160a01b03611e826140ed565b16600052600360205260206040600020541515604051908152f35b3461056d57611eab366142f0565b90611eb46152a2565b33600052602060068152611ecf60ff60406000205416614c37565b81151580612080575b611ee1906145f1565b81600052600a81526040600020336000528152611f0560ff6040600020541661486a565b8160005260018152600b604060002001548310156120445781600052601081526040600020336000528152604060002083600052815260ff60406000205416612004578160005260108152604060002033600052815260406000208360005281526040600020600160ff1982541617905581600052601181526040600020336000528152604060002083600052815242604060002055816000526012815260406000203360005281526040600020611fbd81546144a4565b905560405192835242908301527f94f9b84ca82e1a1d699e72827a6341612b09b57de733c9d3c8d37af2ef9bcdad60403393a3600160008051602061549283398151915255005b6064906040519062461bcd60e51b82526004820152601960248201527810dbdb9d195b9d08185b1c9958591e4818dbdb5c1b195d1959603a1b6044820152fd5b6064906040519062461bcd60e51b825260048201526015602482015274092dcecc2d8d2c840c6dedce8cadce840d2dcc8caf605b1b6044820152fd5b50600054821115611ed8565b3461056d5760031960603682011261056d576120a66140ed565b602491906001600160401b03833581811161056d576120c99036906004016140a6565b9060443590811161056d576120e29036906004016140a6565b33600052602093600385526120fd6040600020541515614597565b6001600160a01b0384811660008181526006885260409020549092919060ff1615612367578215612331578451156122fc577f0c2c9b5e6b5a5c9d2d2f8d3c1f73b7f1c3b4d5e6f7a8b9c0d1e2f3a4b5c6d7e895865496600188018098116122e75791612217886122128796946109b1839d9e97998f9d9a8c8f8f61220a9189600595556040519561218e87614019565b8a87528187019081526040870190338252600080516020615412833981519152606089019342855260808a0195865260a08a019788528d600052526040600020975188558d600189019151169060018060a01b031991828254161790558d600289019251169082541617905551600386015551600485016146c7565b5191016146c7565b6150be565b8684867f2ec0f811294a1373db1a1f85e0a119a631d40f3e1d1bbba7776fc28ef0bd31f86040518061224b8c339783614d38565b0390a4601354169283612263575b8785604051908152f35b6122aa600092899761229b6040519a8b998a98899763130e6b2b60e01b89526004890152870152608060448701526084860190613ef2565b91848303016064850152613ef2565b03925af16122be575b808381808080612259565b813d83116122e0575b6122d1818361406a565b8101031261056d5781836122b3565b503d6122c7565b89634e487b7160e01b60005260116004526000fd5b60405162461bcd60e51b815260048101889052600e818a01526d151a5d1b19481c995c5d5a5c995960921b6044820152606490fd5b60405162461bcd60e51b815260048101889052600f818a01526e125b9d985b1a59081cdd1d59195b9d608a1b6044820152606490fd5b60405162461bcd60e51b8152600481018890526018818a015277139bdd0818481c9959da5cdd195c9959081cdd1d59195b9d60421b6044820152606490fd5b3461056d57602036600319011261056d5760043580151580612491575b6123cc906145f1565b6000818152600160205260409020600901546001600160a01b03163303612434578060019160005281602052600c60406000200161010061ff00198254161790557fa6a22954c37b3d13b6b94ddf132e33a30f8312c1cfbdf1018a1a9742dd1c9301600080a3005b60405162461bcd60e51b815260206004820152602f60248201527f4f6e6c7920636f7572736520696e7374727563746f722063616e206d61726b2060448201526e18dbdd5c9cd948185cc8195b991959608a1b6064820152608490fd5b506000548111156123c3565b3461056d57600036600319011261056d576124b66151ad565b6000805160206153d283398151915280546001600160a01b031981169091556000906001600160a01b03167f8be0079c531659141344cd1fd0a4f28419497f9722a3daafe3b4186f6b6457e08280a3005b3461056d57602036600319011261056d576125206140ed565b6001600160a01b038116156125435761253a6020916141d2565b54604051908152f35b6040516322718ad960e21b815260006004820152602490fd5b3461056d57600036600319011261056d573360005260086020526020604060002054604051908152f35b3461056d57612594366142f0565b9060005260096020526040600020805482101561056d576020916125b791613fe5565b905460405160039290921b1c6001600160a01b03168152f35b3461056d57602036600319011261056d57610835600435614be0565b3461056d57600036600319011261056d576020600054604051908152f35b3461056d57602036600319011261056d576020612628600435615076565b6040516001600160a01b039091168152f35b3461056d5760208060031936011261056d5760043560005260098152604060002090604051808383829554938481520190600052836000209260005b858282106126a15750505061268d9250038361406a565b610990604051928284938452830190613f74565b85546001600160a01b0316845260019586019588955093019201612676565b3461056d576126ce366141a8565b906126d882614472565b9260005b8381106126f9576040516020808252819061099090820188613fb1565b600190826000526020601181526040600020838060a01b0386166000528152604060002090826000525260406000205461273382886144b3565b52016126dc565b3461056d5760208060031936011261056d576127576109b16140ed565b90604051808383829554938481520190600052836000209260005b8582821061278957505050610fd69250038361406a565b8554845260019586019588955093019201612772565b3461056d57600036600319011261056d576020611d30614a74565b3461056d5760208060031936011261056d57600435600052600e8152604060002090604051808383829554938481520190600052836000209260005b8582821061280d57505050610fd69250038361406a565b85548452600195860195889550930192016127f6565b3461056d57600036600319011261056d576109906040516128438161404f565b60058152640312e302e360dc1b6020820152604051918291602083526020830190613ef2565b3461056d57600036600319011261056d577f00000000000000000000000000000000000000000000000000000000000000006001600160a01b031630036128c25760206040516000805160206153f28339815191528152f35b60405163703e46dd60e11b8152600490fd5b604036600319011261056d576128e86140ed565b6024356001600160401b03811161056d576129079036906004016140a6565b906001600160a01b037f00000000000000000000000000000000000000000000000000000000000000008116308114908115612a8a575b506128c25761294b6151ad565b8116906040516352d1902d60e01b8152602081600481865afa60009181612a56575b5061298b57604051634c9c8ce360e01b815260048101849052602490fd5b6000805160206153f283398151915292919290818103612a3e5750823b15612a255780546001600160a01b03191682179055604051907fbc7cd75a20ee27fd9adebab32041f755214dbc6bffa90cc0225b39da2e5c2d3b600080a2825115612a0c575060008083602061083595519101845af4612a066152d2565b9161536e565b91505034612a1657005b63b398979f60e01b8152600490fd5b604051634c9c8ce360e01b815260048101839052602490fd5b60249060405190632a87526960e21b82526004820152fd5b9091506020813d602011612a82575b81612a726020938361406a565b8101031261056d5751908561296d565b3d9150612a65565b9050816000805160206153f2833981519152541614158461293e565b3461056d57602036600319011261056d576004356001600160401b03811161056d57612aef6020612adc819336906004016140a6565b8160405193828580945193849201613ecf565b8101600281520301902054604051908152f35b3461056d57610835612b1336614244565b9060405192612b2184614034565b60008452614ea3565b3461056d57600036600319011261056d57612b436151ad565b478015612bae5760018060a01b036000805160206153d28339815191526000808080868686541682f115612ba2577feaff4b37086828766ad3268786972c0cd24259d4c87a80f9d3963a3c3d999b0d91602091541692604051908152a2005b6040513d6000823e3d90fd5b60405162461bcd60e51b81526020600482015260146024820152734e6f2066756e647320746f20776974686472617760601b6044820152606490fd5b3461056d57604036600319011261056d57612c036140ed565b3360005260209060038252612c1e6040600020541515614597565b6001600160a01b0316600081815260068352604090205490919060ff1615612c95577fd2bdfdee5627d669e777c948248fdcf31c1b210e6d815658acae79824bcaf9ef9082600052600581526040600020612c7c6024358254614a67565b90558260005260058152604060002054604051908152a2005b6064906040519062461bcd60e51b82526004820152600d60248201526c139bdd0818481cdd1d59195b9d609a1b6044820152fd5b3461056d57612cd7366141a8565b91600052601060205260406000209060018060a01b0316600052602052604060002090600052602052602060ff604060002054166040519015158152f35b3461056d57602036600319011261056d576001600160a01b03612d366140ed565b1660005260056020526020604060002054604051908152f35b3461056d57610835612d6036614244565b916148c2565b3461056d57604036600319011261056d57610835600435612d85614103565b90336000526003602052612d9f6040600020541515614597565b6001600160a01b038216600081815260066020526040902054612dc49060ff166147d2565b81600052600b602052600160406000200154612de181151561482a565b600052600a602052604060002090600052602052612e0660ff6040600020541661486a565b6151e6565b3461056d57602036600319011261056d57612e246140ed565b612e2c6151ad565b6001600160a01b03168015612e7457601380546001600160a01b031916821790557f9e3c9747b000bdd55a767a5126710d1412eb8046d8b6fd3e149aa1d2e7ce4a1f600080a2005b60405162461bcd60e51b8152602060048201526013602482015272496e76616c6964204e4654206164647265737360681b6044820152606490fd5b3461056d57602036600319011261056d5760043580151580612f04575b612ed5906145f1565b6000526001602052610990612ef0600b604060002001614631565b604051918291602083526020830190613f17565b50600054811115612ecc565b3461056d57600036600319011261056d57604051600780548083526000918252602080840193927fa66cc928b5edb82af9bd49922954155ab7b0942694bea4ce44661d9a8736c68892915b828210612f865761099085612f728189038261406a565b604051918291602083526020830190613f74565b83546001600160a01b031686529485019460019384019390910190612f5b565b3461056d57600036600319011261056d576040516004805480835260009182526020808401939260008051602061545283398151915292915b828210612ff65761099085612f728189038261406a565b83546001600160a01b031686529485019460019384019390910190612fdf565b3461056d5760208060031936011261056d576130306140ed565b33600052600382526130486040600020541515614597565b6001600160a01b0316600081815260068352604090205490919060ff166130e9576000828152600582526040808220829055600683529020805460ff1916600117905560075490600160401b82101561119257600182018060075582101561117c576007600052600020018160018060a01b03198254161790557f9edd7adc4f13e66b48b3f2ca14caea1707777c0c1376097b67151bc0efbb83f4600080a2005b6064906040519062461bcd60e51b82526004820152601660248201527553747564656e7420616c72656164792065786973747360501b6044820152fd5b3461056d5761313436614176565b81151580613200575b613146906145f1565b6000828152600160205260409020600901546001600160a01b031633036131ba576104557f47ed34406a736ccb7fe3e05f167e8de4143bd4f80ef2b29219bcb76a62fd2eb4918360005260016020526131a681600a6040600020016146c7565b604051918291602083526020830190613ef2565b60405162461bcd60e51b815260206004820152602a602482015260008051602061543283398151915260448201526965206d6574616461746160b01b6064820152608490fd5b5060005482111561313d565b3461056d57602036600319011261056d5760006101a060405161322e81613ffd565b828152606060208201526060604082015282606082015260606080820152606060a08201528260c08201528260e08201528261010082015282610120820152606061014082015260606101608201528261018082015201526004351515806134c2575b61329a906145f1565b600435600052600160205260406000206133a760ff600c604051936132be85613ffd565b805485526040516132d68161095b8160018601614501565b60208601526040516132ef8161095b8160028601614501565b60408601526003810154606086015261330a60048201614631565b60808601526040516133238161095b8160058601614501565b60a0860152600681015460c0860152600781015460e0860152600881015461010086015260098101546001600160a01b031661012086015260405161336f8161095b81600a8601614501565b610140860152613381600b8201614631565b61016086015201546133998282166101808601614698565b60081c166101a083016146a4565b60405190602082528051602083015261349161347961342c6134166133f66133e060208701516101c060408a01526101e0890190613ef2565b6040870151888203601f190160608a0152613ef2565b606086015160808801526080860151601f198883030160a0890152614119565b60a0850151868203601f190160c0880152613ef2565b60c084015160e086015260e084015161010086015261010084015161012086015260018060a01b0361012085015116610140860152610140840151601f1986830301610160870152613ef2565b610160830151848203601f1901610180860152614119565b90610180810151906003821015611d38576101a091828501520151906002821015611d385782916101c08301520390f35b506000546004351115613291565b3461056d5760208060031936011261056d5760043533600052600382526134fd6040600020541515614597565b80151580613652575b61350f906145f1565b80600052600182523360018060a01b03600960406000200154160361361157613539600d546144a4565b9081600d5560405160808101908082106001600160401b03831117611192576135ad9160405283815260038582018481526040830142815260608401916000835287600052600b895260406000209451855551600185015551600284015551151591019060ff801983541691151516179055565b80600052600e83526135c38260406000206150be565b33600052600f83526135d98260406000206150be565b817f9d810e0082f8a92772407ea94a85bc457d358804c697a63a434a5043bf81be7f84604051428152a3611d30611d266014546144a4565b60405162461bcd60e51b81526004810183905260196024820152782737ba103a34329031b7bab939b29034b739ba393ab1ba37b960391b6044820152606490fd5b50600054811115613506565b3461056d57604036600319011261056d576136776140ed565b60243561368381615076565b33151580613732575b80613712575b6136fa576001600160a01b039283169282918491167f8c5be1e5ebec7d5bd14f71427d1e84f3dd0314c0f7b2291e5b200ac8c7c3b925600080a460009081526000805160206154b28339815191526020526040902080546001600160a01b0319169091179055005b60405163a9fbf51f60e01b8152336004820152602490fd5b5061371c8161420b565b3360005260205260ff6040600020541615613692565b506001600160a01b03811633141561368c565b3461056d57602036600319011261056d5760043561376281615076565b506000526000805160206154b2833981519152602052602060018060a01b0360406000205416604051908152f35b3461056d57606036600319011261056d576001600160401b0360043581811161056d576137c19036906004016140a6565b60243582811161056d576137d99036906004016140a6565b906044356001600160a01b038116810361056d577ff0c57e16840df040f15088dc2f81fe391c3923bec73e23a9662efc9c229c6a009283549460ff8660401c16159381871696871580613b9a575b60018099149081613b90575b159081613b87575b50613b755767ffffffffffffffff1981168817875585613b56575b5061385f615302565b613867615302565b8051828111611192577f80bb2b638cc20bc4d0a60d66940f3ab4a00c1d7b313497ca82fb0b4ab00793009061389c82546144c7565b92601f93848111613b26575b50602090848311600114613ac4576138d9929160009183613ab9575b50508160011b916000199060031b1c19161790565b90555b8251918211611192577f80bb2b638cc20bc4d0a60d66940f3ab4a00c1d7b313497ca82fb0b4ab00793019261391184546144c7565b828111613a7f575b506020918311600114613a1657918061394e92613961969594600092613a0b5750508160011b916000199060031b1c19161790565b90555b613959615302565b610830615302565b613969615302565b613971615302565b613979615302565b8260008051602061549283398151915255613992615302565b61399a615302565b6139a2615302565b6139aa615302565b6139b2615302565b6000600d556139bf615302565b6139c7615302565b60006014556139d257005b805460ff60401b191690556040519081527fc7f505b2f371ae2175ee4913f4499e1f2633a7b5936321eed1cdaeb6115181d290602090a1005b0151905089806138c4565b9392918791601f1982169084600052806000209160005b818110613a67575096836139619810613a4e575b505050811b019055613951565b015160001960f88460031b161c19169055888080613a41565b8289015184558b959093019260209283019201613a2d565b613aaa908560005260206000208480870160051c82019260208810613ab0575b0160051c01906146b0565b88613919565b92508192613a9f565b015190508b806138c4565b8a9291601f1983169185600052816000209260005b818110613b0e57508411613af5575b505050811b0190556138dc565b015160001960f88460031b161c191690558a8080613ae8565b8284015185558e969094019360209384019301613ad9565b613b50908460005260206000208680860160051c82019260208710613ab0570160051c01906146b0565b8a6138a8565b68ffffffffffffffffff19166801000000000000000117865587613856565b60405163f92ee8a960e01b8152600490fd5b9050158961383b565b303b159150613833565b5085613827565b3461056d57600036600319011261056d576040517f80bb2b638cc20bc4d0a60d66940f3ab4a00c1d7b313497ca82fb0b4ab00793008054826000613be4836144c7565b9283835260209460019186600182169182600014611489575050600114613c135750506114369250038361406a565b85925060005281600020906000915b858310613c3a57505061143693508201018580611428565b80548389018501528794508693909201918101613c22565b3461056d57602036600319011261056d5760043560075481101561056d5760076000527fa66cc928b5edb82af9bd49922954155ab7b0942694bea4ce44661d9a8736c68801546040516001600160a01b039091168152602090f35b3461056d57600036600319011261056d57600054613cca81614428565b613cd382614306565b613ce0604051918261406a565b828152613cec83614306565b602090601f19013683830137613d0184614472565b90613d0b85614472565b92613d1586614428565b9560015b81811115613d8157613d4a876109908a613d738a613d658b613d578c8c6040519a8b9a60a08c5260a08c0190613f17565b918a8303908b0152613f74565b908782036040890152613fb1565b908582036060870152613fb1565b908382036080850152613f17565b806000526001845260016040600020019060001981019181831161071857613e5f9261095b613db9610c049360405192838092614501565b613dc3828c6144b3565b52613dce818b6144b3565b5060008381526001885260409020600901546001600160a01b0316613df382886144b3565b528260005260018752600860406000200154613e0f828a6144b3565b528260005260018752600760406000200154613e2b828b6144b3565b52826000526001875261095b613e4e600260406000200160405192838092614501565b613e58828d6144b3565b528a6144b3565b613d19565b3461056d57602036600319011261056d576004359063ffffffff60e01b821680920361056d576020916380ac58cd60e01b8114908115613ebe575b8115613ead575b5015158152f35b6301ffc9a760e01b14905083613ea6565b635b5e139f60e01b81149150613e9f565b60005b838110613ee25750506000910152565b8181015183820152602001613ed2565b90602091613f0b81518092818552858086019101613ecf565b601f01601f1916010190565b90808251908181526020809101926020808460051b8301019501936000915b848310613f465750505050505090565b9091929394958480613f64600193601f198682030187528a51613ef2565b9801930193019194939290613f36565b90815180825260208080930193019160005b828110613f94575050505090565b83516001600160a01b031685529381019392810192600101613f86565b90815180825260208080930193019160005b828110613fd1575050505090565b835185529381019392810192600101613fc3565b805482101561117c5760005260206000200190600090565b6101c081019081106001600160401b0382111761119257604052565b60c081019081106001600160401b0382111761119257604052565b602081019081106001600160401b0382111761119257604052565b604081019081106001600160401b0382111761119257604052565b90601f801991011681019081106001600160401b0382111761119257604052565b6001600160401b03811161119257601f01601f191660200190565b81601f8201121561056d578035906140bd8261408b565b926140cb604051948561406a565b8284526020838301011161056d57816000926020809301838601378301015290565b600435906001600160a01b038216820361056d57565b602435906001600160a01b038216820361056d57565b90808251908181526020809101926020808460051b8301019501936000915b8483106141485750505050505090565b9091929394958480614166600193601f198682030187528a51613ef2565b9801930193019194939290614138565b90604060031983011261056d5760043591602435906001600160401b03821161056d576141a5916004016140a6565b90565b606090600319011261056d57600435906024356001600160a01b038116810361056d579060443590565b6001600160a01b031660009081527f80bb2b638cc20bc4d0a60d66940f3ab4a00c1d7b313497ca82fb0b4ab00793036020526040902090565b6001600160a01b031660009081527f80bb2b638cc20bc4d0a60d66940f3ab4a00c1d7b313497ca82fb0b4ab00793056020526040902090565b606090600319011261056d576001600160a01b0390600435828116810361056d5791602435908116810361056d579060443590565b3461056d5760208060031936011261056d576001600160a01b0361429b6140ed565b1660005260088152604060002090604051808383829554938481520190600052836000209260005b858282106142da57505050610fd69250038361406a565b85548452600195860195889550930192016142c3565b604090600319011261056d576004359060243590565b6001600160401b0381116111925760051b60200190565b81601f8201121561056d5780359160209161433784614306565b93614345604051958661406a565b808552838086019160051b8301019280841161056d57848301915b8483106143705750505050505090565b82356001600160401b03811161056d578691614391848480948901016140a6565b815201920191614360565b90604060031983011261056d5760043591602435906001600160401b03821161056d576141a59160040161431d565b6141a59181518152602082015160018060a01b03809116602083015260408301511660408201526060820151606082015260a0614417608084015160c0608085015260c0840190613ef2565b9201519060a0818403910152613ef2565b9061443282614306565b61443f604051918261406a565b8281528092614450601f1991614306565b019060005b82811061446157505050565b806060602080938501015201614455565b9061447c82614306565b614489604051918261406a565b828152809261449a601f1991614306565b0190602036910137565b60001981146107185760010190565b805182101561117c5760209160051b010190565b90600182811c921680156144f7575b60208310146144e157565b634e487b7160e01b600052602260045260246000fd5b91607f16916144d6565b805460009392614510826144c7565b918282526020936001916001811690816000146145785750600114614537575b5050505050565b90939495506000929192528360002092846000945b83861061456457505050500101903880808080614530565b80548587018301529401938590820161454c565b60ff19168685015250505090151560051b010191503880808080614530565b1561459e57565b60405162461bcd60e51b815260206004820152602560248201527f4f6e6c79206c656374757265722063616e20706572666f726d2074686973206160448201526431ba34b7b760d91b6064820152608490fd5b156145f857565b60405162461bcd60e51b8152602060048201526011602482015270125b9d985b1a590818dbdd5c9cd9481251607a1b6044820152606490fd5b90815461463d81614306565b9260409361464e604051918261406a565b82815280946020809201926000526020600020906000935b85851061467557505050505050565b6001848192845161468a8161095b818a614501565b815201930194019391614666565b6003821015611d385752565b6002821015611d385752565b8181106146bb575050565b600081556001016146b0565b91909182516001600160401b038111611192576146e482546144c7565b601f8111614795575b50602080601f8311600114614730575081906147219394956000926147255750508160011b916000199060031b1c19161790565b9055565b0151905038806138c4565b90601f19831695846000526020600020926000905b88821061477d57505083600195969710614764575b505050811b019055565b015160001960f88460031b161c1916905538808061475a565b80600185968294968601518155019501930190614745565b6147c290836000526020600020601f840160051c810191602085106147c8575b601f0160051c01906146b0565b386146ed565b90915081906147b5565b156147d957565b60405162461bcd60e51b815260206004820152602360248201527f41646472657373206973206e6f74206120726567697374657265642073747564604482015262195b9d60ea1b6064820152608490fd5b1561483157565b60405162461bcd60e51b815260206004820152601160248201527014d95cdcda5bdb881b9bdd08199bdd5b99607a1b6044820152606490fd5b1561487157565b60405162461bcd60e51b815260206004820152602360248201527f53747564656e74206e6f7420656e726f6c6c656420696e207468697320636f7560448201526272736560e81b6064820152608490fd5b6001600160a01b0382811693918415614a4e57826000958187526000805160206154728339815191529586602052604097858982205416978892331515806149a8575b50906149377fddf252ad1be2c89b69c2b068fc378daa952ba7f163c4a11628f55a4df523b3ef939285614989576141d2565b8054600101905585825260205289812080546001600160a01b0319168517905580a416928383036149685750505050565b6064945051926364283d7b60e01b8452600484015260248301526044820152fd5b61499288615343565b61499b866141d2565b80546000190190556141d2565b91935091939450806149ff575b156149c65791879187949338614905565b8887896149e3576024915190637e27328960e01b82526004820152fd5b604491519063177e802f60e01b82523360048301526024820152fd5b503388148015614a32575b806149b557508683526000805160206154b283398151915260205233868a85205416146149b5565b50614a3c8861420b565b33845260205260ff8984205416614a0a565b604051633250574960e11b815260006004820152602490fd5b9190820180921161071857565b600090338252602060088152604092838120938051808685829854938481520190855285852092855b87828210614bca57505050614ab49250038661406a565b81809281955b8751871015614b8a57614acd87896144b3565b518352600e86528383209184518093849189825491828152019187528987209087905b8b818310614b6f5750505050614b149291614b0c91038561406a565b835190614a67565b90835b8351811015614b6157338552600c8852858520614b3482866144b3565b518652885260018686205414614b4d575b600101614b17565b95614b596001916144a4565b969050614b45565b509660019192500195614aba565b83955060019294839294548152019401920186939291614af0565b96509450919250508215614bc457606482029180830460641490151715614bb057500490565b634e487b7160e01b81526011600452602490fd5b91505090565b855484526001958601958b955093019201614a9d565b80151580614c0c575b614bf2906145f1565b6000526001602052600760406000200161472181546144a4565b50600054811115614be9565b906002811015611d385761ff0082549160081b169061ff001916179055565b15614c3e57565b60405162461bcd60e51b8152602060048201526024808201527f4f6e6c792073747564656e742063616e20706572666f726d20746869732061636044820152633a34b7b760e11b6064820152608490fd5b600160401b821161119257805491808255828110614cac57505050565b60009182526020906020832093840193015b838110614ccb5750505050565b8083614cd9600193546144c7565b80614ce7575b505001614cbe565b601f8082118514614cfe57505081555b8338614cdf565b614d1790848452868420920160051c82018583016146b0565b81835555614cf7565b906003811015611d385760ff80198354169116179055565b9091614d4f6141a593604084526040840190613ef2565b916020818403910152613ef2565b15614d6457565b60405162461bcd60e51b815260206004820152602660248201527f4f6e6c7920636f7572736520696e7374727563746f722063616e2061646420636044820152651bdb9d195b9d60d21b6064820152608490fd5b15614dbf57565b60405162461bcd60e51b815260206004820152601b60248201527a436f6e74656e74205552492063616e6e6f7420626520656d70747960281b6044820152606490fd5b8054600160401b81101561119257614e1f91600182018155613fe5565b919091614e3157614e2f916146c7565b565b634e487b7160e01b600052600060045260246000fd5b15614e4e57565b60405162461bcd60e51b815260206004820152602760248201527f53747564656e7420616c726561647920656e726f6c6c656420696e207468697360448201526620636f7572736560c81b6064820152608490fd5b9190614eb08282856148c2565b803b614ebd575b50505050565b614eff60018060a01b0380921694604051938493630a85bd0160e11b968786523360048701521660248501526044840152608060648401526084830190613ef2565b03906020816000938185885af190829082614f7e575b5050614f4d5782614f246152d2565b8051919082614f4657604051633250574960e11b815260048101839052602490fd5b6020915001fd5b6001600160e01b03191603614f66575038808080614eb7565b60249060405190633250574960e11b82526004820152fd5b909192506020813d602011614fc6575b81614f9b6020938361406a565b81010312614fc25751906001600160e01b031982168203614fbf5750903880614f15565b80fd5b5080fd5b3d9150614f8e565b60405190614fdb82614019565b606060a0836000815260006020820152600060408201526000838201528260808201520152565b6001600160a01b0390811690811561505d576000805160206153d283398151915280546001600160a01b031981168417909155167f8be0079c531659141344cd1fd0a4f28419497f9722a3daafe3b4186f6b6457e0600080a3565b604051631e4fbdf760e01b815260006004820152602490fd5b600081815260008051602061547283398151915260205260409020546001600160a01b03169081156150a6575090565b60249060405190637e27328960e01b82526004820152fd5b8054600160401b811015611192576150db91600182018155613fe5565b819291549060031b91821b91600019901b1916179055565b6001600160a01b03918183168015614a4e57600093828552600080516020615472833981519152908160205260408620541690615137821515958661519b576141d2565b805460010190558386526020526040852080546001600160a01b031916831790557fddf252ad1be2c89b69c2b068fc378daa952ba7f163c4a11628f55a4df523b3ef8580a46151835750565b602490604051906339e3563760e11b82526004820152fd5b6151a486615343565b61499b846141d2565b6000805160206153d2833981519152546001600160a01b031633036151ce57565b60405163118cdaa760e01b8152336004820152602490fd5b6000818152602092600b845260409061520660018385200154151561482a565b6001600160a01b0316808352600c855281832084845285528183205490949061526457848352600c815281832084845290528120600190557f9e5d24579183fa37d9de3c53c170caae77e5ea5a3ed2c66fdd356f590ff779f49080a3565b606491519062461bcd60e51b825260048201526019602482015278105d1d195b99185b98d948185b1c9958591e481b585c9ad959603a1b6044820152fd5b60008051602061549283398151915260028154146152c05760029055565b604051633ee5aeb560e01b8152600490fd5b3d156152fd573d906152e38261408b565b916152f1604051938461406a565b82523d6000602084013e565b606090565b60ff7ff0c57e16840df040f15088dc2f81fe391c3923bec73e23a9662efc9c229c6a005460401c161561533157565b604051631afcd79f60e31b8152600490fd5b60009081526000805160206154b28339815191526020526040902080546001600160a01b0319169055565b90615395575080511561538357602081519101fd5b60405163d6bda27560e01b8152600490fd5b815115806153c8575b6153a6575090565b604051639996b31560e01b81526001600160a01b039091166004820152602490fd5b50803b1561539e56fe9016d09d72d40fdae2fd8ceac6b6234c7706214fd39c1cd1e609a0528c199300360894a13ba1a3210667c828492db98dca3e2076cc3735a920a3ca505d382bbc0c2c9b5e6b5a5c9d2d2f8d3c1f73b7f1c3b4d5e6f7a8b9c0d1e2f3a4b5c6d7e94f6e6c7920636f7572736520696e7374727563746f722063616e2075706461748a35acfbc15ff81a39ae7d344fd709f28e8600b4aa8c65c6b64bfe7fe36bd19b80bb2b638cc20bc4d0a60d66940f3ab4a00c1d7b313497ca82fb0b4ab00793029b779b17422d0df92223018b32b4d1fa46e071723d6817e2486d003becc55f0080bb2b638cc20bc4d0a60d66940f3ab4a00c1d7b313497ca82fb0b4ab0079304a26469706673582212207f270a4164903cb5393c143797df2edb50d981fead959375d1d68f9b746b7d9764736f6c63430008160033",
  "linkReferences": {},
  "deployedLinkReferences": {}
}