{
  "_format": "hh-sol-artifact-1",
  "contractName": "Celorean",
  "sourceName": "contracts/Celorean.sol",
  "abi": [
    {
      "inputs": [
        {
          "internalType": "address",
          "name": "target",
          "type": "address"
        }
      ],
      "name": "AddressEmptyCode",
      "type": "error"
    },
    {
      "inputs": [
        {
          "internalType": "address",
          "name": "implementation",
          "type": "address"
        }
      ],
      "name": "ERC1967InvalidImplementation",
      "type": "error"
    },
    {
      "inputs": [],
      "name": "ERC1967NonPayable",
      "type": "error"
    },
    {
      "inputs": [
        {
          "internalType": "address",
          "name": "sender",
          "type": "address"
        },
        {
          "internalType": "uint256",
          "name": "tokenId",
          "type": "uint256"
        },
        {
          "internalType": "address",
          "name": "owner",
          "type": "address"
        }
      ],
      "name": "ERC721IncorrectOwner",
      "type": "error"
    },
    {
      "inputs": [
        {
          "internalType": "address",
          "name": "operator",
          "type": "address"
        },
        {
          "internalType": "uint256",
          "name": "tokenId",
          "type": "uint256"
        }
      ],
      "name": "ERC721InsufficientApproval",
      "type": "error"
    },
    {
      "inputs": [
        {
          "internalType": "address",
          "name": "approver",
          "type": "address"
        }
      ],
      "name": "ERC721InvalidApprover",
      "type": "error"
    },
    {
      "inputs": [
        {
          "internalType": "address",
          "name": "operator",
          "type": "address"
        }
      ],
      "name": "ERC721InvalidOperator",
      "type": "error"
    },
    {
      "inputs": [
        {
          "internalType": "address",
          "name": "owner",
          "type": "address"
        }
      ],
      "name": "ERC721InvalidOwner",
      "type": "error"
    },
    {
      "inputs": [
        {
          "internalType": "address",
          "name": "receiver",
          "type": "address"
        }
      ],
      "name": "ERC721InvalidReceiver",
      "type": "error"
    },
    {
      "inputs": [
        {
          "internalType": "address",
          "name": "sender",
          "type": "address"
        }
      ],
      "name": "ERC721InvalidSender",
      "type": "error"
    },
    {
      "inputs": [
        {
          "internalType": "uint256",
          "name": "tokenId",
          "type": "uint256"
        }
      ],
      "name": "ERC721NonexistentToken",
      "type": "error"
    },
    {
      "inputs": [],
      "name": "FailedCall",
      "type": "error"
    },
    {
      "inputs": [],
      "name": "InvalidInitialization",
      "type": "error"
    },
    {
      "inputs": [],
      "name": "NotInitializing",
      "type": "error"
    },
    {
      "inputs": [
        {
          "internalType": "address",
          "name": "owner",
          "type": "address"
        }
      ],
      "name": "OwnableInvalidOwner",
      "type": "error"
    },
    {
      "inputs": [
        {
          "internalType": "address",
          "name": "account",
          "type": "address"
        }
      ],
      "name": "OwnableUnauthorizedAccount",
      "type": "error"
    },
    {
      "inputs": [],
      "name": "ReentrancyGuardReentrantCall",
      "type": "error"
    },
    {
      "inputs": [],
      "name": "UUPSUnauthorizedCallContext",
      "type": "error"
    },
    {
      "inputs": [
        {
          "internalType": "bytes32",
          "name": "slot",
          "type": "bytes32"
        }
      ],
      "name": "UUPSUnsupportedProxiableUUID",
      "type": "error"
    },
    {
      "anonymous": false,
      "inputs": [
        {
          "indexed": true,
          "internalType": "address",
          "name": "owner",
          "type": "address"
        },
        {
          "indexed": true,
          "internalType": "address",
          "name": "approved",
          "type": "address"
        },
        {
          "indexed": true,
          "internalType": "uint256",
          "name": "tokenId",
          "type": "uint256"
        }
      ],
      "name": "Approval",
      "type": "event"
    },
    {
      "anonymous": false,
      "inputs": [
        {
          "indexed": true,
          "internalType": "address",
          "name": "owner",
          "type": "address"
        },
        {
          "indexed": true,
          "internalType": "address",
          "name": "operator",
          "type": "address"
        },
        {
          "indexed": false,
          "internalType": "bool",
          "name": "approved",
          "type": "bool"
        }
      ],
      "name": "ApprovalForAll",
      "type": "event"
    },
    {
      "anonymous": false,
      "inputs": [
        {
          "indexed": true,
          "internalType": "uint256",
          "name": "sessionId",
          "type": "uint256"
        },
        {
          "indexed": true,
          "internalType": "address",
          "name": "student",
          "type": "address"
        }
      ],
      "name": "AttendanceMarked",
      "type": "event"
    },
    {
      "anonymous": false,
      "inputs": [
        {
          "indexed": true,
          "internalType": "uint256",
          "name": "sessionId",
          "type": "uint256"
        },
        {
          "indexed": true,
          "internalType": "uint256",
          "name": "courseId",
          "type": "uint256"
        },
        {
          "indexed": false,
          "internalType": "uint256",
          "name": "timestamp",
          "type": "uint256"
        }
      ],
      "name": "ClassSessionCreated",
      "type": "event"
    },
    {
      "anonymous": false,
      "inputs": [
        {
          "indexed": true,
          "internalType": "uint256",
          "name": "courseId",
          "type": "uint256"
        },
        {
          "indexed": false,
          "internalType": "string",
          "name": "newContentUri",
          "type": "string"
        },
        {
          "indexed": false,
          "internalType": "uint256",
          "name": "contentIndex",
          "type": "uint256"
        }
      ],
      "name": "CourseContentAdded",
      "type": "event"
    },
    {
      "anonymous": false,
      "inputs": [
        {
          "indexed": true,
          "internalType": "uint256",
          "name": "courseId",
          "type": "uint256"
        },
        {
          "indexed": false,
          "internalType": "string[]",
          "name": "newContentUris",
          "type": "string[]"
        }
      ],
      "name": "CourseContentUpdated",
      "type": "event"
    },
    {
      "anonymous": false,
      "inputs": [
        {
          "indexed": true,
          "internalType": "uint256",
          "name": "courseId",
          "type": "uint256"
        },
        {
          "indexed": false,
          "internalType": "string",
          "name": "title",
          "type": "string"
        },
        {
          "indexed": true,
          "internalType": "address",
          "name": "instructor",
          "type": "address"
        },
        {
          "indexed": false,
          "internalType": "uint256",
          "name": "price",
          "type": "uint256"
        },
        {
          "indexed": false,
          "internalType": "string",
          "name": "metadataUri",
          "type": "string"
        }
      ],
      "name": "CourseCreated",
      "type": "event"
    },
    {
      "anonymous": false,
      "inputs": [
        {
          "indexed": true,
          "internalType": "uint256",
          "name": "courseId",
          "type": "uint256"
        },
        {
          "indexed": false,
          "internalType": "string",
          "name": "newMetadataUri",
          "type": "string"
        }
      ],
      "name": "CourseMetadataUpdated",
      "type": "event"
    },
    {
      "anonymous": false,
      "inputs": [
        {
          "indexed": true,
          "internalType": "uint256",
          "name": "id",
          "type": "uint256"
        },
        {
          "indexed": true,
          "internalType": "address",
          "name": "student",
          "type": "address"
        },
        {
          "indexed": true,
          "internalType": "address",
          "name": "issuer",
          "type": "address"
        },
        {
          "indexed": false,
          "internalType": "string",
          "name": "title",
          "type": "string"
        },
        {
          "indexed": false,
          "internalType": "string",
          "name": "metadataUri",
          "type": "string"
        }
      ],
      "name": "CredentialIssued",
      "type": "event"
    },
    {
      "anonymous": false,
      "inputs": [
        {
          "indexed": false,
          "internalType": "uint64",
          "name": "version",
          "type": "uint64"
        }
      ],
      "name": "Initialized",
      "type": "event"
    },
    {
      "anonymous": false,
      "inputs": [
        {
          "indexed": true,
          "internalType": "address",
          "name": "lecturer",
          "type": "address"
        },
        {
          "indexed": false,
          "internalType": "uint256",
          "name": "amount",
          "type": "uint256"
        }
      ],
      "name": "LecturerEmployed",
      "type": "event"
    },
    {
      "anonymous": false,
      "inputs": [
        {
          "indexed": true,
          "internalType": "address",
          "name": "previousOwner",
          "type": "address"
        },
        {
          "indexed": true,
          "internalType": "address",
          "name": "newOwner",
          "type": "address"
        }
      ],
      "name": "OwnershipTransferred",
      "type": "event"
    },
    {
      "anonymous": false,
      "inputs": [
        {
          "indexed": true,
          "internalType": "address",
          "name": "student",
          "type": "address"
        },
        {
          "indexed": false,
          "internalType": "uint256",
          "name": "amount",
          "type": "uint256"
        }
      ],
      "name": "StudentAdmitted",
      "type": "event"
    },
    {
      "anonymous": false,
      "inputs": [
        {
          "indexed": false,
          "internalType": "uint256",
          "name": "courseId",
          "type": "uint256"
        },
        {
          "indexed": false,
          "internalType": "address",
          "name": "student",
          "type": "address"
        }
      ],
      "name": "StudentRegistered",
      "type": "event"
    },
    {
      "anonymous": false,
      "inputs": [
        {
          "indexed": true,
          "internalType": "address",
          "name": "from",
          "type": "address"
        },
        {
          "indexed": true,
          "internalType": "address",
          "name": "to",
          "type": "address"
        },
        {
          "indexed": true,
          "internalType": "uint256",
          "name": "tokenId",
          "type": "uint256"
        }
      ],
      "name": "Transfer",
      "type": "event"
    },
    {
      "anonymous": false,
      "inputs": [
        {
          "indexed": true,
          "internalType": "address",
          "name": "implementation",
          "type": "address"
        }
      ],
      "name": "Upgraded",
      "type": "event"
    },
    {
      "inputs": [],
      "name": "UPGRADE_INTERFACE_VERSION",
      "outputs": [
        {
          "internalType": "string",
          "name": "",
          "type": "string"
        }
      ],
      "stateMutability": "view",
      "type": "function"
    },
    {
      "inputs": [
        {
          "internalType": "uint256",
          "name": "courseId",
          "type": "uint256"
        },
        {
          "internalType": "string",
          "name": "newContentUri",
          "type": "string"
        }
      ],
      "name": "addCourseContent",
      "outputs": [],
      "stateMutability": "nonpayable",
      "type": "function"
    },
    {
      "inputs": [
        {
          "internalType": "uint256",
          "name": "courseId",
          "type": "uint256"
        },
        {
          "internalType": "string[]",
          "name": "newContentUris",
          "type": "string[]"
        }
      ],
      "name": "addMultipleCourseContent",
      "outputs": [],
      "stateMutability": "nonpayable",
      "type": "function"
    },
    {
      "inputs": [
        {
          "internalType": "address",
          "name": "student",
          "type": "address"
        },
        {
          "internalType": "uint256",
          "name": "amount",
          "type": "uint256"
        }
      ],
      "name": "admitStudent",
      "outputs": [],
      "stateMutability": "nonpayable",
      "type": "function"
    },
    {
      "inputs": [
        {
          "internalType": "address",
          "name": "to",
          "type": "address"
        },
        {
          "internalType": "uint256",
          "name": "tokenId",
          "type": "uint256"
        }
      ],
      "name": "approve",
      "outputs": [],
      "stateMutability": "nonpayable",
      "type": "function"
    },
    {
      "inputs": [
        {
          "internalType": "address",
          "name": "owner",
          "type": "address"
        }
      ],
      "name": "balanceOf",
      "outputs": [
        {
          "internalType": "uint256",
          "name": "",
          "type": "uint256"
        }
      ],
      "stateMutability": "view",
      "type": "function"
    },
    {
      "inputs": [
        {
          "internalType": "uint256",
          "name": "",
          "type": "uint256"
        }
      ],
      "name": "classSessions",
      "outputs": [
        {
          "internalType": "uint256",
          "name": "id",
          "type": "uint256"
        },
        {
          "internalType": "uint256",
          "name": "courseId",
          "type": "uint256"
        },
        {
          "internalType": "uint256",
          "name": "timestamp",
          "type": "uint256"
        },
        {
          "internalType": "bool",
          "name": "marked",
          "type": "bool"
        }
      ],
      "stateMutability": "view",
      "type": "function"
    },
    {
      "inputs": [],
      "name": "courseCount",
      "outputs": [
        {
          "internalType": "uint256",
          "name": "",
          "type": "uint256"
        }
      ],
      "stateMutability": "view",
      "type": "function"
    },
    {
      "inputs": [
        {
          "internalType": "string",
          "name": "",
          "type": "string"
        }
      ],
      "name": "courseNameToId",
      "outputs": [
        {
          "internalType": "uint256",
          "name": "",
          "type": "uint256"
        }
      ],
      "stateMutability": "view",
      "type": "function"
    },
    {
      "inputs": [
        {
          "internalType": "uint256",
          "name": "",
          "type": "uint256"
        },
        {
          "internalType": "uint256",
          "name": "",
          "type": "uint256"
        }
      ],
      "name": "courseStudents",
      "outputs": [
        {
          "internalType": "address",
          "name": "",
          "type": "address"
        }
      ],
      "stateMutability": "view",
      "type": "function"
    },
    {
      "inputs": [
        {
          "internalType": "uint256",
          "name": "courseId",
          "type": "uint256"
        }
      ],
      "name": "createClassSession",
      "outputs": [
        {
          "internalType": "uint256",
          "name": "",
          "type": "uint256"
        }
      ],
      "stateMutability": "nonpayable",
      "type": "function"
    },
    {
      "inputs": [
        {
          "internalType": "string",
          "name": "title",
          "type": "string"
        },
        {
          "internalType": "uint256",
          "name": "duration",
          "type": "uint256"
        },
        {
          "internalType": "string",
          "name": "description",
          "type": "string"
        },
        {
          "internalType": "uint256",
          "name": "price",
          "type": "uint256"
        },
        {
          "internalType": "string[]",
          "name": "tags",
          "type": "string[]"
        },
        {
          "internalType": "string",
          "name": "level",
          "type": "string"
        },
        {
          "internalType": "string",
          "name": "metadataUri",
          "type": "string"
        }
      ],
      "name": "createCourse",
      "outputs": [
        {
          "internalType": "uint256",
          "name": "",
          "type": "uint256"
        }
      ],
      "stateMutability": "nonpayable",
      "type": "function"
    },
    {
      "inputs": [],
      "name": "credentialCount",
      "outputs": [
        {
          "internalType": "uint256",
          "name": "",
          "type": "uint256"
        }
      ],
      "stateMutability": "view",
      "type": "function"
    },
    {
      "inputs": [
        {
          "internalType": "uint256",
          "name": "id",
          "type": "uint256"
        }
      ],
      "name": "credentials",
      "outputs": [
        {
          "components": [
            {
              "internalType": "uint256",
              "name": "id",
              "type": "uint256"
            },
            {
              "internalType": "address",
              "name": "student",
              "type": "address"
            },
            {
              "internalType": "address",
              "name": "issuer",
              "type": "address"
            },
            {
              "internalType": "uint256",
              "name": "issuedAt",
              "type": "uint256"
            },
            {
              "internalType": "string",
              "name": "title",
              "type": "string"
            },
            {
              "internalType": "string",
              "name": "metadataUri",
              "type": "string"
            }
          ],
          "internalType": "struct CredentialStorage.Credential",
          "name": "",
          "type": "tuple"
        }
      ],
      "stateMutability": "view",
      "type": "function"
    },
    {
      "inputs": [
        {
          "internalType": "address",
          "name": "lecturer",
          "type": "address"
        },
        {
          "internalType": "uint256",
          "name": "value",
          "type": "uint256"
        }
      ],
      "name": "employLecturer",
      "outputs": [],
      "stateMutability": "nonpayable",
      "type": "function"
    },
    {
      "inputs": [
        {
          "internalType": "uint256",
          "name": "tokenId",
          "type": "uint256"
        }
      ],
      "name": "getApproved",
      "outputs": [
        {
          "internalType": "address",
          "name": "",
          "type": "address"
        }
      ],
      "stateMutability": "view",
      "type": "function"
    },
    {
      "inputs": [
        {
          "internalType": "uint256",
          "name": "courseId",
          "type": "uint256"
        }
      ],
      "name": "getCourse",
      "outputs": [
        {
          "components": [
            {
              "internalType": "uint256",
              "name": "id",
              "type": "uint256"
            },
            {
              "internalType": "string",
              "name": "title",
              "type": "string"
            },
            {
              "internalType": "string",
              "name": "description",
              "type": "string"
            },
            {
              "internalType": "uint256",
              "name": "duration",
              "type": "uint256"
            },
            {
              "internalType": "uint256",
              "name": "price",
              "type": "uint256"
            },
            {
              "internalType": "string[]",
              "name": "tags",
              "type": "string[]"
            },
            {
              "internalType": "string",
              "name": "level",
              "type": "string"
            },
            {
              "internalType": "uint256",
              "name": "rating",
              "type": "uint256"
            },
            {
              "internalType": "uint256",
              "name": "enrolledCount",
              "type": "uint256"
            },
            {
              "internalType": "address",
              "name": "instructor",
              "type": "address"
            },
            {
              "internalType": "string",
              "name": "metadataUri",
              "type": "string"
            },
            {
              "internalType": "string[]",
              "name": "contentUris",
              "type": "string[]"
            }
          ],
          "internalType": "struct CourseModule.Course",
          "name": "",
          "type": "tuple"
        }
      ],
      "stateMutability": "view",
      "type": "function"
    },
    {
      "inputs": [
        {
          "internalType": "uint256",
          "name": "courseId",
          "type": "uint256"
        }
      ],
      "name": "getCourseContentCount",
      "outputs": [
        {
          "internalType": "uint256",
          "name": "",
          "type": "uint256"
        }
      ],
      "stateMutability": "view",
      "type": "function"
    },
    {
      "inputs": [
        {
          "internalType": "uint256",
          "name": "courseId",
          "type": "uint256"
        }
      ],
      "name": "getCourseContentUris",
      "outputs": [
        {
          "internalType": "string[]",
          "name": "",
          "type": "string[]"
        }
      ],
      "stateMutability": "view",
      "type": "function"
    },
    {
      "inputs": [
        {
          "internalType": "uint256",
          "name": "courseId",
          "type": "uint256"
        }
      ],
      "name": "getCourseStudents",
      "outputs": [
        {
          "internalType": "address[]",
          "name": "",
          "type": "address[]"
        }
      ],
      "stateMutability": "view",
      "type": "function"
    },
    {
      "inputs": [
        {
          "internalType": "address",
          "name": "student",
          "type": "address"
        }
      ],
      "name": "getCredentialsByStudent",
      "outputs": [
        {
          "components": [
            {
              "internalType": "uint256",
              "name": "id",
              "type": "uint256"
            },
            {
              "internalType": "address",
              "name": "student",
              "type": "address"
            },
            {
              "internalType": "address",
              "name": "issuer",
              "type": "address"
            },
            {
              "internalType": "uint256",
              "name": "issuedAt",
              "type": "uint256"
            },
            {
              "internalType": "string",
              "name": "title",
              "type": "string"
            },
            {
              "internalType": "string",
              "name": "metadataUri",
              "type": "string"
            }
          ],
          "internalType": "struct CredentialStorage.Credential[]",
          "name": "",
          "type": "tuple[]"
        }
      ],
      "stateMutability": "view",
      "type": "function"
    },
    {
      "inputs": [],
      "name": "getLecturerList",
      "outputs": [
        {
          "internalType": "address[]",
          "name": "",
          "type": "address[]"
        }
      ],
      "stateMutability": "view",
      "type": "function"
    },
    {
      "inputs": [],
      "name": "getListOfStudents",
      "outputs": [
        {
          "internalType": "address[]",
          "name": "",
          "type": "address[]"
        }
      ],
      "stateMutability": "view",
      "type": "function"
    },
    {
      "inputs": [
        {
          "internalType": "address",
          "name": "student",
          "type": "address"
        }
      ],
      "name": "getStudentCourses",
      "outputs": [
        {
          "internalType": "uint256[]",
          "name": "",
          "type": "uint256[]"
        }
      ],
      "stateMutability": "view",
      "type": "function"
    },
    {
      "inputs": [
        {
          "internalType": "address",
          "name": "student",
          "type": "address"
        }
      ],
      "name": "getStudentCredentialIds",
      "outputs": [
        {
          "internalType": "uint256[]",
          "name": "",
          "type": "uint256[]"
        }
      ],
      "stateMutability": "view",
      "type": "function"
    },
    {
      "inputs": [
        {
          "internalType": "uint256",
          "name": "courseId",
          "type": "uint256"
        }
      ],
      "name": "incrementEnrollment",
      "outputs": [],
      "stateMutability": "nonpayable",
      "type": "function"
    },
    {
      "inputs": [
        {
          "internalType": "string",
          "name": "name",
          "type": "string"
        },
        {
          "internalType": "string",
          "name": "symbol",
          "type": "string"
        },
        {
          "internalType": "address",
          "name": "owner",
          "type": "address"
        }
      ],
      "name": "initialize",
      "outputs": [],
      "stateMutability": "nonpayable",
      "type": "function"
    },
    {
      "inputs": [
        {
          "internalType": "address",
          "name": "owner",
          "type": "address"
        },
        {
          "internalType": "address",
          "name": "operator",
          "type": "address"
        }
      ],
      "name": "isApprovedForAll",
      "outputs": [
        {
          "internalType": "bool",
          "name": "",
          "type": "bool"
        }
      ],
      "stateMutability": "view",
      "type": "function"
    },
    {
      "inputs": [
        {
          "internalType": "uint256",
          "name": "",
          "type": "uint256"
        },
        {
          "internalType": "address",
          "name": "",
          "type": "address"
        }
      ],
      "name": "isEnrolled",
      "outputs": [
        {
          "internalType": "bool",
          "name": "",
          "type": "bool"
        }
      ],
      "stateMutability": "view",
      "type": "function"
    },
    {
      "inputs": [
        {
          "internalType": "address",
          "name": "account",
          "type": "address"
        }
      ],
      "name": "isLecturer",
      "outputs": [
        {
          "internalType": "bool",
          "name": "",
          "type": "bool"
        }
      ],
      "stateMutability": "view",
      "type": "function"
    },
    {
      "inputs": [
        {
          "internalType": "address",
          "name": "",
          "type": "address"
        }
      ],
      "name": "isStudent",
      "outputs": [
        {
          "internalType": "bool",
          "name": "",
          "type": "bool"
        }
      ],
      "stateMutability": "view",
      "type": "function"
    },
    {
      "inputs": [
        {
          "internalType": "uint256",
          "name": "courseId",
          "type": "uint256"
        },
        {
          "internalType": "address",
          "name": "student",
          "type": "address"
        }
      ],
      "name": "isStudentEnrolled",
      "outputs": [
        {
          "internalType": "bool",
          "name": "",
          "type": "bool"
        }
      ],
      "stateMutability": "view",
      "type": "function"
    },
    {
      "inputs": [
        {
          "internalType": "address",
          "name": "student",
          "type": "address"
        },
        {
          "internalType": "string",
          "name": "title",
          "type": "string"
        },
        {
          "internalType": "string",
          "name": "metadataUri",
          "type": "string"
        }
      ],
      "name": "issueCredentialForStudent",
      "outputs": [
        {
          "internalType": "uint256",
          "name": "",
          "type": "uint256"
        }
      ],
      "stateMutability": "nonpayable",
      "type": "function"
    },
    {
      "inputs": [
        {
          "internalType": "uint256",
          "name": "",
          "type": "uint256"
        }
      ],
      "name": "lecturerList",
      "outputs": [
        {
          "internalType": "address",
          "name": "",
          "type": "address"
        }
      ],
      "stateMutability": "view",
      "type": "function"
    },
    {
      "inputs": [
        {
          "internalType": "address",
          "name": "",
          "type": "address"
        }
      ],
      "name": "lecturers",
      "outputs": [
        {
          "internalType": "uint256",
          "name": "",
          "type": "uint256"
        }
      ],
      "stateMutability": "view",
      "type": "function"
    },
    {
      "inputs": [
        {
          "internalType": "uint256",
          "name": "sessionId",
          "type": "uint256"
        },
        {
          "internalType": "address",
          "name": "student",
          "type": "address"
        }
      ],
      "name": "markAttendance",
      "outputs": [],
      "stateMutability": "nonpayable",
      "type": "function"
    },
    {
      "inputs": [],
      "name": "name",
      "outputs": [
        {
          "internalType": "string",
          "name": "",
          "type": "string"
        }
      ],
      "stateMutability": "view",
      "type": "function"
    },
    {
      "inputs": [],
      "name": "owner",
      "outputs": [
        {
          "internalType": "address",
          "name": "",
          "type": "address"
        }
      ],
      "stateMutability": "view",
      "type": "function"
    },
    {
      "inputs": [
        {
          "internalType": "uint256",
          "name": "tokenId",
          "type": "uint256"
        }
      ],
      "name": "ownerOf",
      "outputs": [
        {
          "internalType": "address",
          "name": "",
          "type": "address"
        }
      ],
      "stateMutability": "view",
      "type": "function"
    },
    {
      "inputs": [],
      "name": "proxiableUUID",
      "outputs": [
        {
          "internalType": "bytes32",
          "name": "",
          "type": "bytes32"
        }
      ],
      "stateMutability": "view",
      "type": "function"
    },
    {
      "inputs": [
        {
          "internalType": "uint256",
          "name": "courseId",
          "type": "uint256"
        },
        {
          "internalType": "address",
          "name": "student",
          "type": "address"
        }
      ],
      "name": "registerForCourse",
      "outputs": [],
      "stateMutability": "payable",
      "type": "function"
    },
    {
      "inputs": [],
      "name": "renounceOwnership",
      "outputs": [],
      "stateMutability": "nonpayable",
      "type": "function"
    },
    {
      "inputs": [
        {
          "internalType": "address",
          "name": "from",
          "type": "address"
        },
        {
          "internalType": "address",
          "name": "to",
          "type": "address"
        },
        {
          "internalType": "uint256",
          "name": "tokenId",
          "type": "uint256"
        }
      ],
      "name": "safeTransferFrom",
      "outputs": [],
      "stateMutability": "nonpayable",
      "type": "function"
    },
    {
      "inputs": [
        {
          "internalType": "address",
          "name": "from",
          "type": "address"
        },
        {
          "internalType": "address",
          "name": "to",
          "type": "address"
        },
        {
          "internalType": "uint256",
          "name": "tokenId",
          "type": "uint256"
        },
        {
          "internalType": "bytes",
          "name": "data",
          "type": "bytes"
        }
      ],
      "name": "safeTransferFrom",
      "outputs": [],
      "stateMutability": "nonpayable",
      "type": "function"
    },
    {
      "inputs": [
        {
          "internalType": "address",
          "name": "operator",
          "type": "address"
        },
        {
          "internalType": "bool",
          "name": "approved",
          "type": "bool"
        }
      ],
      "name": "setApprovalForAll",
      "outputs": [],
      "stateMutability": "nonpayable",
      "type": "function"
    },
    {
      "inputs": [
        {
          "internalType": "address",
          "name": "",
          "type": "address"
        },
        {
          "internalType": "uint256",
          "name": "",
          "type": "uint256"
        }
      ],
      "name": "studentCourses",
      "outputs": [
        {
          "internalType": "uint256",
          "name": "",
          "type": "uint256"
        }
      ],
      "stateMutability": "view",
      "type": "function"
    },
    {
      "inputs": [
        {
          "internalType": "address",
          "name": "",
          "type": "address"
        },
        {
          "internalType": "uint256",
          "name": "",
          "type": "uint256"
        }
      ],
      "name": "studentSessionAttendance",
      "outputs": [
        {
          "internalType": "uint256",
          "name": "",
          "type": "uint256"
        }
      ],
      "stateMutability": "view",
      "type": "function"
    },
    {
      "inputs": [
        {
          "internalType": "address",
          "name": "",
          "type": "address"
        }
      ],
      "name": "studentTokens",
      "outputs": [
        {
          "internalType": "uint256",
          "name": "",
          "type": "uint256"
        }
      ],
      "stateMutability": "view",
      "type": "function"
    },
    {
      "inputs": [
        {
          "internalType": "uint256",
          "name": "",
          "type": "uint256"
        }
      ],
      "name": "students",
      "outputs": [
        {
          "internalType": "address",
          "name": "",
          "type": "address"
        }
      ],
      "stateMutability": "view",
      "type": "function"
    },
    {
      "inputs": [
        {
          "internalType": "bytes4",
          "name": "interfaceId",
          "type": "bytes4"
        }
      ],
      "name": "supportsInterface",
      "outputs": [
        {
          "internalType": "bool",
          "name": "",
          "type": "bool"
        }
      ],
      "stateMutability": "view",
      "type": "function"
    },
    {
      "inputs": [],
      "name": "symbol",
      "outputs": [
        {
          "internalType": "string",
          "name": "",
          "type": "string"
        }
      ],
      "stateMutability": "view",
      "type": "function"
    },
    {
      "inputs": [
        {
          "internalType": "uint256",
          "name": "tokenId",
          "type": "uint256"
        }
      ],
      "name": "tokenURI",
      "outputs": [
        {
          "internalType": "string",
          "name": "",
          "type": "string"
        }
      ],
      "stateMutability": "view",
      "type": "function"
    },
    {
      "inputs": [
        {
          "internalType": "address",
          "name": "from",
          "type": "address"
        },
        {
          "internalType": "address",
          "name": "to",
          "type": "address"
        },
        {
          "internalType": "uint256",
          "name": "tokenId",
          "type": "uint256"
        }
      ],
      "name": "transferFrom",
      "outputs": [],
      "stateMutability": "nonpayable",
      "type": "function"
    },
    {
      "inputs": [
        {
          "internalType": "address",
          "name": "newOwner",
          "type": "address"
        }
      ],
      "name": "transferOwnership",
      "outputs": [],
      "stateMutability": "nonpayable",
      "type": "function"
    },
    {
      "inputs": [
        {
          "internalType": "uint256",
          "name": "courseId",
          "type": "uint256"
        },
        {
          "internalType": "string[]",
          "name": "newContentUris",
          "type": "string[]"
        }
      ],
      "name": "updateCourseContent",
      "outputs": [],
      "stateMutability": "nonpayable",
      "type": "function"
    },
    {
      "inputs": [
        {
          "internalType": "uint256",
          "name": "courseId",
          "type": "uint256"
        },
        {
          "internalType": "string",
          "name": "newMetadataUri",
          "type": "string"
        }
      ],
      "name": "updateCourseMetadata",
      "outputs": [],
      "stateMutability": "nonpayable",
      "type": "function"
    },
    {
      "inputs": [
        {
          "internalType": "uint256",
          "name": "courseId",
          "type": "uint256"
        },
        {
          "internalType": "uint256",
          "name": "newRating",
          "type": "uint256"
        }
      ],
      "name": "updateCourseRating",
      "outputs": [],
      "stateMutability": "nonpayable",
      "type": "function"
    },
    {
      "inputs": [
        {
          "internalType": "address",
          "name": "newImplementation",
          "type": "address"
        },
        {
          "internalType": "bytes",
          "name": "data",
          "type": "bytes"
        }
      ],
      "name": "upgradeToAndCall",
      "outputs": [],
      "stateMutability": "payable",
      "type": "function"
    },
    {
      "inputs": [],
      "name": "version",
      "outputs": [
        {
          "internalType": "string",
          "name": "",
          "type": "string"
        }
      ],
      "stateMutability": "pure",
      "type": "function"
    },
    {
      "inputs": [],
      "name": "withdraw",
      "outputs": [],
      "stateMutability": "nonpayable",
      "type": "function"
    }
  ],
  "bytecode": "0x60a0806040523461002a573060805261426690816100308239608051818181611bcd0152611c630152f35b600080fdfe608080604052600436101561001357600080fd5b60003560e01c90816301ffc9a7146130135750806306ead22e14612fb857806306fdde0314612f07578063077f224a14612aec578063081812fc14612aa1578063095ea7b3146129ba5780630a5776bb146128585780630b91e28d146125f357806310f26726146124fb578063158dec4f1461248b57806315f6febd1461240957806316edbe541461239b5780631ae4815e1461225857806323b872dd146122415780632af47f461461220757806334a1e9de14611f025780633ccfd60b14611e7b57806342842e0e14611e5357806348147ea414611df75780634f1ef28614611c2557806352d1902d14611bba57806354fd4d5014611b745780635cc6fa7114611b0c57806360dd60e314611a8a57806363152708146119845780636352211e1461195457806366055159146119365780636aee02d31461191a5780636e274a34146118d057806370a082311461187b578063715018a614611811578063798cdb46146115905780637bf1f66f146115545780637d9252921461150b57806382f7d392146114cc5780638a4b81ab146113bd5780638a954a03146109f25780638bd7a3331461122d5780638c572bbe146111da5780638da5cb5b146111a45780638f58c3b214610e725780639281a96d14610e1357806395d89b4114610d2b578063a22cb46514610c82578063ad3cb1cc14610c3c578063b60da9b014610b28578063b88d4fde14610ada578063c87b56dd14610a87578063c8deced614610a3f578063c9768315146109f2578063cd0e35b9146109b5578063d40761e41461092e578063d735d7cd14610746578063e0574e3f14610681578063e985e9c514610633578063f2fde38b14610608578063faf8e8b414610519578063fc925060146104df578063fd95cc51146104875763ff6785e0146102b357600080fd5b34610482576102c13661345d565b9080151580610476575b6102d490613613565b80600052600191602083815260018060a01b03600960406000200154163303610420578260005283815283600b8060406000200180549060008155816103af575b5050906000905b61035d575b60405183815285907f5f3ecb61e63394d34a984597179063028a9e892ab46083cc23665bc92a81137a9080610358818801896131fa565b0390a2005b83518110156103aa57908582610380610377839588613b98565b51511515613bac565b866000528185526103a28360406000200161039b8389613b98565b5190613bf6565b01909161031c565b610321565b6000528284600020918201915b8281106103c95750610315565b6103d381546134e9565b806103e2575b500183906103bc565b601f908181116001146103fc575050600081555b386103d9565b610417600092848452898420920160051c8201858301613715565b818355556103f6565b6084906040519062461bcd60e51b82526004820152602960248201527f4f6e6c7920636f7572736520696e7374727563746f722063616e207570646174604482015268194818dbdb9d195b9d60ba1b6064820152fd5b506000548111156102cb565b600080fd5b34610482576040366003190112610482576104a06131ce565b6001600160a01b0316600090815260086020526040902080546024359190821015610482576020916104d19161307e565b90546040519160031b1c8152f35b34610482576020366003190112610482576001600160a01b036105006131ce565b1660005260036020526020604060002054604051908152f35b346104825761052736613257565b811515806105fc575b61053990613613565b81600052600160205261055d60018060a01b03600960406000200154163314613b3d565b61056981511515613bac565b81600052600160205261058381600b604060002001613bf6565b816000526001602052600b6040600020015460001981019081116105e6577ff04740232fc267e81c1f5142df00ffab820e31dcb32d747e5af68a744c279cee916105db916040519283926040845260408401906130b9565b9060208301520390a2005b634e487b7160e01b600052601160045260246000fd5b50600054821115610530565b34610482576020366003190112610482576106316106246131ce565b61062c614003565b613df6565b005b346104825760403660031901126104825761064c6131ce565b61065d6106576131e4565b9161333c565b9060018060a01b0316600052602052602060ff604060002054166040519015158152f35b346104825760203660031901126104825761069a613dc2565b506004356000526000805160206141b183398151915260205261074260406000206005610729604051926106cd846130fa565b8054845260018060a01b038060018301541660208601526002820154166040850152600381015460608501526040516107148161070d8160048601613523565b038261314b565b608085015261070d6040518094819301613523565b60a082015260405191829160208352602083019061348c565b0390f35b34610482576020806003193601126104825761079c6107636131ce565b6001600160a01b031660009081527f0c2c9b5e6b5a5c9d2d2f8d3c1f73b7f1c3b4d5e6f7a8b9c0d1e2f3a4b5c6d7ea6020526040902090565b604051808284829454938481520190600052846000209260005b8682821061091857846107cb8186038261314b565b80516107ef6107d982613375565b916107e7604051938461314b565b808352613375565b601f19018360005b8281106109025750505060005b82518110156108a4578061081a60019285613b98565b516000526000805160206141b183398151915285526040600020600561088360405192610846846130fa565b80548452858060a01b038087830154168a8601526002820154166040850152600381015460608501526040516107148161070d8160048601613523565b60a08201526108928285613b98565b5261089d8184613b98565b5001610804565b604080518581528351818701819052600092600582901b830181019186890191899085015b8287106108d65785850386f35b9091929382806108f2600193603f198a8203018652885161348c565b96019201960195929190926108c9565b61090a613dc2565b8282860101520184906107f7565b85548452600195860195879550930192016107b6565b3461048257602080600319360112610482576001600160a01b036109506131ce565b1660005260086020526040600020906040519081602084549182815201936000526020600020916000905b82821061099e57610742856109928189038261314b565b6040519182918261340b565b83548652948501946001938401939091019061097b565b346104825760003660031901126104825760207f0c2c9b5e6b5a5c9d2d2f8d3c1f73b7f1c3b4d5e6f7a8b9c0d1e2f3a4b5c6d7e854604051908152f35b3461048257604036600319011261048257610a0b6131e4565b600435600052600a60205260406000209060018060a01b0316600052602052602060ff604060002054166040519015158152f35b34610482576040366003190112610482576001600160a01b03610a606131ce565b16600052600c60205260406000206024356000526020526020604060002054604051908152f35b3461048257602036600319011261048257610aa3600435613e6a565b506000604051610ab281613115565b52610742604051610ac281613115565b600081526040519182916020835260208301906130b9565b3461048257608036600319011261048257610af36131ce565b610afb6131e4565b606435916001600160401b03831161048257610b1e610631933690600401613187565b9160443591613c97565b3461048257610b3636613447565b908015158080610c30575b610b4a90613613565b81600052600a60205260406000203360005260205260ff6040600020541615610beb5780610bdf575b610b7c90613613565b60328211610b9a576000526001602052600760406000200155600080f35b60405162461bcd60e51b815260206004820152601f60248201527f526174696e67206d757374206265206265747765656e203020616e64203530006044820152606490fd5b50600054811115610b73565b60405162461bcd60e51b815260206004820152601f60248201527f4f6e6c7920656e726f6c6c65642073747564656e74732063616e2072617465006044820152606490fd5b50600054821115610b41565b3461048257600036600319011261048257610742604051610c5c81613130565b60058152640352e302e360dc1b60208201526040519182916020835260208301906130b9565b3461048257604036600319011261048257610c9b6131ce565b6024359081151590818303610482576001600160a01b0316918215610d1257610ce490610cc73361333c565b8460005260205260406000209060ff801983541691151516179055565b6040519081527f17307eab39ab6107e8899845ad3d59bd9653f200f220920489ca2b5937696c3160203392a3005b604051630b61174360e31b815260048101849052602490fd5b34610482576000366003190112610482576040517f80bb2b638cc20bc4d0a60d66940f3ab4a00c1d7b313497ca82fb0b4ab00793018054826000610d6e836134e9565b9283835260209460019186600182169182600014610df1575050600114610db2575b5050610d9e9250038361314b565b6107426040519282849384528301906130b9565b85925060005281600020906000915b858310610dd9575050610d9e93508201018580610d90565b80548389018501528794508693909201918101610dc1565b9250935050610d9e94915060ff191682840152151560051b8201018580610d90565b346104825760203660031901126104825760043580151580610e66575b610e3990613613565b610e4b610e463383613f6c565b613662565b60005260016020526020600b60406000200154604051908152f35b50600054811115610e30565b604036600319011261048257600435610e896131e4565b907f9b779b17422d0df92223018b32b4d1fa46e071723d6817e2486d003becc55f00916002835414611192576002835581151580611186575b610ecb90613613565b60018060a01b0390818116918260005260209360068552610ef360ff60406000205416613837565b80600052600a85526040600020846000528552610f1860ff6040600020541615613c3b565b8060005260018552604060002094604051610f32816130de565b86548152604051610f4a8161070d8160018c01613523565b82820152604051610f628161070d8160028c01613523565b604082015260038701546060820152610160610ff2600b60048a015499608085019a8b52610f92600582016136ae565b60a0860152604051610fab8161070d8160068601613523565b60c0860152600781015460e0860152600881015461010086015287600982015416610120860152604051610fe68161070d81600a8601613523565b610140860152016136ae565b9101528551341061114b5781600052600a8152604060002085600052815261102260ff6040600020541615613c3b565b846000526008815261103882604060002061403c565b6000828152600982526040902080549091600160401b821015611135576110e8966110d395611090847fc65c83424b9743cd85950d4d05ef8ab686409eafe1bf490c528b98f4eb80004896600160409701815561307e565b819291549060031b9184831b921b191617905584600052600a82528260002081600052825282600020600160ff19825416179055825191858352820152a1613b05565b6110de600e54613653565b9081600e55613eb2565b518034116110f7575b60018255005b803403903482116105e657600080809381938290341461112c575b3390f11561112057816110f1565b6040513d6000823e3d90fd5b506108fc611112565b634e487b7160e01b600052604160045260246000fd5b6064906040519062461bcd60e51b825260048201526014602482015273125b9cdd59999a58da595b9d081c185e5b595b9d60621b6044820152fd5b50600054821115610ec2565b604051633ee5aeb560e01b8152600490fd5b3461048257600036600319011261048257600080516020614171833981519152546040516001600160a01b039091168152602090f35b3461048257602036600319011261048257600435600052600b6020526080604060002080549060018101549060ff6003600283015492015416916040519384526020840152604083015215156060820152f35b346104825761123b3661345d565b811515806113b1575b61124d90613613565b81600052600160209181835261127460018060a01b03600960406000200154163314613b3d565b805115611361576000825b61131c575b50509082600052818152600b60406000200190604051928184018285528354809152604085019260408260051b8701019460005280600020936000905b8382106112f157887f5f3ecb61e63394d34a984597179063028a9e892ab46083cc23665bc92a81137a8989038aa2005b90919293838161130c819899603f198c82030186528a613523565b98019201920190949392916112c1565b908291815181101561135b5780611337610377859385613b98565b86600052818652611353600b60406000200161039b8386613b98565b01909161127f565b50611284565b60405162461bcd60e51b815260048101849052602260248201527f436f6e74656e7420555249732061727261792063616e6e6f7420626520656d70604482015261747960f01b6064820152608490fd5b50600054821115611244565b34610482576040366003190112610482576113d66131ce565b6001600160a01b03166000818152600360205260409020546024359061148d5781600052600360205280604060002055600454600160401b8110156111355760018101806004558110156114775760046000526000805160206141d18339815191520180546001600160a01b031916831790556040519081527ff41b6f34bb9c4ca3f7fd3415e13442244ab51655583ce1a228b284abca8c33dc90602090a2005b634e487b7160e01b600052603260045260246000fd5b60405162461bcd60e51b81526020600482015260176024820152764c6563747572657220616c72656164792065786973747360481b6044820152606490fd5b34610482576020366003190112610482576001600160a01b036114ed6131ce565b166000526006602052602060ff604060002054166040519015158152f35b34610482576020366003190112610482576004356004548110156104825760046000526000805160206141d183398151915201546040516001600160a01b039091168152602090f35b34610482576020366003190112610482576001600160a01b036115756131ce565b16600052600360205260206040600020541515604051908152f35b34610482576060366003190112610482576115a96131ce565b6001600160401b03602435818111610482576115c9903690600401613187565b90604435908111610482576115e2903690600401613187565b33600052602092600384526115fd60406000205415156135b9565b6001600160a01b0381811660008181526006875260409020549092919060ff16156117d157821561179a57845115611764577f0c2c9b5e6b5a5c9d2d2f8d3c1f73b7f1c3b4d5e6f7a8b9c0d1e2f3a4b5c6d7e890815495600187018097116105e6576117348761172f819661076361174b9660058c8f89888f92611727937f2ec0f811294a1373db1a1f85e0a119a631d40f3e1d1bbba7776fc28ef0bd31f89f839055604051976116ad896130fa565b8389528289019182526000805160206141b183398151915260408a019333855260608b019542875260808c0197885260a08c01998a52600052526040600020985189558060018a019251169160018060a01b031992838254161790556002890192511690825416179055516003860155516004850161372c565b51910161372c565b61403c565b6117596040519283926040845260408401906130b9565b8281038a84015233976130b9565b0390a4604051908152f35b60405162461bcd60e51b815260048101879052600e60248201526d151a5d1b19481c995c5d5a5c995960921b6044820152606490fd5b60405162461bcd60e51b815260048101879052600f60248201526e125b9d985b1a59081cdd1d59195b9d608a1b6044820152606490fd5b60405162461bcd60e51b8152600481018790526018602482015277139bdd0818481c9959da5cdd195c9959081cdd1d59195b9d60421b6044820152606490fd5b346104825760003660031901126104825761182a614003565b60008051602061417183398151915280546001600160a01b031981169091556000906001600160a01b03167f8be0079c531659141344cd1fd0a4f28419497f9722a3daafe3b4186f6b6457e08280a3005b34610482576020366003190112610482576118946131ce565b6001600160a01b038116156118b7576118ae602091613303565b54604051908152f35b6040516322718ad960e21b815260006004820152602490fd5b34610482576118de36613447565b90600052600960205260406000208054821015610482576020916119019161307e565b905460405160039290921b1c6001600160a01b03168152f35b3461048257602036600319011261048257610631600435613b05565b34610482576000366003190112610482576020600054604051908152f35b34610482576020366003190112610482576020611972600435613e6a565b6040516001600160a01b039091168152f35b346104825760403660031901126104825761199d6131ce565b6001600160a01b0316600081815260066020908152604090912054602435919060ff16611a4d576000838152600582526040808220849055600683529020805460ff1916600117905560075491600160401b831015611135576001830180600755831015611477576007600090815282902090920180546001600160a01b031916841790556040519182527f481f70abdaaa7e4e53bed4ead7bded11ecbcdaa9f01fe0b3f850cb01e071bf9191a2005b6064906040519062461bcd60e51b82526004820152601660248201527553747564656e7420616c72656164792065786973747360501b6044820152fd5b34610482576020806003193601126104825760043560005260096020526040600020906040519081602084549182815201936000526020600020916000905b828210611aec5761074285611ae08189038261314b565b60405191829182613289565b83546001600160a01b031686529485019460019384019390910190611ac9565b346104825760208060031936011261048257611b296107636131ce565b906040519081602084549182815201936000526020600020916000905b828210611b5d57610742856109928189038261314b565b835486529485019460019384019390910190611b46565b3461048257600036600319011261048257610742604051611b9481613130565b60058152640312e302e360dc1b60208201526040519182916020835260208301906130b9565b34610482576000366003190112610482577f00000000000000000000000000000000000000000000000000000000000000006001600160a01b03163003611c135760206040516000805160206141918339815191528152f35b60405163703e46dd60e11b8152600490fd5b604036600319011261048257611c396131ce565b6024356001600160401b03811161048257611c58903690600401613187565b906001600160a01b037f00000000000000000000000000000000000000000000000000000000000000008116308114908115611ddb575b50611c1357611c9c614003565b8116906040516352d1902d60e01b8152602081600481865afa60009181611da7575b50611cdc57604051634c9c8ce360e01b815260048101849052602490fd5b60008051602061419183398151915292919290818103611d8f5750823b15611d765780546001600160a01b03191682179055604051907fbc7cd75a20ee27fd9adebab32041f755214dbc6bffa90cc0225b39da2e5c2d3b600080a2825115611d5d575060008083602061063195519101845af4611d57614071565b9161410d565b91505034611d6757005b63b398979f60e01b8152600490fd5b604051634c9c8ce360e01b815260048101839052602490fd5b60249060405190632a87526960e21b82526004820152fd5b9091506020813d602011611dd3575b81611dc36020938361314b565b8101031261048257519085611cbe565b3d9150611db6565b9050816000805160206141918339815191525416141584611c8f565b34610482576020366003190112610482576004356001600160401b03811161048257611e406020611e2d81933690600401613187565b8160405193828580945193849201613096565b8101600281520301902054604051908152f35b3461048257610631611e64366132ce565b9060405192611e7284613115565b60008452613c97565b3461048257600036600319011261048257611e94614003565b478015611ec657600080516020614171833981519152546000918291829182916001600160a01b031682f11561112057005b60405162461bcd60e51b81526020600482015260146024820152734e6f2066756e647320746f20776974686472617760601b6044820152606490fd5b346104825760e0366003190112610482576001600160401b0360043581811161048257611f33903690600401613187565b9060443581811161048257611f4c903690600401613187565b60843582811161048257611f6490369060040161338c565b9060a43583811161048257611f7d903690600401613187565b9260c43590811161048257611f96903690600401613187565b91336000526003602052611fb060406000205415156135b9565b611fbb600054613653565b938460005560405191611fcd83613115565b6000835260405193611fde856130de565b86855287602086015260408501526024356060850152606435608085015260a084015260c0830152600060e08301526000610100830152336101208301528261014083015261016082015282600052600160205260406000208151815561204c60208301516001830161372c565b61205d60408301516002830161372c565b60608201516003820155608082015160048201556005810160a083015190602082519261208a8484613a74565b019060005260206000206000915b8383106121ea5750505050600b610160916120ba60c08501516006830161372c565b60e0840151600782015561010084015160088201556101208401516009820180546001600160a01b0319166001600160a01b039290921691909117905561014084015161210a90600a830161372c565b0191015190602082519261211e8484613a74565b019060005260206000206000915b8383106121cd5760208686817fc3f596bfc7ef9eee7af478cb34ec2e69df92434440c3ef1abbc3c8bb89a133ab6121948c83604051888184516121728183858901613096565b81016002815203019020556121aa6040519283926060845260608401906130b9565b60643589840152828103604084015233966130b9565b0390a36121c56121bb600e54613653565b80600e5533613eb2565b604051908152f35b60016020826121de8394518661372c565b0192019201919061212c565b60016020826121fb8394518661372c565b01920192019190612098565b34610482576020366003190112610482576001600160a01b036122286131ce565b1660005260056020526020604060002054604051908152f35b3461048257610631612252366132ce565b916138cf565b34610482576040366003190112610482576004356122746131e4565b90336000526020916003835261229060406000205415156135b9565b60018060a01b03169182600052600681526122b260ff60406000205416613837565b81600052600b81526001604060002001546122ce81151561388f565b600052600a8152604060002083600052815260ff604060002054161561234b5781600052600b8152612309600160406000200154151561388f565b82600052600c8152604060002090826000525260016040600020557f9e5d24579183fa37d9de3c53c170caae77e5ea5a3ed2c66fdd356f590ff779f4600080a3005b6084906040519062461bcd60e51b82526004820152602360248201527f53747564656e74206e6f7420656e726f6c6c656420696e207468697320636f7560448201526272736560e81b6064820152fd5b3461048257602036600319011261048257600435801515806123fd575b6123c190613613565b6123ce610e463383613f6c565b60005260016020526107426123e9600b6040600020016136ae565b6040519182916020835260208301906131fa565b506000548111156123b8565b3461048257600036600319011261048257604051600780548083526000918252602080840193927fa66cc928b5edb82af9bd49922954155ab7b0942694bea4ce44661d9a8736c68892915b82821061246b5761074285611ae08189038261314b565b83546001600160a01b031686529485019460019384019390910190612454565b3461048257600036600319011261048257604051600480548083526000918252602080840193926000805160206141d183398151915292915b8282106124db5761074285611ae08189038261314b565b83546001600160a01b0316865294850194600193840193909101906124c4565b346104825761250936613257565b811515806125e7575b61251b90613613565b6000828152600160205260409020600901546001600160a01b0316330361258f576103587f47ed34406a736ccb7fe3e05f167e8de4143bd4f80ef2b29219bcb76a62fd2eb49183600052600160205261257b81600a60406000200161372c565b6040519182916020835260208301906130b9565b60405162461bcd60e51b815260206004820152602a60248201527f4f6e6c7920636f7572736520696e7374727563746f722063616e20757064617460448201526965206d6574616461746160b01b6064820152608490fd5b50600054821115612512565b34610482576020366003190112610482576004356060610160604051612618816130de565b60008152826020820152826040820152600083820152600060808201528260a08201528260c0820152600060e0820152600061010082015260006101208201528261014082015201528015158061284c575b61267390613613565b612680610e463383613f6c565b6000526001602052610742604060002061275f600b604051926126a2846130de565b805484526040516126ba8161070d8160018601613523565b60208501526040516126d38161070d8160028601613523565b604085015260038101546060850152600481015460808501526126f8600582016136ae565b60a08501526040516127118161070d8160068601613523565b60c0850152600781015460e0850152600881015461010085015260098101546001600160a01b03166101208501526040516127538161070d81600a8601613523565b610140850152016136ae565b61016082015260405191829160208352805160208401526101606128376127f66127e06127b66127a0602087015161018060408b01526101a08a01906130b9565b6040870151898203601f190160608b01526130b9565b60608601516080890152608086015160a089015260a0860151601f198983030160c08a01526131fa565b60c0850151878203601f190160e08901526130b9565b60e084015161010087015261010084015161012087015260018060a01b0361012085015116610140870152610140840151601f1987830301848801526130b9565b910151838203601f19016101808501526131fa565b5060005481111561266a565b346104825760208060031936011261048257600435336000526003825261288560406000205415156135b9565b801515806129ae575b61289790613613565b80600052600182523360018060a01b03600960406000200154160361296d576128c1600d54613653565b9081600d5560405160808101908082106001600160401b03831117611135576129359160405283815260038582018481526040830142815260608401916000835287600052600b895260406000209451855551600185015551600284015551151591019060ff801983541691151516179055565b817f9d810e0082f8a92772407ea94a85bc457d358804c697a63a434a5043bf81be7f84604051428152a36121c56121bb600e54613653565b60405162461bcd60e51b81526004810183905260196024820152782737ba103a34329031b7bab939b29034b739ba393ab1ba37b960391b6044820152606490fd5b5060005481111561288e565b34610482576040366003190112610482576129d36131ce565b6024356129df81613e6a565b33151580612a8e575b80612a6e575b612a56576001600160a01b039283169282918491167f8c5be1e5ebec7d5bd14f71427d1e84f3dd0314c0f7b2291e5b200ac8c7c3b925600080a460009081526000805160206142118339815191526020526040902080546001600160a01b0319169091179055005b60405163a9fbf51f60e01b8152336004820152602490fd5b50612a788161333c565b3360005260205260ff60406000205416156129ee565b506001600160a01b0381163314156129e8565b3461048257602036600319011261048257600435612abe81613e6a565b50600052600080516020614211833981519152602052602060018060a01b0360406000205416604051908152f35b34610482576060366003190112610482576001600160401b0360043581811161048257612b1d903690600401613187565b60243582811161048257612b35903690600401613187565b906044356001600160a01b0381168103610482577ff0c57e16840df040f15088dc2f81fe391c3923bec73e23a9662efc9c229c6a009283549460ff8660401c16159381871696871580612f00575b60018099149081612ef6575b159081612eed575b50612edb5767ffffffffffffffff1981168817875585612ebc575b50612bbb6140a1565b612bc36140a1565b8051828111611135577f80bb2b638cc20bc4d0a60d66940f3ab4a00c1d7b313497ca82fb0b4ab007930090612bf882546134e9565b92601f93848111612e8c575b50602090848311600114612e2a57612c35929160009183612e1f575b50508160011b916000199060031b1c19161790565b90555b8251918211611135577f80bb2b638cc20bc4d0a60d66940f3ab4a00c1d7b313497ca82fb0b4ab007930192612c6d84546134e9565b828111612de5575b506020918311600114612d7c579180612caa92612cbd969594600092612d715750508160011b916000199060031b1c19161790565b90555b612cb56140a1565b61062c6140a1565b612cc56140a1565b612ccd6140a1565b612cd56140a1565b827f9b779b17422d0df92223018b32b4d1fa46e071723d6817e2486d003becc55f0055612d006140a1565b612d086140a1565b612d106140a1565b612d186140a1565b612d206140a1565b6000600d55612d2d6140a1565b6000600e55612d3857005b805460ff60401b191690556040519081527fc7f505b2f371ae2175ee4913f4499e1f2633a7b5936321eed1cdaeb6115181d290602090a1005b015190508980612c20565b9392918791601f1982169084600052806000209160005b818110612dcd57509683612cbd9810612db4575b505050811b019055612cad565b015160001960f88460031b161c19169055888080612da7565b8289015184558b959093019260209283019201612d93565b612e10908560005260206000208480870160051c82019260208810612e16575b0160051c0190613715565b88612c75565b92508192612e05565b015190508b80612c20565b8a9291601f1983169185600052816000209260005b818110612e7457508411612e5b575b505050811b019055612c38565b015160001960f88460031b161c191690558a8080612e4e565b8284015185558e969094019360209384019301612e3f565b612eb6908460005260206000208680860160051c82019260208710612e16570160051c0190613715565b8a612c04565b68ffffffffffffffffff19166801000000000000000117865587612bb2565b60405163f92ee8a960e01b8152600490fd5b90501589612b97565b303b159150612b8f565b5085612b83565b34610482576000366003190112610482576040517f80bb2b638cc20bc4d0a60d66940f3ab4a00c1d7b313497ca82fb0b4ab00793008054826000612f4a836134e9565b9283835260209460019186600182169182600014610df1575050600114612f79575050610d9e9250038361314b565b85925060005281600020906000915b858310612fa0575050610d9e93508201018580610d90565b80548389018501528794508693909201918101612f88565b34610482576020366003190112610482576004356007548110156104825760076000527fa66cc928b5edb82af9bd49922954155ab7b0942694bea4ce44661d9a8736c68801546040516001600160a01b039091168152602090f35b34610482576020366003190112610482576004359063ffffffff60e01b8216809203610482576020916380ac58cd60e01b811490811561306d575b811561305c575b5015158152f35b6301ffc9a760e01b14905083613055565b635b5e139f60e01b8114915061304e565b80548210156114775760005260206000200190600090565b60005b8381106130a95750506000910152565b8181015183820152602001613099565b906020916130d281518092818552858086019101613096565b601f01601f1916010190565b61018081019081106001600160401b0382111761113557604052565b60c081019081106001600160401b0382111761113557604052565b602081019081106001600160401b0382111761113557604052565b604081019081106001600160401b0382111761113557604052565b90601f801991011681019081106001600160401b0382111761113557604052565b6001600160401b03811161113557601f01601f191660200190565b81601f820112156104825780359061319e8261316c565b926131ac604051948561314b565b8284526020838301011161048257816000926020809301838601378301015290565b600435906001600160a01b038216820361048257565b602435906001600160a01b038216820361048257565b90808251908181526020809101926020808460051b8301019501936000915b8483106132295750505050505090565b9091929394958480613247600193601f198682030187528a516130b9565b9801930193019194939290613219565b9060406003198301126104825760043591602435906001600160401b0382116104825761328691600401613187565b90565b602090602060408183019282815285518094520193019160005b8281106132b1575050505090565b83516001600160a01b0316855293810193928101926001016132a3565b6060906003190112610482576001600160a01b0390600435828116810361048257916024359081168103610482579060443590565b6001600160a01b031660009081527f80bb2b638cc20bc4d0a60d66940f3ab4a00c1d7b313497ca82fb0b4ab00793036020526040902090565b6001600160a01b031660009081527f80bb2b638cc20bc4d0a60d66940f3ab4a00c1d7b313497ca82fb0b4ab00793056020526040902090565b6001600160401b0381116111355760051b60200190565b81601f82011215610482578035916020916133a684613375565b936133b4604051958661314b565b808552838086019160051b8301019280841161048257848301915b8483106133df5750505050505090565b82356001600160401b03811161048257869161340084848094890101613187565b8152019201916133cf565b602090602060408183019282815285518094520193019160005b828110613433575050505090565b835185529381019392810192600101613425565b6040906003190112610482576004359060243590565b9060406003198301126104825760043591602435906001600160401b038211610482576132869160040161338c565b6132869181518152602082015160018060a01b03809116602083015260408301511660408201526060820151606082015260a06134d8608084015160c0608085015260c08401906130b9565b9201519060a08184039101526130b9565b90600182811c92168015613519575b602083101461350357565b634e487b7160e01b600052602260045260246000fd5b91607f16916134f8565b805460009392613532826134e9565b9182825260209360019160018116908160001461359a5750600114613559575b5050505050565b90939495506000929192528360002092846000945b83861061358657505050500101903880808080613552565b80548587018301529401938590820161356e565b60ff19168685015250505090151560051b010191503880808080613552565b156135c057565b60405162461bcd60e51b815260206004820152602560248201527f4f6e6c79206c656374757265722063616e20706572666f726d2074686973206160448201526431ba34b7b760d91b6064820152608490fd5b1561361a57565b60405162461bcd60e51b8152602060048201526011602482015270125b9d985b1a590818dbdd5c9cd9481251607a1b6044820152606490fd5b60001981146105e65760010190565b1561366957565b60405162461bcd60e51b815260206004820152601d60248201527f4163636573732064656e6965643a206e6f7420617574686f72697a65640000006044820152606490fd5b9081546136ba81613375565b926040936136cb604051918261314b565b82815280946020809201926000526020600020906000935b8585106136f257505050505050565b600184819284516137078161070d818a613523565b8152019301940193916136e3565b818110613720575050565b60008155600101613715565b91909182516001600160401b0381116111355761374982546134e9565b601f81116137fa575b50602080601f83116001146137955750819061378693949560009261378a5750508160011b916000199060031b1c19161790565b9055565b015190503880612c20565b90601f19831695846000526020600020926000905b8882106137e2575050836001959697106137c9575b505050811b019055565b015160001960f88460031b161c191690553880806137bf565b806001859682949686015181550195019301906137aa565b61382790836000526020600020601f840160051c8101916020851061382d575b601f0160051c0190613715565b38613752565b909150819061381a565b1561383e57565b60405162461bcd60e51b815260206004820152602360248201527f41646472657373206973206e6f74206120726567697374657265642073747564604482015262195b9d60ea1b6064820152608490fd5b1561389657565b60405162461bcd60e51b815260206004820152601160248201527014d95cdcda5bdb881b9bdd08199bdd5b99607a1b6044820152606490fd5b6001600160a01b0382811693918415613a5b57826000958187526000805160206141f18339815191529586602052604097858982205416978892331515806139b5575b50906139447fddf252ad1be2c89b69c2b068fc378daa952ba7f163c4a11628f55a4df523b3ef93928561399657613303565b8054600101905585825260205289812080546001600160a01b0319168517905580a416928383036139755750505050565b6064945051926364283d7b60e01b8452600484015260248301526044820152fd5b61399f886140e2565b6139a886613303565b8054600019019055613303565b9193509193945080613a0c575b156139d35791879187949338613912565b8887896139f0576024915190637e27328960e01b82526004820152fd5b604491519063177e802f60e01b82523360048301526024820152fd5b503388148015613a3f575b806139c2575086835260008051602061421183398151915260205233868a85205416146139c2565b50613a498861333c565b33845260205260ff8984205416613a17565b604051633250574960e11b815260006004820152602490fd5b600160401b821161113557805491808255828110613a9157505050565b60009182526020906020832093840193015b838110613ab05750505050565b8083613abe600193546134e9565b80613acc575b505001613aa3565b601f8082118514613ae357505081555b8338613ac4565b613afc90848452868420920160051c8201858301613715565b81835555613adc565b80151580613b31575b613b1790613613565b600052600160205260086040600020016137868154613653565b50600054811115613b0e565b15613b4457565b60405162461bcd60e51b815260206004820152602660248201527f4f6e6c7920636f7572736520696e7374727563746f722063616e2061646420636044820152651bdb9d195b9d60d21b6064820152608490fd5b80518210156114775760209160051b010190565b15613bb357565b60405162461bcd60e51b815260206004820152601b60248201527a436f6e74656e74205552492063616e6e6f7420626520656d70747960281b6044820152606490fd5b8054600160401b81101561113557613c139160018201815561307e565b919091613c2557613c239161372c565b565b634e487b7160e01b600052600060045260246000fd5b15613c4257565b60405162461bcd60e51b815260206004820152602760248201527f53747564656e7420616c726561647920656e726f6c6c656420696e207468697360448201526620636f7572736560c81b6064820152608490fd5b9190613ca48282856138cf565b803b613cb1575b50505050565b613cf360018060a01b0380921694604051938493630a85bd0160e11b9687865233600487015216602485015260448401526080606484015260848301906130b9565b03906020816000938185885af190829082613d72575b5050613d415782613d18614071565b8051919082613d3a57604051633250574960e11b815260048101839052602490fd5b6020915001fd5b6001600160e01b03191603613d5a575038808080613cab565b60249060405190633250574960e11b82526004820152fd5b909192506020813d602011613dba575b81613d8f6020938361314b565b81010312613db65751906001600160e01b031982168203613db35750903880613d09565b80fd5b5080fd5b3d9150613d82565b60405190613dcf826130fa565b606060a0836000815260006020820152600060408201526000838201528260808201520152565b6001600160a01b03908116908115613e515760008051602061417183398151915280546001600160a01b031981168417909155167f8be0079c531659141344cd1fd0a4f28419497f9722a3daafe3b4186f6b6457e0600080a3565b604051631e4fbdf760e01b815260006004820152602490fd5b60008181526000805160206141f183398151915260205260409020546001600160a01b0316908115613e9a575090565b60249060405190637e27328960e01b82526004820152fd5b6001600160a01b03918183168015613a5b576000938285526000805160206141f1833981519152908160205260408620541690613ef68215159586613f5a57613303565b805460010190558386526020526040852080546001600160a01b031916831790557fddf252ad1be2c89b69c2b068fc378daa952ba7f163c4a11628f55a4df523b3ef8580a4613f425750565b602490604051906339e3563760e11b82526004820152fd5b613f63866140e2565b6139a884613303565b80158015613ff8575b613ff15760008181526001602052604081206009015490926001600160a01b0390811691168114613fe957808352600660205260ff6040842054169182613fc6575b5050613fc05790565b50600190565b9091508252600a6020526040822090825260205260ff6040822054163880613fb7565b505050600190565b5050600090565b506000548111613f75565b600080516020614171833981519152546001600160a01b0316330361402457565b60405163118cdaa760e01b8152336004820152602490fd5b8054600160401b811015611135576140599160018201815561307e565b819291549060031b91821b91600019901b1916179055565b3d1561409c573d906140828261316c565b91614090604051938461314b565b82523d6000602084013e565b606090565b60ff7ff0c57e16840df040f15088dc2f81fe391c3923bec73e23a9662efc9c229c6a005460401c16156140d057565b604051631afcd79f60e31b8152600490fd5b60009081526000805160206142118339815191526020526040902080546001600160a01b0319169055565b90614134575080511561412257602081519101fd5b60405163d6bda27560e01b8152600490fd5b81511580614167575b614145575090565b604051639996b31560e01b81526001600160a01b039091166004820152602490fd5b50803b1561413d56fe9016d09d72d40fdae2fd8ceac6b6234c7706214fd39c1cd1e609a0528c199300360894a13ba1a3210667c828492db98dca3e2076cc3735a920a3ca505d382bbc0c2c9b5e6b5a5c9d2d2f8d3c1f73b7f1c3b4d5e6f7a8b9c0d1e2f3a4b5c6d7e98a35acfbc15ff81a39ae7d344fd709f28e8600b4aa8c65c6b64bfe7fe36bd19b80bb2b638cc20bc4d0a60d66940f3ab4a00c1d7b313497ca82fb0b4ab007930280bb2b638cc20bc4d0a60d66940f3ab4a00c1d7b313497ca82fb0b4ab0079304a2646970667358221220a25cbe3fb2815a169bb86b7745a6f0ee608ae4b01ab80f4bb4f16e3efb88a48464736f6c63430008160033",
  "linkReferences": {},
  "deployedLinkReferences": {}
}