{
  "_format": "hh-sol-artifact-1",
  "contractName": "Celorean",
  "sourceName": "contracts/Celorean.sol",
  "abi": [
    {
      "anonymous": false,
      "inputs": [
        {
          "indexed": false,
          "internalType": "address",
          "name": "previousAdmin",
          "type": "address"
        },
        {
          "indexed": false,
          "internalType": "address",
          "name": "newAdmin",
          "type": "address"
        }
      ],
      "name": "AdminChanged",
      "type": "event"
    },
    {
      "anonymous": false,
      "inputs": [
        {
          "indexed": true,
          "internalType": "address",
          "name": "owner",
          "type": "address"
        },
        {
          "indexed": true,
          "internalType": "address",
          "name": "approved",
          "type": "address"
        },
        {
          "indexed": true,
          "internalType": "uint256",
          "name": "tokenId",
          "type": "uint256"
        }
      ],
      "name": "Approval",
      "type": "event"
    },
    {
      "anonymous": false,
      "inputs": [
        {
          "indexed": true,
          "internalType": "address",
          "name": "owner",
          "type": "address"
        },
        {
          "indexed": true,
          "internalType": "address",
          "name": "operator",
          "type": "address"
        },
        {
          "indexed": false,
          "internalType": "bool",
          "name": "approved",
          "type": "bool"
        }
      ],
      "name": "ApprovalForAll",
      "type": "event"
    },
    {
      "anonymous": false,
      "inputs": [
        {
          "indexed": true,
          "internalType": "uint256",
          "name": "sessionId",
          "type": "uint256"
        },
        {
          "indexed": true,
          "internalType": "address",
          "name": "student",
          "type": "address"
        }
      ],
      "name": "AttendanceMarked",
      "type": "event"
    },
    {
      "anonymous": false,
      "inputs": [
        {
          "indexed": true,
          "internalType": "address",
          "name": "beacon",
          "type": "address"
        }
      ],
      "name": "BeaconUpgraded",
      "type": "event"
    },
    {
      "anonymous": false,
      "inputs": [
        {
          "indexed": true,
          "internalType": "uint256",
          "name": "sessionId",
          "type": "uint256"
        },
        {
          "indexed": true,
          "internalType": "uint256",
          "name": "courseId",
          "type": "uint256"
        },
        {
          "indexed": false,
          "internalType": "uint256",
          "name": "timestamp",
          "type": "uint256"
        }
      ],
      "name": "ClassSessionCreated",
      "type": "event"
    },
    {
      "anonymous": false,
      "inputs": [
        {
          "indexed": true,
          "internalType": "uint256",
          "name": "courseId",
          "type": "uint256"
        },
        {
          "indexed": false,
          "internalType": "string",
          "name": "newContentUri",
          "type": "string"
        },
        {
          "indexed": false,
          "internalType": "uint256",
          "name": "contentIndex",
          "type": "uint256"
        }
      ],
      "name": "CourseContentAdded",
      "type": "event"
    },
    {
      "anonymous": false,
      "inputs": [
        {
          "indexed": true,
          "internalType": "uint256",
          "name": "courseId",
          "type": "uint256"
        },
        {
          "indexed": false,
          "internalType": "string[]",
          "name": "newContentUris",
          "type": "string[]"
        }
      ],
      "name": "CourseContentUpdated",
      "type": "event"
    },
    {
      "anonymous": false,
      "inputs": [
        {
          "indexed": true,
          "internalType": "uint256",
          "name": "courseId",
          "type": "uint256"
        },
        {
          "indexed": false,
          "internalType": "string",
          "name": "title",
          "type": "string"
        },
        {
          "indexed": true,
          "internalType": "address",
          "name": "instructor",
          "type": "address"
        },
        {
          "indexed": false,
          "internalType": "uint256",
          "name": "price",
          "type": "uint256"
        },
        {
          "indexed": false,
          "internalType": "string",
          "name": "metadataUri",
          "type": "string"
        }
      ],
      "name": "CourseCreated",
      "type": "event"
    },
    {
      "anonymous": false,
      "inputs": [
        {
          "indexed": true,
          "internalType": "uint256",
          "name": "courseId",
          "type": "uint256"
        },
        {
          "indexed": false,
          "internalType": "string",
          "name": "newMetadataUri",
          "type": "string"
        }
      ],
      "name": "CourseMetadataUpdated",
      "type": "event"
    },
    {
      "anonymous": false,
      "inputs": [
        {
          "indexed": true,
          "internalType": "uint256",
          "name": "id",
          "type": "uint256"
        },
        {
          "indexed": true,
          "internalType": "address",
          "name": "student",
          "type": "address"
        },
        {
          "indexed": true,
          "internalType": "address",
          "name": "issuer",
          "type": "address"
        },
        {
          "indexed": false,
          "internalType": "string",
          "name": "title",
          "type": "string"
        },
        {
          "indexed": false,
          "internalType": "string",
          "name": "metadataUri",
          "type": "string"
        }
      ],
      "name": "CredentialIssued",
      "type": "event"
    },
    {
      "anonymous": false,
      "inputs": [
        {
          "indexed": false,
          "internalType": "uint8",
          "name": "version",
          "type": "uint8"
        }
      ],
      "name": "Initialized",
      "type": "event"
    },
    {
      "anonymous": false,
      "inputs": [
        {
          "indexed": true,
          "internalType": "address",
          "name": "lecturer",
          "type": "address"
        },
        {
          "indexed": false,
          "internalType": "uint256",
          "name": "amount",
          "type": "uint256"
        }
      ],
      "name": "LecturerEmployed",
      "type": "event"
    },
    {
      "anonymous": false,
      "inputs": [
        {
          "indexed": true,
          "internalType": "address",
          "name": "previousOwner",
          "type": "address"
        },
        {
          "indexed": true,
          "internalType": "address",
          "name": "newOwner",
          "type": "address"
        }
      ],
      "name": "OwnershipTransferred",
      "type": "event"
    },
    {
      "anonymous": false,
      "inputs": [
        {
          "indexed": true,
          "internalType": "address",
          "name": "student",
          "type": "address"
        },
        {
          "indexed": false,
          "internalType": "uint256",
          "name": "amount",
          "type": "uint256"
        }
      ],
      "name": "StudentAdmitted",
      "type": "event"
    },
    {
      "anonymous": false,
      "inputs": [
        {
          "indexed": false,
          "internalType": "uint256",
          "name": "courseId",
          "type": "uint256"
        },
        {
          "indexed": false,
          "internalType": "address",
          "name": "student",
          "type": "address"
        }
      ],
      "name": "StudentRegistered",
      "type": "event"
    },
    {
      "anonymous": false,
      "inputs": [
        {
          "indexed": true,
          "internalType": "address",
          "name": "from",
          "type": "address"
        },
        {
          "indexed": true,
          "internalType": "address",
          "name": "to",
          "type": "address"
        },
        {
          "indexed": true,
          "internalType": "uint256",
          "name": "tokenId",
          "type": "uint256"
        }
      ],
      "name": "Transfer",
      "type": "event"
    },
    {
      "anonymous": false,
      "inputs": [
        {
          "indexed": true,
          "internalType": "address",
          "name": "implementation",
          "type": "address"
        }
      ],
      "name": "Upgraded",
      "type": "event"
    },
    {
      "inputs": [
        {
          "internalType": "uint256",
          "name": "courseId",
          "type": "uint256"
        },
        {
          "internalType": "string",
          "name": "newContentUri",
          "type": "string"
        }
      ],
      "name": "addCourseContent",
      "outputs": [],
      "stateMutability": "nonpayable",
      "type": "function"
    },
    {
      "inputs": [
        {
          "internalType": "uint256",
          "name": "courseId",
          "type": "uint256"
        },
        {
          "internalType": "string[]",
          "name": "newContentUris",
          "type": "string[]"
        }
      ],
      "name": "addMultipleCourseContent",
      "outputs": [],
      "stateMutability": "nonpayable",
      "type": "function"
    },
    {
      "inputs": [
        {
          "internalType": "address",
          "name": "student",
          "type": "address"
        },
        {
          "internalType": "uint256",
          "name": "amount",
          "type": "uint256"
        }
      ],
      "name": "admitStudent",
      "outputs": [],
      "stateMutability": "nonpayable",
      "type": "function"
    },
    {
      "inputs": [
        {
          "internalType": "address",
          "name": "to",
          "type": "address"
        },
        {
          "internalType": "uint256",
          "name": "tokenId",
          "type": "uint256"
        }
      ],
      "name": "approve",
      "outputs": [],
      "stateMutability": "nonpayable",
      "type": "function"
    },
    {
      "inputs": [
        {
          "internalType": "address",
          "name": "owner",
          "type": "address"
        }
      ],
      "name": "balanceOf",
      "outputs": [
        {
          "internalType": "uint256",
          "name": "",
          "type": "uint256"
        }
      ],
      "stateMutability": "view",
      "type": "function"
    },
    {
      "inputs": [
        {
          "internalType": "uint256",
          "name": "",
          "type": "uint256"
        }
      ],
      "name": "classSessions",
      "outputs": [
        {
          "internalType": "uint256",
          "name": "id",
          "type": "uint256"
        },
        {
          "internalType": "uint256",
          "name": "courseId",
          "type": "uint256"
        },
        {
          "internalType": "uint256",
          "name": "timestamp",
          "type": "uint256"
        },
        {
          "internalType": "bool",
          "name": "marked",
          "type": "bool"
        }
      ],
      "stateMutability": "view",
      "type": "function"
    },
    {
      "inputs": [],
      "name": "courseCount",
      "outputs": [
        {
          "internalType": "uint256",
          "name": "",
          "type": "uint256"
        }
      ],
      "stateMutability": "view",
      "type": "function"
    },
    {
      "inputs": [
        {
          "internalType": "string",
          "name": "",
          "type": "string"
        }
      ],
      "name": "courseNameToId",
      "outputs": [
        {
          "internalType": "uint256",
          "name": "",
          "type": "uint256"
        }
      ],
      "stateMutability": "view",
      "type": "function"
    },
    {
      "inputs": [
        {
          "internalType": "uint256",
          "name": "",
          "type": "uint256"
        },
        {
          "internalType": "uint256",
          "name": "",
          "type": "uint256"
        }
      ],
      "name": "courseStudents",
      "outputs": [
        {
          "internalType": "address",
          "name": "",
          "type": "address"
        }
      ],
      "stateMutability": "view",
      "type": "function"
    },
    {
      "inputs": [
        {
          "internalType": "uint256",
          "name": "",
          "type": "uint256"
        }
      ],
      "name": "courses",
      "outputs": [
        {
          "internalType": "uint256",
          "name": "id",
          "type": "uint256"
        },
        {
          "internalType": "string",
          "name": "title",
          "type": "string"
        },
        {
          "internalType": "string",
          "name": "description",
          "type": "string"
        },
        {
          "internalType": "uint256",
          "name": "duration",
          "type": "uint256"
        },
        {
          "internalType": "uint256",
          "name": "price",
          "type": "uint256"
        },
        {
          "internalType": "string",
          "name": "level",
          "type": "string"
        },
        {
          "internalType": "uint256",
          "name": "rating",
          "type": "uint256"
        },
        {
          "internalType": "uint256",
          "name": "enrolledCount",
          "type": "uint256"
        },
        {
          "internalType": "address",
          "name": "instructor",
          "type": "address"
        },
        {
          "internalType": "string",
          "name": "metadataUri",
          "type": "string"
        }
      ],
      "stateMutability": "view",
      "type": "function"
    },
    {
      "inputs": [
        {
          "internalType": "uint256",
          "name": "courseId",
          "type": "uint256"
        }
      ],
      "name": "createClassSession",
      "outputs": [
        {
          "internalType": "uint256",
          "name": "",
          "type": "uint256"
        }
      ],
      "stateMutability": "nonpayable",
      "type": "function"
    },
    {
      "inputs": [
        {
          "internalType": "string",
          "name": "title",
          "type": "string"
        },
        {
          "internalType": "uint256",
          "name": "duration",
          "type": "uint256"
        },
        {
          "internalType": "string",
          "name": "description",
          "type": "string"
        },
        {
          "internalType": "uint256",
          "name": "price",
          "type": "uint256"
        },
        {
          "internalType": "string[]",
          "name": "tags",
          "type": "string[]"
        },
        {
          "internalType": "string",
          "name": "level",
          "type": "string"
        },
        {
          "internalType": "string",
          "name": "metadataUri",
          "type": "string"
        }
      ],
      "name": "createCourse",
      "outputs": [
        {
          "internalType": "uint256",
          "name": "",
          "type": "uint256"
        }
      ],
      "stateMutability": "nonpayable",
      "type": "function"
    },
    {
      "inputs": [],
      "name": "credentialCount",
      "outputs": [
        {
          "internalType": "uint256",
          "name": "",
          "type": "uint256"
        }
      ],
      "stateMutability": "view",
      "type": "function"
    },
    {
      "inputs": [
        {
          "internalType": "uint256",
          "name": "",
          "type": "uint256"
        }
      ],
      "name": "credentials",
      "outputs": [
        {
          "internalType": "uint256",
          "name": "id",
          "type": "uint256"
        },
        {
          "internalType": "address",
          "name": "student",
          "type": "address"
        },
        {
          "internalType": "address",
          "name": "issuer",
          "type": "address"
        },
        {
          "internalType": "uint256",
          "name": "issuedAt",
          "type": "uint256"
        },
        {
          "internalType": "string",
          "name": "title",
          "type": "string"
        },
        {
          "internalType": "string",
          "name": "metadataUri",
          "type": "string"
        }
      ],
      "stateMutability": "view",
      "type": "function"
    },
    {
      "inputs": [
        {
          "internalType": "address",
          "name": "lecturer",
          "type": "address"
        },
        {
          "internalType": "uint256",
          "name": "value",
          "type": "uint256"
        }
      ],
      "name": "employLecturer",
      "outputs": [],
      "stateMutability": "nonpayable",
      "type": "function"
    },
    {
      "inputs": [
        {
          "internalType": "uint256",
          "name": "tokenId",
          "type": "uint256"
        }
      ],
      "name": "getApproved",
      "outputs": [
        {
          "internalType": "address",
          "name": "",
          "type": "address"
        }
      ],
      "stateMutability": "view",
      "type": "function"
    },
    {
      "inputs": [
        {
          "internalType": "uint256",
          "name": "courseId",
          "type": "uint256"
        }
      ],
      "name": "getCourse",
      "outputs": [
        {
          "components": [
            {
              "internalType": "uint256",
              "name": "id",
              "type": "uint256"
            },
            {
              "internalType": "string",
              "name": "title",
              "type": "string"
            },
            {
              "internalType": "string",
              "name": "description",
              "type": "string"
            },
            {
              "internalType": "uint256",
              "name": "duration",
              "type": "uint256"
            },
            {
              "internalType": "uint256",
              "name": "price",
              "type": "uint256"
            },
            {
              "internalType": "string[]",
              "name": "tags",
              "type": "string[]"
            },
            {
              "internalType": "string",
              "name": "level",
              "type": "string"
            },
            {
              "internalType": "uint256",
              "name": "rating",
              "type": "uint256"
            },
            {
              "internalType": "uint256",
              "name": "enrolledCount",
              "type": "uint256"
            },
            {
              "internalType": "address",
              "name": "instructor",
              "type": "address"
            },
            {
              "internalType": "string",
              "name": "metadataUri",
              "type": "string"
            },
            {
              "internalType": "string[]",
              "name": "contentUris",
              "type": "string[]"
            }
          ],
          "internalType": "struct CourseModule.Course",
          "name": "",
          "type": "tuple"
        }
      ],
      "stateMutability": "view",
      "type": "function"
    },
    {
      "inputs": [
        {
          "internalType": "uint256",
          "name": "courseId",
          "type": "uint256"
        }
      ],
      "name": "getCourseContentCount",
      "outputs": [
        {
          "internalType": "uint256",
          "name": "",
          "type": "uint256"
        }
      ],
      "stateMutability": "view",
      "type": "function"
    },
    {
      "inputs": [
        {
          "internalType": "uint256",
          "name": "courseId",
          "type": "uint256"
        }
      ],
      "name": "getCourseContentUris",
      "outputs": [
        {
          "internalType": "string[]",
          "name": "",
          "type": "string[]"
        }
      ],
      "stateMutability": "view",
      "type": "function"
    },
    {
      "inputs": [
        {
          "internalType": "uint256",
          "name": "courseId",
          "type": "uint256"
        }
      ],
      "name": "getCourseStudents",
      "outputs": [
        {
          "internalType": "address[]",
          "name": "",
          "type": "address[]"
        }
      ],
      "stateMutability": "view",
      "type": "function"
    },
    {
      "inputs": [
        {
          "internalType": "uint256",
          "name": "id",
          "type": "uint256"
        }
      ],
      "name": "getCredential",
      "outputs": [
        {
          "components": [
            {
              "internalType": "uint256",
              "name": "id",
              "type": "uint256"
            },
            {
              "internalType": "address",
              "name": "student",
              "type": "address"
            },
            {
              "internalType": "address",
              "name": "issuer",
              "type": "address"
            },
            {
              "internalType": "uint256",
              "name": "issuedAt",
              "type": "uint256"
            },
            {
              "internalType": "string",
              "name": "title",
              "type": "string"
            },
            {
              "internalType": "string",
              "name": "metadataUri",
              "type": "string"
            }
          ],
          "internalType": "struct CredentialModule.Credential",
          "name": "",
          "type": "tuple"
        }
      ],
      "stateMutability": "view",
      "type": "function"
    },
    {
      "inputs": [
        {
          "internalType": "address",
          "name": "student",
          "type": "address"
        }
      ],
      "name": "getCredentialsByStudent",
      "outputs": [
        {
          "components": [
            {
              "internalType": "uint256",
              "name": "id",
              "type": "uint256"
            },
            {
              "internalType": "address",
              "name": "student",
              "type": "address"
            },
            {
              "internalType": "address",
              "name": "issuer",
              "type": "address"
            },
            {
              "internalType": "uint256",
              "name": "issuedAt",
              "type": "uint256"
            },
            {
              "internalType": "string",
              "name": "title",
              "type": "string"
            },
            {
              "internalType": "string",
              "name": "metadataUri",
              "type": "string"
            }
          ],
          "internalType": "struct CredentialModule.Credential[]",
          "name": "",
          "type": "tuple[]"
        }
      ],
      "stateMutability": "view",
      "type": "function"
    },
    {
      "inputs": [],
      "name": "getLecturerList",
      "outputs": [
        {
          "internalType": "address[]",
          "name": "",
          "type": "address[]"
        }
      ],
      "stateMutability": "view",
      "type": "function"
    },
    {
      "inputs": [],
      "name": "getListOfStudents",
      "outputs": [
        {
          "internalType": "address[]",
          "name": "",
          "type": "address[]"
        }
      ],
      "stateMutability": "view",
      "type": "function"
    },
    {
      "inputs": [
        {
          "internalType": "address",
          "name": "student",
          "type": "address"
        }
      ],
      "name": "getStudentCourses",
      "outputs": [
        {
          "internalType": "uint256[]",
          "name": "",
          "type": "uint256[]"
        }
      ],
      "stateMutability": "view",
      "type": "function"
    },
    {
      "inputs": [
        {
          "internalType": "address",
          "name": "student",
          "type": "address"
        }
      ],
      "name": "getStudentCredentialIds",
      "outputs": [
        {
          "internalType": "uint256[]",
          "name": "",
          "type": "uint256[]"
        }
      ],
      "stateMutability": "view",
      "type": "function"
    },
    {
      "inputs": [
        {
          "internalType": "uint256",
          "name": "courseId",
          "type": "uint256"
        }
      ],
      "name": "incrementEnrollment",
      "outputs": [],
      "stateMutability": "nonpayable",
      "type": "function"
    },
    {
      "inputs": [
        {
          "internalType": "string",
          "name": "name",
          "type": "string"
        },
        {
          "internalType": "string",
          "name": "symbol",
          "type": "string"
        },
        {
          "internalType": "address",
          "name": "owner",
          "type": "address"
        }
      ],
      "name": "initialize",
      "outputs": [],
      "stateMutability": "nonpayable",
      "type": "function"
    },
    {
      "inputs": [
        {
          "internalType": "address",
          "name": "owner",
          "type": "address"
        },
        {
          "internalType": "address",
          "name": "operator",
          "type": "address"
        }
      ],
      "name": "isApprovedForAll",
      "outputs": [
        {
          "internalType": "bool",
          "name": "",
          "type": "bool"
        }
      ],
      "stateMutability": "view",
      "type": "function"
    },
    {
      "inputs": [
        {
          "internalType": "uint256",
          "name": "",
          "type": "uint256"
        },
        {
          "internalType": "address",
          "name": "",
          "type": "address"
        }
      ],
      "name": "isEnrolled",
      "outputs": [
        {
          "internalType": "bool",
          "name": "",
          "type": "bool"
        }
      ],
      "stateMutability": "view",
      "type": "function"
    },
    {
      "inputs": [
        {
          "internalType": "address",
          "name": "account",
          "type": "address"
        }
      ],
      "name": "isLecturer",
      "outputs": [
        {
          "internalType": "bool",
          "name": "",
          "type": "bool"
        }
      ],
      "stateMutability": "view",
      "type": "function"
    },
    {
      "inputs": [
        {
          "internalType": "address",
          "name": "",
          "type": "address"
        }
      ],
      "name": "isStudent",
      "outputs": [
        {
          "internalType": "bool",
          "name": "",
          "type": "bool"
        }
      ],
      "stateMutability": "view",
      "type": "function"
    },
    {
      "inputs": [
        {
          "internalType": "uint256",
          "name": "courseId",
          "type": "uint256"
        },
        {
          "internalType": "address",
          "name": "student",
          "type": "address"
        }
      ],
      "name": "isStudentEnrolled",
      "outputs": [
        {
          "internalType": "bool",
          "name": "",
          "type": "bool"
        }
      ],
      "stateMutability": "view",
      "type": "function"
    },
    {
      "inputs": [
        {
          "internalType": "address",
          "name": "student",
          "type": "address"
        },
        {
          "internalType": "string",
          "name": "title",
          "type": "string"
        },
        {
          "internalType": "string",
          "name": "metadataUri",
          "type": "string"
        }
      ],
      "name": "issueCredentialForStudent",
      "outputs": [
        {
          "internalType": "uint256",
          "name": "",
          "type": "uint256"
        }
      ],
      "stateMutability": "nonpayable",
      "type": "function"
    },
    {
      "inputs": [
        {
          "internalType": "uint256",
          "name": "",
          "type": "uint256"
        }
      ],
      "name": "lecturerList",
      "outputs": [
        {
          "internalType": "address",
          "name": "",
          "type": "address"
        }
      ],
      "stateMutability": "view",
      "type": "function"
    },
    {
      "inputs": [
        {
          "internalType": "address",
          "name": "",
          "type": "address"
        }
      ],
      "name": "lecturers",
      "outputs": [
        {
          "internalType": "uint256",
          "name": "",
          "type": "uint256"
        }
      ],
      "stateMutability": "view",
      "type": "function"
    },
    {
      "inputs": [
        {
          "internalType": "uint256",
          "name": "sessionId",
          "type": "uint256"
        },
        {
          "internalType": "address",
          "name": "student",
          "type": "address"
        }
      ],
      "name": "markAttendance",
      "outputs": [],
      "stateMutability": "nonpayable",
      "type": "function"
    },
    {
      "inputs": [],
      "name": "name",
      "outputs": [
        {
          "internalType": "string",
          "name": "",
          "type": "string"
        }
      ],
      "stateMutability": "view",
      "type": "function"
    },
    {
      "inputs": [],
      "name": "owner",
      "outputs": [
        {
          "internalType": "address",
          "name": "",
          "type": "address"
        }
      ],
      "stateMutability": "view",
      "type": "function"
    },
    {
      "inputs": [
        {
          "internalType": "uint256",
          "name": "tokenId",
          "type": "uint256"
        }
      ],
      "name": "ownerOf",
      "outputs": [
        {
          "internalType": "address",
          "name": "",
          "type": "address"
        }
      ],
      "stateMutability": "view",
      "type": "function"
    },
    {
      "inputs": [],
      "name": "proxiableUUID",
      "outputs": [
        {
          "internalType": "bytes32",
          "name": "",
          "type": "bytes32"
        }
      ],
      "stateMutability": "view",
      "type": "function"
    },
    {
      "inputs": [
        {
          "internalType": "uint256",
          "name": "courseId",
          "type": "uint256"
        },
        {
          "internalType": "address",
          "name": "student",
          "type": "address"
        }
      ],
      "name": "registerForCourse",
      "outputs": [],
      "stateMutability": "payable",
      "type": "function"
    },
    {
      "inputs": [],
      "name": "renounceOwnership",
      "outputs": [],
      "stateMutability": "nonpayable",
      "type": "function"
    },
    {
      "inputs": [
        {
          "internalType": "address",
          "name": "from",
          "type": "address"
        },
        {
          "internalType": "address",
          "name": "to",
          "type": "address"
        },
        {
          "internalType": "uint256",
          "name": "tokenId",
          "type": "uint256"
        }
      ],
      "name": "safeTransferFrom",
      "outputs": [],
      "stateMutability": "nonpayable",
      "type": "function"
    },
    {
      "inputs": [
        {
          "internalType": "address",
          "name": "from",
          "type": "address"
        },
        {
          "internalType": "address",
          "name": "to",
          "type": "address"
        },
        {
          "internalType": "uint256",
          "name": "tokenId",
          "type": "uint256"
        },
        {
          "internalType": "bytes",
          "name": "data",
          "type": "bytes"
        }
      ],
      "name": "safeTransferFrom",
      "outputs": [],
      "stateMutability": "nonpayable",
      "type": "function"
    },
    {
      "inputs": [
        {
          "internalType": "address",
          "name": "operator",
          "type": "address"
        },
        {
          "internalType": "bool",
          "name": "approved",
          "type": "bool"
        }
      ],
      "name": "setApprovalForAll",
      "outputs": [],
      "stateMutability": "nonpayable",
      "type": "function"
    },
    {
      "inputs": [
        {
          "internalType": "address",
          "name": "",
          "type": "address"
        },
        {
          "internalType": "uint256",
          "name": "",
          "type": "uint256"
        }
      ],
      "name": "studentCourses",
      "outputs": [
        {
          "internalType": "uint256",
          "name": "",
          "type": "uint256"
        }
      ],
      "stateMutability": "view",
      "type": "function"
    },
    {
      "inputs": [
        {
          "internalType": "address",
          "name": "",
          "type": "address"
        },
        {
          "internalType": "uint256",
          "name": "",
          "type": "uint256"
        }
      ],
      "name": "studentSessionAttendance",
      "outputs": [
        {
          "internalType": "uint256",
          "name": "",
          "type": "uint256"
        }
      ],
      "stateMutability": "view",
      "type": "function"
    },
    {
      "inputs": [
        {
          "internalType": "address",
          "name": "",
          "type": "address"
        }
      ],
      "name": "studentTokens",
      "outputs": [
        {
          "internalType": "uint256",
          "name": "",
          "type": "uint256"
        }
      ],
      "stateMutability": "view",
      "type": "function"
    },
    {
      "inputs": [
        {
          "internalType": "uint256",
          "name": "",
          "type": "uint256"
        }
      ],
      "name": "students",
      "outputs": [
        {
          "internalType": "address",
          "name": "",
          "type": "address"
        }
      ],
      "stateMutability": "view",
      "type": "function"
    },
    {
      "inputs": [
        {
          "internalType": "bytes4",
          "name": "interfaceId",
          "type": "bytes4"
        }
      ],
      "name": "supportsInterface",
      "outputs": [
        {
          "internalType": "bool",
          "name": "",
          "type": "bool"
        }
      ],
      "stateMutability": "view",
      "type": "function"
    },
    {
      "inputs": [],
      "name": "symbol",
      "outputs": [
        {
          "internalType": "string",
          "name": "",
          "type": "string"
        }
      ],
      "stateMutability": "view",
      "type": "function"
    },
    {
      "inputs": [
        {
          "internalType": "uint256",
          "name": "tokenId",
          "type": "uint256"
        }
      ],
      "name": "tokenURI",
      "outputs": [
        {
          "internalType": "string",
          "name": "",
          "type": "string"
        }
      ],
      "stateMutability": "view",
      "type": "function"
    },
    {
      "inputs": [
        {
          "internalType": "address",
          "name": "from",
          "type": "address"
        },
        {
          "internalType": "address",
          "name": "to",
          "type": "address"
        },
        {
          "internalType": "uint256",
          "name": "tokenId",
          "type": "uint256"
        }
      ],
      "name": "transferFrom",
      "outputs": [],
      "stateMutability": "nonpayable",
      "type": "function"
    },
    {
      "inputs": [
        {
          "internalType": "address",
          "name": "newOwner",
          "type": "address"
        }
      ],
      "name": "transferOwnership",
      "outputs": [],
      "stateMutability": "nonpayable",
      "type": "function"
    },
    {
      "inputs": [
        {
          "internalType": "uint256",
          "name": "courseId",
          "type": "uint256"
        },
        {
          "internalType": "string[]",
          "name": "newContentUris",
          "type": "string[]"
        }
      ],
      "name": "updateCourseContent",
      "outputs": [],
      "stateMutability": "nonpayable",
      "type": "function"
    },
    {
      "inputs": [
        {
          "internalType": "uint256",
          "name": "courseId",
          "type": "uint256"
        },
        {
          "internalType": "string",
          "name": "newMetadataUri",
          "type": "string"
        }
      ],
      "name": "updateCourseMetadata",
      "outputs": [],
      "stateMutability": "nonpayable",
      "type": "function"
    },
    {
      "inputs": [
        {
          "internalType": "uint256",
          "name": "courseId",
          "type": "uint256"
        },
        {
          "internalType": "uint256",
          "name": "newRating",
          "type": "uint256"
        }
      ],
      "name": "updateCourseRating",
      "outputs": [],
      "stateMutability": "nonpayable",
      "type": "function"
    },
    {
      "inputs": [
        {
          "internalType": "address",
          "name": "newImplementation",
          "type": "address"
        }
      ],
      "name": "upgradeTo",
      "outputs": [],
      "stateMutability": "nonpayable",
      "type": "function"
    },
    {
      "inputs": [
        {
          "internalType": "address",
          "name": "newImplementation",
          "type": "address"
        },
        {
          "internalType": "bytes",
          "name": "data",
          "type": "bytes"
        }
      ],
      "name": "upgradeToAndCall",
      "outputs": [],
      "stateMutability": "payable",
      "type": "function"
    },
    {
      "inputs": [],
      "name": "version",
      "outputs": [
        {
          "internalType": "string",
          "name": "",
          "type": "string"
        }
      ],
      "stateMutability": "pure",
      "type": "function"
    },
    {
      "inputs": [],
      "name": "withdraw",
      "outputs": [],
      "stateMutability": "nonpayable",
      "type": "function"
    }
  ],
  "bytecode": "0x60a06040523060805234801561001457600080fd5b50608051615f0b6200004d60003960008181611c8e01528181611cce01528181611e0f01528181611e4f0152611ede0152615f0b6000f3fe6080604052600436106103ad5760003560e01c8063715018a6116101e7578063a22cb4651161010d578063d735d7cd116100a0578063faf8e8b41161006f578063faf8e8b414610c63578063fc92506014610c83578063fd95cc5114610cb1578063ff6785e014610cd157600080fd5b8063d735d7cd14610b9b578063e0574e3f14610bc8578063e985e9c514610bfa578063f2fde38b14610c4357600080fd5b8063c8deced6116100dc578063c8deced614610aef578063c976831514610b28578063cd0e35b914610b64578063d40761e414610b7b57600080fd5b8063a22cb46514610a6f578063b60da9b014610a8f578063b88d4fde14610aaf578063c87b56dd14610acf57600080fd5b80638bd7a333116101855780638f58c3b2116101545780638f58c3b2146109f15780639281a96d14610a0457806395d89b4114610a2457806396f979d214610a3957600080fd5b80638bd7a3331461091e5780638c572bbe1461093e5780638da5cb5b146109a65780638dd18d2d146109c457600080fd5b80637d925292116101c15780637d9252921461086657806382f7d392146108865780638a4b81ab146108b75780638a954a03146108d757600080fd5b8063715018a6146107f8578063798cdb461461080d5780637bf1f66f1461082d57600080fd5b806334a1e9de116102d75780635cc6fa711161026a578063660551591161023957806366055159146107815780636aee02d3146107985780636e274a34146107b857806370a08231146107d857600080fd5b80635cc6fa71146106f457806360dd60e31461072157806363152708146107415780636352211e1461076157600080fd5b806348147ea4116102a657806348147ea4146106655780634f1ef2861461069e57806352d1902d146106b157806354fd4d50146106c657600080fd5b806334a1e9de146105f05780633659cfe6146106105780633ccfd60b1461063057806342842e0e1461064557600080fd5b80630b91e28d1161034f57806316edbe541161031e57806316edbe54146105555780631ae4815e1461058257806323b872dd146105a25780632af47f46146105c257600080fd5b80630b91e28d146104d157806310f26726146104fe578063158dec4f1461051e57806315f6febd1461054057600080fd5b8063077f224a1161038b578063077f224a14610441578063081812fc14610463578063095ea7b3146104835780630a5776bb146104a357600080fd5b806301ffc9a7146103b257806306ead22e146103e757806306fdde031461041f575b600080fd5b3480156103be57600080fd5b506103d26103cd366004614d4c565b610cf1565b60405190151581526020015b60405180910390f35b3480156103f357600080fd5b50610407610402366004614d69565b610d02565b6040516001600160a01b0390911681526020016103de565b34801561042b57600080fd5b50610434610d2d565b6040516103de9190614dd2565b34801561044d57600080fd5b5061046161045c366004614eb1565b610dbf565b005b34801561046f57600080fd5b5061040761047e366004614d69565b610f41565b34801561048f57600080fd5b5061046161049e366004614f24565b610f68565b3480156104af57600080fd5b506104c36104be366004614d69565b61107d565b6040519081526020016103de565b3480156104dd57600080fd5b506104f16104ec366004614d69565b61117b565b6040516103de9190614fa8565b34801561050a57600080fd5b506104616105193660046150b1565b611680565b34801561052a57600080fd5b50610533611785565b6040516103de91906150f7565b34801561054c57600080fd5b506105336117e7565b34801561056157600080fd5b50610575610570366004614d69565b611848565b6040516103de9190615144565b34801561058e57600080fd5b5061046161059d3660046151a8565b61195d565b3480156105ae57600080fd5b506104616105bd3660046151d4565b6119d1565b3480156105ce57600080fd5b506104c36105dd366004615210565b6101646020526000908152604090205481565b3480156105fc57600080fd5b506104c361060b3660046152bd565b611a02565b34801561061c57600080fd5b5061046161062b366004615210565b611c84565b34801561063c57600080fd5b50610461611d63565b34801561065157600080fd5b506104616106603660046151d4565b611dea565b34801561067157600080fd5b506104c36106803660046153a1565b80516020818301810180516101618252928201919093012091525481565b6104616106ac3660046153d5565b611e05565b3480156106bd57600080fd5b506104c3611ed1565b3480156106d257600080fd5b506040805180820190915260058152640312e302e360dc1b6020820152610434565b34801561070057600080fd5b5061071461070f366004615210565b611f84565b6040516103de919061540c565b34801561072d57600080fd5b5061053361073c366004614d69565b611ff1565b34801561074d57600080fd5b5061046161075c366004614f24565b61205d565b34801561076d57600080fd5b5061040761077c366004614d69565b612163565b34801561078d57600080fd5b506104c361015f5481565b3480156107a457600080fd5b506104616107b3366004614d69565b6121c3565b3480156107c457600080fd5b506104076107d3366004615444565b612218565b3480156107e457600080fd5b506104c36107f3366004615210565b612251565b34801561080457600080fd5b506104616122d7565b34801561081957600080fd5b506104c3610828366004615466565b6122eb565b34801561083957600080fd5b506103d2610848366004615210565b6001600160a01b031660009081526101626020526040902054151590565b34801561087257600080fd5b50610407610881366004614d69565b612395565b34801561089257600080fd5b506103d26108a1366004615210565b6101656020526000908152604090205460ff1681565b3480156108c357600080fd5b506104616108d2366004614f24565b6123a6565b3480156108e357600080fd5b506103d26108f23660046151a8565b6000918252610169602090815260408084206001600160a01b0393909316845291905290205460ff1690565b34801561092a57600080fd5b506104616109393660046154d9565b61249b565b34801561094a57600080fd5b50610984610959366004614d69565b61016a6020526000908152604090208054600182015460028301546003909301549192909160ff1684565b60408051948552602085019390935291830152151560608201526080016103de565b3480156109b257600080fd5b506097546001600160a01b0316610407565b3480156109d057600080fd5b506109e46109df366004614d69565b612648565b6040516103de9190615582565b6104616109ff3660046151a8565b612829565b348015610a1057600080fd5b506104c3610a1f366004614d69565b612e1c565b348015610a3057600080fd5b50610434612e63565b348015610a4557600080fd5b50610a59610a54366004614d69565b612e72565b6040516103de9a99989796959493929190615595565b348015610a7b57600080fd5b50610461610a8a366004615627565b6130ef565b348015610a9b57600080fd5b50610461610aaa366004615444565b6130fa565b348015610abb57600080fd5b50610461610aca366004615663565b613190565b348015610adb57600080fd5b50610434610aea366004614d69565b6131c2565b348015610afb57600080fd5b506104c3610b0a366004614f24565b61016b60209081526000928352604080842090915290825290205481565b348015610b3457600080fd5b506103d2610b433660046151a8565b61016960209081526000928352604080842090915290825290205460ff1681565b348015610b7057600080fd5b506104c361016d5481565b348015610b8757600080fd5b50610714610b96366004615210565b613236565b348015610ba757600080fd5b50610bbb610bb6366004615210565b6132a1565b6040516103de91906156ca565b348015610bd457600080fd5b50610be8610be3366004614d69565b613531565b6040516103de96959493929190615721565b348015610c0657600080fd5b506103d2610c15366004615779565b6001600160a01b039182166000908152606a6020908152604080832093909416825291909152205460ff1690565b348015610c4f57600080fd5b50610461610c5e366004615210565b613686565b348015610c6f57600080fd5b50610461610c7e3660046150b1565b6136fc565b348015610c8f57600080fd5b506104c3610c9e366004615210565b6101626020526000908152604090205481565b348015610cbd57600080fd5b506104c3610ccc366004614f24565b613806565b348015610cdd57600080fd5b50610461610cec3660046154d9565b613838565b6000610cfc826139d3565b92915050565b6101668181548110610d1357600080fd5b6000918252602090912001546001600160a01b0316905081565b606060658054610d3c906157a3565b80601f0160208091040260200160405190810160405280929190818152602001828054610d68906157a3565b8015610db55780601f10610d8a57610100808354040283529160200191610db5565b820191906000526020600020905b815481529060010190602001808311610d9857829003601f168201915b5050505050905090565b600054610100900460ff1615808015610ddf5750600054600160ff909116105b80610df95750303b158015610df9575060005460ff166001145b610e615760405162461bcd60e51b815260206004820152602e60248201527f496e697469616c697a61626c653a20636f6e747261637420697320616c72656160448201526d191e481a5b9a5d1a585b1a5e995960921b60648201526084015b60405180910390fd5b6000805460ff191660011790558015610e84576000805461ff0019166101001790555b610e8e8484613a23565b610e96613a54565b610e9e613a83565b610ea6613aaa565b610eae613a83565b610eb6613a83565b610ebe613a83565b610ec6613a83565b610ece613ad9565b610ed6613a83565b6000610170556001600160a01b0382163314610ef557610ef582613b08565b8015610f3b576000805461ff0019169055604051600181527f7f26b83ff96e1f2b6a682f133852f6798a09c465da95921460cefb38474024989060200160405180910390a15b50505050565b6000610f4c82613b5a565b506000908152606960205260409020546001600160a01b031690565b6000610f7382612163565b9050806001600160a01b0316836001600160a01b031603610fe05760405162461bcd60e51b815260206004820152602160248201527f4552433732313a20617070726f76616c20746f2063757272656e74206f776e656044820152603960f91b6064820152608401610e58565b336001600160a01b0382161480610ffc5750610ffc8133610c15565b61106e5760405162461bcd60e51b815260206004820152603d60248201527f4552433732313a20617070726f76652063616c6c6572206973206e6f7420746f60448201527f6b656e206f776e6572206f7220617070726f76656420666f7220616c6c0000006064820152608401610e58565b6110788383613bb9565b505050565b33600090815261016260205260408120546110aa5760405162461bcd60e51b8152600401610e58906157dd565b6000821180156110bd575061015f548211155b6110d95760405162461bcd60e51b8152600401610e5890615822565b600082815261016060205260409020600901546001600160a01b031633146111435760405162461bcd60e51b815260206004820152601960248201527f4e6f742074686520636f7572736520696e7374727563746f72000000000000006044820152606401610e58565b600061114e83613c27565b6101708054919250600061116183615863565b91905055506111733361017054613cd5565b90505b919050565b6111e860405180610180016040528060008152602001606081526020016060815260200160008152602001600081526020016060815260200160608152602001600081526020016000815260200160006001600160a01b0316815260200160608152602001606081525090565b6000821180156111fb575061015f548211155b6112175760405162461bcd60e51b8152600401610e5890615822565b61016060008381526020019081526020016000206040518061018001604052908160008201548152602001600182018054611251906157a3565b80601f016020809104026020016040519081016040528092919081815260200182805461127d906157a3565b80156112ca5780601f1061129f576101008083540402835291602001916112ca565b820191906000526020600020905b8154815290600101906020018083116112ad57829003601f168201915b505050505081526020016002820180546112e3906157a3565b80601f016020809104026020016040519081016040528092919081815260200182805461130f906157a3565b801561135c5780601f106113315761010080835404028352916020019161135c565b820191906000526020600020905b81548152906001019060200180831161133f57829003601f168201915b50505050508152602001600382015481526020016004820154815260200160058201805480602002602001604051908101604052809291908181526020016000905b8282101561144a5783829060005260206000200180546113bd906157a3565b80601f01602080910402602001604051908101604052809291908181526020018280546113e9906157a3565b80156114365780601f1061140b57610100808354040283529160200191611436565b820191906000526020600020905b81548152906001019060200180831161141957829003601f168201915b50505050508152602001906001019061139e565b505050508152602001600682018054611462906157a3565b80601f016020809104026020016040519081016040528092919081815260200182805461148e906157a3565b80156114db5780601f106114b0576101008083540402835291602001916114db565b820191906000526020600020905b8154815290600101906020018083116114be57829003601f168201915b5050509183525050600782015460208201526008820154604082015260098201546001600160a01b03166060820152600a8201805460809092019161151f906157a3565b80601f016020809104026020016040519081016040528092919081815260200182805461154b906157a3565b80156115985780601f1061156d57610100808354040283529160200191611598565b820191906000526020600020905b81548152906001019060200180831161157b57829003601f168201915b50505050508152602001600b8201805480602002602001604051908101604052809291908181526020016000905b828210156116725783829060005260206000200180546115e5906157a3565b80601f0160208091040260200160405190810160405280929190818152602001828054611611906157a3565b801561165e5780601f106116335761010080835404028352916020019161165e565b820191906000526020600020905b81548152906001019060200180831161164157829003601f168201915b5050505050815260200190600101906115c6565b505050915250909392505050565b600082118015611693575061015f548211155b6116af5760405162461bcd60e51b8152600401610e5890615822565b600082815261016060205260409020600901546001600160a01b0316331461172c5760405162461bcd60e51b815260206004820152602a60248201527f4f6e6c7920636f7572736520696e7374727563746f722063616e20757064617460448201526965206d6574616461746160b01b6064820152608401610e58565b600082815261016060205260409020600a0161174882826158cc565b50817f47ed34406a736ccb7fe3e05f167e8de4143bd4f80ef2b29219bcb76a62fd2eb4826040516117799190614dd2565b60405180910390a25050565b6060610163805480602002602001604051908101604052809291908181526020018280548015610db557602002820191906000526020600020905b81546001600160a01b031681526001909101906020018083116117c0575050505050905090565b6060610166805480602002602001604051908101604052809291908181526020018280548015610db5576020028201919060005260206000209081546001600160a01b031681526001909101906020018083116117c0575050505050905090565b606060008211801561185d575061015f548211155b6118795760405162461bcd60e51b8152600401610e5890615822565b600082815261016060209081526040808320600b0180548251818502810185019093528083529193909284015b828210156119525783829060005260206000200180546118c5906157a3565b80601f01602080910402602001604051908101604052809291908181526020018280546118f1906157a3565b801561193e5780601f106119135761010080835404028352916020019161193e565b820191906000526020600020905b81548152906001019060200180831161192157829003601f168201915b5050505050815260200190600101906118a6565b505050509050919050565b336000908152610162602052604090205461198a5760405162461bcd60e51b8152600401610e58906157dd565b6001600160a01b0381166000908152610165602052604090205460ff166119c35760405162461bcd60e51b8152600401610e589061598b565b6119cd8282613e60565b5050565b6119db3382613f06565b6119f75760405162461bcd60e51b8152600401610e58906159ce565b611078838383613f84565b3360009081526101626020526040812054611a2f5760405162461bcd60e51b8152600401610e58906157dd565b61015f8054906000611a4083615863565b9190505550600061015f5490506040518061018001604052808281526020018a81526020018881526020018981526020018781526020018681526020018581526020016000815260200160008152602001336001600160a01b0316815260200184815260200160006001600160401b03811115611abf57611abf614de5565b604051908082528060200260200182016040528015611af257816020015b6060815260200190600190039081611add5790505b50905260008281526101606020908152604090912082518155908201516001820190611b1e90826158cc565b5060408201516002820190611b3390826158cc565b50606082015160038201556080820151600482015560a08201518051611b63916005840191602090910190614c17565b5060c08201516006820190611b7890826158cc565b5060e0820151600782015561010082015160088201556101208201516009820180546001600160a01b0319166001600160a01b03909216919091179055610140820151600a820190611bca90826158cc565b506101608201518051611be791600b840191602090910190614c17565b50905050806101618a604051611bfd9190615a1b565b908152602001604051809103902081905550336001600160a01b0316817fc3f596bfc7ef9eee7af478cb34ec2e69df92434440c3ef1abbc3c8bb89a133ab8b8987604051611c4d93929190615a37565b60405180910390a36101708054906000611c6683615863565b9190505550611c783361017054613cd5565b98975050505050505050565b6001600160a01b037f0000000000000000000000000000000000000000000000000000000000000000163003611ccc5760405162461bcd60e51b8152600401610e5890615a62565b7f00000000000000000000000000000000000000000000000000000000000000006001600160a01b0316611d15600080516020615e8f833981519152546001600160a01b031690565b6001600160a01b031614611d3b5760405162461bcd60e51b8152600401610e5890615aae565b611d44816140e8565b60408051600080825260208201909252611d60918391906140f0565b50565b611d6b61425b565b4780611db05760405162461bcd60e51b81526020600482015260146024820152734e6f2066756e647320746f20776974686472617760601b6044820152606401610e58565b6097546040516001600160a01b039091169082156108fc029083906000818181858888f193505050501580156119cd573d6000803e3d6000fd5b61107883838360405180602001604052806000815250613190565b6001600160a01b037f0000000000000000000000000000000000000000000000000000000000000000163003611e4d5760405162461bcd60e51b8152600401610e5890615a62565b7f00000000000000000000000000000000000000000000000000000000000000006001600160a01b0316611e96600080516020615e8f833981519152546001600160a01b031690565b6001600160a01b031614611ebc5760405162461bcd60e51b8152600401610e5890615aae565b611ec5826140e8565b6119cd828260016140f0565b6000306001600160a01b037f00000000000000000000000000000000000000000000000000000000000000001614611f715760405162461bcd60e51b815260206004820152603860248201527f555550535570677261646561626c653a206d757374206e6f742062652063616c60448201527f6c6564207468726f7567682064656c656761746563616c6c00000000000000006064820152608401610e58565b50600080516020615e8f83398151915290565b6001600160a01b038116600090815261016f6020908152604091829020805483518184028101840190945280845260609392830182828015611fe557602002820191906000526020600020905b815481526020019060010190808311611fd1575b50505050509050919050565b60008181526101686020908152604091829020805483518184028101840190945280845260609392830182828015611fe557602002820191906000526020600020905b81546001600160a01b031681526001909101906020018083116120345750505050509050919050565b6001600160a01b0382166000908152610165602052604090205460ff16156120c05760405162461bcd60e51b815260206004820152601660248201527553747564656e7420616c72656164792065786973747360501b6044820152606401610e58565b6001600160a01b0382166000818152610164602090815260408083208590556101658252808320805460ff19166001908117909155610166805491820181559093527fa5a4c57b7184ec73d55be4993773cb4eef681bc86a28d0285cd66efb50676a9790920180546001600160a01b0319168417905590518381527f481f70abdaaa7e4e53bed4ead7bded11ecbcdaa9f01fe0b3f850cb01e071bf919101611779565b6000818152606760205260408120546001600160a01b0316806111735760405162461bcd60e51b8152602060048201526018602482015277115490cdcc8c4e881a5b9d985b1a59081d1bdad95b88125160421b6044820152606401610e58565b6000811180156121d6575061015f548111155b6121f25760405162461bcd60e51b8152600401610e5890615822565b60008181526101606020526040812060080180549161221083615863565b919050555050565b610168602052816000526040600020818154811061223557600080fd5b6000918252602090912001546001600160a01b03169150829050565b60006001600160a01b0382166122bb5760405162461bcd60e51b815260206004820152602960248201527f4552433732313a2061646472657373207a65726f206973206e6f7420612076616044820152683634b21037bbb732b960b91b6064820152608401610e58565b506001600160a01b031660009081526068602052604090205490565b6122df61425b565b6122e96000613b08565b565b33600090815261016260205260408120546123185760405162461bcd60e51b8152600401610e58906157dd565b6001600160a01b0384166000908152610165602052604090205460ff166123815760405162461bcd60e51b815260206004820152601860248201527f4e6f74206120726567697374657265642073747564656e7400000000000000006044820152606401610e58565b61238d843385856142b5565b949350505050565b6101638181548110610d1357600080fd5b6001600160a01b038216600090815261016260205260409020541561240d5760405162461bcd60e51b815260206004820152601760248201527f4c6563747572657220616c7265616479206578697374730000000000000000006044820152606401610e58565b6001600160a01b03821660008181526101626020526040808220849055610163805460018101825592527fb0f3e90519fd0de3100ca1a24094c0a25e5cbf467d74a2603172b5a5204555b390910180546001600160a01b03191683179055517ff41b6f34bb9c4ca3f7fd3415e13442244ab51655583ce1a228b284abca8c33dc906117799084815260200190565b6000821180156124ae575061015f548211155b6124ca5760405162461bcd60e51b8152600401610e5890615822565b600082815261016060205260409020600901546001600160a01b031633146125045760405162461bcd60e51b8152600401610e5890615afa565b60008151116125605760405162461bcd60e51b815260206004820152602260248201527f436f6e74656e7420555249732061727261792063616e6e6f7420626520656d70604482015261747960f01b6064820152608401610e58565b60005b815181101561260157600082828151811061258057612580615b40565b602002602001015151116125a65760405162461bcd60e51b8152600401610e5890615b56565b6101606000848152602001908152602001600020600b018282815181106125cf576125cf615b40565b602090810291909101810151825460018101845560009384529190922001906125f890826158cc565b50600101612563565b50817f5f3ecb61e63394d34a984597179063028a9e892ab46083cc23665bc92a81137a6101606000858152602001908152602001600020600b016040516117799190615b8d565b612650614c6d565b600082118015612663575061016d548211155b6126a75760405162461bcd60e51b8152602060048201526015602482015274125b9d985b1a590818dc9959195b9d1a585b081a59605a1b6044820152606401610e58565b600082815261016e6020908152604091829020825160c0810184528154815260018201546001600160a01b03908116938201939093526002820154909216928201929092526003820154606082015260048201805491929160808401919061270e906157a3565b80601f016020809104026020016040519081016040528092919081815260200182805461273a906157a3565b80156127875780601f1061275c57610100808354040283529160200191612787565b820191906000526020600020905b81548152906001019060200180831161276a57829003601f168201915b505050505081526020016005820180546127a0906157a3565b80601f01602080910402602001604051908101604052809291908181526020018280546127cc906157a3565b80156128195780601f106127ee57610100808354040283529160200191612819565b820191906000526020600020905b8154815290600101906020018083116127fc57829003601f168201915b5050505050815250509050919050565b612831614486565b600082118015612844575061015f548211155b6128605760405162461bcd60e51b8152600401610e5890615822565b6001600160a01b0381166000908152610165602052604090205460ff166128995760405162461bcd60e51b8152600401610e589061598b565b6000828152610169602090815260408083206001600160a01b038516845290915290205460ff16156128dd5760405162461bcd60e51b8152600401610e5890615c60565b600061016060008481526020019081526020016000206040518061018001604052908160008201548152602001600182018054612919906157a3565b80601f0160208091040260200160405190810160405280929190818152602001828054612945906157a3565b80156129925780601f1061296757610100808354040283529160200191612992565b820191906000526020600020905b81548152906001019060200180831161297557829003601f168201915b505050505081526020016002820180546129ab906157a3565b80601f01602080910402602001604051908101604052809291908181526020018280546129d7906157a3565b8015612a245780601f106129f957610100808354040283529160200191612a24565b820191906000526020600020905b815481529060010190602001808311612a0757829003601f168201915b50505050508152602001600382015481526020016004820154815260200160058201805480602002602001604051908101604052809291908181526020016000905b82821015612b12578382906000526020600020018054612a85906157a3565b80601f0160208091040260200160405190810160405280929190818152602001828054612ab1906157a3565b8015612afe5780601f10612ad357610100808354040283529160200191612afe565b820191906000526020600020905b815481529060010190602001808311612ae157829003601f168201915b505050505081526020019060010190612a66565b505050508152602001600682018054612b2a906157a3565b80601f0160208091040260200160405190810160405280929190818152602001828054612b56906157a3565b8015612ba35780601f10612b7857610100808354040283529160200191612ba3565b820191906000526020600020905b815481529060010190602001808311612b8657829003601f168201915b5050509183525050600782015460208201526008820154604082015260098201546001600160a01b03166060820152600a82018054608090920191612be7906157a3565b80601f0160208091040260200160405190810160405280929190818152602001828054612c13906157a3565b8015612c605780601f10612c3557610100808354040283529160200191612c60565b820191906000526020600020905b815481529060010190602001808311612c4357829003601f168201915b50505050508152602001600b8201805480602002602001604051908101604052809291908181526020016000905b82821015612d3a578382906000526020600020018054612cad906157a3565b80601f0160208091040260200160405190810160405280929190818152602001828054612cd9906157a3565b8015612d265780601f10612cfb57610100808354040283529160200191612d26565b820191906000526020600020905b815481529060010190602001808311612d0957829003601f168201915b505050505081526020019060010190612c8e565b505050508152505090508060800151341015612d8f5760405162461bcd60e51b8152602060048201526014602482015273125b9cdd59999a58da595b9d081c185e5b595b9d60621b6044820152606401610e58565b612d9983836144e1565b612da2836121c3565b6101708054906000612db383615863565b9190505550612dc58261017054613cd5565b8060800151341115612e1057608081015133906108fc90612de69034615ca7565b6040518115909202916000818181858888f19350505050158015612e0e573d6000803e3d6000fd5b505b506119cd600161012d55565b60008082118015612e30575061015f548211155b612e4c5760405162461bcd60e51b8152600401610e5890615822565b50600090815261016060205260409020600b015490565b606060668054610d3c906157a3565b6101606020526000908152604090208054600182018054919291612e95906157a3565b80601f0160208091040260200160405190810160405280929190818152602001828054612ec1906157a3565b8015612f0e5780601f10612ee357610100808354040283529160200191612f0e565b820191906000526020600020905b815481529060010190602001808311612ef157829003601f168201915b505050505090806002018054612f23906157a3565b80601f0160208091040260200160405190810160405280929190818152602001828054612f4f906157a3565b8015612f9c5780601f10612f7157610100808354040283529160200191612f9c565b820191906000526020600020905b815481529060010190602001808311612f7f57829003601f168201915b505050505090806003015490806004015490806006018054612fbd906157a3565b80601f0160208091040260200160405190810160405280929190818152602001828054612fe9906157a3565b80156130365780601f1061300b57610100808354040283529160200191613036565b820191906000526020600020905b81548152906001019060200180831161301957829003601f168201915b505050600784015460088501546009860154600a87018054969793969295506001600160a01b0390911693509061306c906157a3565b80601f0160208091040260200160405190810160405280929190818152602001828054613098906157a3565b80156130e55780601f106130ba576101008083540402835291602001916130e5565b820191906000526020600020905b8154815290600101906020018083116130c857829003601f168201915b505050505090508a565b6119cd3383836145e0565b60008211801561310d575061015f548211155b6131295760405162461bcd60e51b8152600401610e5890615822565b603281111561317a5760405162461bcd60e51b815260206004820152601f60248201527f526174696e67206d757374206265206265747765656e203020616e64203530006044820152606401610e58565b6000918252610160602052604090912060070155565b61319a3383613f06565b6131b65760405162461bcd60e51b8152600401610e58906159ce565b610f3b848484846146ae565b60606131cd82613b5a565b60006131e460408051602081019091526000815290565b90506000815111613204576040518060200160405280600081525061322f565b8061320e846146e1565b60405160200161321f929190615cba565b6040516020818303038152906040525b9392505050565b6001600160a01b03811660009081526101676020908152604091829020805483518184028101840190945280845260609392830182828015611fe55760200282019190600052602060002090815481526020019060010190808311611fd15750505050509050919050565b6001600160a01b038116600090815261016f6020908152604080832080548251818502810185019093528083526060949383018282801561330157602002820191906000526020600020905b8154815260200190600101908083116132ed575b50505050509050600081516001600160401b0381111561332357613323614de5565b60405190808252806020026020018201604052801561335c57816020015b613349614c6d565b8152602001906001900390816133415790505b50905060005b82518110156135295761016e600084838151811061338257613382615b40565b6020908102919091018101518252818101929092526040908101600020815160c0810183528154815260018201546001600160a01b0390811694820194909452600282015490931691830191909152600381015460608301526004810180546080840191906133f0906157a3565b80601f016020809104026020016040519081016040528092919081815260200182805461341c906157a3565b80156134695780601f1061343e57610100808354040283529160200191613469565b820191906000526020600020905b81548152906001019060200180831161344c57829003601f168201915b50505050508152602001600582018054613482906157a3565b80601f01602080910402602001604051908101604052809291908181526020018280546134ae906157a3565b80156134fb5780601f106134d0576101008083540402835291602001916134fb565b820191906000526020600020905b8154815290600101906020018083116134de57829003601f168201915b50505050508152505082828151811061351657613516615b40565b6020908102919091010152600101613362565b509392505050565b61016e602052600090815260409020805460018201546002830154600384015460048501805494956001600160a01b039485169593909416939192613575906157a3565b80601f01602080910402602001604051908101604052809291908181526020018280546135a1906157a3565b80156135ee5780601f106135c3576101008083540402835291602001916135ee565b820191906000526020600020905b8154815290600101906020018083116135d157829003601f168201915b505050505090806005018054613603906157a3565b80601f016020809104026020016040519081016040528092919081815260200182805461362f906157a3565b801561367c5780601f106136515761010080835404028352916020019161367c565b820191906000526020600020905b81548152906001019060200180831161365f57829003601f168201915b5050505050905086565b61368e61425b565b6001600160a01b0381166136f35760405162461bcd60e51b815260206004820152602660248201527f4f776e61626c653a206e6577206f776e657220697320746865207a65726f206160448201526564647265737360d01b6064820152608401610e58565b611d6081613b08565b60008211801561370f575061015f548211155b61372b5760405162461bcd60e51b8152600401610e5890615822565b600082815261016060205260409020600901546001600160a01b031633146137655760405162461bcd60e51b8152600401610e5890615afa565b60008151116137865760405162461bcd60e51b8152600401610e5890615b56565b6000828152610160602090815260408220600b0180546001810182559083529120016137b282826158cc565b50600082815261016060205260409020600b015482907ff04740232fc267e81c1f5142df00ffab820e31dcb32d747e5af68a744c279cee9083906137f890600190615ca7565b604051611779929190615ce9565b610167602052816000526040600020818154811061382357600080fd5b90600052602060002001600091509150505481565b60008211801561384b575061015f548211155b6138675760405162461bcd60e51b8152600401610e5890615822565b600082815261016060205260409020600901546001600160a01b031633146138e35760405162461bcd60e51b815260206004820152602960248201527f4f6e6c7920636f7572736520696e7374727563746f722063616e207570646174604482015268194818dbdb9d195b9d60ba1b6064820152608401610e58565b60008281526101606020526040812061390191600b90910190614cb5565b60005b81518110156139a257600082828151811061392157613921615b40565b602002602001015151116139475760405162461bcd60e51b8152600401610e5890615b56565b6101606000848152602001908152602001600020600b0182828151811061397057613970615b40565b6020908102919091018101518254600181018455600093845291909220019061399990826158cc565b50600101613904565b50817f5f3ecb61e63394d34a984597179063028a9e892ab46083cc23665bc92a81137a826040516117799190615144565b60006001600160e01b031982166380ac58cd60e01b1480613a0457506001600160e01b03198216635b5e139f60e01b145b80610cfc57506301ffc9a760e01b6001600160e01b0319831614610cfc565b600054610100900460ff16613a4a5760405162461bcd60e51b8152600401610e5890615d0b565b6119cd8282614773565b600054610100900460ff16613a7b5760405162461bcd60e51b8152600401610e5890615d0b565b6122e96147b3565b600054610100900460ff166122e95760405162461bcd60e51b8152600401610e5890615d0b565b600054610100900460ff16613ad15760405162461bcd60e51b8152600401610e5890615d0b565b6122e96147e3565b600054610100900460ff16613b005760405162461bcd60e51b8152600401610e5890615d0b565b600061016c55565b609780546001600160a01b038381166001600160a01b0319831681179093556040519116919082907f8be0079c531659141344cd1fd0a4f28419497f9722a3daafe3b4186f6b6457e090600090a35050565b6000818152606760205260409020546001600160a01b0316611d605760405162461bcd60e51b8152602060048201526018602482015277115490cdcc8c4e881a5b9d985b1a59081d1bdad95b88125160421b6044820152606401610e58565b600081815260696020526040902080546001600160a01b0319166001600160a01b0384169081179091558190613bee82612163565b6001600160a01b03167f8c5be1e5ebec7d5bd14f71427d1e84f3dd0314c0f7b2291e5b200ac8c7c3b92560405160405180910390a45050565b61016c805460009182613c3983615863565b909155505061016c546040805160808101825282815260208082018681524283850181815260006060860181815288825261016a865290879020955186559251600186015551600285015590516003909301805460ff1916931515939093179092559151908152849183917f9d810e0082f8a92772407ea94a85bc457d358804c697a63a434a5043bf81be7f910160405180910390a392915050565b6001600160a01b038216613d2b5760405162461bcd60e51b815260206004820181905260248201527f4552433732313a206d696e7420746f20746865207a65726f20616464726573736044820152606401610e58565b6000818152606760205260409020546001600160a01b031615613d905760405162461bcd60e51b815260206004820152601c60248201527f4552433732313a20746f6b656e20616c7265616479206d696e746564000000006044820152606401610e58565b6000818152606760205260409020546001600160a01b031615613df55760405162461bcd60e51b815260206004820152601c60248201527f4552433732313a20746f6b656e20616c7265616479206d696e746564000000006044820152606401610e58565b6001600160a01b038216600081815260686020908152604080832080546001019055848352606790915280822080546001600160a01b0319168417905551839291907fddf252ad1be2c89b69c2b068fc378daa952ba7f163c4a11628f55a4df523b3ef908290a45050565b600082815261016a6020526040902060010154613eb35760405162461bcd60e51b815260206004820152601160248201527014d95cdcda5bdb881b9bdd08199bdd5b99607a1b6044820152606401610e58565b6001600160a01b038116600081815261016b60209081526040808320868452909152808220600190555184917f9e5d24579183fa37d9de3c53c170caae77e5ea5a3ed2c66fdd356f590ff779f491a35050565b600080613f1283612163565b9050806001600160a01b0316846001600160a01b03161480613f5957506001600160a01b038082166000908152606a602090815260408083209388168352929052205460ff165b8061238d5750836001600160a01b0316613f7284610f41565b6001600160a01b031614949350505050565b826001600160a01b0316613f9782612163565b6001600160a01b031614613fbd5760405162461bcd60e51b8152600401610e5890615d56565b6001600160a01b03821661401f5760405162461bcd60e51b8152602060048201526024808201527f4552433732313a207472616e7366657220746f20746865207a65726f206164646044820152637265737360e01b6064820152608401610e58565b826001600160a01b031661403282612163565b6001600160a01b0316146140585760405162461bcd60e51b8152600401610e5890615d56565b600081815260696020908152604080832080546001600160a01b03199081169091556001600160a01b0387811680865260688552838620805460001901905590871680865283862080546001019055868652606790945282852080549092168417909155905184937fddf252ad1be2c89b69c2b068fc378daa952ba7f163c4a11628f55a4df523b3ef91a4505050565b611d6061425b565b7f4910fdfa16fed3260ed0e7147f7cc6da11a60208b5b9406d12a635614ffd91435460ff1615614123576110788361480a565b826001600160a01b03166352d1902d6040518163ffffffff1660e01b8152600401602060405180830381865afa92505050801561417d575060408051601f3d908101601f1916820190925261417a91810190615d9b565b60015b6141e05760405162461bcd60e51b815260206004820152602e60248201527f45524331393637557067726164653a206e657720696d706c656d656e7461746960448201526d6f6e206973206e6f74205555505360901b6064820152608401610e58565b600080516020615e8f833981519152811461424f5760405162461bcd60e51b815260206004820152602960248201527f45524331393637557067726164653a20756e737570706f727465642070726f786044820152681a58589b195555525160ba1b6064820152608401610e58565b506110788383836148a6565b6097546001600160a01b031633146122e95760405162461bcd60e51b815260206004820181905260248201527f4f776e61626c653a2063616c6c6572206973206e6f7420746865206f776e65726044820152606401610e58565b60006001600160a01b0385166142ff5760405162461bcd60e51b815260206004820152600f60248201526e125b9d985b1a59081cdd1d59195b9d608a1b6044820152606401610e58565b60008351116143415760405162461bcd60e51b815260206004820152600e60248201526d151a5d1b19481c995c5d5a5c995960921b6044820152606401610e58565b600161016d60008282546143559190615db4565b909155505061016d546040805160c0810182528281526001600160a01b0380891660208084019182528983168486019081524260608601908152608086018b815260a087018b9052600089815261016e909452969092208551815592516001840180549186166001600160a01b031992831617905590516002840180549190951691161790925590516003820155915190919060048201906143f790826158cc565b5060a0820151600582019061440c90826158cc565b5050506001600160a01b03808716600081815261016f6020908152604080832080546001810182559084529190922001849055519187169183907f2ec0f811294a1373db1a1f85e0a119a631d40f3e1d1bbba7776fc28ef0bd31f8906144759089908990615dc7565b60405180910390a495945050505050565b600261012d54036144d95760405162461bcd60e51b815260206004820152601f60248201527f5265656e7472616e637947756172643a207265656e7472616e742063616c6c006044820152606401610e58565b600261012d55565b6000828152610169602090815260408083206001600160a01b038516845290915290205460ff16156145255760405162461bcd60e51b8152600401610e5890615c60565b6001600160a01b038116600081815261016760209081526040808320805460018082018355918552838520018790558684526101688352818420805480830182559085528385200180546001600160a01b031916861790558684526101698352818420858552835292819020805460ff19169093179092558151858152908101929092527fc65c83424b9743cd85950d4d05ef8ab686409eafe1bf490c528b98f4eb800048910160405180910390a15050565b600161012d55565b816001600160a01b0316836001600160a01b0316036146415760405162461bcd60e51b815260206004820152601960248201527f4552433732313a20617070726f766520746f2063616c6c6572000000000000006044820152606401610e58565b6001600160a01b038381166000818152606a6020908152604080832094871680845294825291829020805460ff191686151590811790915591519182527f17307eab39ab6107e8899845ad3d59bd9653f200f220920489ca2b5937696c31910160405180910390a3505050565b6146b9848484613f84565b6146c5848484846148cb565b610f3b5760405162461bcd60e51b8152600401610e5890615dec565b606060006146ee836149c9565b60010190506000816001600160401b0381111561470d5761470d614de5565b6040519080825280601f01601f191660200182016040528015614737576020820181803683370190505b5090508181016020015b600019016f181899199a1a9b1b9c1cb0b131b232b360811b600a86061a8153600a850494508461474157509392505050565b600054610100900460ff1661479a5760405162461bcd60e51b8152600401610e5890615d0b565b60656147a683826158cc565b50606661107882826158cc565b600054610100900460ff166147da5760405162461bcd60e51b8152600401610e5890615d0b565b6122e933613b08565b600054610100900460ff166145d85760405162461bcd60e51b8152600401610e5890615d0b565b6001600160a01b0381163b6148775760405162461bcd60e51b815260206004820152602d60248201527f455243313936373a206e657720696d706c656d656e746174696f6e206973206e60448201526c1bdd08184818dbdb9d1c9858dd609a1b6064820152608401610e58565b600080516020615e8f83398151915280546001600160a01b0319166001600160a01b0392909216919091179055565b6148af83614aa1565b6000825111806148bc5750805b1561107857610f3b8383614ae1565b60006001600160a01b0384163b156149c157604051630a85bd0160e11b81526001600160a01b0385169063150b7a029061490f903390899088908890600401615e3e565b6020604051808303816000875af192505050801561494a575060408051601f3d908101601f1916820190925261494791810190615e71565b60015b6149a7573d808015614978576040519150601f19603f3d011682016040523d82523d6000602084013e61497d565b606091505b50805160000361499f5760405162461bcd60e51b8152600401610e5890615dec565b805181602001fd5b6001600160e01b031916630a85bd0160e11b14905061238d565b50600161238d565b60008072184f03e93ff9f4daa797ed6e38ed64bf6a1f0160401b8310614a085772184f03e93ff9f4daa797ed6e38ed64bf6a1f0160401b830492506040015b6d04ee2d6d415b85acef81000000008310614a34576d04ee2d6d415b85acef8100000000830492506020015b662386f26fc100008310614a5257662386f26fc10000830492506010015b6305f5e1008310614a6a576305f5e100830492506008015b6127108310614a7e57612710830492506004015b60648310614a90576064830492506002015b600a83106111735760010192915050565b614aaa8161480a565b6040516001600160a01b038216907fbc7cd75a20ee27fd9adebab32041f755214dbc6bffa90cc0225b39da2e5c2d3b90600090a250565b606061322f8383604051806060016040528060278152602001615eaf602791396060600080856001600160a01b031685604051614b1e9190615a1b565b600060405180830381855af49150503d8060008114614b59576040519150601f19603f3d011682016040523d82523d6000602084013e614b5e565b606091505b5091509150614b6f86838387614b79565b9695505050505050565b60608315614be8578251600003614be1576001600160a01b0385163b614be15760405162461bcd60e51b815260206004820152601d60248201527f416464726573733a2063616c6c20746f206e6f6e2d636f6e74726163740000006044820152606401610e58565b508161238d565b61238d8383815115614bfd5781518083602001fd5b8060405162461bcd60e51b8152600401610e589190614dd2565b828054828255906000526020600020908101928215614c5d579160200282015b82811115614c5d5782518290614c4d90826158cc565b5091602001919060010190614c37565b50614c69929150614ccf565b5090565b6040518060c001604052806000815260200160006001600160a01b0316815260200160006001600160a01b031681526020016000815260200160608152602001606081525090565b5080546000825590600052602060002090810190611d6091905b80821115614c69576000614ce38282614cec565b50600101614ccf565b508054614cf8906157a3565b6000825580601f10614d08575050565b601f016020900490600052602060002090810190611d6091905b80821115614c695760008155600101614d22565b6001600160e01b031981168114611d6057600080fd5b600060208284031215614d5e57600080fd5b813561322f81614d36565b600060208284031215614d7b57600080fd5b5035919050565b60005b83811015614d9d578181015183820152602001614d85565b50506000910152565b60008151808452614dbe816020860160208601614d82565b601f01601f19169290920160200192915050565b60208152600061322f6020830184614da6565b634e487b7160e01b600052604160045260246000fd5b604051601f8201601f191681016001600160401b0381118282101715614e2357614e23614de5565b604052919050565b600082601f830112614e3c57600080fd5b81356001600160401b03811115614e5557614e55614de5565b614e68601f8201601f1916602001614dfb565b818152846020838601011115614e7d57600080fd5b816020850160208301376000918101602001919091529392505050565b80356001600160a01b038116811461117657600080fd5b600080600060608486031215614ec657600080fd5b83356001600160401b0380821115614edd57600080fd5b614ee987838801614e2b565b94506020860135915080821115614eff57600080fd5b50614f0c86828701614e2b565b925050614f1b60408501614e9a565b90509250925092565b60008060408385031215614f3757600080fd5b614f4083614e9a565b946020939093013593505050565b60008282518085526020808601955060208260051b8401016020860160005b84811015614f9b57601f19868403018952614f89838351614da6565b98840198925090830190600101614f6d565b5090979650505050505050565b602081528151602082015260006020830151610180806040850152614fd16101a0850183614da6565b91506040850151601f1980868503016060870152614fef8483614da6565b935060608701516080870152608087015160a087015260a08701519150808685030160c08701526150208483614f4e565b935060c08701519150808685030160e087015261503d8483614da6565b60e088015161010088810191909152880151610120808901919091528801519094509150610140615078818801846001600160a01b03169052565b808801519250506101608187860301818801526150958584614da6565b908801518782039092018488015293509050614b6f8382614f4e565b600080604083850312156150c457600080fd5b8235915060208301356001600160401b038111156150e157600080fd5b6150ed85828601614e2b565b9150509250929050565b6020808252825182820181905260009190848201906040850190845b818110156151385783516001600160a01b031683529284019291840191600101615113565b50909695505050505050565b600060208083016020845280855180835260408601915060408160051b87010192506020870160005b8281101561519b57603f19888603018452615189858351614da6565b9450928501929085019060010161516d565b5092979650505050505050565b600080604083850312156151bb57600080fd5b823591506151cb60208401614e9a565b90509250929050565b6000806000606084860312156151e957600080fd5b6151f284614e9a565b925061520060208501614e9a565b9150604084013590509250925092565b60006020828403121561522257600080fd5b61322f82614e9a565b600082601f83011261523c57600080fd5b813560206001600160401b038083111561525857615258614de5565b8260051b615267838201614dfb565b938452858101830193838101908886111561528157600080fd5b84880192505b85831015611c785782358481111561529f5760008081fd5b6152ad8a87838c0101614e2b565b8352509184019190840190615287565b600080600080600080600060e0888a0312156152d857600080fd5b87356001600160401b03808211156152ef57600080fd5b6152fb8b838c01614e2b565b985060208a0135975060408a013591508082111561531857600080fd5b6153248b838c01614e2b565b965060608a0135955060808a013591508082111561534157600080fd5b61534d8b838c0161522b565b945060a08a013591508082111561536357600080fd5b61536f8b838c01614e2b565b935060c08a013591508082111561538557600080fd5b506153928a828b01614e2b565b91505092959891949750929550565b6000602082840312156153b357600080fd5b81356001600160401b038111156153c957600080fd5b61238d84828501614e2b565b600080604083850312156153e857600080fd5b6153f183614e9a565b915060208301356001600160401b038111156150e157600080fd5b6020808252825182820181905260009190848201906040850190845b8181101561513857835183529284019291840191600101615428565b6000806040838503121561545757600080fd5b50508035926020909101359150565b60008060006060848603121561547b57600080fd5b61548484614e9a565b925060208401356001600160401b03808211156154a057600080fd5b6154ac87838801614e2b565b935060408601359150808211156154c257600080fd5b506154cf86828701614e2b565b9150509250925092565b600080604083850312156154ec57600080fd5b8235915060208301356001600160401b0381111561550957600080fd5b6150ed8582860161522b565b805182526000602082015160018060a01b038082166020860152806040850151166040860152505060608201516060840152608082015160c0608085015261556060c0850182614da6565b905060a083015184820360a08601526155798282614da6565b95945050505050565b60208152600061322f6020830184615515565b60006101408c83528060208401526155af8184018d614da6565b905082810360408401526155c3818c614da6565b905089606084015288608084015282810360a08401526155e38189614da6565b60c0840188905260e084018790526001600160a01b03861661010085015283810361012085015290506156168185614da6565b9d9c50505050505050505050505050565b6000806040838503121561563a57600080fd5b61564383614e9a565b91506020830135801515811461565857600080fd5b809150509250929050565b6000806000806080858703121561567957600080fd5b61568285614e9a565b935061569060208601614e9a565b92506040850135915060608501356001600160401b038111156156b257600080fd5b6156be87828801614e2b565b91505092959194509250565b600060208083016020845280855180835260408601915060408160051b87010192506020870160005b8281101561519b57603f1988860301845261570f858351615515565b945092850192908501906001016156f3565b8681526001600160a01b038681166020830152851660408201526060810184905260c06080820181905260009061575a90830185614da6565b82810360a084015261576c8185614da6565b9998505050505050505050565b6000806040838503121561578c57600080fd5b61579583614e9a565b91506151cb60208401614e9a565b600181811c908216806157b757607f821691505b6020821081036157d757634e487b7160e01b600052602260045260246000fd5b50919050565b60208082526025908201527f4f6e6c79206c656374757265722063616e20706572666f726d2074686973206160408201526431ba34b7b760d91b606082015260800190565b602080825260119082015270125b9d985b1a590818dbdd5c9cd9481251607a1b604082015260600190565b634e487b7160e01b600052601160045260246000fd5b6000600182016158755761587561584d565b5060010190565b601f821115611078576000816000526020600020601f850160051c810160208610156158a55750805b601f850160051c820191505b818110156158c4578281556001016158b1565b505050505050565b81516001600160401b038111156158e5576158e5614de5565b6158f9816158f384546157a3565b8461587c565b602080601f83116001811461592e57600084156159165750858301515b600019600386901b1c1916600185901b1785556158c4565b600085815260208120601f198616915b8281101561595d5788860151825594840194600190910190840161593e565b508582101561597b5787850151600019600388901b60f8161c191681555b5050505050600190811b01905550565b60208082526023908201527f41646472657373206973206e6f74206120726567697374657265642073747564604082015262195b9d60ea1b606082015260800190565b6020808252602d908201527f4552433732313a2063616c6c6572206973206e6f7420746f6b656e206f776e6560408201526c1c881bdc88185c1c1c9bdd9959609a1b606082015260800190565b60008251615a2d818460208701614d82565b9190910192915050565b606081526000615a4a6060830186614da6565b8460208401528281036040840152614b6f8185614da6565b6020808252602c908201527f46756e6374696f6e206d7573742062652063616c6c6564207468726f7567682060408201526b19195b1959d85d1958d85b1b60a21b606082015260800190565b6020808252602c908201527f46756e6374696f6e206d7573742062652063616c6c6564207468726f7567682060408201526b6163746976652070726f787960a01b606082015260800190565b60208082526026908201527f4f6e6c7920636f7572736520696e7374727563746f722063616e2061646420636040820152651bdb9d195b9d60d21b606082015260800190565b634e487b7160e01b600052603260045260246000fd5b6020808252601b908201527f436f6e74656e74205552492063616e6e6f7420626520656d7074790000000000604082015260600190565b600060208083018184528085548083526040860191506005925060408160051b8701016000888152858120815b84811015615c5157603f198a8503018652828254615bd7816157a3565b80875260018281168015615bf25760018114615c0b57615c3a565b60ff198416898e01528215158c1b89018d019450615c3a565b8688528c8820885b84811015615c325781548f828d01015283820191508e81019050615c13565b8a018e019550505b50988b019892965050509190910190600101615bba565b50919998505050505050505050565b60208082526027908201527f53747564656e7420616c726561647920656e726f6c6c656420696e207468697360408201526620636f7572736560c81b606082015260800190565b81810381811115610cfc57610cfc61584d565b60008351615ccc818460208801614d82565b835190830190615ce0818360208801614d82565b01949350505050565b604081526000615cfc6040830185614da6565b90508260208301529392505050565b6020808252602b908201527f496e697469616c697a61626c653a20636f6e7472616374206973206e6f74206960408201526a6e697469616c697a696e6760a81b606082015260800190565b60208082526025908201527f4552433732313a207472616e736665722066726f6d20696e636f72726563742060408201526437bbb732b960d91b606082015260800190565b600060208284031215615dad57600080fd5b5051919050565b80820180821115610cfc57610cfc61584d565b604081526000615dda6040830185614da6565b82810360208401526155798185614da6565b60208082526032908201527f4552433732313a207472616e7366657220746f206e6f6e20455243373231526560408201527131b2b4bb32b91034b6b83632b6b2b73a32b960711b606082015260800190565b6001600160a01b0385811682528416602082015260408101839052608060608201819052600090614b6f90830184614da6565b600060208284031215615e8357600080fd5b815161322f81614d3656fe360894a13ba1a3210667c828492db98dca3e2076cc3735a920a3ca505d382bbc416464726573733a206c6f772d6c6576656c2064656c65676174652063616c6c206661696c6564a2646970667358221220380171236e4911555c264e69a2e8259d585d28a04dfdd00d7d6c34ce87b36e9164736f6c63430008160033",
  "linkReferences": {},
  "deployedLinkReferences": {}
}