{
  "_format": "hh-sol-artifact-1",
  "contractName": "Celorean",
  "sourceName": "contracts/Celorean.sol",
  "abi": [
    {
      "inputs": [
        {
          "internalType": "address",
          "name": "target",
          "type": "address"
        }
      ],
      "name": "AddressEmptyCode",
      "type": "error"
    },
    {
      "inputs": [
        {
          "internalType": "address",
          "name": "implementation",
          "type": "address"
        }
      ],
      "name": "ERC1967InvalidImplementation",
      "type": "error"
    },
    {
      "inputs": [],
      "name": "ERC1967NonPayable",
      "type": "error"
    },
    {
      "inputs": [
        {
          "internalType": "address",
          "name": "sender",
          "type": "address"
        },
        {
          "internalType": "uint256",
          "name": "tokenId",
          "type": "uint256"
        },
        {
          "internalType": "address",
          "name": "owner",
          "type": "address"
        }
      ],
      "name": "ERC721IncorrectOwner",
      "type": "error"
    },
    {
      "inputs": [
        {
          "internalType": "address",
          "name": "operator",
          "type": "address"
        },
        {
          "internalType": "uint256",
          "name": "tokenId",
          "type": "uint256"
        }
      ],
      "name": "ERC721InsufficientApproval",
      "type": "error"
    },
    {
      "inputs": [
        {
          "internalType": "address",
          "name": "approver",
          "type": "address"
        }
      ],
      "name": "ERC721InvalidApprover",
      "type": "error"
    },
    {
      "inputs": [
        {
          "internalType": "address",
          "name": "operator",
          "type": "address"
        }
      ],
      "name": "ERC721InvalidOperator",
      "type": "error"
    },
    {
      "inputs": [
        {
          "internalType": "address",
          "name": "owner",
          "type": "address"
        }
      ],
      "name": "ERC721InvalidOwner",
      "type": "error"
    },
    {
      "inputs": [
        {
          "internalType": "address",
          "name": "receiver",
          "type": "address"
        }
      ],
      "name": "ERC721InvalidReceiver",
      "type": "error"
    },
    {
      "inputs": [
        {
          "internalType": "address",
          "name": "sender",
          "type": "address"
        }
      ],
      "name": "ERC721InvalidSender",
      "type": "error"
    },
    {
      "inputs": [
        {
          "internalType": "uint256",
          "name": "tokenId",
          "type": "uint256"
        }
      ],
      "name": "ERC721NonexistentToken",
      "type": "error"
    },
    {
      "inputs": [],
      "name": "FailedCall",
      "type": "error"
    },
    {
      "inputs": [],
      "name": "InvalidInitialization",
      "type": "error"
    },
    {
      "inputs": [],
      "name": "NotInitializing",
      "type": "error"
    },
    {
      "inputs": [
        {
          "internalType": "address",
          "name": "owner",
          "type": "address"
        }
      ],
      "name": "OwnableInvalidOwner",
      "type": "error"
    },
    {
      "inputs": [
        {
          "internalType": "address",
          "name": "account",
          "type": "address"
        }
      ],
      "name": "OwnableUnauthorizedAccount",
      "type": "error"
    },
    {
      "inputs": [],
      "name": "ReentrancyGuardReentrantCall",
      "type": "error"
    },
    {
      "inputs": [],
      "name": "UUPSUnauthorizedCallContext",
      "type": "error"
    },
    {
      "inputs": [
        {
          "internalType": "bytes32",
          "name": "slot",
          "type": "bytes32"
        }
      ],
      "name": "UUPSUnsupportedProxiableUUID",
      "type": "error"
    },
    {
      "anonymous": false,
      "inputs": [
        {
          "indexed": true,
          "internalType": "address",
          "name": "owner",
          "type": "address"
        },
        {
          "indexed": true,
          "internalType": "address",
          "name": "approved",
          "type": "address"
        },
        {
          "indexed": true,
          "internalType": "uint256",
          "name": "tokenId",
          "type": "uint256"
        }
      ],
      "name": "Approval",
      "type": "event"
    },
    {
      "anonymous": false,
      "inputs": [
        {
          "indexed": true,
          "internalType": "address",
          "name": "owner",
          "type": "address"
        },
        {
          "indexed": true,
          "internalType": "address",
          "name": "operator",
          "type": "address"
        },
        {
          "indexed": false,
          "internalType": "bool",
          "name": "approved",
          "type": "bool"
        }
      ],
      "name": "ApprovalForAll",
      "type": "event"
    },
    {
      "anonymous": false,
      "inputs": [
        {
          "indexed": true,
          "internalType": "uint256",
          "name": "sessionId",
          "type": "uint256"
        },
        {
          "indexed": true,
          "internalType": "address",
          "name": "student",
          "type": "address"
        }
      ],
      "name": "AttendanceMarked",
      "type": "event"
    },
    {
      "anonymous": false,
      "inputs": [
        {
          "indexed": true,
          "internalType": "address",
          "name": "nft",
          "type": "address"
        }
      ],
      "name": "CertificateNFTUpdated",
      "type": "event"
    },
    {
      "anonymous": false,
      "inputs": [
        {
          "indexed": true,
          "internalType": "uint256",
          "name": "sessionId",
          "type": "uint256"
        },
        {
          "indexed": true,
          "internalType": "uint256",
          "name": "courseId",
          "type": "uint256"
        },
        {
          "indexed": false,
          "internalType": "uint256",
          "name": "timestamp",
          "type": "uint256"
        }
      ],
      "name": "ClassSessionCreated",
      "type": "event"
    },
    {
      "anonymous": false,
      "inputs": [
        {
          "indexed": true,
          "internalType": "uint256",
          "name": "courseId",
          "type": "uint256"
        },
        {
          "indexed": true,
          "internalType": "address",
          "name": "student",
          "type": "address"
        },
        {
          "indexed": false,
          "internalType": "uint256",
          "name": "contentIndex",
          "type": "uint256"
        },
        {
          "indexed": false,
          "internalType": "uint256",
          "name": "timestamp",
          "type": "uint256"
        }
      ],
      "name": "ContentCompleted",
      "type": "event"
    },
    {
      "anonymous": false,
      "inputs": [
        {
          "indexed": true,
          "internalType": "uint256",
          "name": "courseId",
          "type": "uint256"
        },
        {
          "indexed": false,
          "internalType": "string",
          "name": "newContentUri",
          "type": "string"
        },
        {
          "indexed": false,
          "internalType": "uint256",
          "name": "contentIndex",
          "type": "uint256"
        }
      ],
      "name": "CourseContentAdded",
      "type": "event"
    },
    {
      "anonymous": false,
      "inputs": [
        {
          "indexed": true,
          "internalType": "uint256",
          "name": "courseId",
          "type": "uint256"
        },
        {
          "indexed": false,
          "internalType": "string[]",
          "name": "newContentUris",
          "type": "string[]"
        }
      ],
      "name": "CourseContentUpdated",
      "type": "event"
    },
    {
      "anonymous": false,
      "inputs": [
        {
          "indexed": true,
          "internalType": "uint256",
          "name": "courseId",
          "type": "uint256"
        },
        {
          "indexed": false,
          "internalType": "string",
          "name": "title",
          "type": "string"
        },
        {
          "indexed": true,
          "internalType": "address",
          "name": "instructor",
          "type": "address"
        },
        {
          "indexed": false,
          "internalType": "string",
          "name": "metadataUri",
          "type": "string"
        }
      ],
      "name": "CourseCreated",
      "type": "event"
    },
    {
      "anonymous": false,
      "inputs": [
        {
          "indexed": true,
          "internalType": "uint256",
          "name": "courseId",
          "type": "uint256"
        },
        {
          "indexed": false,
          "internalType": "string",
          "name": "newMetadataUri",
          "type": "string"
        }
      ],
      "name": "CourseMetadataUpdated",
      "type": "event"
    },
    {
      "anonymous": false,
      "inputs": [
        {
          "indexed": true,
          "internalType": "uint256",
          "name": "id",
          "type": "uint256"
        },
        {
          "indexed": true,
          "internalType": "address",
          "name": "student",
          "type": "address"
        },
        {
          "indexed": true,
          "internalType": "address",
          "name": "issuer",
          "type": "address"
        },
        {
          "indexed": false,
          "internalType": "string",
          "name": "title",
          "type": "string"
        },
        {
          "indexed": false,
          "internalType": "string",
          "name": "metadataUri",
          "type": "string"
        }
      ],
      "name": "CredentialIssued",
      "type": "event"
    },
    {
      "anonymous": false,
      "inputs": [
        {
          "indexed": true,
          "internalType": "address",
          "name": "owner",
          "type": "address"
        },
        {
          "indexed": false,
          "internalType": "uint256",
          "name": "amount",
          "type": "uint256"
        }
      ],
      "name": "FundsWithdrawn",
      "type": "event"
    },
    {
      "anonymous": false,
      "inputs": [
        {
          "indexed": false,
          "internalType": "uint64",
          "name": "version",
          "type": "uint64"
        }
      ],
      "name": "Initialized",
      "type": "event"
    },
    {
      "anonymous": false,
      "inputs": [
        {
          "indexed": true,
          "internalType": "address",
          "name": "lecturer",
          "type": "address"
        },
        {
          "indexed": false,
          "internalType": "uint256",
          "name": "amount",
          "type": "uint256"
        }
      ],
      "name": "LecturerEmployed",
      "type": "event"
    },
    {
      "anonymous": false,
      "inputs": [
        {
          "indexed": true,
          "internalType": "address",
          "name": "previousOwner",
          "type": "address"
        },
        {
          "indexed": true,
          "internalType": "address",
          "name": "newOwner",
          "type": "address"
        }
      ],
      "name": "OwnershipTransferred",
      "type": "event"
    },
    {
      "anonymous": false,
      "inputs": [
        {
          "indexed": true,
          "internalType": "address",
          "name": "student",
          "type": "address"
        },
        {
          "indexed": false,
          "internalType": "uint256",
          "name": "amount",
          "type": "uint256"
        }
      ],
      "name": "StudentAdmitted",
      "type": "event"
    },
    {
      "anonymous": false,
      "inputs": [
        {
          "indexed": false,
          "internalType": "uint256",
          "name": "courseId",
          "type": "uint256"
        },
        {
          "indexed": false,
          "internalType": "address",
          "name": "student",
          "type": "address"
        }
      ],
      "name": "StudentRegistered",
      "type": "event"
    },
    {
      "anonymous": false,
      "inputs": [
        {
          "indexed": true,
          "internalType": "address",
          "name": "student",
          "type": "address"
        },
        {
          "indexed": false,
          "internalType": "uint256",
          "name": "newAmount",
          "type": "uint256"
        }
      ],
      "name": "StudentTokenUpdated",
      "type": "event"
    },
    {
      "anonymous": false,
      "inputs": [
        {
          "indexed": true,
          "internalType": "address",
          "name": "from",
          "type": "address"
        },
        {
          "indexed": true,
          "internalType": "address",
          "name": "to",
          "type": "address"
        },
        {
          "indexed": true,
          "internalType": "uint256",
          "name": "tokenId",
          "type": "uint256"
        }
      ],
      "name": "Transfer",
      "type": "event"
    },
    {
      "anonymous": false,
      "inputs": [
        {
          "indexed": true,
          "internalType": "address",
          "name": "implementation",
          "type": "address"
        }
      ],
      "name": "Upgraded",
      "type": "event"
    },
    {
      "inputs": [],
      "name": "UPGRADE_INTERFACE_VERSION",
      "outputs": [
        {
          "internalType": "string",
          "name": "",
          "type": "string"
        }
      ],
      "stateMutability": "view",
      "type": "function"
    },
    {
      "inputs": [
        {
          "internalType": "uint256",
          "name": "courseId",
          "type": "uint256"
        },
        {
          "internalType": "string",
          "name": "newContentUri",
          "type": "string"
        }
      ],
      "name": "addCourseContent",
      "outputs": [],
      "stateMutability": "nonpayable",
      "type": "function"
    },
    {
      "inputs": [
        {
          "internalType": "uint256",
          "name": "courseId",
          "type": "uint256"
        },
        {
          "internalType": "string[]",
          "name": "newContentUris",
          "type": "string[]"
        }
      ],
      "name": "addMultipleCourseContent",
      "outputs": [],
      "stateMutability": "nonpayable",
      "type": "function"
    },
    {
      "inputs": [
        {
          "internalType": "address",
          "name": "student",
          "type": "address"
        },
        {
          "internalType": "uint256",
          "name": "amount",
          "type": "uint256"
        }
      ],
      "name": "admitStudent",
      "outputs": [],
      "stateMutability": "nonpayable",
      "type": "function"
    },
    {
      "inputs": [
        {
          "internalType": "address",
          "name": "to",
          "type": "address"
        },
        {
          "internalType": "uint256",
          "name": "tokenId",
          "type": "uint256"
        }
      ],
      "name": "approve",
      "outputs": [],
      "stateMutability": "nonpayable",
      "type": "function"
    },
    {
      "inputs": [
        {
          "internalType": "address",
          "name": "owner",
          "type": "address"
        }
      ],
      "name": "balanceOf",
      "outputs": [
        {
          "internalType": "uint256",
          "name": "",
          "type": "uint256"
        }
      ],
      "stateMutability": "view",
      "type": "function"
    },
    {
      "inputs": [],
      "name": "calculateAttendancePercentage",
      "outputs": [
        {
          "internalType": "uint256",
          "name": "",
          "type": "uint256"
        }
      ],
      "stateMutability": "view",
      "type": "function"
    },
    {
      "inputs": [],
      "name": "certificateNFT",
      "outputs": [
        {
          "internalType": "address",
          "name": "",
          "type": "address"
        }
      ],
      "stateMutability": "view",
      "type": "function"
    },
    {
      "inputs": [
        {
          "internalType": "uint256",
          "name": "",
          "type": "uint256"
        }
      ],
      "name": "classSessions",
      "outputs": [
        {
          "internalType": "uint256",
          "name": "id",
          "type": "uint256"
        },
        {
          "internalType": "uint256",
          "name": "courseId",
          "type": "uint256"
        },
        {
          "internalType": "uint256",
          "name": "timestamp",
          "type": "uint256"
        },
        {
          "internalType": "bool",
          "name": "marked",
          "type": "bool"
        }
      ],
      "stateMutability": "view",
      "type": "function"
    },
    {
      "inputs": [
        {
          "internalType": "uint256",
          "name": "",
          "type": "uint256"
        },
        {
          "internalType": "address",
          "name": "",
          "type": "address"
        },
        {
          "internalType": "uint256",
          "name": "",
          "type": "uint256"
        }
      ],
      "name": "completedContents",
      "outputs": [
        {
          "internalType": "bool",
          "name": "",
          "type": "bool"
        }
      ],
      "stateMutability": "view",
      "type": "function"
    },
    {
      "inputs": [
        {
          "internalType": "uint256",
          "name": "",
          "type": "uint256"
        },
        {
          "internalType": "address",
          "name": "",
          "type": "address"
        }
      ],
      "name": "completedCount",
      "outputs": [
        {
          "internalType": "uint256",
          "name": "",
          "type": "uint256"
        }
      ],
      "stateMutability": "view",
      "type": "function"
    },
    {
      "inputs": [
        {
          "internalType": "uint256",
          "name": "",
          "type": "uint256"
        },
        {
          "internalType": "address",
          "name": "",
          "type": "address"
        },
        {
          "internalType": "uint256",
          "name": "",
          "type": "uint256"
        }
      ],
      "name": "completedTimestamps",
      "outputs": [
        {
          "internalType": "uint256",
          "name": "",
          "type": "uint256"
        }
      ],
      "stateMutability": "view",
      "type": "function"
    },
    {
      "inputs": [],
      "name": "courseCount",
      "outputs": [
        {
          "internalType": "uint256",
          "name": "",
          "type": "uint256"
        }
      ],
      "stateMutability": "view",
      "type": "function"
    },
    {
      "inputs": [
        {
          "internalType": "string",
          "name": "",
          "type": "string"
        }
      ],
      "name": "courseNameToId",
      "outputs": [
        {
          "internalType": "uint256",
          "name": "",
          "type": "uint256"
        }
      ],
      "stateMutability": "view",
      "type": "function"
    },
    {
      "inputs": [
        {
          "internalType": "uint256",
          "name": "",
          "type": "uint256"
        },
        {
          "internalType": "uint256",
          "name": "",
          "type": "uint256"
        }
      ],
      "name": "courseStudents",
      "outputs": [
        {
          "internalType": "address",
          "name": "",
          "type": "address"
        }
      ],
      "stateMutability": "view",
      "type": "function"
    },
    {
      "inputs": [
        {
          "internalType": "uint256",
          "name": "courseId",
          "type": "uint256"
        }
      ],
      "name": "createClassSession",
      "outputs": [
        {
          "internalType": "uint256",
          "name": "",
          "type": "uint256"
        }
      ],
      "stateMutability": "nonpayable",
      "type": "function"
    },
    {
      "inputs": [
        {
          "internalType": "string",
          "name": "title",
          "type": "string"
        },
        {
          "internalType": "uint256",
          "name": "duration",
          "type": "uint256"
        },
        {
          "internalType": "string",
          "name": "description",
          "type": "string"
        },
        {
          "internalType": "string[]",
          "name": "tags",
          "type": "string[]"
        },
        {
          "internalType": "string",
          "name": "level",
          "type": "string"
        },
        {
          "internalType": "string",
          "name": "metadataUri",
          "type": "string"
        },
        {
          "internalType": "uint256",
          "name": "capacity",
          "type": "uint256"
        }
      ],
      "name": "createCourse",
      "outputs": [
        {
          "internalType": "uint256",
          "name": "",
          "type": "uint256"
        }
      ],
      "stateMutability": "nonpayable",
      "type": "function"
    },
    {
      "inputs": [],
      "name": "credentialCount",
      "outputs": [
        {
          "internalType": "uint256",
          "name": "",
          "type": "uint256"
        }
      ],
      "stateMutability": "view",
      "type": "function"
    },
    {
      "inputs": [
        {
          "internalType": "uint256",
          "name": "id",
          "type": "uint256"
        }
      ],
      "name": "credentials",
      "outputs": [
        {
          "components": [
            {
              "internalType": "uint256",
              "name": "id",
              "type": "uint256"
            },
            {
              "internalType": "address",
              "name": "student",
              "type": "address"
            },
            {
              "internalType": "address",
              "name": "issuer",
              "type": "address"
            },
            {
              "internalType": "uint256",
              "name": "issuedAt",
              "type": "uint256"
            },
            {
              "internalType": "string",
              "name": "title",
              "type": "string"
            },
            {
              "internalType": "string",
              "name": "metadataUri",
              "type": "string"
            }
          ],
          "internalType": "struct CredentialStorage.Credential",
          "name": "",
          "type": "tuple"
        }
      ],
      "stateMutability": "view",
      "type": "function"
    },
    {
      "inputs": [
        {
          "internalType": "address",
          "name": "lecturer",
          "type": "address"
        },
        {
          "internalType": "uint256",
          "name": "value",
          "type": "uint256"
        }
      ],
      "name": "employLecturer",
      "outputs": [],
      "stateMutability": "nonpayable",
      "type": "function"
    },
    {
      "inputs": [],
      "name": "getAllCourseNames",
      "outputs": [
        {
          "internalType": "string[]",
          "name": "",
          "type": "string[]"
        }
      ],
      "stateMutability": "view",
      "type": "function"
    },
    {
      "inputs": [],
      "name": "getAllCourses",
      "outputs": [
        {
          "internalType": "string[]",
          "name": "names",
          "type": "string[]"
        },
        {
          "internalType": "address[]",
          "name": "instructors",
          "type": "address[]"
        },
        {
          "internalType": "uint256[]",
          "name": "capacities",
          "type": "uint256[]"
        },
        {
          "internalType": "uint256[]",
          "name": "enrolledStudents",
          "type": "uint256[]"
        },
        {
          "internalType": "string[]",
          "name": "descriptions",
          "type": "string[]"
        }
      ],
      "stateMutability": "view",
      "type": "function"
    },
    {
      "inputs": [
        {
          "internalType": "uint256",
          "name": "tokenId",
          "type": "uint256"
        }
      ],
      "name": "getApproved",
      "outputs": [
        {
          "internalType": "address",
          "name": "",
          "type": "address"
        }
      ],
      "stateMutability": "view",
      "type": "function"
    },
    {
      "inputs": [
        {
          "internalType": "uint256",
          "name": "courseId",
          "type": "uint256"
        },
        {
          "internalType": "address",
          "name": "student",
          "type": "address"
        }
      ],
      "name": "getCompletedContentCount",
      "outputs": [
        {
          "internalType": "uint256",
          "name": "",
          "type": "uint256"
        }
      ],
      "stateMutability": "view",
      "type": "function"
    },
    {
      "inputs": [
        {
          "internalType": "uint256",
          "name": "courseId",
          "type": "uint256"
        },
        {
          "internalType": "address",
          "name": "student",
          "type": "address"
        },
        {
          "internalType": "uint256",
          "name": "totalContentCount",
          "type": "uint256"
        }
      ],
      "name": "getCompletedContents",
      "outputs": [
        {
          "internalType": "bool[]",
          "name": "",
          "type": "bool[]"
        }
      ],
      "stateMutability": "view",
      "type": "function"
    },
    {
      "inputs": [
        {
          "internalType": "uint256",
          "name": "courseId",
          "type": "uint256"
        },
        {
          "internalType": "address",
          "name": "student",
          "type": "address"
        },
        {
          "internalType": "uint256",
          "name": "totalContentCount",
          "type": "uint256"
        }
      ],
      "name": "getCompletedTimestamps",
      "outputs": [
        {
          "internalType": "uint256[]",
          "name": "",
          "type": "uint256[]"
        }
      ],
      "stateMutability": "view",
      "type": "function"
    },
    {
      "inputs": [
        {
          "internalType": "uint256",
          "name": "courseId",
          "type": "uint256"
        }
      ],
      "name": "getCourse",
      "outputs": [
        {
          "components": [
            {
              "internalType": "uint256",
              "name": "id",
              "type": "uint256"
            },
            {
              "internalType": "string",
              "name": "title",
              "type": "string"
            },
            {
              "internalType": "string",
              "name": "description",
              "type": "string"
            },
            {
              "internalType": "uint256",
              "name": "duration",
              "type": "uint256"
            },
            {
              "internalType": "string[]",
              "name": "tags",
              "type": "string[]"
            },
            {
              "internalType": "string",
              "name": "level",
              "type": "string"
            },
            {
              "internalType": "uint256",
              "name": "rating",
              "type": "uint256"
            },
            {
              "internalType": "uint256",
              "name": "enrolledCount",
              "type": "uint256"
            },
            {
              "internalType": "uint256",
              "name": "capacity",
              "type": "uint256"
            },
            {
              "internalType": "address",
              "name": "instructor",
              "type": "address"
            },
            {
              "internalType": "string",
              "name": "metadataUri",
              "type": "string"
            },
            {
              "internalType": "string[]",
              "name": "contentUris",
              "type": "string[]"
            }
          ],
          "internalType": "struct CourseModule.Course",
          "name": "",
          "type": "tuple"
        }
      ],
      "stateMutability": "view",
      "type": "function"
    },
    {
      "inputs": [
        {
          "internalType": "uint256",
          "name": "courseId",
          "type": "uint256"
        }
      ],
      "name": "getCourseContentCount",
      "outputs": [
        {
          "internalType": "uint256",
          "name": "",
          "type": "uint256"
        }
      ],
      "stateMutability": "view",
      "type": "function"
    },
    {
      "inputs": [
        {
          "internalType": "uint256",
          "name": "courseId",
          "type": "uint256"
        }
      ],
      "name": "getCourseContentUris",
      "outputs": [
        {
          "internalType": "string[]",
          "name": "",
          "type": "string[]"
        }
      ],
      "stateMutability": "view",
      "type": "function"
    },
    {
      "inputs": [
        {
          "internalType": "uint256",
          "name": "courseId",
          "type": "uint256"
        }
      ],
      "name": "getCourseStudents",
      "outputs": [
        {
          "internalType": "address[]",
          "name": "",
          "type": "address[]"
        }
      ],
      "stateMutability": "view",
      "type": "function"
    },
    {
      "inputs": [
        {
          "internalType": "address",
          "name": "student",
          "type": "address"
        }
      ],
      "name": "getCoursesRegisteredByStudent",
      "outputs": [
        {
          "internalType": "uint256[]",
          "name": "",
          "type": "uint256[]"
        }
      ],
      "stateMutability": "view",
      "type": "function"
    },
    {
      "inputs": [
        {
          "internalType": "address",
          "name": "student",
          "type": "address"
        }
      ],
      "name": "getCredentialsByStudent",
      "outputs": [
        {
          "components": [
            {
              "internalType": "uint256",
              "name": "id",
              "type": "uint256"
            },
            {
              "internalType": "address",
              "name": "student",
              "type": "address"
            },
            {
              "internalType": "address",
              "name": "issuer",
              "type": "address"
            },
            {
              "internalType": "uint256",
              "name": "issuedAt",
              "type": "uint256"
            },
            {
              "internalType": "string",
              "name": "title",
              "type": "string"
            },
            {
              "internalType": "string",
              "name": "metadataUri",
              "type": "string"
            }
          ],
          "internalType": "struct CredentialStorage.Credential[]",
          "name": "",
          "type": "tuple[]"
        }
      ],
      "stateMutability": "view",
      "type": "function"
    },
    {
      "inputs": [],
      "name": "getLecturerList",
      "outputs": [
        {
          "internalType": "address[]",
          "name": "",
          "type": "address[]"
        }
      ],
      "stateMutability": "view",
      "type": "function"
    },
    {
      "inputs": [],
      "name": "getListOfStudents",
      "outputs": [
        {
          "internalType": "address[]",
          "name": "",
          "type": "address[]"
        }
      ],
      "stateMutability": "view",
      "type": "function"
    },
    {
      "inputs": [],
      "name": "getSessionIdsForLecturer",
      "outputs": [
        {
          "internalType": "uint256[]",
          "name": "",
          "type": "uint256[]"
        }
      ],
      "stateMutability": "view",
      "type": "function"
    },
    {
      "inputs": [
        {
          "internalType": "uint256",
          "name": "courseId",
          "type": "uint256"
        }
      ],
      "name": "getSessionsForCourse",
      "outputs": [
        {
          "internalType": "uint256[]",
          "name": "",
          "type": "uint256[]"
        }
      ],
      "stateMutability": "view",
      "type": "function"
    },
    {
      "inputs": [
        {
          "internalType": "address",
          "name": "student",
          "type": "address"
        }
      ],
      "name": "getStudentCourses",
      "outputs": [
        {
          "internalType": "uint256[]",
          "name": "",
          "type": "uint256[]"
        }
      ],
      "stateMutability": "view",
      "type": "function"
    },
    {
      "inputs": [
        {
          "internalType": "address",
          "name": "student",
          "type": "address"
        }
      ],
      "name": "getStudentCredentialIds",
      "outputs": [
        {
          "internalType": "uint256[]",
          "name": "",
          "type": "uint256[]"
        }
      ],
      "stateMutability": "view",
      "type": "function"
    },
    {
      "inputs": [],
      "name": "getTotalRegisteredCourses",
      "outputs": [
        {
          "internalType": "uint256",
          "name": "",
          "type": "uint256"
        }
      ],
      "stateMutability": "view",
      "type": "function"
    },
    {
      "inputs": [
        {
          "internalType": "uint256",
          "name": "courseId",
          "type": "uint256"
        }
      ],
      "name": "incrementEnrollment",
      "outputs": [],
      "stateMutability": "nonpayable",
      "type": "function"
    },
    {
      "inputs": [
        {
          "internalType": "string",
          "name": "name",
          "type": "string"
        },
        {
          "internalType": "string",
          "name": "symbol",
          "type": "string"
        },
        {
          "internalType": "address",
          "name": "owner",
          "type": "address"
        }
      ],
      "name": "initialize",
      "outputs": [],
      "stateMutability": "nonpayable",
      "type": "function"
    },
    {
      "inputs": [
        {
          "internalType": "address",
          "name": "owner",
          "type": "address"
        },
        {
          "internalType": "address",
          "name": "operator",
          "type": "address"
        }
      ],
      "name": "isApprovedForAll",
      "outputs": [
        {
          "internalType": "bool",
          "name": "",
          "type": "bool"
        }
      ],
      "stateMutability": "view",
      "type": "function"
    },
    {
      "inputs": [
        {
          "internalType": "uint256",
          "name": "courseId",
          "type": "uint256"
        },
        {
          "internalType": "address",
          "name": "student",
          "type": "address"
        },
        {
          "internalType": "uint256",
          "name": "contentIndex",
          "type": "uint256"
        }
      ],
      "name": "isContentCompleted",
      "outputs": [
        {
          "internalType": "bool",
          "name": "",
          "type": "bool"
        }
      ],
      "stateMutability": "view",
      "type": "function"
    },
    {
      "inputs": [
        {
          "internalType": "uint256",
          "name": "",
          "type": "uint256"
        },
        {
          "internalType": "address",
          "name": "",
          "type": "address"
        }
      ],
      "name": "isEnrolled",
      "outputs": [
        {
          "internalType": "bool",
          "name": "",
          "type": "bool"
        }
      ],
      "stateMutability": "view",
      "type": "function"
    },
    {
      "inputs": [
        {
          "internalType": "address",
          "name": "account",
          "type": "address"
        }
      ],
      "name": "isLecturer",
      "outputs": [
        {
          "internalType": "bool",
          "name": "",
          "type": "bool"
        }
      ],
      "stateMutability": "view",
      "type": "function"
    },
    {
      "inputs": [
        {
          "internalType": "address",
          "name": "",
          "type": "address"
        }
      ],
      "name": "isStudent",
      "outputs": [
        {
          "internalType": "bool",
          "name": "",
          "type": "bool"
        }
      ],
      "stateMutability": "view",
      "type": "function"
    },
    {
      "inputs": [
        {
          "internalType": "uint256",
          "name": "courseId",
          "type": "uint256"
        },
        {
          "internalType": "address",
          "name": "student",
          "type": "address"
        }
      ],
      "name": "isStudentEnrolled",
      "outputs": [
        {
          "internalType": "bool",
          "name": "",
          "type": "bool"
        }
      ],
      "stateMutability": "view",
      "type": "function"
    },
    {
      "inputs": [
        {
          "internalType": "address",
          "name": "student",
          "type": "address"
        },
        {
          "internalType": "string",
          "name": "title",
          "type": "string"
        },
        {
          "internalType": "string",
          "name": "metadataUri",
          "type": "string"
        }
      ],
      "name": "issueCredentialForStudent",
      "outputs": [
        {
          "internalType": "uint256",
          "name": "",
          "type": "uint256"
        }
      ],
      "stateMutability": "nonpayable",
      "type": "function"
    },
    {
      "inputs": [
        {
          "internalType": "uint256",
          "name": "",
          "type": "uint256"
        }
      ],
      "name": "lecturerList",
      "outputs": [
        {
          "internalType": "address",
          "name": "",
          "type": "address"
        }
      ],
      "stateMutability": "view",
      "type": "function"
    },
    {
      "inputs": [
        {
          "internalType": "address",
          "name": "",
          "type": "address"
        },
        {
          "internalType": "uint256",
          "name": "",
          "type": "uint256"
        }
      ],
      "name": "lecturerSessions",
      "outputs": [
        {
          "internalType": "uint256",
          "name": "",
          "type": "uint256"
        }
      ],
      "stateMutability": "view",
      "type": "function"
    },
    {
      "inputs": [
        {
          "internalType": "address",
          "name": "",
          "type": "address"
        }
      ],
      "name": "lecturers",
      "outputs": [
        {
          "internalType": "uint256",
          "name": "",
          "type": "uint256"
        }
      ],
      "stateMutability": "view",
      "type": "function"
    },
    {
      "inputs": [
        {
          "internalType": "uint256",
          "name": "sessionId",
          "type": "uint256"
        },
        {
          "internalType": "address",
          "name": "student",
          "type": "address"
        }
      ],
      "name": "markAttendance",
      "outputs": [],
      "stateMutability": "nonpayable",
      "type": "function"
    },
    {
      "inputs": [
        {
          "internalType": "uint256",
          "name": "sessionId",
          "type": "uint256"
        }
      ],
      "name": "markAttendance",
      "outputs": [],
      "stateMutability": "nonpayable",
      "type": "function"
    },
    {
      "inputs": [
        {
          "internalType": "uint256",
          "name": "courseId",
          "type": "uint256"
        },
        {
          "internalType": "uint256",
          "name": "contentIndex",
          "type": "uint256"
        }
      ],
      "name": "markContentComplete",
      "outputs": [],
      "stateMutability": "nonpayable",
      "type": "function"
    },
    {
      "inputs": [],
      "name": "name",
      "outputs": [
        {
          "internalType": "string",
          "name": "",
          "type": "string"
        }
      ],
      "stateMutability": "view",
      "type": "function"
    },
    {
      "inputs": [],
      "name": "owner",
      "outputs": [
        {
          "internalType": "address",
          "name": "",
          "type": "address"
        }
      ],
      "stateMutability": "view",
      "type": "function"
    },
    {
      "inputs": [
        {
          "internalType": "uint256",
          "name": "tokenId",
          "type": "uint256"
        }
      ],
      "name": "ownerOf",
      "outputs": [
        {
          "internalType": "address",
          "name": "",
          "type": "address"
        }
      ],
      "stateMutability": "view",
      "type": "function"
    },
    {
      "inputs": [],
      "name": "proxiableUUID",
      "outputs": [
        {
          "internalType": "bytes32",
          "name": "",
          "type": "bytes32"
        }
      ],
      "stateMutability": "view",
      "type": "function"
    },
    {
      "inputs": [
        {
          "internalType": "uint256",
          "name": "courseId",
          "type": "uint256"
        },
        {
          "internalType": "address",
          "name": "student",
          "type": "address"
        }
      ],
      "name": "registerForCourse",
      "outputs": [],
      "stateMutability": "nonpayable",
      "type": "function"
    },
    {
      "inputs": [],
      "name": "renounceOwnership",
      "outputs": [],
      "stateMutability": "nonpayable",
      "type": "function"
    },
    {
      "inputs": [
        {
          "internalType": "address",
          "name": "student",
          "type": "address"
        },
        {
          "internalType": "uint256",
          "name": "amount",
          "type": "uint256"
        }
      ],
      "name": "rewardStudent",
      "outputs": [],
      "stateMutability": "nonpayable",
      "type": "function"
    },
    {
      "inputs": [
        {
          "internalType": "address",
          "name": "from",
          "type": "address"
        },
        {
          "internalType": "address",
          "name": "to",
          "type": "address"
        },
        {
          "internalType": "uint256",
          "name": "tokenId",
          "type": "uint256"
        }
      ],
      "name": "safeTransferFrom",
      "outputs": [],
      "stateMutability": "nonpayable",
      "type": "function"
    },
    {
      "inputs": [
        {
          "internalType": "address",
          "name": "from",
          "type": "address"
        },
        {
          "internalType": "address",
          "name": "to",
          "type": "address"
        },
        {
          "internalType": "uint256",
          "name": "tokenId",
          "type": "uint256"
        },
        {
          "internalType": "bytes",
          "name": "data",
          "type": "bytes"
        }
      ],
      "name": "safeTransferFrom",
      "outputs": [],
      "stateMutability": "nonpayable",
      "type": "function"
    },
    {
      "inputs": [
        {
          "internalType": "address",
          "name": "operator",
          "type": "address"
        },
        {
          "internalType": "bool",
          "name": "approved",
          "type": "bool"
        }
      ],
      "name": "setApprovalForAll",
      "outputs": [],
      "stateMutability": "nonpayable",
      "type": "function"
    },
    {
      "inputs": [
        {
          "internalType": "address",
          "name": "nft",
          "type": "address"
        }
      ],
      "name": "setCertificateNFT",
      "outputs": [],
      "stateMutability": "nonpayable",
      "type": "function"
    },
    {
      "inputs": [
        {
          "internalType": "address",
          "name": "",
          "type": "address"
        },
        {
          "internalType": "uint256",
          "name": "",
          "type": "uint256"
        }
      ],
      "name": "studentCourses",
      "outputs": [
        {
          "internalType": "uint256",
          "name": "",
          "type": "uint256"
        }
      ],
      "stateMutability": "view",
      "type": "function"
    },
    {
      "inputs": [
        {
          "internalType": "address",
          "name": "",
          "type": "address"
        },
        {
          "internalType": "uint256",
          "name": "",
          "type": "uint256"
        }
      ],
      "name": "studentSessionAttendance",
      "outputs": [
        {
          "internalType": "uint256",
          "name": "",
          "type": "uint256"
        }
      ],
      "stateMutability": "view",
      "type": "function"
    },
    {
      "inputs": [
        {
          "internalType": "address",
          "name": "",
          "type": "address"
        }
      ],
      "name": "studentTokens",
      "outputs": [
        {
          "internalType": "uint256",
          "name": "",
          "type": "uint256"
        }
      ],
      "stateMutability": "view",
      "type": "function"
    },
    {
      "inputs": [
        {
          "internalType": "uint256",
          "name": "",
          "type": "uint256"
        }
      ],
      "name": "students",
      "outputs": [
        {
          "internalType": "address",
          "name": "",
          "type": "address"
        }
      ],
      "stateMutability": "view",
      "type": "function"
    },
    {
      "inputs": [
        {
          "internalType": "bytes4",
          "name": "interfaceId",
          "type": "bytes4"
        }
      ],
      "name": "supportsInterface",
      "outputs": [
        {
          "internalType": "bool",
          "name": "",
          "type": "bool"
        }
      ],
      "stateMutability": "view",
      "type": "function"
    },
    {
      "inputs": [],
      "name": "symbol",
      "outputs": [
        {
          "internalType": "string",
          "name": "",
          "type": "string"
        }
      ],
      "stateMutability": "view",
      "type": "function"
    },
    {
      "inputs": [
        {
          "internalType": "uint256",
          "name": "tokenId",
          "type": "uint256"
        }
      ],
      "name": "tokenURI",
      "outputs": [
        {
          "internalType": "string",
          "name": "",
          "type": "string"
        }
      ],
      "stateMutability": "view",
      "type": "function"
    },
    {
      "inputs": [
        {
          "internalType": "address",
          "name": "from",
          "type": "address"
        },
        {
          "internalType": "address",
          "name": "to",
          "type": "address"
        },
        {
          "internalType": "uint256",
          "name": "tokenId",
          "type": "uint256"
        }
      ],
      "name": "transferFrom",
      "outputs": [],
      "stateMutability": "nonpayable",
      "type": "function"
    },
    {
      "inputs": [
        {
          "internalType": "address",
          "name": "newOwner",
          "type": "address"
        }
      ],
      "name": "transferOwnership",
      "outputs": [],
      "stateMutability": "nonpayable",
      "type": "function"
    },
    {
      "inputs": [
        {
          "internalType": "uint256",
          "name": "courseId",
          "type": "uint256"
        },
        {
          "internalType": "string[]",
          "name": "newContentUris",
          "type": "string[]"
        }
      ],
      "name": "updateCourseContent",
      "outputs": [],
      "stateMutability": "nonpayable",
      "type": "function"
    },
    {
      "inputs": [
        {
          "internalType": "uint256",
          "name": "courseId",
          "type": "uint256"
        },
        {
          "internalType": "string",
          "name": "newMetadataUri",
          "type": "string"
        }
      ],
      "name": "updateCourseMetadata",
      "outputs": [],
      "stateMutability": "nonpayable",
      "type": "function"
    },
    {
      "inputs": [
        {
          "internalType": "uint256",
          "name": "courseId",
          "type": "uint256"
        },
        {
          "internalType": "uint256",
          "name": "newRating",
          "type": "uint256"
        }
      ],
      "name": "updateCourseRating",
      "outputs": [],
      "stateMutability": "nonpayable",
      "type": "function"
    },
    {
      "inputs": [
        {
          "internalType": "address",
          "name": "newImplementation",
          "type": "address"
        },
        {
          "internalType": "bytes",
          "name": "data",
          "type": "bytes"
        }
      ],
      "name": "upgradeToAndCall",
      "outputs": [],
      "stateMutability": "payable",
      "type": "function"
    },
    {
      "inputs": [],
      "name": "version",
      "outputs": [
        {
          "internalType": "string",
          "name": "",
          "type": "string"
        }
      ],
      "stateMutability": "pure",
      "type": "function"
    },
    {
      "inputs": [],
      "name": "withdraw",
      "outputs": [],
      "stateMutability": "nonpayable",
      "type": "function"
    }
  ],
  "bytecode": "0x60a0806040523461002a57306080526150e19081610030823960805181818161262f01526126c50152f35b600080fdfe608080604052600436101561001357600080fd5b60003560e01c90816301ffc9a714613aad5750806304e48bd1146138f657806306ead22e1461389b57806306fdde03146137ea578063077f224a146133d9578063081812fc1461338e578063095ea7b3146132a75780630a5776bb146131195780630b91e28d14612ec157806310f2672614612dc957806313065a0f14612a7c578063158dec4f14612d5957806315f6febd14612cc357806316edbe5414612c62578063189a0f2714612bbe5780631ae4815e14612b1957806323b872dd14612b025780632af47f4614612ac85780632b6feb5014612a7c5780633218e5791461299d5780633c9f93b114610f5c5780633ccfd60b146128dd57806342842e0e146128b557806348147ea4146128595780634f1ef2861461268757806352d1902d1461261c57806354fd4d50146125d657806356e4bee81461256d5780635b2babd0146125525780635cc6fa71146124ed5780635fb86e231461247357806360dd60e3146123ed57806363152708146122cf5780636352211e1461229f57806366055159146122815780636899316d146113cd5780636aee02d3146122655780636e274a341461221b5780636ecd89bb146121f157806370a082311461219c578063715018a614612132578063798cdb4614611e185780637bb2883814611c295780637bf1f66f14611bed5780637d92529214611ba457806382f7d39214611b655780638a4b81ab14611a4b5780638a954a0314610f9e5780638bd7a333146118bb5780638c572bbe146118685780638da5cb5b146118325780638f58c3b21461157357806391aec72a1461154a5780639281a96d146114fd57806395d89b41146114155780639bd4eccd146113cd578063a22cb46514611324578063ad3cb1cc146112de578063ade4f8a214611264578063aec9d1b8146111e8578063b60da9b0146110d4578063b88d4fde14611086578063c87b56dd14611033578063c8deced614610feb578063c976831514610f9e578063cd0e35b914610f61578063d40761e414610f5c578063d723f2e714610ec9578063d735d7cd14610ce1578063dc2a26a714610985578063e0574e3f146108c0578063e334008714610876578063e985e9c514610828578063f2fde38b146107fd578063fa346d8b1461072b578063faf8e8b41461063c578063fc92506014610602578063fd8abc2d146105bb578063fd95cc51146105635763ff6785e01461038f57600080fd5b3461055e5761039d36613fe5565b9080151580610552575b6103b09061423a565b80600052600191602083815260018060a01b036009604060002001541633036104fc578260005283815283600b80604060002001805490600081558161048b575b5050906000905b610439575b60405183815285907f5f3ecb61e63394d34a984597179063028a9e892ab46083cc23665bc92a81137a908061043481880189613b60565b0390a2005b83518110156104865790858261045c6104538395886140fc565b515115156148fc565b8660005281855261047e8360406000200161047783896140fc565b5190614946565b0190916103f8565b6103fd565b6000528284600020918201915b8281106104a557506103f1565b6104af8154614110565b806104be575b50018390610498565b601f908181116001146104d8575050600081555b386104b5565b6104f3600092848452898420920160051c82018583016142e1565b818355556104d2565b6084906040519062461bcd60e51b82526004820152602960248201527f4f6e6c7920636f7572736520696e7374727563746f722063616e207570646174604482015268194818dbdb9d195b9d60ba1b6064820152fd5b506000548111156103a7565b600080fd5b3461055e57604036600319011261055e5761057c613d36565b6001600160a01b031660009081526008602052604090208054602435919082101561055e576020916105ad91613c2e565b90546040519160031b1c8152f35b3461055e576105c936613df1565b91600052601160205260406000209060018060a01b03166000526020526040600020906000526020526020604060002054604051908152f35b3461055e57602036600319011261055e576001600160a01b03610623613d36565b1660005260036020526020604060002054604051908152f35b3461055e5761064a36613dbf565b8115158061071f575b61065c9061423a565b81600052600160205261068060018060a01b036009604060002001541633146148a1565b61068c815115156148fc565b8160005260016020526106a681600b604060002001614946565b816000526001602052600b604060002001546000198101908111610709577ff04740232fc267e81c1f5142df00ffab820e31dcb32d747e5af68a744c279cee916106fe91604051928392604084526040840190613b3b565b9060208301520390a2005b634e487b7160e01b600052601160045260246000fd5b50600054821115610653565b3461055e5761073936613df1565b61074281613f4f565b906107506040519283613cb3565b80825261075c81613f4f565b6020948386019491601f190136863760005b8381106107ba57868587604051928392818401908285525180915260408401929160005b8281106107a157505050500390f35b8351151585528695509381019392810192600101610792565b60008281526010885260408082206001600160a01b0386168352895280822083835289529020546001919060ff166107f282886140fc565b90151590520161076e565b3461055e57602036600319011261055e57610826610819613d36565b610821614da7565b614bfc565b005b3461055e57604036600319011261055e57610841613d36565b61085261084c613d4c565b91613e54565b9060018060a01b0316600052602052602060ff604060002054166040519015158152f35b3461055e57604036600319011261055e5761088f613d36565b6001600160a01b03166000908152600f602052604090208054602435919082101561055e576020916105ad91613c2e565b3461055e57602036600319011261055e576108d9614b12565b5060043560005260008051602061500c833981519152602052610981604060002060056109686040519261090c84613c62565b8054845260018060a01b038060018301541660208601526002820154166040850152600381015460608501526040516109538161094c816004860161414a565b0382613cb3565b608085015261094c604051809481930161414a565b60a0820152604051918291602083526020830190614014565b0390f35b3461055e5760e036600319011261055e576001600160401b0360043581811161055e576109b6903690600401613cef565b9060443581811161055e576109cf903690600401613cef565b9160643582811161055e576109e8903690600401613f66565b9260843583811161055e57610a01903690600401613cef565b9260a43590811161055e57610a1a903690600401613cef565b93336000526003602052610a3460406000205415156141e0565b6040516020818551610a498183858a01613b18565b8101600281520301902054610c9057610a636000546140ed565b938460005560405191610a7583613c7d565b6000835260405193610a8685613c46565b86855285602086015260408501526024356060850152608084015260a0830152600060c0830152600060e083015260c4356101008301523361012083015284610140830152610160820152826000526001602052604060002081518155610af46020830151600183016142f8565b610b056040830151600283016142f8565b60608201516003820155600481016080830151906020825192610b288484614b46565b019060005260206000206000915b838310610c735750505050600b61016091610b5860a0850151600583016142f8565b60c0840151600682015560e0840151600782015561010084015160088201556101208401516009820180546001600160a01b0319166001600160a01b0392909216919091179055610140840151610bb290600a83016142f8565b01910151906020825192610bc68484614b46565b019060005260206000206000915b838310610c565760208686817fd2e3e28143fcecc8ad47c77faf891ac5b154d3b78243d7658ed60a5767c79e52610c338c8360405188818851610c1a8183858d01613b18565b8101600281520301902055604051918291339683614bd7565b0390a3610c4e610c446014546140ed565b8060145533614ced565b604051908152f35b6001602082610c67839451866142f8565b01920192019190610bd4565b6001602082610c84839451866142f8565b01920192019190610b36565b60405162461bcd60e51b8152602060048201526024808201527f436f7572736520776974682074686973206e616d6520616c72656164792065786044820152636973747360e01b6064820152608490fd5b3461055e5760208060031936011261055e57610d37610cfe613d36565b6001600160a01b031660009081527f0c2c9b5e6b5a5c9d2d2f8d3c1f73b7f1c3b4d5e6f7a8b9c0d1e2f3a4b5c6d7ea6020526040902090565b604051808284829454938481520190600052846000209260005b86828210610eb35784610d6681860382613cb3565b8051610d8a610d7482613f4f565b91610d826040519384613cb3565b808352613f4f565b601f19018360005b828110610e9d5750505060005b8251811015610e3f5780610db5600192856140fc565b5160005260008051602061500c833981519152855260406000206005610e1e60405192610de184613c62565b80548452858060a01b038087830154168a8601526002820154166040850152600381015460608501526040516109538161094c816004860161414a565b60a0820152610e2d82856140fc565b52610e3881846140fc565b5001610d9f565b604080518581528351818701819052600092600582901b830181019186890191899085015b828710610e715785850386f35b909192938280610e8d600193603f198a82030186528851614014565b9601920196019592919092610e64565b610ea5614b12565b828286010152018490610d92565b8554845260019586019587955093019201610d51565b3461055e57600036600319011261055e57600054610ee681614071565b906001805b82811115610f09576040516020808252819061098190820187613b60565b8060005281602052816040600020019060001981019181831161070957610f579261094c610f40610f51936040519283809261414a565b610f4a82896140fc565b52866140fc565b506140ed565b610eeb565b613ec2565b3461055e57600036600319011261055e5760207f0c2c9b5e6b5a5c9d2d2f8d3c1f73b7f1c3b4d5e6f7a8b9c0d1e2f3a4b5c6d7e854604051908152f35b3461055e57604036600319011261055e57610fb7613d4c565b600435600052600a60205260406000209060018060a01b0316600052602052602060ff604060002054166040519015158152f35b3461055e57604036600319011261055e576001600160a01b0361100c613d36565b16600052600c60205260406000206024356000526020526020604060002054604051908152f35b3461055e57602036600319011261055e5761104f600435614c70565b50600060405161105e81613c7d565b5261098160405161106e81613c7d565b60008152604051918291602083526020830190613b3b565b3461055e57608036600319011261055e5761109f613d36565b6110a7613d4c565b606435916001600160401b03831161055e576110ca610826933690600401613cef565b91604435916149e7565b3461055e576110e236613f39565b9080151580806111dc575b6110f69061423a565b81600052600a60205260406000203360005260205260ff6040600020541615611197578061118b575b6111289061423a565b60328211611146576000526001602052600660406000200155600080f35b60405162461bcd60e51b815260206004820152601f60248201527f526174696e67206d757374206265206265747765656e203020616e64203530006044820152606490fd5b5060005481111561111f565b60405162461bcd60e51b815260206004820152601f60248201527f4f6e6c7920656e726f6c6c65642073747564656e74732063616e2072617465006044820152606490fd5b506000548211156110ed565b3461055e57600036600319011261055e57336000526020600f8152604060002090604051808383829554938481520190600052836000209260005b8582821061124e5750505061123a92500383613cb3565b610981604051928284938452830190613bfa565b8554845260019586019588955093019201611223565b3461055e57602036600319011261055e5761082660043533600052600660205261129560ff60406000205416614849565b80600052600b6020526001604060002001546112b281151561445b565b600052600a6020526040600020336000526020526112d760ff6040600020541661449b565b3390614de0565b3461055e57600036600319011261055e576109816040516112fe81613c98565b60058152640352e302e360dc1b6020820152604051918291602083526020830190613b3b565b3461055e57604036600319011261055e5761133d613d36565b602435908115159081830361055e576001600160a01b03169182156113b4576113869061136933613e54565b8460005260205260406000209060ff801983541691151516179055565b6040519081527f17307eab39ab6107e8899845ad3d59bd9653f200f220920489ca2b5937696c3160203392a3005b604051630b61174360e31b815260048101849052602490fd5b3461055e57604036600319011261055e576113e6613d4c565b600435600052601260205260406000209060018060a01b03166000526020526020604060002054604051908152f35b3461055e57600036600319011261055e576040517f80bb2b638cc20bc4d0a60d66940f3ab4a00c1d7b313497ca82fb0b4ab0079301805482600061145883614110565b92838352602094600191866001821691826000146114db57505060011461149c575b505061148892500383613cb3565b610981604051928284938452830190613b3b565b85925060005281600020906000915b8583106114c35750506114889350820101858061147a565b805483890185015287945086939092019181016114ab565b925093505061148894915060ff191682840152151560051b820101858061147a565b3461055e57602036600319011261055e576004358015158061153e575b6115239061423a565b60005260016020526020600b60406000200154604051908152f35b5060005481111561151a565b3461055e57600036600319011261055e576013546040516001600160a01b039091168152602090f35b3461055e57604036600319011261055e5760043561158f613d4c565b611597614e9c565b81151580611826575b6115a99061423a565b60018060a01b0380821692836000526020600681526115cf60ff60406000205416614403565b81600052600a815260406000208560005281526115f460ff604060002054161561498b565b8160005260018152604060002060405161160d81613c46565b815481526040516116258161094c816001870161414a565b8382015260405161163d8161094c816002870161414a565b6040820152600382015460608201526116586004830161427a565b60808201526040516116718161094c816005870161414a565b60a0820152600682015460c082015260078201549060e081019182526101606116d0600b6008860154956101008501968752896009820154166101208601526040516116c48161094c81600a860161414a565b6101408601520161427a565b91015251905111156117f15781600052600a8152604060002085600052815261170160ff604060002054161561498b565b8460005260088152611717826040600020614cb8565b6000828152600982526040902080549091600160401b8210156117db576117c7966117b29561176f847fc65c83424b9743cd85950d4d05ef8ab686409eafe1bf490c528b98f4eb800048966001604097018155613c2e565b819291549060031b9184831b921b191617905584600052600a82528260002081600052825282600020600160ff19825416179055825191858352820152a1614811565b6117bd6014546140ed565b9081601455614ced565b600160008051602061506c83398151915255005b634e487b7160e01b600052604160045260246000fd5b6064906040519062461bcd60e51b82526004820152600e60248201526d10dbdd5c9cd9481a5cc8199d5b1b60921b6044820152fd5b506000548211156115a0565b3461055e57600036600319011261055e57600080516020614fcc833981519152546040516001600160a01b039091168152602090f35b3461055e57602036600319011261055e57600435600052600b6020526080604060002080549060018101549060ff6003600283015492015416916040519384526020840152604083015215156060820152f35b3461055e576118c936613fe5565b81151580611a3f575b6118db9061423a565b81600052600160209181835261190260018060a01b036009604060002001541633146148a1565b8051156119ef576000825b6119aa575b50509082600052818152600b60406000200190604051928184018285528354809152604085019260408260051b8701019460005280600020936000905b83821061197f57887f5f3ecb61e63394d34a984597179063028a9e892ab46083cc23665bc92a81137a8989038aa2005b90919293838161199a819899603f198c82030186528a61414a565b980192019201909493929161194f565b90829181518110156119e957806119c56104538593856140fc565b866000528186526119e1600b60406000200161047783866140fc565b01909161190d565b50611912565b60405162461bcd60e51b815260048101849052602260248201527f436f6e74656e7420555249732061727261792063616e6e6f7420626520656d70604482015261747960f01b6064820152608490fd5b506000548211156118d2565b3461055e57604036600319011261055e57611a64613d36565b60243590611a70614da7565b6001600160a01b0316600081815260036020526040902054909190611b265781600052600360205280604060002055600454600160401b8110156117db576001810180600455811015611b1057600460005260008051602061502c8339815191520180546001600160a01b031916831790556040519081527ff41b6f34bb9c4ca3f7fd3415e13442244ab51655583ce1a228b284abca8c33dc90602090a2005b634e487b7160e01b600052603260045260246000fd5b60405162461bcd60e51b81526020600482015260176024820152764c6563747572657220616c72656164792065786973747360481b6044820152606490fd5b3461055e57602036600319011261055e576001600160a01b03611b86613d36565b166000526006602052602060ff604060002054166040519015158152f35b3461055e57602036600319011261055e5760043560045481101561055e57600460005260008051602061502c83398151915201546040516001600160a01b039091168152602090f35b3461055e57602036600319011261055e576001600160a01b03611c0e613d36565b16600052600360205260206040600020541515604051908152f35b3461055e57611c3736613f39565b90611c40614e9c565b33600052602060068152611c5b60ff60406000205416614849565b81151580611e0c575b611c6d9061423a565b81600052600a81526040600020336000528152611c9160ff6040600020541661449b565b8160005260018152600b60406000200154831015611dd05781600052601081526040600020336000528152604060002083600052815260ff60406000205416611d90578160005260108152604060002033600052815260406000208360005281526040600020600160ff1982541617905581600052601181526040600020336000528152604060002083600052815242604060002055816000526012815260406000203360005281526040600020611d4981546140ed565b905560405192835242908301527f94f9b84ca82e1a1d699e72827a6341612b09b57de733c9d3c8d37af2ef9bcdad60403393a3600160008051602061506c83398151915255005b6064906040519062461bcd60e51b82526004820152601960248201527810dbdb9d195b9d08185b1c9958591e4818dbdb5c1b195d1959603a1b6044820152fd5b6064906040519062461bcd60e51b825260048201526015602482015274092dcecc2d8d2c840c6dedce8cadce840d2dcc8caf605b1b6044820152fd5b50600054821115611c64565b3461055e5760031960603682011261055e57611e32613d36565b602491906001600160401b03833581811161055e57611e55903690600401613cef565b9060443590811161055e57611e6e903690600401613cef565b3360005260209360038552611e8960406000205415156141e0565b6001600160a01b0384811660008181526006885260409020549092919060ff16156120f35782156120bd57845115612088577f0c2c9b5e6b5a5c9d2d2f8d3c1f73b7f1c3b4d5e6f7a8b9c0d1e2f3a4b5c6d7e895865496600188018098116120735791611fa388611f9e879694610cfe839d9e97998f9d9a8c8f8f611f9691896005955560405195611f1a87613c62565b8a8752818701908152604087019033825260008051602061500c833981519152606089019342855260808a0195865260a08a019788528d600052526040600020975188558d600189019151169060018060a01b031991828254161790558d600289019251169082541617905551600386015551600485016142f8565b5191016142f8565b614cb8565b8684867f2ec0f811294a1373db1a1f85e0a119a631d40f3e1d1bbba7776fc28ef0bd31f860405180611fd78c339783614bd7565b0390a4601354169283611fef575b8785604051908152f35b61203660009289976120276040519a8b998a98899763130e6b2b60e01b89526004890152870152608060448701526084860190613b3b565b91848303016064850152613b3b565b03925af161204a575b808381808080611fe5565b813d831161206c575b61205d8183613cb3565b8101031261055e57818361203f565b503d612053565b89634e487b7160e01b60005260116004526000fd5b60405162461bcd60e51b815260048101889052600e818a01526d151a5d1b19481c995c5d5a5c995960921b6044820152606490fd5b60405162461bcd60e51b815260048101889052600f818a01526e125b9d985b1a59081cdd1d59195b9d608a1b6044820152606490fd5b60405162461bcd60e51b8152600481018890526018818a015277139bdd0818481c9959da5cdd195c9959081cdd1d59195b9d60421b6044820152606490fd5b3461055e57600036600319011261055e5761214b614da7565b600080516020614fcc83398151915280546001600160a01b031981169091556000906001600160a01b03167f8be0079c531659141344cd1fd0a4f28419497f9722a3daafe3b4186f6b6457e08280a3005b3461055e57602036600319011261055e576121b5613d36565b6001600160a01b038116156121d8576121cf602091613e1b565b54604051908152f35b6040516322718ad960e21b815260006004820152602490fd5b3461055e57600036600319011261055e573360005260086020526020604060002054604051908152f35b3461055e5761222936613f39565b9060005260096020526040600020805482101561055e5760209161224c91613c2e565b905460405160039290921b1c6001600160a01b03168152f35b3461055e57602036600319011261055e57610826600435614811565b3461055e57600036600319011261055e576020600054604051908152f35b3461055e57602036600319011261055e5760206122bd600435614c70565b6040516001600160a01b039091168152f35b3461055e57604036600319011261055e576122e8613d36565b602435336000526020916003835261230660406000205415156141e0565b6001600160a01b0316600081815260068452604090205490929060ff166123b0576000838152600582526040808220849055600683529020805460ff1916600117905560075491600160401b8310156117db576001830180600755831015611b10576007600090815282902090920180546001600160a01b031916841790556040519182527f481f70abdaaa7e4e53bed4ead7bded11ecbcdaa9f01fe0b3f850cb01e071bf9191a2005b6064906040519062461bcd60e51b82526004820152601660248201527553747564656e7420616c72656164792065786973747360501b6044820152fd5b3461055e5760208060031936011261055e5760043560005260098152604060002090604051808383829554938481520190600052836000209260005b858282106124545750505061244092500383613cb3565b610981604051928284938452830190613bbd565b85546001600160a01b0316845260019586019588955093019201612429565b3461055e5761248136613df1565b9061248b826140bb565b9260005b8381106124ac576040516020808252819061098190820188613bfa565b600190826000526020601181526040600020838060a01b038616600052815260406000209082600052526040600020546124e682886140fc565b520161248f565b3461055e5760208060031936011261055e5761250a610cfe613d36565b90604051808383829554938481520190600052836000209260005b8582821061253c5750505061123a92500383613cb3565b8554845260019586019588955093019201612525565b3461055e57600036600319011261055e576020610c4e6146a5565b3461055e5760208060031936011261055e57600435600052600e8152604060002090604051808383829554938481520190600052836000209260005b858282106125c05750505061123a92500383613cb3565b85548452600195860195889550930192016125a9565b3461055e57600036600319011261055e576109816040516125f681613c98565b60058152640312e302e360dc1b6020820152604051918291602083526020830190613b3b565b3461055e57600036600319011261055e577f00000000000000000000000000000000000000000000000000000000000000006001600160a01b03163003612675576020604051600080516020614fec8339815191528152f35b60405163703e46dd60e11b8152600490fd5b604036600319011261055e5761269b613d36565b6024356001600160401b03811161055e576126ba903690600401613cef565b906001600160a01b037f0000000000000000000000000000000000000000000000000000000000000000811630811490811561283d575b50612675576126fe614da7565b8116906040516352d1902d60e01b8152602081600481865afa60009181612809575b5061273e57604051634c9c8ce360e01b815260048101849052602490fd5b600080516020614fec833981519152929192908181036127f15750823b156127d85780546001600160a01b03191682179055604051907fbc7cd75a20ee27fd9adebab32041f755214dbc6bffa90cc0225b39da2e5c2d3b600080a28251156127bf575060008083602061082695519101845af46127b9614ecc565b91614f68565b915050346127c957005b63b398979f60e01b8152600490fd5b604051634c9c8ce360e01b815260048101839052602490fd5b60249060405190632a87526960e21b82526004820152fd5b9091506020813d602011612835575b8161282560209383613cb3565b8101031261055e57519085612720565b3d9150612818565b905081600080516020614fec83398151915254161415846126f1565b3461055e57602036600319011261055e576004356001600160401b03811161055e576128a2602061288f81933690600401613cef565b8160405193828580945193849201613b18565b8101600281520301902054604051908152f35b3461055e576108266128c636613e8d565b90604051926128d484613c7d565b600084526149e7565b3461055e57600036600319011261055e576128f6614da7565b4780156129615760018060a01b03600080516020614fcc8339815191526000808080868686541682f115612955577feaff4b37086828766ad3268786972c0cd24259d4c87a80f9d3963a3c3d999b0d91602091541692604051908152a2005b6040513d6000823e3d90fd5b60405162461bcd60e51b81526020600482015260146024820152734e6f2066756e647320746f20776974686472617760601b6044820152606490fd5b3461055e57604036600319011261055e576129b6613d36565b33600052602090600382526129d160406000205415156141e0565b6001600160a01b0316600081815260068352604090205490919060ff1615612a48577fd2bdfdee5627d669e777c948248fdcf31c1b210e6d815658acae79824bcaf9ef9082600052600581526040600020612a2f6024358254614698565b90558260005260058152604060002054604051908152a2005b6064906040519062461bcd60e51b82526004820152600d60248201526c139bdd0818481cdd1d59195b9d609a1b6044820152fd5b3461055e57612a8a36613df1565b91600052601060205260406000209060018060a01b0316600052602052604060002090600052602052602060ff604060002054166040519015158152f35b3461055e57602036600319011261055e576001600160a01b03612ae9613d36565b1660005260056020526020604060002054604051908152f35b3461055e57610826612b1336613e8d565b916144f3565b3461055e57604036600319011261055e57610826600435612b38613d4c565b90336000526003602052612b5260406000205415156141e0565b6001600160a01b038216600081815260066020526040902054612b779060ff16614403565b81600052600b602052600160406000200154612b9481151561445b565b600052600a602052604060002090600052602052612bb960ff6040600020541661449b565b614de0565b3461055e57602036600319011261055e57612bd7613d36565b612bdf614da7565b6001600160a01b03168015612c2757601380546001600160a01b031916821790557f9e3c9747b000bdd55a767a5126710d1412eb8046d8b6fd3e149aa1d2e7ce4a1f600080a2005b60405162461bcd60e51b8152602060048201526013602482015272496e76616c6964204e4654206164647265737360681b6044820152606490fd5b3461055e57602036600319011261055e5760043580151580612cb7575b612c889061423a565b6000526001602052610981612ca3600b60406000200161427a565b604051918291602083526020830190613b60565b50600054811115612c7f565b3461055e57600036600319011261055e57604051600780548083526000918252602080840193927fa66cc928b5edb82af9bd49922954155ab7b0942694bea4ce44661d9a8736c68892915b828210612d395761098185612d2581890382613cb3565b604051918291602083526020830190613bbd565b83546001600160a01b031686529485019460019384019390910190612d0e565b3461055e57600036600319011261055e576040516004805480835260009182526020808401939260008051602061502c83398151915292915b828210612da95761098185612d2581890382613cb3565b83546001600160a01b031686529485019460019384019390910190612d92565b3461055e57612dd736613dbf565b81151580612eb5575b612de99061423a565b6000828152600160205260409020600901546001600160a01b03163303612e5d576104347f47ed34406a736ccb7fe3e05f167e8de4143bd4f80ef2b29219bcb76a62fd2eb491836000526001602052612e4981600a6040600020016142f8565b604051918291602083526020830190613b3b565b60405162461bcd60e51b815260206004820152602a60248201527f4f6e6c7920636f7572736520696e7374727563746f722063616e20757064617460448201526965206d6574616461746160b01b6064820152608490fd5b50600054821115612de0565b3461055e57602036600319011261055e576004356060610160604051612ee681613c46565b600081528260208201528260408201526000838201528260808201528260a0820152600060c0820152600060e0820152600061010082015260006101208201528261014082015201528015158061310d575b612f419061423a565b60005260016020526109816040600020613020600b60405192612f6384613c46565b80548452604051612f7b8161094c816001860161414a565b6020850152604051612f948161094c816002860161414a565b604085015260038101546060850152612faf6004820161427a565b6080850152604051612fc88161094c816005860161414a565b60a0850152600681015460c0850152600781015460e0850152600881015461010085015260098101546001600160a01b03166101208501526040516130148161094c81600a860161414a565b6101408501520161427a565b61016082015260405191829160208352805160208401526101606130f86130ad613097613077613061602087015161018060408b01526101a08a0190613b3b565b6040870151898203601f190160608b0152613b3b565b606086015160808901526080860151601f198983030160a08a0152613d62565b60a0850151878203601f190160c0890152613b3b565b60c084015160e087015260e084015161010087015261010084015161012087015260018060a01b0361012085015116610140870152610140840151601f198783030184880152613b3b565b910151838203601f1901610180850152613d62565b50600054811115612f38565b3461055e5760208060031936011261055e57600435336000526003825261314660406000205415156141e0565b8015158061329b575b6131589061423a565b80600052600182523360018060a01b03600960406000200154160361325a57613182600d546140ed565b9081600d5560405160808101908082106001600160401b038311176117db576131f69160405283815260038582018481526040830142815260608401916000835287600052600b895260406000209451855551600185015551600284015551151591019060ff801983541691151516179055565b80600052600e835261320c826040600020614cb8565b33600052600f8352613222826040600020614cb8565b817f9d810e0082f8a92772407ea94a85bc457d358804c697a63a434a5043bf81be7f84604051428152a3610c4e610c446014546140ed565b60405162461bcd60e51b81526004810183905260196024820152782737ba103a34329031b7bab939b29034b739ba393ab1ba37b960391b6044820152606490fd5b5060005481111561314f565b3461055e57604036600319011261055e576132c0613d36565b6024356132cc81614c70565b3315158061337b575b8061335b575b613343576001600160a01b039283169282918491167f8c5be1e5ebec7d5bd14f71427d1e84f3dd0314c0f7b2291e5b200ac8c7c3b925600080a4600090815260008051602061508c8339815191526020526040902080546001600160a01b0319169091179055005b60405163a9fbf51f60e01b8152336004820152602490fd5b5061336581613e54565b3360005260205260ff60406000205416156132db565b506001600160a01b0381163314156132d5565b3461055e57602036600319011261055e576004356133ab81614c70565b5060005260008051602061508c833981519152602052602060018060a01b0360406000205416604051908152f35b3461055e57606036600319011261055e576001600160401b0360043581811161055e5761340a903690600401613cef565b60243582811161055e57613422903690600401613cef565b906044356001600160a01b038116810361055e577ff0c57e16840df040f15088dc2f81fe391c3923bec73e23a9662efc9c229c6a009283549460ff8660401c161593818716968715806137e3575b600180991490816137d9575b1590816137d0575b506137be5767ffffffffffffffff198116881787558561379f575b506134a8614efc565b6134b0614efc565b80518281116117db577f80bb2b638cc20bc4d0a60d66940f3ab4a00c1d7b313497ca82fb0b4ab0079300906134e58254614110565b92601f9384811161376f575b5060209084831160011461370d57613522929160009183613702575b50508160011b916000199060031b1c19161790565b90555b82519182116117db577f80bb2b638cc20bc4d0a60d66940f3ab4a00c1d7b313497ca82fb0b4ab00793019261355a8454614110565b8281116136c8575b50602091831160011461365f579180613597926135aa9695946000926136545750508160011b916000199060031b1c19161790565b90555b6135a2614efc565b610821614efc565b6135b2614efc565b6135ba614efc565b6135c2614efc565b8260008051602061506c833981519152556135db614efc565b6135e3614efc565b6135eb614efc565b6135f3614efc565b6135fb614efc565b6000600d55613608614efc565b613610614efc565b600060145561361b57005b805460ff60401b191690556040519081527fc7f505b2f371ae2175ee4913f4499e1f2633a7b5936321eed1cdaeb6115181d290602090a1005b01519050898061350d565b9392918791601f1982169084600052806000209160005b8181106136b0575096836135aa9810613697575b505050811b01905561359a565b015160001960f88460031b161c1916905588808061368a565b8289015184558b959093019260209283019201613676565b6136f3908560005260206000208480870160051c820192602088106136f9575b0160051c01906142e1565b88613562565b925081926136e8565b015190508b8061350d565b8a9291601f1983169185600052816000209260005b8181106137575750841161373e575b505050811b019055613525565b015160001960f88460031b161c191690558a8080613731565b8284015185558e969094019360209384019301613722565b613799908460005260206000208680860160051c820192602087106136f9570160051c01906142e1565b8a6134f1565b68ffffffffffffffffff1916680100000000000000011786558761349f565b60405163f92ee8a960e01b8152600490fd5b90501589613484565b303b15915061347c565b5085613470565b3461055e57600036600319011261055e576040517f80bb2b638cc20bc4d0a60d66940f3ab4a00c1d7b313497ca82fb0b4ab0079300805482600061382d83614110565b92838352602094600191866001821691826000146114db57505060011461385c57505061148892500383613cb3565b85925060005281600020906000915b8583106138835750506114889350820101858061147a565b8054838901850152879450869390920191810161386b565b3461055e57602036600319011261055e5760043560075481101561055e5760076000527fa66cc928b5edb82af9bd49922954155ab7b0942694bea4ce44661d9a8736c68801546040516001600160a01b039091168152602090f35b3461055e57600036600319011261055e5760005461391381614071565b61391c82613f4f565b6139296040519182613cb3565b82815261393583613f4f565b602090601f1901368383013761394a846140bb565b90613954856140bb565b9261395e86614071565b9560015b818111156139ca57613993876109818a6139bc8a6139ae8b6139a08c8c6040519a8b9a60a08c5260a08c0190613b60565b918a8303908b0152613bbd565b908782036040890152613bfa565b908582036060870152613bfa565b908382036080850152613b60565b806000526001845260016040600020019060001981019181831161070957613aa89261094c613a02610f51936040519283809261414a565b613a0c828c6140fc565b52613a17818b6140fc565b5060008381526001885260409020600901546001600160a01b0316613a3c82886140fc565b528260005260018752600860406000200154613a58828a6140fc565b528260005260018752600760406000200154613a74828b6140fc565b52826000526001875261094c613a9760026040600020016040519283809261414a565b613aa1828d6140fc565b528a6140fc565b613962565b3461055e57602036600319011261055e576004359063ffffffff60e01b821680920361055e576020916380ac58cd60e01b8114908115613b07575b8115613af6575b5015158152f35b6301ffc9a760e01b14905083613aef565b635b5e139f60e01b81149150613ae8565b60005b838110613b2b5750506000910152565b8181015183820152602001613b1b565b90602091613b5481518092818552858086019101613b18565b601f01601f1916010190565b90808251908181526020809101926020808460051b8301019501936000915b848310613b8f5750505050505090565b9091929394958480613bad600193601f198682030187528a51613b3b565b9801930193019194939290613b7f565b90815180825260208080930193019160005b828110613bdd575050505090565b83516001600160a01b031685529381019392810192600101613bcf565b90815180825260208080930193019160005b828110613c1a575050505090565b835185529381019392810192600101613c0c565b8054821015611b105760005260206000200190600090565b61018081019081106001600160401b038211176117db57604052565b60c081019081106001600160401b038211176117db57604052565b602081019081106001600160401b038211176117db57604052565b604081019081106001600160401b038211176117db57604052565b90601f801991011681019081106001600160401b038211176117db57604052565b6001600160401b0381116117db57601f01601f191660200190565b81601f8201121561055e57803590613d0682613cd4565b92613d146040519485613cb3565b8284526020838301011161055e57816000926020809301838601378301015290565b600435906001600160a01b038216820361055e57565b602435906001600160a01b038216820361055e57565b90808251908181526020809101926020808460051b8301019501936000915b848310613d915750505050505090565b9091929394958480613daf600193601f198682030187528a51613b3b565b9801930193019194939290613d81565b90604060031983011261055e5760043591602435906001600160401b03821161055e57613dee91600401613cef565b90565b606090600319011261055e57600435906024356001600160a01b038116810361055e579060443590565b6001600160a01b031660009081527f80bb2b638cc20bc4d0a60d66940f3ab4a00c1d7b313497ca82fb0b4ab00793036020526040902090565b6001600160a01b031660009081527f80bb2b638cc20bc4d0a60d66940f3ab4a00c1d7b313497ca82fb0b4ab00793056020526040902090565b606090600319011261055e576001600160a01b0390600435828116810361055e5791602435908116810361055e579060443590565b3461055e5760208060031936011261055e576001600160a01b03613ee4613d36565b1660005260088152604060002090604051808383829554938481520190600052836000209260005b85828210613f235750505061123a92500383613cb3565b8554845260019586019588955093019201613f0c565b604090600319011261055e576004359060243590565b6001600160401b0381116117db5760051b60200190565b81601f8201121561055e57803591602091613f8084613f4f565b93613f8e6040519586613cb3565b808552838086019160051b8301019280841161055e57848301915b848310613fb95750505050505090565b82356001600160401b03811161055e578691613fda84848094890101613cef565b815201920191613fa9565b90604060031983011261055e5760043591602435906001600160401b03821161055e57613dee91600401613f66565b613dee9181518152602082015160018060a01b03809116602083015260408301511660408201526060820151606082015260a0614060608084015160c0608085015260c0840190613b3b565b9201519060a0818403910152613b3b565b9061407b82613f4f565b6140886040519182613cb3565b8281528092614099601f1991613f4f565b019060005b8281106140aa57505050565b80606060208093850101520161409e565b906140c582613f4f565b6140d26040519182613cb3565b82815280926140e3601f1991613f4f565b0190602036910137565b60001981146107095760010190565b8051821015611b105760209160051b010190565b90600182811c92168015614140575b602083101461412a57565b634e487b7160e01b600052602260045260246000fd5b91607f169161411f565b80546000939261415982614110565b918282526020936001916001811690816000146141c15750600114614180575b5050505050565b90939495506000929192528360002092846000945b8386106141ad57505050500101903880808080614179565b805485870183015294019385908201614195565b60ff19168685015250505090151560051b010191503880808080614179565b156141e757565b60405162461bcd60e51b815260206004820152602560248201527f4f6e6c79206c656374757265722063616e20706572666f726d2074686973206160448201526431ba34b7b760d91b6064820152608490fd5b1561424157565b60405162461bcd60e51b8152602060048201526011602482015270125b9d985b1a590818dbdd5c9cd9481251607a1b6044820152606490fd5b90815461428681613f4f565b926040936142976040519182613cb3565b82815280946020809201926000526020600020906000935b8585106142be57505050505050565b600184819284516142d38161094c818a61414a565b8152019301940193916142af565b8181106142ec575050565b600081556001016142e1565b91909182516001600160401b0381116117db576143158254614110565b601f81116143c6575b50602080601f8311600114614361575081906143529394956000926143565750508160011b916000199060031b1c19161790565b9055565b01519050388061350d565b90601f19831695846000526020600020926000905b8882106143ae57505083600195969710614395575b505050811b019055565b015160001960f88460031b161c1916905538808061438b565b80600185968294968601518155019501930190614376565b6143f390836000526020600020601f840160051c810191602085106143f9575b601f0160051c01906142e1565b3861431e565b90915081906143e6565b1561440a57565b60405162461bcd60e51b815260206004820152602360248201527f41646472657373206973206e6f74206120726567697374657265642073747564604482015262195b9d60ea1b6064820152608490fd5b1561446257565b60405162461bcd60e51b815260206004820152601160248201527014d95cdcda5bdb881b9bdd08199bdd5b99607a1b6044820152606490fd5b156144a257565b60405162461bcd60e51b815260206004820152602360248201527f53747564656e74206e6f7420656e726f6c6c656420696e207468697320636f7560448201526272736560e81b6064820152608490fd5b6001600160a01b038281169391841561467f578260009581875260008051602061504c8339815191529586602052604097858982205416978892331515806145d9575b50906145687fddf252ad1be2c89b69c2b068fc378daa952ba7f163c4a11628f55a4df523b3ef9392856145ba57613e1b565b8054600101905585825260205289812080546001600160a01b0319168517905580a416928383036145995750505050565b6064945051926364283d7b60e01b8452600484015260248301526044820152fd5b6145c388614f3d565b6145cc86613e1b565b8054600019019055613e1b565b9193509193945080614630575b156145f75791879187949338614536565b888789614614576024915190637e27328960e01b82526004820152fd5b604491519063177e802f60e01b82523360048301526024820152fd5b503388148015614663575b806145e6575086835260008051602061508c83398151915260205233868a85205416146145e6565b5061466d88613e54565b33845260205260ff898420541661463b565b604051633250574960e11b815260006004820152602490fd5b9190820180921161070957565b600090338252602060088152604092838120938051808685829854938481520190855285852092855b878282106147fb575050506146e592500386613cb3565b81809281955b87518710156147bb576146fe87896140fc565b518352600e86528383209184518093849189825491828152019187528987209087905b8b8183106147a05750505050614745929161473d910385613cb3565b835190614698565b90835b835181101561479257338552600c885285852061476582866140fc565b51865288526001868620541461477e575b600101614748565b9561478a6001916140ed565b969050614776565b5096600191925001956146eb565b83955060019294839294548152019401920186939291614721565b965094509192505082156147f5576064820291808304606414901517156147e157500490565b634e487b7160e01b81526011600452602490fd5b91505090565b855484526001958601958b9550930192016146ce565b8015158061483d575b6148239061423a565b6000526001602052600760406000200161435281546140ed565b5060005481111561481a565b1561485057565b60405162461bcd60e51b8152602060048201526024808201527f4f6e6c792073747564656e742063616e20706572666f726d20746869732061636044820152633a34b7b760e11b6064820152608490fd5b156148a857565b60405162461bcd60e51b815260206004820152602660248201527f4f6e6c7920636f7572736520696e7374727563746f722063616e2061646420636044820152651bdb9d195b9d60d21b6064820152608490fd5b1561490357565b60405162461bcd60e51b815260206004820152601b60248201527a436f6e74656e74205552492063616e6e6f7420626520656d70747960281b6044820152606490fd5b8054600160401b8110156117db5761496391600182018155613c2e565b91909161497557614973916142f8565b565b634e487b7160e01b600052600060045260246000fd5b1561499257565b60405162461bcd60e51b815260206004820152602760248201527f53747564656e7420616c726561647920656e726f6c6c656420696e207468697360448201526620636f7572736560c81b6064820152608490fd5b91906149f48282856144f3565b803b614a01575b50505050565b614a4360018060a01b0380921694604051938493630a85bd0160e11b968786523360048701521660248501526044840152608060648401526084830190613b3b565b03906020816000938185885af190829082614ac2575b5050614a915782614a68614ecc565b8051919082614a8a57604051633250574960e11b815260048101839052602490fd5b6020915001fd5b6001600160e01b03191603614aaa5750388080806149fb565b60249060405190633250574960e11b82526004820152fd5b909192506020813d602011614b0a575b81614adf60209383613cb3565b81010312614b065751906001600160e01b031982168203614b035750903880614a59565b80fd5b5080fd5b3d9150614ad2565b60405190614b1f82613c62565b606060a0836000815260006020820152600060408201526000838201528260808201520152565b600160401b82116117db57805491808255828110614b6357505050565b60009182526020906020832093840193015b838110614b825750505050565b8083614b9060019354614110565b80614b9e575b505001614b75565b601f8082118514614bb557505081555b8338614b96565b614bce90848452868420920160051c82018583016142e1565b81835555614bae565b9091614bee613dee93604084526040840190613b3b565b916020818403910152613b3b565b6001600160a01b03908116908115614c5757600080516020614fcc83398151915280546001600160a01b031981168417909155167f8be0079c531659141344cd1fd0a4f28419497f9722a3daafe3b4186f6b6457e0600080a3565b604051631e4fbdf760e01b815260006004820152602490fd5b600081815260008051602061504c83398151915260205260409020546001600160a01b0316908115614ca0575090565b60249060405190637e27328960e01b82526004820152fd5b8054600160401b8110156117db57614cd591600182018155613c2e565b819291549060031b91821b91600019901b1916179055565b6001600160a01b0391818316801561467f5760009382855260008051602061504c833981519152908160205260408620541690614d318215159586614d9557613e1b565b805460010190558386526020526040852080546001600160a01b031916831790557fddf252ad1be2c89b69c2b068fc378daa952ba7f163c4a11628f55a4df523b3ef8580a4614d7d5750565b602490604051906339e3563760e11b82526004820152fd5b614d9e86614f3d565b6145cc84613e1b565b600080516020614fcc833981519152546001600160a01b03163303614dc857565b60405163118cdaa760e01b8152336004820152602490fd5b6000818152602092600b8452604090614e0060018385200154151561445b565b6001600160a01b0316808352600c8552818320848452855281832054909490614e5e57848352600c815281832084845290528120600190557f9e5d24579183fa37d9de3c53c170caae77e5ea5a3ed2c66fdd356f590ff779f49080a3565b606491519062461bcd60e51b825260048201526019602482015278105d1d195b99185b98d948185b1c9958591e481b585c9ad959603a1b6044820152fd5b60008051602061506c8339815191526002815414614eba5760029055565b604051633ee5aeb560e01b8152600490fd5b3d15614ef7573d90614edd82613cd4565b91614eeb6040519384613cb3565b82523d6000602084013e565b606090565b60ff7ff0c57e16840df040f15088dc2f81fe391c3923bec73e23a9662efc9c229c6a005460401c1615614f2b57565b604051631afcd79f60e31b8152600490fd5b600090815260008051602061508c8339815191526020526040902080546001600160a01b0319169055565b90614f8f5750805115614f7d57602081519101fd5b60405163d6bda27560e01b8152600490fd5b81511580614fc2575b614fa0575090565b604051639996b31560e01b81526001600160a01b039091166004820152602490fd5b50803b15614f9856fe9016d09d72d40fdae2fd8ceac6b6234c7706214fd39c1cd1e609a0528c199300360894a13ba1a3210667c828492db98dca3e2076cc3735a920a3ca505d382bbc0c2c9b5e6b5a5c9d2d2f8d3c1f73b7f1c3b4d5e6f7a8b9c0d1e2f3a4b5c6d7e98a35acfbc15ff81a39ae7d344fd709f28e8600b4aa8c65c6b64bfe7fe36bd19b80bb2b638cc20bc4d0a60d66940f3ab4a00c1d7b313497ca82fb0b4ab00793029b779b17422d0df92223018b32b4d1fa46e071723d6817e2486d003becc55f0080bb2b638cc20bc4d0a60d66940f3ab4a00c1d7b313497ca82fb0b4ab0079304a26469706673582212207030b965d43a2e2c3b07c7edfcff23aa53bf88a0c57462b8e70ac1048e61b7d664736f6c63430008160033",
  "linkReferences": {},
  "deployedLinkReferences": {}
}