{
  "_format": "hh-sol-artifact-1",
  "contractName": "Celorean",
  "sourceName": "contracts/Celorean.sol",
  "abi": [
    {
      "inputs": [
        {
          "internalType": "address",
          "name": "target",
          "type": "address"
        }
      ],
      "name": "AddressEmptyCode",
      "type": "error"
    },
    {
      "inputs": [
        {
          "internalType": "address",
          "name": "implementation",
          "type": "address"
        }
      ],
      "name": "ERC1967InvalidImplementation",
      "type": "error"
    },
    {
      "inputs": [],
      "name": "ERC1967NonPayable",
      "type": "error"
    },
    {
      "inputs": [
        {
          "internalType": "address",
          "name": "sender",
          "type": "address"
        },
        {
          "internalType": "uint256",
          "name": "tokenId",
          "type": "uint256"
        },
        {
          "internalType": "address",
          "name": "owner",
          "type": "address"
        }
      ],
      "name": "ERC721IncorrectOwner",
      "type": "error"
    },
    {
      "inputs": [
        {
          "internalType": "address",
          "name": "operator",
          "type": "address"
        },
        {
          "internalType": "uint256",
          "name": "tokenId",
          "type": "uint256"
        }
      ],
      "name": "ERC721InsufficientApproval",
      "type": "error"
    },
    {
      "inputs": [
        {
          "internalType": "address",
          "name": "approver",
          "type": "address"
        }
      ],
      "name": "ERC721InvalidApprover",
      "type": "error"
    },
    {
      "inputs": [
        {
          "internalType": "address",
          "name": "operator",
          "type": "address"
        }
      ],
      "name": "ERC721InvalidOperator",
      "type": "error"
    },
    {
      "inputs": [
        {
          "internalType": "address",
          "name": "owner",
          "type": "address"
        }
      ],
      "name": "ERC721InvalidOwner",
      "type": "error"
    },
    {
      "inputs": [
        {
          "internalType": "address",
          "name": "receiver",
          "type": "address"
        }
      ],
      "name": "ERC721InvalidReceiver",
      "type": "error"
    },
    {
      "inputs": [
        {
          "internalType": "address",
          "name": "sender",
          "type": "address"
        }
      ],
      "name": "ERC721InvalidSender",
      "type": "error"
    },
    {
      "inputs": [
        {
          "internalType": "uint256",
          "name": "tokenId",
          "type": "uint256"
        }
      ],
      "name": "ERC721NonexistentToken",
      "type": "error"
    },
    {
      "inputs": [],
      "name": "FailedCall",
      "type": "error"
    },
    {
      "inputs": [],
      "name": "InvalidInitialization",
      "type": "error"
    },
    {
      "inputs": [],
      "name": "NotInitializing",
      "type": "error"
    },
    {
      "inputs": [
        {
          "internalType": "address",
          "name": "owner",
          "type": "address"
        }
      ],
      "name": "OwnableInvalidOwner",
      "type": "error"
    },
    {
      "inputs": [
        {
          "internalType": "address",
          "name": "account",
          "type": "address"
        }
      ],
      "name": "OwnableUnauthorizedAccount",
      "type": "error"
    },
    {
      "inputs": [],
      "name": "ReentrancyGuardReentrantCall",
      "type": "error"
    },
    {
      "inputs": [],
      "name": "UUPSUnauthorizedCallContext",
      "type": "error"
    },
    {
      "inputs": [
        {
          "internalType": "bytes32",
          "name": "slot",
          "type": "bytes32"
        }
      ],
      "name": "UUPSUnsupportedProxiableUUID",
      "type": "error"
    },
    {
      "anonymous": false,
      "inputs": [
        {
          "indexed": true,
          "internalType": "address",
          "name": "owner",
          "type": "address"
        },
        {
          "indexed": true,
          "internalType": "address",
          "name": "approved",
          "type": "address"
        },
        {
          "indexed": true,
          "internalType": "uint256",
          "name": "tokenId",
          "type": "uint256"
        }
      ],
      "name": "Approval",
      "type": "event"
    },
    {
      "anonymous": false,
      "inputs": [
        {
          "indexed": true,
          "internalType": "address",
          "name": "owner",
          "type": "address"
        },
        {
          "indexed": true,
          "internalType": "address",
          "name": "operator",
          "type": "address"
        },
        {
          "indexed": false,
          "internalType": "bool",
          "name": "approved",
          "type": "bool"
        }
      ],
      "name": "ApprovalForAll",
      "type": "event"
    },
    {
      "anonymous": false,
      "inputs": [
        {
          "indexed": true,
          "internalType": "uint256",
          "name": "sessionId",
          "type": "uint256"
        },
        {
          "indexed": true,
          "internalType": "address",
          "name": "student",
          "type": "address"
        }
      ],
      "name": "AttendanceMarked",
      "type": "event"
    },
    {
      "anonymous": false,
      "inputs": [
        {
          "indexed": true,
          "internalType": "address",
          "name": "nft",
          "type": "address"
        }
      ],
      "name": "CertificateNFTUpdated",
      "type": "event"
    },
    {
      "anonymous": false,
      "inputs": [
        {
          "indexed": true,
          "internalType": "uint256",
          "name": "sessionId",
          "type": "uint256"
        },
        {
          "indexed": true,
          "internalType": "uint256",
          "name": "courseId",
          "type": "uint256"
        },
        {
          "indexed": false,
          "internalType": "uint256",
          "name": "timestamp",
          "type": "uint256"
        }
      ],
      "name": "ClassSessionCreated",
      "type": "event"
    },
    {
      "anonymous": false,
      "inputs": [
        {
          "indexed": true,
          "internalType": "uint256",
          "name": "courseId",
          "type": "uint256"
        },
        {
          "indexed": false,
          "internalType": "string",
          "name": "newContentUri",
          "type": "string"
        },
        {
          "indexed": false,
          "internalType": "uint256",
          "name": "contentIndex",
          "type": "uint256"
        }
      ],
      "name": "CourseContentAdded",
      "type": "event"
    },
    {
      "anonymous": false,
      "inputs": [
        {
          "indexed": true,
          "internalType": "uint256",
          "name": "courseId",
          "type": "uint256"
        },
        {
          "indexed": false,
          "internalType": "string[]",
          "name": "newContentUris",
          "type": "string[]"
        }
      ],
      "name": "CourseContentUpdated",
      "type": "event"
    },
    {
      "anonymous": false,
      "inputs": [
        {
          "indexed": true,
          "internalType": "uint256",
          "name": "courseId",
          "type": "uint256"
        },
        {
          "indexed": false,
          "internalType": "string",
          "name": "title",
          "type": "string"
        },
        {
          "indexed": true,
          "internalType": "address",
          "name": "instructor",
          "type": "address"
        },
        {
          "indexed": false,
          "internalType": "string",
          "name": "metadataUri",
          "type": "string"
        }
      ],
      "name": "CourseCreated",
      "type": "event"
    },
    {
      "anonymous": false,
      "inputs": [
        {
          "indexed": true,
          "internalType": "uint256",
          "name": "courseId",
          "type": "uint256"
        },
        {
          "indexed": false,
          "internalType": "string",
          "name": "newMetadataUri",
          "type": "string"
        }
      ],
      "name": "CourseMetadataUpdated",
      "type": "event"
    },
    {
      "anonymous": false,
      "inputs": [
        {
          "indexed": true,
          "internalType": "uint256",
          "name": "id",
          "type": "uint256"
        },
        {
          "indexed": true,
          "internalType": "address",
          "name": "student",
          "type": "address"
        },
        {
          "indexed": true,
          "internalType": "address",
          "name": "issuer",
          "type": "address"
        },
        {
          "indexed": false,
          "internalType": "string",
          "name": "title",
          "type": "string"
        },
        {
          "indexed": false,
          "internalType": "string",
          "name": "metadataUri",
          "type": "string"
        }
      ],
      "name": "CredentialIssued",
      "type": "event"
    },
    {
      "anonymous": false,
      "inputs": [
        {
          "indexed": true,
          "internalType": "address",
          "name": "owner",
          "type": "address"
        },
        {
          "indexed": false,
          "internalType": "uint256",
          "name": "amount",
          "type": "uint256"
        }
      ],
      "name": "FundsWithdrawn",
      "type": "event"
    },
    {
      "anonymous": false,
      "inputs": [
        {
          "indexed": false,
          "internalType": "uint64",
          "name": "version",
          "type": "uint64"
        }
      ],
      "name": "Initialized",
      "type": "event"
    },
    {
      "anonymous": false,
      "inputs": [
        {
          "indexed": true,
          "internalType": "address",
          "name": "lecturer",
          "type": "address"
        },
        {
          "indexed": false,
          "internalType": "uint256",
          "name": "amount",
          "type": "uint256"
        }
      ],
      "name": "LecturerEmployed",
      "type": "event"
    },
    {
      "anonymous": false,
      "inputs": [
        {
          "indexed": true,
          "internalType": "address",
          "name": "previousOwner",
          "type": "address"
        },
        {
          "indexed": true,
          "internalType": "address",
          "name": "newOwner",
          "type": "address"
        }
      ],
      "name": "OwnershipTransferred",
      "type": "event"
    },
    {
      "anonymous": false,
      "inputs": [
        {
          "indexed": true,
          "internalType": "address",
          "name": "student",
          "type": "address"
        },
        {
          "indexed": false,
          "internalType": "uint256",
          "name": "amount",
          "type": "uint256"
        }
      ],
      "name": "StudentAdmitted",
      "type": "event"
    },
    {
      "anonymous": false,
      "inputs": [
        {
          "indexed": false,
          "internalType": "uint256",
          "name": "courseId",
          "type": "uint256"
        },
        {
          "indexed": false,
          "internalType": "address",
          "name": "student",
          "type": "address"
        }
      ],
      "name": "StudentRegistered",
      "type": "event"
    },
    {
      "anonymous": false,
      "inputs": [
        {
          "indexed": true,
          "internalType": "address",
          "name": "student",
          "type": "address"
        },
        {
          "indexed": false,
          "internalType": "uint256",
          "name": "newAmount",
          "type": "uint256"
        }
      ],
      "name": "StudentTokenUpdated",
      "type": "event"
    },
    {
      "anonymous": false,
      "inputs": [
        {
          "indexed": true,
          "internalType": "address",
          "name": "from",
          "type": "address"
        },
        {
          "indexed": true,
          "internalType": "address",
          "name": "to",
          "type": "address"
        },
        {
          "indexed": true,
          "internalType": "uint256",
          "name": "tokenId",
          "type": "uint256"
        }
      ],
      "name": "Transfer",
      "type": "event"
    },
    {
      "anonymous": false,
      "inputs": [
        {
          "indexed": true,
          "internalType": "address",
          "name": "implementation",
          "type": "address"
        }
      ],
      "name": "Upgraded",
      "type": "event"
    },
    {
      "inputs": [],
      "name": "UPGRADE_INTERFACE_VERSION",
      "outputs": [
        {
          "internalType": "string",
          "name": "",
          "type": "string"
        }
      ],
      "stateMutability": "view",
      "type": "function"
    },
    {
      "inputs": [
        {
          "internalType": "uint256",
          "name": "courseId",
          "type": "uint256"
        },
        {
          "internalType": "string",
          "name": "newContentUri",
          "type": "string"
        }
      ],
      "name": "addCourseContent",
      "outputs": [],
      "stateMutability": "nonpayable",
      "type": "function"
    },
    {
      "inputs": [
        {
          "internalType": "uint256",
          "name": "courseId",
          "type": "uint256"
        },
        {
          "internalType": "string[]",
          "name": "newContentUris",
          "type": "string[]"
        }
      ],
      "name": "addMultipleCourseContent",
      "outputs": [],
      "stateMutability": "nonpayable",
      "type": "function"
    },
    {
      "inputs": [
        {
          "internalType": "address",
          "name": "student",
          "type": "address"
        },
        {
          "internalType": "uint256",
          "name": "amount",
          "type": "uint256"
        }
      ],
      "name": "admitStudent",
      "outputs": [],
      "stateMutability": "nonpayable",
      "type": "function"
    },
    {
      "inputs": [
        {
          "internalType": "address",
          "name": "to",
          "type": "address"
        },
        {
          "internalType": "uint256",
          "name": "tokenId",
          "type": "uint256"
        }
      ],
      "name": "approve",
      "outputs": [],
      "stateMutability": "nonpayable",
      "type": "function"
    },
    {
      "inputs": [
        {
          "internalType": "address",
          "name": "owner",
          "type": "address"
        }
      ],
      "name": "balanceOf",
      "outputs": [
        {
          "internalType": "uint256",
          "name": "",
          "type": "uint256"
        }
      ],
      "stateMutability": "view",
      "type": "function"
    },
    {
      "inputs": [],
      "name": "calculateAttendancePercentage",
      "outputs": [
        {
          "internalType": "uint256",
          "name": "",
          "type": "uint256"
        }
      ],
      "stateMutability": "view",
      "type": "function"
    },
    {
      "inputs": [],
      "name": "certificateNFT",
      "outputs": [
        {
          "internalType": "address",
          "name": "",
          "type": "address"
        }
      ],
      "stateMutability": "view",
      "type": "function"
    },
    {
      "inputs": [
        {
          "internalType": "uint256",
          "name": "",
          "type": "uint256"
        }
      ],
      "name": "classSessions",
      "outputs": [
        {
          "internalType": "uint256",
          "name": "id",
          "type": "uint256"
        },
        {
          "internalType": "uint256",
          "name": "courseId",
          "type": "uint256"
        },
        {
          "internalType": "uint256",
          "name": "timestamp",
          "type": "uint256"
        },
        {
          "internalType": "bool",
          "name": "marked",
          "type": "bool"
        }
      ],
      "stateMutability": "view",
      "type": "function"
    },
    {
      "inputs": [],
      "name": "courseCount",
      "outputs": [
        {
          "internalType": "uint256",
          "name": "",
          "type": "uint256"
        }
      ],
      "stateMutability": "view",
      "type": "function"
    },
    {
      "inputs": [
        {
          "internalType": "string",
          "name": "",
          "type": "string"
        }
      ],
      "name": "courseNameToId",
      "outputs": [
        {
          "internalType": "uint256",
          "name": "",
          "type": "uint256"
        }
      ],
      "stateMutability": "view",
      "type": "function"
    },
    {
      "inputs": [
        {
          "internalType": "uint256",
          "name": "",
          "type": "uint256"
        },
        {
          "internalType": "uint256",
          "name": "",
          "type": "uint256"
        }
      ],
      "name": "courseStudents",
      "outputs": [
        {
          "internalType": "address",
          "name": "",
          "type": "address"
        }
      ],
      "stateMutability": "view",
      "type": "function"
    },
    {
      "inputs": [
        {
          "internalType": "uint256",
          "name": "courseId",
          "type": "uint256"
        }
      ],
      "name": "createClassSession",
      "outputs": [
        {
          "internalType": "uint256",
          "name": "",
          "type": "uint256"
        }
      ],
      "stateMutability": "nonpayable",
      "type": "function"
    },
    {
      "inputs": [
        {
          "internalType": "string",
          "name": "title",
          "type": "string"
        },
        {
          "internalType": "uint256",
          "name": "duration",
          "type": "uint256"
        },
        {
          "internalType": "string",
          "name": "description",
          "type": "string"
        },
        {
          "internalType": "string[]",
          "name": "tags",
          "type": "string[]"
        },
        {
          "internalType": "string",
          "name": "level",
          "type": "string"
        },
        {
          "internalType": "string",
          "name": "metadataUri",
          "type": "string"
        },
        {
          "internalType": "uint256",
          "name": "capacity",
          "type": "uint256"
        }
      ],
      "name": "createCourse",
      "outputs": [
        {
          "internalType": "uint256",
          "name": "",
          "type": "uint256"
        }
      ],
      "stateMutability": "nonpayable",
      "type": "function"
    },
    {
      "inputs": [],
      "name": "credentialCount",
      "outputs": [
        {
          "internalType": "uint256",
          "name": "",
          "type": "uint256"
        }
      ],
      "stateMutability": "view",
      "type": "function"
    },
    {
      "inputs": [
        {
          "internalType": "uint256",
          "name": "id",
          "type": "uint256"
        }
      ],
      "name": "credentials",
      "outputs": [
        {
          "components": [
            {
              "internalType": "uint256",
              "name": "id",
              "type": "uint256"
            },
            {
              "internalType": "address",
              "name": "student",
              "type": "address"
            },
            {
              "internalType": "address",
              "name": "issuer",
              "type": "address"
            },
            {
              "internalType": "uint256",
              "name": "issuedAt",
              "type": "uint256"
            },
            {
              "internalType": "string",
              "name": "title",
              "type": "string"
            },
            {
              "internalType": "string",
              "name": "metadataUri",
              "type": "string"
            }
          ],
          "internalType": "struct CredentialStorage.Credential",
          "name": "",
          "type": "tuple"
        }
      ],
      "stateMutability": "view",
      "type": "function"
    },
    {
      "inputs": [
        {
          "internalType": "address",
          "name": "lecturer",
          "type": "address"
        },
        {
          "internalType": "uint256",
          "name": "value",
          "type": "uint256"
        }
      ],
      "name": "employLecturer",
      "outputs": [],
      "stateMutability": "nonpayable",
      "type": "function"
    },
    {
      "inputs": [],
      "name": "getAllCourseNames",
      "outputs": [
        {
          "internalType": "string[]",
          "name": "",
          "type": "string[]"
        }
      ],
      "stateMutability": "view",
      "type": "function"
    },
    {
      "inputs": [],
      "name": "getAllCourses",
      "outputs": [
        {
          "internalType": "string[]",
          "name": "names",
          "type": "string[]"
        },
        {
          "internalType": "address[]",
          "name": "instructors",
          "type": "address[]"
        },
        {
          "internalType": "uint256[]",
          "name": "capacities",
          "type": "uint256[]"
        },
        {
          "internalType": "uint256[]",
          "name": "enrolledStudents",
          "type": "uint256[]"
        },
        {
          "internalType": "string[]",
          "name": "descriptions",
          "type": "string[]"
        }
      ],
      "stateMutability": "view",
      "type": "function"
    },
    {
      "inputs": [
        {
          "internalType": "uint256",
          "name": "tokenId",
          "type": "uint256"
        }
      ],
      "name": "getApproved",
      "outputs": [
        {
          "internalType": "address",
          "name": "",
          "type": "address"
        }
      ],
      "stateMutability": "view",
      "type": "function"
    },
    {
      "inputs": [
        {
          "internalType": "uint256",
          "name": "courseId",
          "type": "uint256"
        }
      ],
      "name": "getCourse",
      "outputs": [
        {
          "components": [
            {
              "internalType": "uint256",
              "name": "id",
              "type": "uint256"
            },
            {
              "internalType": "string",
              "name": "title",
              "type": "string"
            },
            {
              "internalType": "string",
              "name": "description",
              "type": "string"
            },
            {
              "internalType": "uint256",
              "name": "duration",
              "type": "uint256"
            },
            {
              "internalType": "string[]",
              "name": "tags",
              "type": "string[]"
            },
            {
              "internalType": "string",
              "name": "level",
              "type": "string"
            },
            {
              "internalType": "uint256",
              "name": "rating",
              "type": "uint256"
            },
            {
              "internalType": "uint256",
              "name": "enrolledCount",
              "type": "uint256"
            },
            {
              "internalType": "uint256",
              "name": "capacity",
              "type": "uint256"
            },
            {
              "internalType": "address",
              "name": "instructor",
              "type": "address"
            },
            {
              "internalType": "string",
              "name": "metadataUri",
              "type": "string"
            },
            {
              "internalType": "string[]",
              "name": "contentUris",
              "type": "string[]"
            }
          ],
          "internalType": "struct CourseModule.Course",
          "name": "",
          "type": "tuple"
        }
      ],
      "stateMutability": "view",
      "type": "function"
    },
    {
      "inputs": [
        {
          "internalType": "uint256",
          "name": "courseId",
          "type": "uint256"
        }
      ],
      "name": "getCourseContentCount",
      "outputs": [
        {
          "internalType": "uint256",
          "name": "",
          "type": "uint256"
        }
      ],
      "stateMutability": "view",
      "type": "function"
    },
    {
      "inputs": [
        {
          "internalType": "uint256",
          "name": "courseId",
          "type": "uint256"
        }
      ],
      "name": "getCourseContentUris",
      "outputs": [
        {
          "internalType": "string[]",
          "name": "",
          "type": "string[]"
        }
      ],
      "stateMutability": "view",
      "type": "function"
    },
    {
      "inputs": [
        {
          "internalType": "uint256",
          "name": "courseId",
          "type": "uint256"
        }
      ],
      "name": "getCourseStudents",
      "outputs": [
        {
          "internalType": "address[]",
          "name": "",
          "type": "address[]"
        }
      ],
      "stateMutability": "view",
      "type": "function"
    },
    {
      "inputs": [
        {
          "internalType": "address",
          "name": "student",
          "type": "address"
        }
      ],
      "name": "getCoursesRegisteredByStudent",
      "outputs": [
        {
          "internalType": "uint256[]",
          "name": "",
          "type": "uint256[]"
        }
      ],
      "stateMutability": "view",
      "type": "function"
    },
    {
      "inputs": [
        {
          "internalType": "address",
          "name": "student",
          "type": "address"
        }
      ],
      "name": "getCredentialsByStudent",
      "outputs": [
        {
          "components": [
            {
              "internalType": "uint256",
              "name": "id",
              "type": "uint256"
            },
            {
              "internalType": "address",
              "name": "student",
              "type": "address"
            },
            {
              "internalType": "address",
              "name": "issuer",
              "type": "address"
            },
            {
              "internalType": "uint256",
              "name": "issuedAt",
              "type": "uint256"
            },
            {
              "internalType": "string",
              "name": "title",
              "type": "string"
            },
            {
              "internalType": "string",
              "name": "metadataUri",
              "type": "string"
            }
          ],
          "internalType": "struct CredentialStorage.Credential[]",
          "name": "",
          "type": "tuple[]"
        }
      ],
      "stateMutability": "view",
      "type": "function"
    },
    {
      "inputs": [],
      "name": "getLecturerList",
      "outputs": [
        {
          "internalType": "address[]",
          "name": "",
          "type": "address[]"
        }
      ],
      "stateMutability": "view",
      "type": "function"
    },
    {
      "inputs": [],
      "name": "getListOfStudents",
      "outputs": [
        {
          "internalType": "address[]",
          "name": "",
          "type": "address[]"
        }
      ],
      "stateMutability": "view",
      "type": "function"
    },
    {
      "inputs": [],
      "name": "getSessionIdsForLecturer",
      "outputs": [
        {
          "internalType": "uint256[]",
          "name": "",
          "type": "uint256[]"
        }
      ],
      "stateMutability": "view",
      "type": "function"
    },
    {
      "inputs": [
        {
          "internalType": "uint256",
          "name": "courseId",
          "type": "uint256"
        }
      ],
      "name": "getSessionsForCourse",
      "outputs": [
        {
          "internalType": "uint256[]",
          "name": "",
          "type": "uint256[]"
        }
      ],
      "stateMutability": "view",
      "type": "function"
    },
    {
      "inputs": [
        {
          "internalType": "address",
          "name": "student",
          "type": "address"
        }
      ],
      "name": "getStudentCourses",
      "outputs": [
        {
          "internalType": "uint256[]",
          "name": "",
          "type": "uint256[]"
        }
      ],
      "stateMutability": "view",
      "type": "function"
    },
    {
      "inputs": [
        {
          "internalType": "address",
          "name": "student",
          "type": "address"
        }
      ],
      "name": "getStudentCredentialIds",
      "outputs": [
        {
          "internalType": "uint256[]",
          "name": "",
          "type": "uint256[]"
        }
      ],
      "stateMutability": "view",
      "type": "function"
    },
    {
      "inputs": [],
      "name": "getTotalRegisteredCourses",
      "outputs": [
        {
          "internalType": "uint256",
          "name": "",
          "type": "uint256"
        }
      ],
      "stateMutability": "view",
      "type": "function"
    },
    {
      "inputs": [
        {
          "internalType": "uint256",
          "name": "courseId",
          "type": "uint256"
        }
      ],
      "name": "incrementEnrollment",
      "outputs": [],
      "stateMutability": "nonpayable",
      "type": "function"
    },
    {
      "inputs": [
        {
          "internalType": "string",
          "name": "name",
          "type": "string"
        },
        {
          "internalType": "string",
          "name": "symbol",
          "type": "string"
        },
        {
          "internalType": "address",
          "name": "owner",
          "type": "address"
        }
      ],
      "name": "initialize",
      "outputs": [],
      "stateMutability": "nonpayable",
      "type": "function"
    },
    {
      "inputs": [
        {
          "internalType": "address",
          "name": "owner",
          "type": "address"
        },
        {
          "internalType": "address",
          "name": "operator",
          "type": "address"
        }
      ],
      "name": "isApprovedForAll",
      "outputs": [
        {
          "internalType": "bool",
          "name": "",
          "type": "bool"
        }
      ],
      "stateMutability": "view",
      "type": "function"
    },
    {
      "inputs": [
        {
          "internalType": "uint256",
          "name": "",
          "type": "uint256"
        },
        {
          "internalType": "address",
          "name": "",
          "type": "address"
        }
      ],
      "name": "isEnrolled",
      "outputs": [
        {
          "internalType": "bool",
          "name": "",
          "type": "bool"
        }
      ],
      "stateMutability": "view",
      "type": "function"
    },
    {
      "inputs": [
        {
          "internalType": "address",
          "name": "account",
          "type": "address"
        }
      ],
      "name": "isLecturer",
      "outputs": [
        {
          "internalType": "bool",
          "name": "",
          "type": "bool"
        }
      ],
      "stateMutability": "view",
      "type": "function"
    },
    {
      "inputs": [
        {
          "internalType": "address",
          "name": "",
          "type": "address"
        }
      ],
      "name": "isStudent",
      "outputs": [
        {
          "internalType": "bool",
          "name": "",
          "type": "bool"
        }
      ],
      "stateMutability": "view",
      "type": "function"
    },
    {
      "inputs": [
        {
          "internalType": "uint256",
          "name": "courseId",
          "type": "uint256"
        },
        {
          "internalType": "address",
          "name": "student",
          "type": "address"
        }
      ],
      "name": "isStudentEnrolled",
      "outputs": [
        {
          "internalType": "bool",
          "name": "",
          "type": "bool"
        }
      ],
      "stateMutability": "view",
      "type": "function"
    },
    {
      "inputs": [
        {
          "internalType": "address",
          "name": "student",
          "type": "address"
        },
        {
          "internalType": "string",
          "name": "title",
          "type": "string"
        },
        {
          "internalType": "string",
          "name": "metadataUri",
          "type": "string"
        }
      ],
      "name": "issueCredentialForStudent",
      "outputs": [
        {
          "internalType": "uint256",
          "name": "",
          "type": "uint256"
        }
      ],
      "stateMutability": "nonpayable",
      "type": "function"
    },
    {
      "inputs": [
        {
          "internalType": "uint256",
          "name": "",
          "type": "uint256"
        }
      ],
      "name": "lecturerList",
      "outputs": [
        {
          "internalType": "address",
          "name": "",
          "type": "address"
        }
      ],
      "stateMutability": "view",
      "type": "function"
    },
    {
      "inputs": [
        {
          "internalType": "address",
          "name": "",
          "type": "address"
        },
        {
          "internalType": "uint256",
          "name": "",
          "type": "uint256"
        }
      ],
      "name": "lecturerSessions",
      "outputs": [
        {
          "internalType": "uint256",
          "name": "",
          "type": "uint256"
        }
      ],
      "stateMutability": "view",
      "type": "function"
    },
    {
      "inputs": [
        {
          "internalType": "address",
          "name": "",
          "type": "address"
        }
      ],
      "name": "lecturers",
      "outputs": [
        {
          "internalType": "uint256",
          "name": "",
          "type": "uint256"
        }
      ],
      "stateMutability": "view",
      "type": "function"
    },
    {
      "inputs": [
        {
          "internalType": "uint256",
          "name": "sessionId",
          "type": "uint256"
        },
        {
          "internalType": "address",
          "name": "student",
          "type": "address"
        }
      ],
      "name": "markAttendance",
      "outputs": [],
      "stateMutability": "nonpayable",
      "type": "function"
    },
    {
      "inputs": [
        {
          "internalType": "uint256",
          "name": "sessionId",
          "type": "uint256"
        }
      ],
      "name": "markAttendance",
      "outputs": [],
      "stateMutability": "nonpayable",
      "type": "function"
    },
    {
      "inputs": [],
      "name": "name",
      "outputs": [
        {
          "internalType": "string",
          "name": "",
          "type": "string"
        }
      ],
      "stateMutability": "view",
      "type": "function"
    },
    {
      "inputs": [],
      "name": "owner",
      "outputs": [
        {
          "internalType": "address",
          "name": "",
          "type": "address"
        }
      ],
      "stateMutability": "view",
      "type": "function"
    },
    {
      "inputs": [
        {
          "internalType": "uint256",
          "name": "tokenId",
          "type": "uint256"
        }
      ],
      "name": "ownerOf",
      "outputs": [
        {
          "internalType": "address",
          "name": "",
          "type": "address"
        }
      ],
      "stateMutability": "view",
      "type": "function"
    },
    {
      "inputs": [],
      "name": "proxiableUUID",
      "outputs": [
        {
          "internalType": "bytes32",
          "name": "",
          "type": "bytes32"
        }
      ],
      "stateMutability": "view",
      "type": "function"
    },
    {
      "inputs": [
        {
          "internalType": "uint256",
          "name": "courseId",
          "type": "uint256"
        },
        {
          "internalType": "address",
          "name": "student",
          "type": "address"
        }
      ],
      "name": "registerForCourse",
      "outputs": [],
      "stateMutability": "nonpayable",
      "type": "function"
    },
    {
      "inputs": [],
      "name": "renounceOwnership",
      "outputs": [],
      "stateMutability": "nonpayable",
      "type": "function"
    },
    {
      "inputs": [
        {
          "internalType": "address",
          "name": "student",
          "type": "address"
        },
        {
          "internalType": "uint256",
          "name": "amount",
          "type": "uint256"
        }
      ],
      "name": "rewardStudent",
      "outputs": [],
      "stateMutability": "nonpayable",
      "type": "function"
    },
    {
      "inputs": [
        {
          "internalType": "address",
          "name": "from",
          "type": "address"
        },
        {
          "internalType": "address",
          "name": "to",
          "type": "address"
        },
        {
          "internalType": "uint256",
          "name": "tokenId",
          "type": "uint256"
        }
      ],
      "name": "safeTransferFrom",
      "outputs": [],
      "stateMutability": "nonpayable",
      "type": "function"
    },
    {
      "inputs": [
        {
          "internalType": "address",
          "name": "from",
          "type": "address"
        },
        {
          "internalType": "address",
          "name": "to",
          "type": "address"
        },
        {
          "internalType": "uint256",
          "name": "tokenId",
          "type": "uint256"
        },
        {
          "internalType": "bytes",
          "name": "data",
          "type": "bytes"
        }
      ],
      "name": "safeTransferFrom",
      "outputs": [],
      "stateMutability": "nonpayable",
      "type": "function"
    },
    {
      "inputs": [
        {
          "internalType": "address",
          "name": "operator",
          "type": "address"
        },
        {
          "internalType": "bool",
          "name": "approved",
          "type": "bool"
        }
      ],
      "name": "setApprovalForAll",
      "outputs": [],
      "stateMutability": "nonpayable",
      "type": "function"
    },
    {
      "inputs": [
        {
          "internalType": "address",
          "name": "nft",
          "type": "address"
        }
      ],
      "name": "setCertificateNFT",
      "outputs": [],
      "stateMutability": "nonpayable",
      "type": "function"
    },
    {
      "inputs": [
        {
          "internalType": "address",
          "name": "",
          "type": "address"
        },
        {
          "internalType": "uint256",
          "name": "",
          "type": "uint256"
        }
      ],
      "name": "studentCourses",
      "outputs": [
        {
          "internalType": "uint256",
          "name": "",
          "type": "uint256"
        }
      ],
      "stateMutability": "view",
      "type": "function"
    },
    {
      "inputs": [
        {
          "internalType": "address",
          "name": "",
          "type": "address"
        },
        {
          "internalType": "uint256",
          "name": "",
          "type": "uint256"
        }
      ],
      "name": "studentSessionAttendance",
      "outputs": [
        {
          "internalType": "uint256",
          "name": "",
          "type": "uint256"
        }
      ],
      "stateMutability": "view",
      "type": "function"
    },
    {
      "inputs": [
        {
          "internalType": "address",
          "name": "",
          "type": "address"
        }
      ],
      "name": "studentTokens",
      "outputs": [
        {
          "internalType": "uint256",
          "name": "",
          "type": "uint256"
        }
      ],
      "stateMutability": "view",
      "type": "function"
    },
    {
      "inputs": [
        {
          "internalType": "uint256",
          "name": "",
          "type": "uint256"
        }
      ],
      "name": "students",
      "outputs": [
        {
          "internalType": "address",
          "name": "",
          "type": "address"
        }
      ],
      "stateMutability": "view",
      "type": "function"
    },
    {
      "inputs": [
        {
          "internalType": "bytes4",
          "name": "interfaceId",
          "type": "bytes4"
        }
      ],
      "name": "supportsInterface",
      "outputs": [
        {
          "internalType": "bool",
          "name": "",
          "type": "bool"
        }
      ],
      "stateMutability": "view",
      "type": "function"
    },
    {
      "inputs": [],
      "name": "symbol",
      "outputs": [
        {
          "internalType": "string",
          "name": "",
          "type": "string"
        }
      ],
      "stateMutability": "view",
      "type": "function"
    },
    {
      "inputs": [
        {
          "internalType": "uint256",
          "name": "tokenId",
          "type": "uint256"
        }
      ],
      "name": "tokenURI",
      "outputs": [
        {
          "internalType": "string",
          "name": "",
          "type": "string"
        }
      ],
      "stateMutability": "view",
      "type": "function"
    },
    {
      "inputs": [
        {
          "internalType": "address",
          "name": "from",
          "type": "address"
        },
        {
          "internalType": "address",
          "name": "to",
          "type": "address"
        },
        {
          "internalType": "uint256",
          "name": "tokenId",
          "type": "uint256"
        }
      ],
      "name": "transferFrom",
      "outputs": [],
      "stateMutability": "nonpayable",
      "type": "function"
    },
    {
      "inputs": [
        {
          "internalType": "address",
          "name": "newOwner",
          "type": "address"
        }
      ],
      "name": "transferOwnership",
      "outputs": [],
      "stateMutability": "nonpayable",
      "type": "function"
    },
    {
      "inputs": [
        {
          "internalType": "uint256",
          "name": "courseId",
          "type": "uint256"
        },
        {
          "internalType": "string[]",
          "name": "newContentUris",
          "type": "string[]"
        }
      ],
      "name": "updateCourseContent",
      "outputs": [],
      "stateMutability": "nonpayable",
      "type": "function"
    },
    {
      "inputs": [
        {
          "internalType": "uint256",
          "name": "courseId",
          "type": "uint256"
        },
        {
          "internalType": "string",
          "name": "newMetadataUri",
          "type": "string"
        }
      ],
      "name": "updateCourseMetadata",
      "outputs": [],
      "stateMutability": "nonpayable",
      "type": "function"
    },
    {
      "inputs": [
        {
          "internalType": "uint256",
          "name": "courseId",
          "type": "uint256"
        },
        {
          "internalType": "uint256",
          "name": "newRating",
          "type": "uint256"
        }
      ],
      "name": "updateCourseRating",
      "outputs": [],
      "stateMutability": "nonpayable",
      "type": "function"
    },
    {
      "inputs": [
        {
          "internalType": "address",
          "name": "newImplementation",
          "type": "address"
        },
        {
          "internalType": "bytes",
          "name": "data",
          "type": "bytes"
        }
      ],
      "name": "upgradeToAndCall",
      "outputs": [],
      "stateMutability": "payable",
      "type": "function"
    },
    {
      "inputs": [],
      "name": "version",
      "outputs": [
        {
          "internalType": "string",
          "name": "",
          "type": "string"
        }
      ],
      "stateMutability": "pure",
      "type": "function"
    },
    {
      "inputs": [],
      "name": "withdraw",
      "outputs": [],
      "stateMutability": "nonpayable",
      "type": "function"
    }
  ],
  "bytecode": "0x60a0806040523461002a5730608052614c219081610030823960805181818161228301526123190152f35b600080fdfe608080604052600436101561001357600080fd5b60003560e01c90816301ffc9a7146136bf5750806304e48bd11461350857806306ead22e146134ad57806306fdde03146133fc578063077f224a14612fe1578063081812fc14612f96578063095ea7b314612eaf5780630a5776bb14612d215780630b91e28d14612ac957806310f26726146129d1578063158dec4f1461296157806315f6febd146128cb57806316edbe541461286a578063189a0f27146127c65780631ae4815e1461272157806323b872dd1461270a5780632af47f46146126d05780633218e579146125f15780633c9f93b114610deb5780633ccfd60b1461253157806342842e0e1461250957806348147ea4146124ad5780634f1ef286146122db57806352d1902d1461227057806354fd4d501461222a57806356e4bee8146121c15780635b2babd0146121a65780635cc6fa711461214157806360dd60e3146120bb5780636315270814611f9d5780636352211e14611f6d5780636605515914611f4f5780636aee02d314611f335780636e274a3414611ee95780636ecd89bb14611ebf57806370a0823114611e6a578063715018a614611e00578063798cdb4614611ae65780637bf1f66f14611aaa5780637d92529214611a6157806382f7d39214611a225780638a4b81ab146119085780638a954a0314610e2d5780638bd7a333146117785780638c572bbe146117255780638da5cb5b146116ef5780638f58c3b21461140657806391aec72a146113dd5780639281a96d1461139057806395d89b41146112a8578063a22cb465146111ff578063ad3cb1cc146111b9578063ade4f8a2146110f3578063aec9d1b814611077578063b60da9b014610f63578063b88d4fde14610f15578063c87b56dd14610ec2578063c8deced614610e7a578063c976831514610e2d578063cd0e35b914610df0578063d40761e414610deb578063d723f2e714610d58578063d735d7cd14610b70578063dc2a26a714610814578063e0574e3f1461074f578063e334008714610705578063e985e9c5146106b7578063f2fde38b1461068c578063faf8e8b41461059d578063fc92506014610563578063fd95cc511461050b5763ff6785e01461033757600080fd5b346105065761034536613bcd565b90801515806104fa575b61035890613e22565b80600052600191602083815260018060a01b036009604060002001541633036104a4578260005283815283600b806040600020018054906000815581610433575b5050906000905b6103e1575b60405183815285907f5f3ecb61e63394d34a984597179063028a9e892ab46083cc23665bc92a81137a90806103dc81880189613772565b0390a2005b835181101561042e579085826104046103fb839588613ce4565b5151151561448c565b866000528185526104268360406000200161041f8389613ce4565b51906144d6565b0190916103a0565b6103a5565b6000528284600020918201915b82811061044d5750610399565b6104578154613cf8565b80610466575b50018390610440565b601f90818111600114610480575050600081555b3861045d565b61049b600092848452898420920160051c8201858301613ec9565b8183555561047a565b6084906040519062461bcd60e51b82526004820152602960248201527f4f6e6c7920636f7572736520696e7374727563746f722063616e207570646174604482015268194818dbdb9d195b9d60ba1b6064820152fd5b5060005481111561034f565b600080fd5b3461050657604036600319011261050657610524613948565b6001600160a01b03166000908152600860205260409020805460243591908210156105065760209161055591613840565b90546040519160031b1c8152f35b34610506576020366003190112610506576001600160a01b03610584613948565b1660005260036020526020604060002054604051908152f35b34610506576105ab366139d1565b81151580610680575b6105bd90613e22565b8160005260016020526105e160018060a01b03600960406000200154163314614431565b6105ed8151151561448c565b81600052600160205261060781600b6040600020016144d6565b816000526001602052600b60406000200154600019810190811161066a577ff04740232fc267e81c1f5142df00ffab820e31dcb32d747e5af68a744c279cee9161065f9160405192839260408452604084019061374d565b9060208301520390a2005b634e487b7160e01b600052601160045260246000fd5b506000548211156105b4565b34610506576020366003190112610506576106b56106a8613948565b6106b0614937565b61478c565b005b34610506576040366003190112610506576106d0613948565b6106e16106db61395e565b91613a71565b9060018060a01b0316600052602052602060ff604060002054166040519015158152f35b346105065760403660031901126105065761071e613948565b6001600160a01b03166000908152600f60205260409020805460243591908210156105065760209161055591613840565b34610506576020366003190112610506576107686146a2565b50600435600052600080516020614b6c833981519152602052610810604060002060056107f76040519261079b84613874565b8054845260018060a01b038060018301541660208601526002820154166040850152600381015460608501526040516107e2816107db8160048601613d32565b03826138c5565b60808501526107db6040518094819301613d32565b60a0820152604051918291602083526020830190613bfc565b0390f35b346105065760e0366003190112610506576001600160401b0360043581811161050657610845903690600401613901565b906044358181116105065761085e903690600401613901565b9160643582811161050657610877903690600401613b4e565b9260843583811161050657610890903690600401613901565b9260a435908111610506576108a9903690600401613901565b933360005260036020526108c36040600020541515613dc8565b60405160208185516108d88183858a0161372a565b8101600281520301902054610b1f576108f2600054613cd5565b9384600055604051916109048361388f565b600083526040519361091585613858565b86855285602086015260408501526024356060850152608084015260a0830152600060c0830152600060e083015260c4356101008301523361012083015284610140830152610160820152826000526001602052604060002081518155610983602083015160018301613ee0565b610994604083015160028301613ee0565b606082015160038201556004810160808301519060208251926109b784846146d6565b019060005260206000206000915b838310610b025750505050600b610160916109e760a085015160058301613ee0565b60c0840151600682015560e0840151600782015561010084015160088201556101208401516009820180546001600160a01b0319166001600160a01b0392909216919091179055610140840151610a4190600a8301613ee0565b01910151906020825192610a5584846146d6565b019060005260206000206000915b838310610ae55760208686817fd2e3e28143fcecc8ad47c77faf891ac5b154d3b78243d7658ed60a5767c79e52610ac28c8360405188818851610aa98183858d0161372a565b8101600281520301902055604051918291339683614767565b0390a3610add610ad3601154613cd5565b806011553361487d565b604051908152f35b6001602082610af683945186613ee0565b01920192019190610a63565b6001602082610b1383945186613ee0565b019201920191906109c5565b60405162461bcd60e51b8152602060048201526024808201527f436f7572736520776974682074686973206e616d6520616c72656164792065786044820152636973747360e01b6064820152608490fd5b346105065760208060031936011261050657610bc6610b8d613948565b6001600160a01b031660009081527f0c2c9b5e6b5a5c9d2d2f8d3c1f73b7f1c3b4d5e6f7a8b9c0d1e2f3a4b5c6d7ea6020526040902090565b604051808284829454938481520190600052846000209260005b86828210610d425784610bf5818603826138c5565b8051610c19610c0382613b37565b91610c1160405193846138c5565b808352613b37565b601f19018360005b828110610d2c5750505060005b8251811015610cce5780610c4460019285613ce4565b51600052600080516020614b6c833981519152855260406000206005610cad60405192610c7084613874565b80548452858060a01b038087830154168a8601526002820154166040850152600381015460608501526040516107e2816107db8160048601613d32565b60a0820152610cbc8285613ce4565b52610cc78184613ce4565b5001610c2e565b604080518581528351818701819052600092600582901b830181019186890191899085015b828710610d005785850386f35b909192938280610d1c600193603f198a82030186528851613bfc565b9601920196019592919092610cf3565b610d346146a2565b828286010152018490610c21565b8554845260019586019587955093019201610be0565b3461050657600036600319011261050657600054610d7581613c59565b906001805b82811115610d98576040516020808252819061081090820187613772565b8060005281602052816040600020019060001981019181831161066a57610de6926107db610dcf610de09360405192838092613d32565b610dd98289613ce4565b5286613ce4565b50613cd5565b610d7a565b613aaa565b346105065760003660031901126105065760207f0c2c9b5e6b5a5c9d2d2f8d3c1f73b7f1c3b4d5e6f7a8b9c0d1e2f3a4b5c6d7e854604051908152f35b3461050657604036600319011261050657610e4661395e565b600435600052600a60205260406000209060018060a01b0316600052602052602060ff604060002054166040519015158152f35b34610506576040366003190112610506576001600160a01b03610e9b613948565b16600052600c60205260406000206024356000526020526020604060002054604051908152f35b3461050657602036600319011261050657610ede600435614800565b506000604051610eed8161388f565b52610810604051610efd8161388f565b6000815260405191829160208352602083019061374d565b3461050657608036600319011261050657610f2e613948565b610f3661395e565b606435916001600160401b03831161050657610f596106b5933690600401613901565b9160443591614577565b3461050657610f7136613b21565b90801515808061106b575b610f8590613e22565b81600052600a60205260406000203360005260205260ff6040600020541615611026578061101a575b610fb790613e22565b60328211610fd5576000526001602052600660406000200155600080f35b60405162461bcd60e51b815260206004820152601f60248201527f526174696e67206d757374206265206265747765656e203020616e64203530006044820152606490fd5b50600054811115610fae565b60405162461bcd60e51b815260206004820152601f60248201527f4f6e6c7920656e726f6c6c65642073747564656e74732063616e2072617465006044820152606490fd5b50600054821115610f7c565b3461050657600036600319011261050657336000526020600f8152604060002090604051808383829554938481520190600052836000209260005b858282106110dd575050506110c9925003836138c5565b61081060405192828493845283019061380c565b85548452600195860195889550930192016110b2565b346105065760208060031936011261050657600435336000526006825260ff6040600020541615611168576106b59181600052600b815260016040600020015461113e811515614043565b600052600a8152604060002090336000525261116160ff60406000205416614083565b3390614970565b60405162461bcd60e51b8152600481018390526024808201527f4f6e6c792073747564656e742063616e20706572666f726d20746869732061636044820152633a34b7b760e11b6064820152608490fd5b34610506576000366003190112610506576108106040516111d9816138aa565b60058152640352e302e360dc1b602082015260405191829160208352602083019061374d565b3461050657604036600319011261050657611218613948565b6024359081151590818303610506576001600160a01b031691821561128f576112619061124433613a71565b8460005260205260406000209060ff801983541691151516179055565b6040519081527f17307eab39ab6107e8899845ad3d59bd9653f200f220920489ca2b5937696c3160203392a3005b604051630b61174360e31b815260048101849052602490fd5b34610506576000366003190112610506576040517f80bb2b638cc20bc4d0a60d66940f3ab4a00c1d7b313497ca82fb0b4ab007930180548260006112eb83613cf8565b928383526020946001918660018216918260001461136e57505060011461132f575b505061131b925003836138c5565b61081060405192828493845283019061374d565b85925060005281600020906000915b85831061135657505061131b9350820101858061130d565b8054838901850152879450869390920191810161133e565b925093505061131b94915060ff191682840152151560051b820101858061130d565b3461050657602036600319011261050657600435801515806113d1575b6113b690613e22565b60005260016020526020600b60406000200154604051908152f35b506000548111156113ad565b34610506576000366003190112610506576010546040516001600160a01b039091168152602090f35b346105065760403660031901126105065760043561142261395e565b7f9b779b17422d0df92223018b32b4d1fa46e071723d6817e2486d003becc55f009060028254146116dd5760028255821515806116d1575b61146390613e22565b60018060a01b039081811691826000526020946006865261148b60ff60406000205416613feb565b80600052600a865260406000208460005286526114b060ff604060002054161561451b565b806000526001865260406000206040516114c981613858565b815481526040516114e1816107db8160018701613d32565b888201526040516114f9816107db8160028701613d32565b60408201526003820154606082015261151460048301613e62565b608082015260405161152d816107db8160058701613d32565b60a0820152600682015460c082015260078201549060e0810191825261016061158c600b600886015495610100850196875288600982015416610120860152604051611580816107db81600a8601613d32565b61014086015201613e62565b910152519051111561169b5780600052600a865260406000208460005286526115bd60ff604060002054161561451b565b83600052600886526115d3816040600020614848565b600081815260098752604090208054600160401b811015611685576001976116829661166d9561162b847fc65c83424b9743cd85950d4d05ef8ab686409eafe1bf490c528b98f4eb800048968d604097018155613840565b819291549060031b9184831b921b191617905584600052600a825282600020816000528252826000208a60ff19825416179055825191858352820152a16143f9565b611678601154613cd5565b908160115561487d565b55005b634e487b7160e01b600052604160045260246000fd5b60405162461bcd60e51b815260048101879052600e60248201526d10dbdd5c9cd9481a5cc8199d5b1b60921b6044820152606490fd5b5060005483111561145a565b604051633ee5aeb560e01b8152600490fd5b3461050657600036600319011261050657600080516020614b2c833981519152546040516001600160a01b039091168152602090f35b3461050657602036600319011261050657600435600052600b6020526080604060002080549060018101549060ff6003600283015492015416916040519384526020840152604083015215156060820152f35b346105065761178636613bcd565b811515806118fc575b61179890613e22565b8160005260016020918183526117bf60018060a01b03600960406000200154163314614431565b8051156118ac576000825b611867575b50509082600052818152600b60406000200190604051928184018285528354809152604085019260408260051b8701019460005280600020936000905b83821061183c57887f5f3ecb61e63394d34a984597179063028a9e892ab46083cc23665bc92a81137a8989038aa2005b909192938381611857819899603f198c82030186528a613d32565b980192019201909493929161180c565b90829181518110156118a657806118826103fb859385613ce4565b8660005281865261189e600b60406000200161041f8386613ce4565b0190916117ca565b506117cf565b60405162461bcd60e51b815260048101849052602260248201527f436f6e74656e7420555249732061727261792063616e6e6f7420626520656d70604482015261747960f01b6064820152608490fd5b5060005482111561178f565b3461050657604036600319011261050657611921613948565b6024359061192d614937565b6001600160a01b03166000818152600360205260409020549091906119e35781600052600360205280604060002055600454600160401b8110156116855760018101806004558110156119cd576004600052600080516020614b8c8339815191520180546001600160a01b031916831790556040519081527ff41b6f34bb9c4ca3f7fd3415e13442244ab51655583ce1a228b284abca8c33dc90602090a2005b634e487b7160e01b600052603260045260246000fd5b60405162461bcd60e51b81526020600482015260176024820152764c6563747572657220616c72656164792065786973747360481b6044820152606490fd5b34610506576020366003190112610506576001600160a01b03611a43613948565b166000526006602052602060ff604060002054166040519015158152f35b3461050657602036600319011261050657600435600454811015610506576004600052600080516020614b8c83398151915201546040516001600160a01b039091168152602090f35b34610506576020366003190112610506576001600160a01b03611acb613948565b16600052600360205260206040600020541515604051908152f35b346105065760031960603682011261050657611b00613948565b602491906001600160401b03833581811161050657611b23903690600401613901565b9060443590811161050657611b3c903690600401613901565b3360005260209360038552611b576040600020541515613dc8565b6001600160a01b0384811660008181526006885260409020549092919060ff1615611dc1578215611d8b57845115611d56577f0c2c9b5e6b5a5c9d2d2f8d3c1f73b7f1c3b4d5e6f7a8b9c0d1e2f3a4b5c6d7e89586549660018801809811611d415791611c7188611c6c879694610b8d839d9e97998f9d9a8c8f8f611c6491896005955560405195611be887613874565b8a87528187019081526040870190338252600080516020614b6c833981519152606089019342855260808a0195865260a08a019788528d600052526040600020975188558d600189019151169060018060a01b031991828254161790558d60028901925116908254161790555160038601555160048501613ee0565b519101613ee0565b614848565b8684867f2ec0f811294a1373db1a1f85e0a119a631d40f3e1d1bbba7776fc28ef0bd31f860405180611ca58c339783614767565b0390a4601054169283611cbd575b8785604051908152f35b611d046000928997611cf56040519a8b998a98899763130e6b2b60e01b8952600489015287015260806044870152608486019061374d565b9184830301606485015261374d565b03925af1611d18575b808381808080611cb3565b813d8311611d3a575b611d2b81836138c5565b81010312610506578183611d0d565b503d611d21565b89634e487b7160e01b60005260116004526000fd5b60405162461bcd60e51b815260048101889052600e818a01526d151a5d1b19481c995c5d5a5c995960921b6044820152606490fd5b60405162461bcd60e51b815260048101889052600f818a01526e125b9d985b1a59081cdd1d59195b9d608a1b6044820152606490fd5b60405162461bcd60e51b8152600481018890526018818a015277139bdd0818481c9959da5cdd195c9959081cdd1d59195b9d60421b6044820152606490fd5b3461050657600036600319011261050657611e19614937565b600080516020614b2c83398151915280546001600160a01b031981169091556000906001600160a01b03167f8be0079c531659141344cd1fd0a4f28419497f9722a3daafe3b4186f6b6457e08280a3005b3461050657602036600319011261050657611e83613948565b6001600160a01b03811615611ea657611e9d602091613a38565b54604051908152f35b6040516322718ad960e21b815260006004820152602490fd5b34610506576000366003190112610506573360005260086020526020604060002054604051908152f35b3461050657611ef736613b21565b9060005260096020526040600020805482101561050657602091611f1a91613840565b905460405160039290921b1c6001600160a01b03168152f35b34610506576020366003190112610506576106b56004356143f9565b34610506576000366003190112610506576020600054604051908152f35b34610506576020366003190112610506576020611f8b600435614800565b6040516001600160a01b039091168152f35b3461050657604036600319011261050657611fb6613948565b6024353360005260209160038352611fd46040600020541515613dc8565b6001600160a01b0316600081815260068452604090205490929060ff1661207e576000838152600582526040808220849055600683529020805460ff1916600117905560075491600160401b8310156116855760018301806007558310156119cd576007600090815282902090920180546001600160a01b031916841790556040519182527f481f70abdaaa7e4e53bed4ead7bded11ecbcdaa9f01fe0b3f850cb01e071bf9191a2005b6064906040519062461bcd60e51b82526004820152601660248201527553747564656e7420616c72656164792065786973747360501b6044820152fd5b34610506576020806003193601126105065760043560005260098152604060002090604051808383829554938481520190600052836000209260005b858282106121225750505061210e925003836138c5565b6108106040519282849384528301906137cf565b85546001600160a01b03168452600195860195889550930192016120f7565b34610506576020806003193601126105065761215e610b8d613948565b90604051808383829554938481520190600052836000209260005b85828210612190575050506110c9925003836138c5565b8554845260019586019588955093019201612179565b34610506576000366003190112610506576020610add61428d565b346105065760208060031936011261050657600435600052600e8152604060002090604051808383829554938481520190600052836000209260005b85828210612214575050506110c9925003836138c5565b85548452600195860195889550930192016121fd565b346105065760003660031901126105065761081060405161224a816138aa565b60058152640312e302e360dc1b602082015260405191829160208352602083019061374d565b34610506576000366003190112610506577f00000000000000000000000000000000000000000000000000000000000000006001600160a01b031630036122c9576020604051600080516020614b4c8339815191528152f35b60405163703e46dd60e11b8152600490fd5b6040366003190112610506576122ef613948565b6024356001600160401b0381116105065761230e903690600401613901565b906001600160a01b037f00000000000000000000000000000000000000000000000000000000000000008116308114908115612491575b506122c957612352614937565b8116906040516352d1902d60e01b8152602081600481865afa6000918161245d575b5061239257604051634c9c8ce360e01b815260048101849052602490fd5b600080516020614b4c833981519152929192908181036124455750823b1561242c5780546001600160a01b03191682179055604051907fbc7cd75a20ee27fd9adebab32041f755214dbc6bffa90cc0225b39da2e5c2d3b600080a282511561241357506000808360206106b595519101845af461240d614a2c565b91614ac8565b9150503461241d57005b63b398979f60e01b8152600490fd5b604051634c9c8ce360e01b815260048101839052602490fd5b60249060405190632a87526960e21b82526004820152fd5b9091506020813d602011612489575b81612479602093836138c5565b8101031261050657519085612374565b3d915061246c565b905081600080516020614b4c8339815191525416141584612345565b34610506576020366003190112610506576004356001600160401b038111610506576124f660206124e381933690600401613901565b816040519382858094519384920161372a565b8101600281520301902054604051908152f35b34610506576106b561251a36613a03565b90604051926125288461388f565b60008452614577565b346105065760003660031901126105065761254a614937565b4780156125b55760018060a01b03600080516020614b2c8339815191526000808080868686541682f1156125a9577feaff4b37086828766ad3268786972c0cd24259d4c87a80f9d3963a3c3d999b0d91602091541692604051908152a2005b6040513d6000823e3d90fd5b60405162461bcd60e51b81526020600482015260146024820152734e6f2066756e647320746f20776974686472617760601b6044820152606490fd5b346105065760403660031901126105065761260a613948565b33600052602090600382526126256040600020541515613dc8565b6001600160a01b0316600081815260068352604090205490919060ff161561269c577fd2bdfdee5627d669e777c948248fdcf31c1b210e6d815658acae79824bcaf9ef90826000526005815260406000206126836024358254614280565b90558260005260058152604060002054604051908152a2005b6064906040519062461bcd60e51b82526004820152600d60248201526c139bdd0818481cdd1d59195b9d609a1b6044820152fd5b34610506576020366003190112610506576001600160a01b036126f1613948565b1660005260056020526020604060002054604051908152f35b34610506576106b561271b36613a03565b916140db565b34610506576040366003190112610506576106b560043561274061395e565b9033600052600360205261275a6040600020541515613dc8565b6001600160a01b03821660008181526006602052604090205461277f9060ff16613feb565b81600052600b60205260016040600020015461279c811515614043565b600052600a6020526040600020906000526020526127c160ff60406000205416614083565b614970565b34610506576020366003190112610506576127df613948565b6127e7614937565b6001600160a01b0316801561282f57601080546001600160a01b031916821790557f9e3c9747b000bdd55a767a5126710d1412eb8046d8b6fd3e149aa1d2e7ce4a1f600080a2005b60405162461bcd60e51b8152602060048201526013602482015272496e76616c6964204e4654206164647265737360681b6044820152606490fd5b3461050657602036600319011261050657600435801515806128bf575b61289090613e22565b60005260016020526108106128ab600b604060002001613e62565b604051918291602083526020830190613772565b50600054811115612887565b3461050657600036600319011261050657604051600780548083526000918252602080840193927fa66cc928b5edb82af9bd49922954155ab7b0942694bea4ce44661d9a8736c68892915b828210612941576108108561292d818903826138c5565b6040519182916020835260208301906137cf565b83546001600160a01b031686529485019460019384019390910190612916565b346105065760003660031901126105065760405160048054808352600091825260208084019392600080516020614b8c83398151915292915b8282106129b1576108108561292d818903826138c5565b83546001600160a01b03168652948501946001938401939091019061299a565b34610506576129df366139d1565b81151580612abd575b6129f190613e22565b6000828152600160205260409020600901546001600160a01b03163303612a65576103dc7f47ed34406a736ccb7fe3e05f167e8de4143bd4f80ef2b29219bcb76a62fd2eb491836000526001602052612a5181600a604060002001613ee0565b60405191829160208352602083019061374d565b60405162461bcd60e51b815260206004820152602a60248201527f4f6e6c7920636f7572736520696e7374727563746f722063616e20757064617460448201526965206d6574616461746160b01b6064820152608490fd5b506000548211156129e8565b34610506576020366003190112610506576004356060610160604051612aee81613858565b600081528260208201528260408201526000838201528260808201528260a0820152600060c0820152600060e08201526000610100820152600061012082015282610140820152015280151580612d15575b612b4990613e22565b60005260016020526108106040600020612c28600b60405192612b6b84613858565b80548452604051612b83816107db8160018601613d32565b6020850152604051612b9c816107db8160028601613d32565b604085015260038101546060850152612bb760048201613e62565b6080850152604051612bd0816107db8160058601613d32565b60a0850152600681015460c0850152600781015460e0850152600881015461010085015260098101546001600160a01b0316610120850152604051612c1c816107db81600a8601613d32565b61014085015201613e62565b6101608201526040519182916020835280516020840152610160612d00612cb5612c9f612c7f612c69602087015161018060408b01526101a08a019061374d565b6040870151898203601f190160608b015261374d565b606086015160808901526080860151601f198983030160a08a0152613974565b60a0850151878203601f190160c089015261374d565b60c084015160e087015260e084015161010087015261010084015161012087015260018060a01b0361012085015116610140870152610140840151601f19878303018488015261374d565b910151838203601f1901610180850152613974565b50600054811115612b40565b3461050657602080600319360112610506576004353360005260038252612d4e6040600020541515613dc8565b80151580612ea3575b612d6090613e22565b80600052600182523360018060a01b036009604060002001541603612e6257612d8a600d54613cd5565b9081600d5560405160808101908082106001600160401b0383111761168557612dfe9160405283815260038582018481526040830142815260608401916000835287600052600b895260406000209451855551600185015551600284015551151591019060ff801983541691151516179055565b80600052600e8352612e14826040600020614848565b33600052600f8352612e2a826040600020614848565b817f9d810e0082f8a92772407ea94a85bc457d358804c697a63a434a5043bf81be7f84604051428152a3610add610ad3601154613cd5565b60405162461bcd60e51b81526004810183905260196024820152782737ba103a34329031b7bab939b29034b739ba393ab1ba37b960391b6044820152606490fd5b50600054811115612d57565b3461050657604036600319011261050657612ec8613948565b602435612ed481614800565b33151580612f83575b80612f63575b612f4b576001600160a01b039283169282918491167f8c5be1e5ebec7d5bd14f71427d1e84f3dd0314c0f7b2291e5b200ac8c7c3b925600080a46000908152600080516020614bcc8339815191526020526040902080546001600160a01b0319169091179055005b60405163a9fbf51f60e01b8152336004820152602490fd5b50612f6d81613a71565b3360005260205260ff6040600020541615612ee3565b506001600160a01b038116331415612edd565b3461050657602036600319011261050657600435612fb381614800565b50600052600080516020614bcc833981519152602052602060018060a01b0360406000205416604051908152f35b34610506576060366003190112610506576001600160401b0360043581811161050657613012903690600401613901565b6024358281116105065761302a903690600401613901565b906044356001600160a01b0381168103610506577ff0c57e16840df040f15088dc2f81fe391c3923bec73e23a9662efc9c229c6a009283549460ff8660401c161593818716968715806133f5575b600180991490816133eb575b1590816133e2575b506133d05767ffffffffffffffff19811688178755856133b1575b506130b0614a5c565b6130b8614a5c565b8051828111611685577f80bb2b638cc20bc4d0a60d66940f3ab4a00c1d7b313497ca82fb0b4ab0079300906130ed8254613cf8565b92601f93848111613381575b5060209084831160011461331f5761312a929160009183613314575b50508160011b916000199060031b1c19161790565b90555b8251918211611685577f80bb2b638cc20bc4d0a60d66940f3ab4a00c1d7b313497ca82fb0b4ab0079301926131628454613cf8565b8281116132da575b50602091831160011461327157918061319f926131b29695946000926132665750508160011b916000199060031b1c19161790565b90555b6131aa614a5c565b6106b0614a5c565b6131ba614a5c565b6131c2614a5c565b6131ca614a5c565b827f9b779b17422d0df92223018b32b4d1fa46e071723d6817e2486d003becc55f00556131f5614a5c565b6131fd614a5c565b613205614a5c565b61320d614a5c565b613215614a5c565b6000600d55613222614a5c565b600060115561322d57005b805460ff60401b191690556040519081527fc7f505b2f371ae2175ee4913f4499e1f2633a7b5936321eed1cdaeb6115181d290602090a1005b015190508980613115565b9392918791601f1982169084600052806000209160005b8181106132c2575096836131b298106132a9575b505050811b0190556131a2565b015160001960f88460031b161c1916905588808061329c565b8289015184558b959093019260209283019201613288565b613305908560005260206000208480870160051c8201926020881061330b575b0160051c0190613ec9565b8861316a565b925081926132fa565b015190508b80613115565b8a9291601f1983169185600052816000209260005b81811061336957508411613350575b505050811b01905561312d565b015160001960f88460031b161c191690558a8080613343565b8284015185558e969094019360209384019301613334565b6133ab908460005260206000208680860160051c8201926020871061330b570160051c0190613ec9565b8a6130f9565b68ffffffffffffffffff191668010000000000000001178655876130a7565b60405163f92ee8a960e01b8152600490fd5b9050158961308c565b303b159150613084565b5085613078565b34610506576000366003190112610506576040517f80bb2b638cc20bc4d0a60d66940f3ab4a00c1d7b313497ca82fb0b4ab0079300805482600061343f83613cf8565b928383526020946001918660018216918260001461136e57505060011461346e57505061131b925003836138c5565b85925060005281600020906000915b85831061349557505061131b9350820101858061130d565b8054838901850152879450869390920191810161347d565b34610506576020366003190112610506576004356007548110156105065760076000527fa66cc928b5edb82af9bd49922954155ab7b0942694bea4ce44661d9a8736c68801546040516001600160a01b039091168152602090f35b346105065760003660031901126105065760005461352581613c59565b61352e82613b37565b61353b60405191826138c5565b82815261354783613b37565b602090601f1901368383013761355c84613ca3565b9061356685613ca3565b9261357086613c59565b9560015b818111156135dc576135a5876108108a6135ce8a6135c08b6135b28c8c6040519a8b9a60a08c5260a08c0190613772565b918a8303908b01526137cf565b90878203604089015261380c565b90858203606087015261380c565b908382036080850152613772565b806000526001845260016040600020019060001981019181831161066a576136ba926107db613614610de09360405192838092613d32565b61361e828c613ce4565b52613629818b613ce4565b5060008381526001885260409020600901546001600160a01b031661364e8288613ce4565b52826000526001875260086040600020015461366a828a613ce4565b528260005260018752600760406000200154613686828b613ce4565b5282600052600187526107db6136a9600260406000200160405192838092613d32565b6136b3828d613ce4565b528a613ce4565b613574565b34610506576020366003190112610506576004359063ffffffff60e01b8216809203610506576020916380ac58cd60e01b8114908115613719575b8115613708575b5015158152f35b6301ffc9a760e01b14905083613701565b635b5e139f60e01b811491506136fa565b60005b83811061373d5750506000910152565b818101518382015260200161372d565b906020916137668151809281855285808601910161372a565b601f01601f1916010190565b90808251908181526020809101926020808460051b8301019501936000915b8483106137a15750505050505090565b90919293949584806137bf600193601f198682030187528a5161374d565b9801930193019194939290613791565b90815180825260208080930193019160005b8281106137ef575050505090565b83516001600160a01b0316855293810193928101926001016137e1565b90815180825260208080930193019160005b82811061382c575050505090565b83518552938101939281019260010161381e565b80548210156119cd5760005260206000200190600090565b61018081019081106001600160401b0382111761168557604052565b60c081019081106001600160401b0382111761168557604052565b602081019081106001600160401b0382111761168557604052565b604081019081106001600160401b0382111761168557604052565b90601f801991011681019081106001600160401b0382111761168557604052565b6001600160401b03811161168557601f01601f191660200190565b81601f8201121561050657803590613918826138e6565b9261392660405194856138c5565b8284526020838301011161050657816000926020809301838601378301015290565b600435906001600160a01b038216820361050657565b602435906001600160a01b038216820361050657565b90808251908181526020809101926020808460051b8301019501936000915b8483106139a35750505050505090565b90919293949584806139c1600193601f198682030187528a5161374d565b9801930193019194939290613993565b9060406003198301126105065760043591602435906001600160401b03821161050657613a0091600401613901565b90565b6060906003190112610506576001600160a01b0390600435828116810361050657916024359081168103610506579060443590565b6001600160a01b031660009081527f80bb2b638cc20bc4d0a60d66940f3ab4a00c1d7b313497ca82fb0b4ab00793036020526040902090565b6001600160a01b031660009081527f80bb2b638cc20bc4d0a60d66940f3ab4a00c1d7b313497ca82fb0b4ab00793056020526040902090565b3461050657602080600319360112610506576001600160a01b03613acc613948565b1660005260088152604060002090604051808383829554938481520190600052836000209260005b85828210613b0b575050506110c9925003836138c5565b8554845260019586019588955093019201613af4565b6040906003190112610506576004359060243590565b6001600160401b0381116116855760051b60200190565b81601f8201121561050657803591602091613b6884613b37565b93613b7660405195866138c5565b808552838086019160051b8301019280841161050657848301915b848310613ba15750505050505090565b82356001600160401b038111610506578691613bc284848094890101613901565b815201920191613b91565b9060406003198301126105065760043591602435906001600160401b03821161050657613a0091600401613b4e565b613a009181518152602082015160018060a01b03809116602083015260408301511660408201526060820151606082015260a0613c48608084015160c0608085015260c084019061374d565b9201519060a081840391015261374d565b90613c6382613b37565b613c7060405191826138c5565b8281528092613c81601f1991613b37565b019060005b828110613c9257505050565b806060602080938501015201613c86565b90613cad82613b37565b613cba60405191826138c5565b8281528092613ccb601f1991613b37565b0190602036910137565b600019811461066a5760010190565b80518210156119cd5760209160051b010190565b90600182811c92168015613d28575b6020831014613d1257565b634e487b7160e01b600052602260045260246000fd5b91607f1691613d07565b805460009392613d4182613cf8565b91828252602093600191600181169081600014613da95750600114613d68575b5050505050565b90939495506000929192528360002092846000945b838610613d9557505050500101903880808080613d61565b805485870183015294019385908201613d7d565b60ff19168685015250505090151560051b010191503880808080613d61565b15613dcf57565b60405162461bcd60e51b815260206004820152602560248201527f4f6e6c79206c656374757265722063616e20706572666f726d2074686973206160448201526431ba34b7b760d91b6064820152608490fd5b15613e2957565b60405162461bcd60e51b8152602060048201526011602482015270125b9d985b1a590818dbdd5c9cd9481251607a1b6044820152606490fd5b908154613e6e81613b37565b92604093613e7f60405191826138c5565b82815280946020809201926000526020600020906000935b858510613ea657505050505050565b60018481928451613ebb816107db818a613d32565b815201930194019391613e97565b818110613ed4575050565b60008155600101613ec9565b91909182516001600160401b03811161168557613efd8254613cf8565b601f8111613fae575b50602080601f8311600114613f4957508190613f3a939495600092613f3e5750508160011b916000199060031b1c19161790565b9055565b015190503880613115565b90601f19831695846000526020600020926000905b888210613f9657505083600195969710613f7d575b505050811b019055565b015160001960f88460031b161c19169055388080613f73565b80600185968294968601518155019501930190613f5e565b613fdb90836000526020600020601f840160051c81019160208510613fe1575b601f0160051c0190613ec9565b38613f06565b9091508190613fce565b15613ff257565b60405162461bcd60e51b815260206004820152602360248201527f41646472657373206973206e6f74206120726567697374657265642073747564604482015262195b9d60ea1b6064820152608490fd5b1561404a57565b60405162461bcd60e51b815260206004820152601160248201527014d95cdcda5bdb881b9bdd08199bdd5b99607a1b6044820152606490fd5b1561408a57565b60405162461bcd60e51b815260206004820152602360248201527f53747564656e74206e6f7420656e726f6c6c656420696e207468697320636f7560448201526272736560e81b6064820152608490fd5b6001600160a01b03828116939184156142675782600095818752600080516020614bac8339815191529586602052604097858982205416978892331515806141c1575b50906141507fddf252ad1be2c89b69c2b068fc378daa952ba7f163c4a11628f55a4df523b3ef9392856141a257613a38565b8054600101905585825260205289812080546001600160a01b0319168517905580a416928383036141815750505050565b6064945051926364283d7b60e01b8452600484015260248301526044820152fd5b6141ab88614a9d565b6141b486613a38565b8054600019019055613a38565b9193509193945080614218575b156141df579187918794933861411e565b8887896141fc576024915190637e27328960e01b82526004820152fd5b604491519063177e802f60e01b82523360048301526024820152fd5b50338814801561424b575b806141ce5750868352600080516020614bcc83398151915260205233868a85205416146141ce565b5061425588613a71565b33845260205260ff8984205416614223565b604051633250574960e11b815260006004820152602490fd5b9190820180921161066a57565b600090338252602060088152604092838120938051808685829854938481520190855285852092855b878282106143e3575050506142cd925003866138c5565b81809281955b87518710156143a3576142e68789613ce4565b518352600e86528383209184518093849189825491828152019187528987209087905b8b818310614388575050505061432d92916143259103856138c5565b835190614280565b90835b835181101561437a57338552600c885285852061434d8286613ce4565b518652885260018686205414614366575b600101614330565b95614372600191613cd5565b96905061435e565b5096600191925001956142d3565b83955060019294839294548152019401920186939291614309565b965094509192505082156143dd576064820291808304606414901517156143c957500490565b634e487b7160e01b81526011600452602490fd5b91505090565b855484526001958601958b9550930192016142b6565b80151580614425575b61440b90613e22565b60005260016020526007604060002001613f3a8154613cd5565b50600054811115614402565b1561443857565b60405162461bcd60e51b815260206004820152602660248201527f4f6e6c7920636f7572736520696e7374727563746f722063616e2061646420636044820152651bdb9d195b9d60d21b6064820152608490fd5b1561449357565b60405162461bcd60e51b815260206004820152601b60248201527a436f6e74656e74205552492063616e6e6f7420626520656d70747960281b6044820152606490fd5b8054600160401b811015611685576144f391600182018155613840565b9190916145055761450391613ee0565b565b634e487b7160e01b600052600060045260246000fd5b1561452257565b60405162461bcd60e51b815260206004820152602760248201527f53747564656e7420616c726561647920656e726f6c6c656420696e207468697360448201526620636f7572736560c81b6064820152608490fd5b91906145848282856140db565b803b614591575b50505050565b6145d360018060a01b0380921694604051938493630a85bd0160e11b96878652336004870152166024850152604484015260806064840152608483019061374d565b03906020816000938185885af190829082614652575b505061462157826145f8614a2c565b805191908261461a57604051633250574960e11b815260048101839052602490fd5b6020915001fd5b6001600160e01b0319160361463a57503880808061458b565b60249060405190633250574960e11b82526004820152fd5b909192506020813d60201161469a575b8161466f602093836138c5565b810103126146965751906001600160e01b03198216820361469357509038806145e9565b80fd5b5080fd5b3d9150614662565b604051906146af82613874565b606060a0836000815260006020820152600060408201526000838201528260808201520152565b600160401b8211611685578054918082558281106146f357505050565b60009182526020906020832093840193015b8381106147125750505050565b808361472060019354613cf8565b8061472e575b505001614705565b601f808211851461474557505081555b8338614726565b61475e90848452868420920160051c8201858301613ec9565b8183555561473e565b909161477e613a009360408452604084019061374d565b91602081840391015261374d565b6001600160a01b039081169081156147e757600080516020614b2c83398151915280546001600160a01b031981168417909155167f8be0079c531659141344cd1fd0a4f28419497f9722a3daafe3b4186f6b6457e0600080a3565b604051631e4fbdf760e01b815260006004820152602490fd5b6000818152600080516020614bac83398151915260205260409020546001600160a01b0316908115614830575090565b60249060405190637e27328960e01b82526004820152fd5b8054600160401b8110156116855761486591600182018155613840565b819291549060031b91821b91600019901b1916179055565b6001600160a01b0391818316801561426757600093828552600080516020614bac8339815191529081602052604086205416906148c1821515958661492557613a38565b805460010190558386526020526040852080546001600160a01b031916831790557fddf252ad1be2c89b69c2b068fc378daa952ba7f163c4a11628f55a4df523b3ef8580a461490d5750565b602490604051906339e3563760e11b82526004820152fd5b61492e86614a9d565b6141b484613a38565b600080516020614b2c833981519152546001600160a01b0316330361495857565b60405163118cdaa760e01b8152336004820152602490fd5b6000818152602092600b8452604090614990600183852001541515614043565b6001600160a01b0316808352600c85528183208484528552818320549094906149ee57848352600c815281832084845290528120600190557f9e5d24579183fa37d9de3c53c170caae77e5ea5a3ed2c66fdd356f590ff779f49080a3565b606491519062461bcd60e51b825260048201526019602482015278105d1d195b99185b98d948185b1c9958591e481b585c9ad959603a1b6044820152fd5b3d15614a57573d90614a3d826138e6565b91614a4b60405193846138c5565b82523d6000602084013e565b606090565b60ff7ff0c57e16840df040f15088dc2f81fe391c3923bec73e23a9662efc9c229c6a005460401c1615614a8b57565b604051631afcd79f60e31b8152600490fd5b6000908152600080516020614bcc8339815191526020526040902080546001600160a01b0319169055565b90614aef5750805115614add57602081519101fd5b60405163d6bda27560e01b8152600490fd5b81511580614b22575b614b00575090565b604051639996b31560e01b81526001600160a01b039091166004820152602490fd5b50803b15614af856fe9016d09d72d40fdae2fd8ceac6b6234c7706214fd39c1cd1e609a0528c199300360894a13ba1a3210667c828492db98dca3e2076cc3735a920a3ca505d382bbc0c2c9b5e6b5a5c9d2d2f8d3c1f73b7f1c3b4d5e6f7a8b9c0d1e2f3a4b5c6d7e98a35acfbc15ff81a39ae7d344fd709f28e8600b4aa8c65c6b64bfe7fe36bd19b80bb2b638cc20bc4d0a60d66940f3ab4a00c1d7b313497ca82fb0b4ab007930280bb2b638cc20bc4d0a60d66940f3ab4a00c1d7b313497ca82fb0b4ab0079304a2646970667358221220cefb697cf199ba9c7fc9aaaa90e86a6acc908b4ee77b64dae18e73e9299e9c7c64736f6c63430008160033",
  "linkReferences": {},
  "deployedLinkReferences": {}
}