{
  "_format": "hh-sol-artifact-1",
  "contractName": "Celorean",
  "sourceName": "contracts/Celorean.sol",
  "abi": [
    {
      "inputs": [
        {
          "internalType": "address",
          "name": "target",
          "type": "address"
        }
      ],
      "name": "AddressEmptyCode",
      "type": "error"
    },
    {
      "inputs": [
        {
          "internalType": "address",
          "name": "implementation",
          "type": "address"
        }
      ],
      "name": "ERC1967InvalidImplementation",
      "type": "error"
    },
    {
      "inputs": [],
      "name": "ERC1967NonPayable",
      "type": "error"
    },
    {
      "inputs": [
        {
          "internalType": "address",
          "name": "sender",
          "type": "address"
        },
        {
          "internalType": "uint256",
          "name": "tokenId",
          "type": "uint256"
        },
        {
          "internalType": "address",
          "name": "owner",
          "type": "address"
        }
      ],
      "name": "ERC721IncorrectOwner",
      "type": "error"
    },
    {
      "inputs": [
        {
          "internalType": "address",
          "name": "operator",
          "type": "address"
        },
        {
          "internalType": "uint256",
          "name": "tokenId",
          "type": "uint256"
        }
      ],
      "name": "ERC721InsufficientApproval",
      "type": "error"
    },
    {
      "inputs": [
        {
          "internalType": "address",
          "name": "approver",
          "type": "address"
        }
      ],
      "name": "ERC721InvalidApprover",
      "type": "error"
    },
    {
      "inputs": [
        {
          "internalType": "address",
          "name": "operator",
          "type": "address"
        }
      ],
      "name": "ERC721InvalidOperator",
      "type": "error"
    },
    {
      "inputs": [
        {
          "internalType": "address",
          "name": "owner",
          "type": "address"
        }
      ],
      "name": "ERC721InvalidOwner",
      "type": "error"
    },
    {
      "inputs": [
        {
          "internalType": "address",
          "name": "receiver",
          "type": "address"
        }
      ],
      "name": "ERC721InvalidReceiver",
      "type": "error"
    },
    {
      "inputs": [
        {
          "internalType": "address",
          "name": "sender",
          "type": "address"
        }
      ],
      "name": "ERC721InvalidSender",
      "type": "error"
    },
    {
      "inputs": [
        {
          "internalType": "uint256",
          "name": "tokenId",
          "type": "uint256"
        }
      ],
      "name": "ERC721NonexistentToken",
      "type": "error"
    },
    {
      "inputs": [],
      "name": "FailedCall",
      "type": "error"
    },
    {
      "inputs": [],
      "name": "InvalidInitialization",
      "type": "error"
    },
    {
      "inputs": [],
      "name": "NotInitializing",
      "type": "error"
    },
    {
      "inputs": [
        {
          "internalType": "address",
          "name": "owner",
          "type": "address"
        }
      ],
      "name": "OwnableInvalidOwner",
      "type": "error"
    },
    {
      "inputs": [
        {
          "internalType": "address",
          "name": "account",
          "type": "address"
        }
      ],
      "name": "OwnableUnauthorizedAccount",
      "type": "error"
    },
    {
      "inputs": [],
      "name": "ReentrancyGuardReentrantCall",
      "type": "error"
    },
    {
      "inputs": [],
      "name": "UUPSUnauthorizedCallContext",
      "type": "error"
    },
    {
      "inputs": [
        {
          "internalType": "bytes32",
          "name": "slot",
          "type": "bytes32"
        }
      ],
      "name": "UUPSUnsupportedProxiableUUID",
      "type": "error"
    },
    {
      "anonymous": false,
      "inputs": [
        {
          "indexed": true,
          "internalType": "address",
          "name": "owner",
          "type": "address"
        },
        {
          "indexed": true,
          "internalType": "address",
          "name": "approved",
          "type": "address"
        },
        {
          "indexed": true,
          "internalType": "uint256",
          "name": "tokenId",
          "type": "uint256"
        }
      ],
      "name": "Approval",
      "type": "event"
    },
    {
      "anonymous": false,
      "inputs": [
        {
          "indexed": true,
          "internalType": "address",
          "name": "owner",
          "type": "address"
        },
        {
          "indexed": true,
          "internalType": "address",
          "name": "operator",
          "type": "address"
        },
        {
          "indexed": false,
          "internalType": "bool",
          "name": "approved",
          "type": "bool"
        }
      ],
      "name": "ApprovalForAll",
      "type": "event"
    },
    {
      "anonymous": false,
      "inputs": [
        {
          "indexed": true,
          "internalType": "uint256",
          "name": "sessionId",
          "type": "uint256"
        },
        {
          "indexed": true,
          "internalType": "address",
          "name": "student",
          "type": "address"
        }
      ],
      "name": "AttendanceMarked",
      "type": "event"
    },
    {
      "anonymous": false,
      "inputs": [
        {
          "indexed": true,
          "internalType": "address",
          "name": "nft",
          "type": "address"
        }
      ],
      "name": "CertificateNFTUpdated",
      "type": "event"
    },
    {
      "anonymous": false,
      "inputs": [
        {
          "indexed": true,
          "internalType": "uint256",
          "name": "sessionId",
          "type": "uint256"
        },
        {
          "indexed": true,
          "internalType": "uint256",
          "name": "courseId",
          "type": "uint256"
        },
        {
          "indexed": false,
          "internalType": "uint256",
          "name": "timestamp",
          "type": "uint256"
        }
      ],
      "name": "ClassSessionCreated",
      "type": "event"
    },
    {
      "anonymous": false,
      "inputs": [
        {
          "indexed": true,
          "internalType": "uint256",
          "name": "courseId",
          "type": "uint256"
        },
        {
          "indexed": true,
          "internalType": "address",
          "name": "student",
          "type": "address"
        },
        {
          "indexed": false,
          "internalType": "uint256",
          "name": "contentIndex",
          "type": "uint256"
        },
        {
          "indexed": false,
          "internalType": "uint256",
          "name": "timestamp",
          "type": "uint256"
        }
      ],
      "name": "ContentCompleted",
      "type": "event"
    },
    {
      "anonymous": false,
      "inputs": [
        {
          "indexed": true,
          "internalType": "uint256",
          "name": "courseId",
          "type": "uint256"
        },
        {
          "indexed": false,
          "internalType": "string",
          "name": "newContentUri",
          "type": "string"
        },
        {
          "indexed": false,
          "internalType": "uint256",
          "name": "contentIndex",
          "type": "uint256"
        }
      ],
      "name": "CourseContentAdded",
      "type": "event"
    },
    {
      "anonymous": false,
      "inputs": [
        {
          "indexed": true,
          "internalType": "uint256",
          "name": "courseId",
          "type": "uint256"
        },
        {
          "indexed": false,
          "internalType": "string[]",
          "name": "newContentUris",
          "type": "string[]"
        }
      ],
      "name": "CourseContentUpdated",
      "type": "event"
    },
    {
      "anonymous": false,
      "inputs": [
        {
          "indexed": true,
          "internalType": "uint256",
          "name": "courseId",
          "type": "uint256"
        },
        {
          "indexed": false,
          "internalType": "string",
          "name": "title",
          "type": "string"
        },
        {
          "indexed": true,
          "internalType": "address",
          "name": "instructor",
          "type": "address"
        },
        {
          "indexed": false,
          "internalType": "string",
          "name": "metadataUri",
          "type": "string"
        }
      ],
      "name": "CourseCreated",
      "type": "event"
    },
    {
      "anonymous": false,
      "inputs": [
        {
          "indexed": true,
          "internalType": "uint256",
          "name": "courseId",
          "type": "uint256"
        },
        {
          "indexed": false,
          "internalType": "string",
          "name": "newMetadataUri",
          "type": "string"
        }
      ],
      "name": "CourseMetadataUpdated",
      "type": "event"
    },
    {
      "anonymous": false,
      "inputs": [
        {
          "indexed": true,
          "internalType": "uint256",
          "name": "courseId",
          "type": "uint256"
        },
        {
          "indexed": true,
          "internalType": "enum CourseModule.CourseStatus",
          "name": "status",
          "type": "uint8"
        }
      ],
      "name": "CourseStatusUpdated",
      "type": "event"
    },
    {
      "anonymous": false,
      "inputs": [
        {
          "indexed": true,
          "internalType": "uint256",
          "name": "courseId",
          "type": "uint256"
        },
        {
          "indexed": true,
          "internalType": "enum CourseModule.CourseType",
          "name": "courseType",
          "type": "uint8"
        }
      ],
      "name": "CourseTypeUpdated",
      "type": "event"
    },
    {
      "anonymous": false,
      "inputs": [
        {
          "indexed": true,
          "internalType": "uint256",
          "name": "id",
          "type": "uint256"
        },
        {
          "indexed": true,
          "internalType": "address",
          "name": "student",
          "type": "address"
        },
        {
          "indexed": true,
          "internalType": "address",
          "name": "issuer",
          "type": "address"
        },
        {
          "indexed": false,
          "internalType": "string",
          "name": "title",
          "type": "string"
        },
        {
          "indexed": false,
          "internalType": "string",
          "name": "metadataUri",
          "type": "string"
        }
      ],
      "name": "CredentialIssued",
      "type": "event"
    },
    {
      "anonymous": false,
      "inputs": [
        {
          "indexed": true,
          "internalType": "address",
          "name": "owner",
          "type": "address"
        },
        {
          "indexed": false,
          "internalType": "uint256",
          "name": "amount",
          "type": "uint256"
        }
      ],
      "name": "FundsWithdrawn",
      "type": "event"
    },
    {
      "anonymous": false,
      "inputs": [
        {
          "indexed": false,
          "internalType": "uint64",
          "name": "version",
          "type": "uint64"
        }
      ],
      "name": "Initialized",
      "type": "event"
    },
    {
      "anonymous": false,
      "inputs": [
        {
          "indexed": true,
          "internalType": "address",
          "name": "lecturer",
          "type": "address"
        }
      ],
      "name": "LecturerEmployed",
      "type": "event"
    },
    {
      "anonymous": false,
      "inputs": [
        {
          "indexed": true,
          "internalType": "address",
          "name": "previousOwner",
          "type": "address"
        },
        {
          "indexed": true,
          "internalType": "address",
          "name": "newOwner",
          "type": "address"
        }
      ],
      "name": "OwnershipTransferred",
      "type": "event"
    },
    {
      "anonymous": false,
      "inputs": [
        {
          "indexed": true,
          "internalType": "address",
          "name": "student",
          "type": "address"
        }
      ],
      "name": "StudentAdmitted",
      "type": "event"
    },
    {
      "anonymous": false,
      "inputs": [
        {
          "indexed": false,
          "internalType": "uint256",
          "name": "courseId",
          "type": "uint256"
        },
        {
          "indexed": false,
          "internalType": "address",
          "name": "student",
          "type": "address"
        }
      ],
      "name": "StudentRegistered",
      "type": "event"
    },
    {
      "anonymous": false,
      "inputs": [
        {
          "indexed": true,
          "internalType": "address",
          "name": "student",
          "type": "address"
        },
        {
          "indexed": false,
          "internalType": "uint256",
          "name": "newAmount",
          "type": "uint256"
        }
      ],
      "name": "StudentTokenUpdated",
      "type": "event"
    },
    {
      "anonymous": false,
      "inputs": [
        {
          "indexed": true,
          "internalType": "address",
          "name": "from",
          "type": "address"
        },
        {
          "indexed": true,
          "internalType": "address",
          "name": "to",
          "type": "address"
        },
        {
          "indexed": true,
          "internalType": "uint256",
          "name": "tokenId",
          "type": "uint256"
        }
      ],
      "name": "Transfer",
      "type": "event"
    },
    {
      "anonymous": false,
      "inputs": [
        {
          "indexed": true,
          "internalType": "address",
          "name": "implementation",
          "type": "address"
        }
      ],
      "name": "Upgraded",
      "type": "event"
    },
    {
      "inputs": [],
      "name": "UPGRADE_INTERFACE_VERSION",
      "outputs": [
        {
          "internalType": "string",
          "name": "",
          "type": "string"
        }
      ],
      "stateMutability": "view",
      "type": "function"
    },
    {
      "inputs": [
        {
          "internalType": "uint256",
          "name": "courseId",
          "type": "uint256"
        },
        {
          "internalType": "string",
          "name": "newContentUri",
          "type": "string"
        }
      ],
      "name": "addCourseContent",
      "outputs": [],
      "stateMutability": "nonpayable",
      "type": "function"
    },
    {
      "inputs": [
        {
          "internalType": "uint256",
          "name": "courseId",
          "type": "uint256"
        },
        {
          "internalType": "string[]",
          "name": "newContentUris",
          "type": "string[]"
        }
      ],
      "name": "addMultipleCourseContent",
      "outputs": [],
      "stateMutability": "nonpayable",
      "type": "function"
    },
    {
      "inputs": [
        {
          "internalType": "address",
          "name": "student",
          "type": "address"
        }
      ],
      "name": "admitStudent",
      "outputs": [],
      "stateMutability": "nonpayable",
      "type": "function"
    },
    {
      "inputs": [
        {
          "internalType": "address",
          "name": "to",
          "type": "address"
        },
        {
          "internalType": "uint256",
          "name": "tokenId",
          "type": "uint256"
        }
      ],
      "name": "approve",
      "outputs": [],
      "stateMutability": "nonpayable",
      "type": "function"
    },
    {
      "inputs": [
        {
          "internalType": "address",
          "name": "owner",
          "type": "address"
        }
      ],
      "name": "balanceOf",
      "outputs": [
        {
          "internalType": "uint256",
          "name": "",
          "type": "uint256"
        }
      ],
      "stateMutability": "view",
      "type": "function"
    },
    {
      "inputs": [],
      "name": "calculateAttendancePercentage",
      "outputs": [
        {
          "internalType": "uint256",
          "name": "",
          "type": "uint256"
        }
      ],
      "stateMutability": "view",
      "type": "function"
    },
    {
      "inputs": [],
      "name": "certificateNFT",
      "outputs": [
        {
          "internalType": "address",
          "name": "",
          "type": "address"
        }
      ],
      "stateMutability": "view",
      "type": "function"
    },
    {
      "inputs": [
        {
          "internalType": "uint256",
          "name": "",
          "type": "uint256"
        }
      ],
      "name": "classSessions",
      "outputs": [
        {
          "internalType": "uint256",
          "name": "id",
          "type": "uint256"
        },
        {
          "internalType": "uint256",
          "name": "courseId",
          "type": "uint256"
        },
        {
          "internalType": "uint256",
          "name": "timestamp",
          "type": "uint256"
        },
        {
          "internalType": "bool",
          "name": "marked",
          "type": "bool"
        }
      ],
      "stateMutability": "view",
      "type": "function"
    },
    {
      "inputs": [
        {
          "internalType": "uint256",
          "name": "",
          "type": "uint256"
        },
        {
          "internalType": "address",
          "name": "",
          "type": "address"
        },
        {
          "internalType": "uint256",
          "name": "",
          "type": "uint256"
        }
      ],
      "name": "completedContents",
      "outputs": [
        {
          "internalType": "bool",
          "name": "",
          "type": "bool"
        }
      ],
      "stateMutability": "view",
      "type": "function"
    },
    {
      "inputs": [
        {
          "internalType": "uint256",
          "name": "",
          "type": "uint256"
        },
        {
          "internalType": "address",
          "name": "",
          "type": "address"
        }
      ],
      "name": "completedCount",
      "outputs": [
        {
          "internalType": "uint256",
          "name": "",
          "type": "uint256"
        }
      ],
      "stateMutability": "view",
      "type": "function"
    },
    {
      "inputs": [
        {
          "internalType": "uint256",
          "name": "",
          "type": "uint256"
        },
        {
          "internalType": "address",
          "name": "",
          "type": "address"
        },
        {
          "internalType": "uint256",
          "name": "",
          "type": "uint256"
        }
      ],
      "name": "completedTimestamps",
      "outputs": [
        {
          "internalType": "uint256",
          "name": "",
          "type": "uint256"
        }
      ],
      "stateMutability": "view",
      "type": "function"
    },
    {
      "inputs": [],
      "name": "courseCount",
      "outputs": [
        {
          "internalType": "uint256",
          "name": "",
          "type": "uint256"
        }
      ],
      "stateMutability": "view",
      "type": "function"
    },
    {
      "inputs": [
        {
          "internalType": "string",
          "name": "",
          "type": "string"
        }
      ],
      "name": "courseNameToId",
      "outputs": [
        {
          "internalType": "uint256",
          "name": "",
          "type": "uint256"
        }
      ],
      "stateMutability": "view",
      "type": "function"
    },
    {
      "inputs": [
        {
          "internalType": "uint256",
          "name": "",
          "type": "uint256"
        },
        {
          "internalType": "uint256",
          "name": "",
          "type": "uint256"
        }
      ],
      "name": "courseStudents",
      "outputs": [
        {
          "internalType": "address",
          "name": "",
          "type": "address"
        }
      ],
      "stateMutability": "view",
      "type": "function"
    },
    {
      "inputs": [
        {
          "internalType": "uint256",
          "name": "courseId",
          "type": "uint256"
        }
      ],
      "name": "createClassSession",
      "outputs": [
        {
          "internalType": "uint256",
          "name": "",
          "type": "uint256"
        }
      ],
      "stateMutability": "nonpayable",
      "type": "function"
    },
    {
      "inputs": [
        {
          "internalType": "string",
          "name": "title",
          "type": "string"
        },
        {
          "internalType": "uint256",
          "name": "duration",
          "type": "uint256"
        },
        {
          "internalType": "string",
          "name": "description",
          "type": "string"
        },
        {
          "internalType": "string[]",
          "name": "tags",
          "type": "string[]"
        },
        {
          "internalType": "string",
          "name": "level",
          "type": "string"
        },
        {
          "internalType": "string",
          "name": "metadataUri",
          "type": "string"
        },
        {
          "internalType": "uint256",
          "name": "capacity",
          "type": "uint256"
        },
        {
          "internalType": "enum CourseModule.CourseType",
          "name": "courseType",
          "type": "uint8"
        }
      ],
      "name": "createCourse",
      "outputs": [
        {
          "internalType": "uint256",
          "name": "",
          "type": "uint256"
        }
      ],
      "stateMutability": "nonpayable",
      "type": "function"
    },
    {
      "inputs": [],
      "name": "credentialCount",
      "outputs": [
        {
          "internalType": "uint256",
          "name": "",
          "type": "uint256"
        }
      ],
      "stateMutability": "view",
      "type": "function"
    },
    {
      "inputs": [
        {
          "internalType": "uint256",
          "name": "id",
          "type": "uint256"
        }
      ],
      "name": "credentials",
      "outputs": [
        {
          "components": [
            {
              "internalType": "uint256",
              "name": "id",
              "type": "uint256"
            },
            {
              "internalType": "address",
              "name": "student",
              "type": "address"
            },
            {
              "internalType": "address",
              "name": "issuer",
              "type": "address"
            },
            {
              "internalType": "uint256",
              "name": "issuedAt",
              "type": "uint256"
            },
            {
              "internalType": "string",
              "name": "title",
              "type": "string"
            },
            {
              "internalType": "string",
              "name": "metadataUri",
              "type": "string"
            }
          ],
          "internalType": "struct CredentialStorage.Credential",
          "name": "",
          "type": "tuple"
        }
      ],
      "stateMutability": "view",
      "type": "function"
    },
    {
      "inputs": [
        {
          "internalType": "address",
          "name": "lecturer",
          "type": "address"
        }
      ],
      "name": "employLecturer",
      "outputs": [],
      "stateMutability": "nonpayable",
      "type": "function"
    },
    {
      "inputs": [],
      "name": "getAllCourseNames",
      "outputs": [
        {
          "internalType": "string[]",
          "name": "",
          "type": "string[]"
        }
      ],
      "stateMutability": "view",
      "type": "function"
    },
    {
      "inputs": [],
      "name": "getAllCourses",
      "outputs": [
        {
          "internalType": "string[]",
          "name": "names",
          "type": "string[]"
        },
        {
          "internalType": "address[]",
          "name": "instructors",
          "type": "address[]"
        },
        {
          "internalType": "uint256[]",
          "name": "capacities",
          "type": "uint256[]"
        },
        {
          "internalType": "uint256[]",
          "name": "enrolledStudents",
          "type": "uint256[]"
        },
        {
          "internalType": "string[]",
          "name": "descriptions",
          "type": "string[]"
        }
      ],
      "stateMutability": "view",
      "type": "function"
    },
    {
      "inputs": [
        {
          "internalType": "uint256",
          "name": "tokenId",
          "type": "uint256"
        }
      ],
      "name": "getApproved",
      "outputs": [
        {
          "internalType": "address",
          "name": "",
          "type": "address"
        }
      ],
      "stateMutability": "view",
      "type": "function"
    },
    {
      "inputs": [
        {
          "internalType": "uint256",
          "name": "courseId",
          "type": "uint256"
        },
        {
          "internalType": "address",
          "name": "student",
          "type": "address"
        }
      ],
      "name": "getCompletedContentCount",
      "outputs": [
        {
          "internalType": "uint256",
          "name": "",
          "type": "uint256"
        }
      ],
      "stateMutability": "view",
      "type": "function"
    },
    {
      "inputs": [
        {
          "internalType": "uint256",
          "name": "courseId",
          "type": "uint256"
        },
        {
          "internalType": "address",
          "name": "student",
          "type": "address"
        },
        {
          "internalType": "uint256",
          "name": "totalContentCount",
          "type": "uint256"
        }
      ],
      "name": "getCompletedContents",
      "outputs": [
        {
          "internalType": "bool[]",
          "name": "",
          "type": "bool[]"
        }
      ],
      "stateMutability": "view",
      "type": "function"
    },
    {
      "inputs": [
        {
          "internalType": "uint256",
          "name": "courseId",
          "type": "uint256"
        },
        {
          "internalType": "address",
          "name": "student",
          "type": "address"
        },
        {
          "internalType": "uint256",
          "name": "totalContentCount",
          "type": "uint256"
        }
      ],
      "name": "getCompletedTimestamps",
      "outputs": [
        {
          "internalType": "uint256[]",
          "name": "",
          "type": "uint256[]"
        }
      ],
      "stateMutability": "view",
      "type": "function"
    },
    {
      "inputs": [
        {
          "internalType": "uint256",
          "name": "courseId",
          "type": "uint256"
        }
      ],
      "name": "getCourse",
      "outputs": [
        {
          "components": [
            {
              "internalType": "uint256",
              "name": "id",
              "type": "uint256"
            },
            {
              "internalType": "string",
              "name": "title",
              "type": "string"
            },
            {
              "internalType": "string",
              "name": "description",
              "type": "string"
            },
            {
              "internalType": "uint256",
              "name": "duration",
              "type": "uint256"
            },
            {
              "internalType": "string[]",
              "name": "tags",
              "type": "string[]"
            },
            {
              "internalType": "string",
              "name": "level",
              "type": "string"
            },
            {
              "internalType": "uint256",
              "name": "rating",
              "type": "uint256"
            },
            {
              "internalType": "uint256",
              "name": "enrolledCount",
              "type": "uint256"
            },
            {
              "internalType": "uint256",
              "name": "capacity",
              "type": "uint256"
            },
            {
              "internalType": "address",
              "name": "instructor",
              "type": "address"
            },
            {
              "internalType": "string",
              "name": "metadataUri",
              "type": "string"
            },
            {
              "internalType": "string[]",
              "name": "contentUris",
              "type": "string[]"
            },
            {
              "internalType": "enum CourseModule.CourseType",
              "name": "courseType",
              "type": "uint8"
            },
            {
              "internalType": "enum CourseModule.CourseStatus",
              "name": "status",
              "type": "uint8"
            }
          ],
          "internalType": "struct CourseModule.Course",
          "name": "",
          "type": "tuple"
        }
      ],
      "stateMutability": "view",
      "type": "function"
    },
    {
      "inputs": [
        {
          "internalType": "uint256",
          "name": "courseId",
          "type": "uint256"
        }
      ],
      "name": "getCourseContentCount",
      "outputs": [
        {
          "internalType": "uint256",
          "name": "",
          "type": "uint256"
        }
      ],
      "stateMutability": "view",
      "type": "function"
    },
    {
      "inputs": [
        {
          "internalType": "uint256",
          "name": "courseId",
          "type": "uint256"
        }
      ],
      "name": "getCourseContentUris",
      "outputs": [
        {
          "internalType": "string[]",
          "name": "",
          "type": "string[]"
        }
      ],
      "stateMutability": "view",
      "type": "function"
    },
    {
      "inputs": [
        {
          "internalType": "uint256",
          "name": "courseId",
          "type": "uint256"
        }
      ],
      "name": "getCourseStudents",
      "outputs": [
        {
          "internalType": "address[]",
          "name": "",
          "type": "address[]"
        }
      ],
      "stateMutability": "view",
      "type": "function"
    },
    {
      "inputs": [
        {
          "internalType": "address",
          "name": "student",
          "type": "address"
        }
      ],
      "name": "getCoursesRegisteredByStudent",
      "outputs": [
        {
          "internalType": "uint256[]",
          "name": "",
          "type": "uint256[]"
        }
      ],
      "stateMutability": "view",
      "type": "function"
    },
    {
      "inputs": [
        {
          "internalType": "address",
          "name": "student",
          "type": "address"
        }
      ],
      "name": "getCredentialsByStudent",
      "outputs": [
        {
          "components": [
            {
              "internalType": "uint256",
              "name": "id",
              "type": "uint256"
            },
            {
              "internalType": "address",
              "name": "student",
              "type": "address"
            },
            {
              "internalType": "address",
              "name": "issuer",
              "type": "address"
            },
            {
              "internalType": "uint256",
              "name": "issuedAt",
              "type": "uint256"
            },
            {
              "internalType": "string",
              "name": "title",
              "type": "string"
            },
            {
              "internalType": "string",
              "name": "metadataUri",
              "type": "string"
            }
          ],
          "internalType": "struct CredentialStorage.Credential[]",
          "name": "",
          "type": "tuple[]"
        }
      ],
      "stateMutability": "view",
      "type": "function"
    },
    {
      "inputs": [],
      "name": "getLecturerList",
      "outputs": [
        {
          "internalType": "address[]",
          "name": "",
          "type": "address[]"
        }
      ],
      "stateMutability": "view",
      "type": "function"
    },
    {
      "inputs": [],
      "name": "getListOfStudents",
      "outputs": [
        {
          "internalType": "address[]",
          "name": "",
          "type": "address[]"
        }
      ],
      "stateMutability": "view",
      "type": "function"
    },
    {
      "inputs": [],
      "name": "getSessionIdsForLecturer",
      "outputs": [
        {
          "internalType": "uint256[]",
          "name": "",
          "type": "uint256[]"
        }
      ],
      "stateMutability": "view",
      "type": "function"
    },
    {
      "inputs": [
        {
          "internalType": "uint256",
          "name": "courseId",
          "type": "uint256"
        }
      ],
      "name": "getSessionsForCourse",
      "outputs": [
        {
          "internalType": "uint256[]",
          "name": "",
          "type": "uint256[]"
        }
      ],
      "stateMutability": "view",
      "type": "function"
    },
    {
      "inputs": [
        {
          "internalType": "address",
          "name": "student",
          "type": "address"
        }
      ],
      "name": "getStudentCourses",
      "outputs": [
        {
          "internalType": "uint256[]",
          "name": "",
          "type": "uint256[]"
        }
      ],
      "stateMutability": "view",
      "type": "function"
    },
    {
      "inputs": [
        {
          "internalType": "address",
          "name": "student",
          "type": "address"
        }
      ],
      "name": "getStudentCredentialIds",
      "outputs": [
        {
          "internalType": "uint256[]",
          "name": "",
          "type": "uint256[]"
        }
      ],
      "stateMutability": "view",
      "type": "function"
    },
    {
      "inputs": [],
      "name": "getTotalRegisteredCourses",
      "outputs": [
        {
          "internalType": "uint256",
          "name": "",
          "type": "uint256"
        }
      ],
      "stateMutability": "view",
      "type": "function"
    },
    {
      "inputs": [
        {
          "internalType": "uint256",
          "name": "courseId",
          "type": "uint256"
        }
      ],
      "name": "incrementEnrollment",
      "outputs": [],
      "stateMutability": "nonpayable",
      "type": "function"
    },
    {
      "inputs": [
        {
          "internalType": "string",
          "name": "name",
          "type": "string"
        },
        {
          "internalType": "string",
          "name": "symbol",
          "type": "string"
        },
        {
          "internalType": "address",
          "name": "owner",
          "type": "address"
        }
      ],
      "name": "initialize",
      "outputs": [],
      "stateMutability": "nonpayable",
      "type": "function"
    },
    {
      "inputs": [
        {
          "internalType": "address",
          "name": "owner",
          "type": "address"
        },
        {
          "internalType": "address",
          "name": "operator",
          "type": "address"
        }
      ],
      "name": "isApprovedForAll",
      "outputs": [
        {
          "internalType": "bool",
          "name": "",
          "type": "bool"
        }
      ],
      "stateMutability": "view",
      "type": "function"
    },
    {
      "inputs": [
        {
          "internalType": "uint256",
          "name": "courseId",
          "type": "uint256"
        },
        {
          "internalType": "address",
          "name": "student",
          "type": "address"
        },
        {
          "internalType": "uint256",
          "name": "contentIndex",
          "type": "uint256"
        }
      ],
      "name": "isContentCompleted",
      "outputs": [
        {
          "internalType": "bool",
          "name": "",
          "type": "bool"
        }
      ],
      "stateMutability": "view",
      "type": "function"
    },
    {
      "inputs": [
        {
          "internalType": "uint256",
          "name": "",
          "type": "uint256"
        },
        {
          "internalType": "address",
          "name": "",
          "type": "address"
        }
      ],
      "name": "isEnrolled",
      "outputs": [
        {
          "internalType": "bool",
          "name": "",
          "type": "bool"
        }
      ],
      "stateMutability": "view",
      "type": "function"
    },
    {
      "inputs": [
        {
          "internalType": "address",
          "name": "account",
          "type": "address"
        }
      ],
      "name": "isLecturer",
      "outputs": [
        {
          "internalType": "bool",
          "name": "",
          "type": "bool"
        }
      ],
      "stateMutability": "view",
      "type": "function"
    },
    {
      "inputs": [
        {
          "internalType": "address",
          "name": "",
          "type": "address"
        }
      ],
      "name": "isStudent",
      "outputs": [
        {
          "internalType": "bool",
          "name": "",
          "type": "bool"
        }
      ],
      "stateMutability": "view",
      "type": "function"
    },
    {
      "inputs": [
        {
          "internalType": "uint256",
          "name": "courseId",
          "type": "uint256"
        },
        {
          "internalType": "address",
          "name": "student",
          "type": "address"
        }
      ],
      "name": "isStudentEnrolled",
      "outputs": [
        {
          "internalType": "bool",
          "name": "",
          "type": "bool"
        }
      ],
      "stateMutability": "view",
      "type": "function"
    },
    {
      "inputs": [
        {
          "internalType": "address",
          "name": "student",
          "type": "address"
        },
        {
          "internalType": "string",
          "name": "title",
          "type": "string"
        },
        {
          "internalType": "string",
          "name": "metadataUri",
          "type": "string"
        }
      ],
      "name": "issueCredentialForStudent",
      "outputs": [
        {
          "internalType": "uint256",
          "name": "",
          "type": "uint256"
        }
      ],
      "stateMutability": "nonpayable",
      "type": "function"
    },
    {
      "inputs": [
        {
          "internalType": "uint256",
          "name": "",
          "type": "uint256"
        }
      ],
      "name": "lecturerList",
      "outputs": [
        {
          "internalType": "address",
          "name": "",
          "type": "address"
        }
      ],
      "stateMutability": "view",
      "type": "function"
    },
    {
      "inputs": [
        {
          "internalType": "address",
          "name": "",
          "type": "address"
        },
        {
          "internalType": "uint256",
          "name": "",
          "type": "uint256"
        }
      ],
      "name": "lecturerSessions",
      "outputs": [
        {
          "internalType": "uint256",
          "name": "",
          "type": "uint256"
        }
      ],
      "stateMutability": "view",
      "type": "function"
    },
    {
      "inputs": [
        {
          "internalType": "address",
          "name": "",
          "type": "address"
        }
      ],
      "name": "lecturers",
      "outputs": [
        {
          "internalType": "uint256",
          "name": "",
          "type": "uint256"
        }
      ],
      "stateMutability": "view",
      "type": "function"
    },
    {
      "inputs": [
        {
          "internalType": "uint256",
          "name": "sessionId",
          "type": "uint256"
        },
        {
          "internalType": "address",
          "name": "student",
          "type": "address"
        }
      ],
      "name": "markAttendance",
      "outputs": [],
      "stateMutability": "nonpayable",
      "type": "function"
    },
    {
      "inputs": [
        {
          "internalType": "uint256",
          "name": "sessionId",
          "type": "uint256"
        }
      ],
      "name": "markAttendance",
      "outputs": [],
      "stateMutability": "nonpayable",
      "type": "function"
    },
    {
      "inputs": [
        {
          "internalType": "uint256",
          "name": "courseId",
          "type": "uint256"
        },
        {
          "internalType": "uint256",
          "name": "contentIndex",
          "type": "uint256"
        }
      ],
      "name": "markContentComplete",
      "outputs": [],
      "stateMutability": "nonpayable",
      "type": "function"
    },
    {
      "inputs": [
        {
          "internalType": "uint256",
          "name": "courseId",
          "type": "uint256"
        }
      ],
      "name": "markCourseAsEnded",
      "outputs": [],
      "stateMutability": "nonpayable",
      "type": "function"
    },
    {
      "inputs": [],
      "name": "name",
      "outputs": [
        {
          "internalType": "string",
          "name": "",
          "type": "string"
        }
      ],
      "stateMutability": "view",
      "type": "function"
    },
    {
      "inputs": [],
      "name": "owner",
      "outputs": [
        {
          "internalType": "address",
          "name": "",
          "type": "address"
        }
      ],
      "stateMutability": "view",
      "type": "function"
    },
    {
      "inputs": [
        {
          "internalType": "uint256",
          "name": "tokenId",
          "type": "uint256"
        }
      ],
      "name": "ownerOf",
      "outputs": [
        {
          "internalType": "address",
          "name": "",
          "type": "address"
        }
      ],
      "stateMutability": "view",
      "type": "function"
    },
    {
      "inputs": [],
      "name": "proxiableUUID",
      "outputs": [
        {
          "internalType": "bytes32",
          "name": "",
          "type": "bytes32"
        }
      ],
      "stateMutability": "view",
      "type": "function"
    },
    {
      "inputs": [
        {
          "internalType": "uint256",
          "name": "courseId",
          "type": "uint256"
        },
        {
          "internalType": "address",
          "name": "student",
          "type": "address"
        }
      ],
      "name": "registerForCourse",
      "outputs": [],
      "stateMutability": "nonpayable",
      "type": "function"
    },
    {
      "inputs": [],
      "name": "renounceOwnership",
      "outputs": [],
      "stateMutability": "nonpayable",
      "type": "function"
    },
    {
      "inputs": [
        {
          "internalType": "address",
          "name": "student",
          "type": "address"
        },
        {
          "internalType": "uint256",
          "name": "amount",
          "type": "uint256"
        }
      ],
      "name": "rewardStudent",
      "outputs": [],
      "stateMutability": "nonpayable",
      "type": "function"
    },
    {
      "inputs": [
        {
          "internalType": "address",
          "name": "from",
          "type": "address"
        },
        {
          "internalType": "address",
          "name": "to",
          "type": "address"
        },
        {
          "internalType": "uint256",
          "name": "tokenId",
          "type": "uint256"
        }
      ],
      "name": "safeTransferFrom",
      "outputs": [],
      "stateMutability": "nonpayable",
      "type": "function"
    },
    {
      "inputs": [
        {
          "internalType": "address",
          "name": "from",
          "type": "address"
        },
        {
          "internalType": "address",
          "name": "to",
          "type": "address"
        },
        {
          "internalType": "uint256",
          "name": "tokenId",
          "type": "uint256"
        },
        {
          "internalType": "bytes",
          "name": "data",
          "type": "bytes"
        }
      ],
      "name": "safeTransferFrom",
      "outputs": [],
      "stateMutability": "nonpayable",
      "type": "function"
    },
    {
      "inputs": [
        {
          "internalType": "address",
          "name": "operator",
          "type": "address"
        },
        {
          "internalType": "bool",
          "name": "approved",
          "type": "bool"
        }
      ],
      "name": "setApprovalForAll",
      "outputs": [],
      "stateMutability": "nonpayable",
      "type": "function"
    },
    {
      "inputs": [
        {
          "internalType": "address",
          "name": "nft",
          "type": "address"
        }
      ],
      "name": "setCertificateNFT",
      "outputs": [],
      "stateMutability": "nonpayable",
      "type": "function"
    },
    {
      "inputs": [
        {
          "internalType": "address",
          "name": "",
          "type": "address"
        },
        {
          "internalType": "uint256",
          "name": "",
          "type": "uint256"
        }
      ],
      "name": "studentCourses",
      "outputs": [
        {
          "internalType": "uint256",
          "name": "",
          "type": "uint256"
        }
      ],
      "stateMutability": "view",
      "type": "function"
    },
    {
      "inputs": [
        {
          "internalType": "address",
          "name": "",
          "type": "address"
        },
        {
          "internalType": "uint256",
          "name": "",
          "type": "uint256"
        }
      ],
      "name": "studentSessionAttendance",
      "outputs": [
        {
          "internalType": "uint256",
          "name": "",
          "type": "uint256"
        }
      ],
      "stateMutability": "view",
      "type": "function"
    },
    {
      "inputs": [
        {
          "internalType": "address",
          "name": "",
          "type": "address"
        }
      ],
      "name": "studentTokens",
      "outputs": [
        {
          "internalType": "uint256",
          "name": "",
          "type": "uint256"
        }
      ],
      "stateMutability": "view",
      "type": "function"
    },
    {
      "inputs": [
        {
          "internalType": "uint256",
          "name": "",
          "type": "uint256"
        }
      ],
      "name": "students",
      "outputs": [
        {
          "internalType": "address",
          "name": "",
          "type": "address"
        }
      ],
      "stateMutability": "view",
      "type": "function"
    },
    {
      "inputs": [
        {
          "internalType": "bytes4",
          "name": "interfaceId",
          "type": "bytes4"
        }
      ],
      "name": "supportsInterface",
      "outputs": [
        {
          "internalType": "bool",
          "name": "",
          "type": "bool"
        }
      ],
      "stateMutability": "view",
      "type": "function"
    },
    {
      "inputs": [],
      "name": "symbol",
      "outputs": [
        {
          "internalType": "string",
          "name": "",
          "type": "string"
        }
      ],
      "stateMutability": "view",
      "type": "function"
    },
    {
      "inputs": [
        {
          "internalType": "uint256",
          "name": "tokenId",
          "type": "uint256"
        }
      ],
      "name": "tokenURI",
      "outputs": [
        {
          "internalType": "string",
          "name": "",
          "type": "string"
        }
      ],
      "stateMutability": "view",
      "type": "function"
    },
    {
      "inputs": [
        {
          "internalType": "address",
          "name": "from",
          "type": "address"
        },
        {
          "internalType": "address",
          "name": "to",
          "type": "address"
        },
        {
          "internalType": "uint256",
          "name": "tokenId",
          "type": "uint256"
        }
      ],
      "name": "transferFrom",
      "outputs": [],
      "stateMutability": "nonpayable",
      "type": "function"
    },
    {
      "inputs": [
        {
          "internalType": "address",
          "name": "newOwner",
          "type": "address"
        }
      ],
      "name": "transferOwnership",
      "outputs": [],
      "stateMutability": "nonpayable",
      "type": "function"
    },
    {
      "inputs": [
        {
          "internalType": "uint256",
          "name": "courseId",
          "type": "uint256"
        },
        {
          "internalType": "string[]",
          "name": "newContentUris",
          "type": "string[]"
        }
      ],
      "name": "updateCourseContent",
      "outputs": [],
      "stateMutability": "nonpayable",
      "type": "function"
    },
    {
      "inputs": [
        {
          "internalType": "uint256",
          "name": "courseId",
          "type": "uint256"
        },
        {
          "internalType": "string",
          "name": "newMetadataUri",
          "type": "string"
        }
      ],
      "name": "updateCourseMetadata",
      "outputs": [],
      "stateMutability": "nonpayable",
      "type": "function"
    },
    {
      "inputs": [
        {
          "internalType": "uint256",
          "name": "courseId",
          "type": "uint256"
        },
        {
          "internalType": "uint256",
          "name": "newRating",
          "type": "uint256"
        }
      ],
      "name": "updateCourseRating",
      "outputs": [],
      "stateMutability": "nonpayable",
      "type": "function"
    },
    {
      "inputs": [
        {
          "internalType": "uint256",
          "name": "courseId",
          "type": "uint256"
        },
        {
          "internalType": "enum CourseModule.CourseStatus",
          "name": "newStatus",
          "type": "uint8"
        }
      ],
      "name": "updateCourseStatus",
      "outputs": [],
      "stateMutability": "nonpayable",
      "type": "function"
    },
    {
      "inputs": [
        {
          "internalType": "uint256",
          "name": "courseId",
          "type": "uint256"
        },
        {
          "internalType": "enum CourseModule.CourseType",
          "name": "newType",
          "type": "uint8"
        }
      ],
      "name": "updateCourseType",
      "outputs": [],
      "stateMutability": "nonpayable",
      "type": "function"
    },
    {
      "inputs": [
        {
          "internalType": "address",
          "name": "newImplementation",
          "type": "address"
        },
        {
          "internalType": "bytes",
          "name": "data",
          "type": "bytes"
        }
      ],
      "name": "upgradeToAndCall",
      "outputs": [],
      "stateMutability": "payable",
      "type": "function"
    },
    {
      "inputs": [],
      "name": "version",
      "outputs": [
        {
          "internalType": "string",
          "name": "",
          "type": "string"
        }
      ],
      "stateMutability": "pure",
      "type": "function"
    },
    {
      "inputs": [],
      "name": "withdraw",
      "outputs": [],
      "stateMutability": "nonpayable",
      "type": "function"
    }
  ],
  "bytecode": "0x60a0806040523461002a57306080526154cc908161003082396080518181816127ec01526128820152f35b600080fdfe608080604052600436101561001357600080fd5b60003560e01c90816301ffc9a714613d4a5750806304e48bd114613b9357806306ead22e14613b4a57806306fdde0314613aab578063077f224a146136f1578063081812fc146136a6578063095ea7b3146135bf5780630a5776bb1461342e5780630b91e28d1461316a57806310f2672614613084578063115d338814612f7457806313065a0f14612c39578063158dec4f14612f0457806315f6febd14612e8057806316edbe5414612e1f578063189a0f2714612d7b5780631ae4815e14612cd657806323b872dd14612cbf5780632af47f4614612c855780632b6feb5014612c395780633218e57914612b5a5780633c9f93b114610bfd5780633ccfd60b14612a9a57806342842e0e14612a7257806348147ea414612a165780634f1ef2861461284457806352d1902d146127d957806354fd4d501461279357806356e4bee81461272a5780635b2babd01461270f5780635cc6fa71146126aa5780635fb86e231461263057806360dd60e3146125aa5780636352211e1461257a578063660551591461255c5780636899316d146113455780636aee02d3146125405780636e274a34146124f65780636ecd89bb146124cc57806370a0823114612477578063715018a61461241f578063778375cd1461233a578063798cdb46146120325780637bb2883814611e435780637bf1f66f14611e075780637d92529214611dbe57806382f7d39214611d7f57806388eda5b2146119b15780638a954a0314610c2d5780638bd7a333146118335780638c572bbe146117e05780638da5cb5b146117aa5780638f58c3b2146114d957806391aec72a146114b05780639281a96d1461146357806395d89b411461138d5780639bd4eccd14611345578063a22cb4651461129c578063a8315343146111c3578063ac412b111461109c578063ad3cb1cc14611056578063ade4f8a214610fdc578063aec9d1b814610f60578063b60da9b014610e4c578063b88d4fde14610dfe578063bc3a2ff114610d15578063c87b56dd14610cc2578063c8deced614610c7a578063c976831514610c2d578063cd0e35b914610c02578063d40761e414610bfd578063d723f2e714610b6a578063d735d7cd14610982578063e0574e3f146108bd578063e334008714610873578063e985e9c514610825578063f2fde38b146107fa578063fa346d8b14610728578063faf8e8b414610639578063fc925060146105ff578063fd8abc2d146105b8578063fd95cc51146105605763ff6785e0146103b057600080fd5b3461055b576103be36614284565b908015158061054f575b6103d1906144d9565b80600052600191602083815260018060a01b0360096040600020015416330361050b578260005283815283600b80604060002001805490600081558161049a575b5050906000905b610448575b6040518381528590600080516020615297833981519152908061044381880189613dfd565b0390a2005b83518110156104955790858261046b61046283958861439b565b51511515614c93565b8660005281855261048d83604060002001610486838961439b565b5190614cdd565b019091610419565b61041e565b6000528284600020918201915b8281106104b45750610412565b6104be81546143af565b806104cd575b500183906104a7565b601f908181116001146104e7575050600081555b386104c4565b610502600092848452898420920160051c8201858301614598565b818355556104e1565b6084906040519062461bcd60e51b82526004820152602960248201526000805160206153b7833981519152604482015268194818dbdb9d195b9d60ba1b6064820152fd5b506000548111156103c8565b600080fd5b3461055b57604036600319011261055b57610579613fd5565b6001600160a01b031660009081526008602052604090208054602435919082101561055b576020916105aa91613ecb565b90546040519160031b1c8152f35b3461055b576105c636614090565b91600052601160205260406000209060018060a01b03166000526020526040600020906000526020526020604060002054604051908152f35b3461055b57602036600319011261055b576001600160a01b03610620613fd5565b1660005260036020526020604060002054604051908152f35b3461055b576106473661405e565b8115158061071c575b610659906144d9565b81600052600160205261067d60018060a01b03600960406000200154163314614c38565b61068981511515614c93565b8160005260016020526106a381600b604060002001614cdd565b816000526001602052600b604060002001546000198101908111610706577ff04740232fc267e81c1f5142df00ffab820e31dcb32d747e5af68a744c279cee916106fb91604051928392604084526040840190613dd8565b9060208301520390a2005b634e487b7160e01b600052601160045260246000fd5b50600054821115610650565b3461055b5761073636614090565b61073f816141ee565b9061074d6040519283613f50565b808252610759816141ee565b6020948386019491601f190136863760005b8381106107b757868587604051928392818401908285525180915260408401929160005b82811061079e57505050500390f35b835115158552869550938101939281019260010161078f565b60008281526010885260408082206001600160a01b0386168352895280822083835289529020546001919060ff166107ef828861439b565b90151590520161076b565b3461055b57602036600319011261055b57610823610816613fd5565b61081e615064565b614edd565b005b3461055b57604036600319011261055b5761083e613fd5565b61084f610849613feb565b916140f3565b9060018060a01b0316600052602052602060ff604060002054166040519015158152f35b3461055b57604036600319011261055b5761088c613fd5565b6001600160a01b03166000908152600f602052604090208054602435919082101561055b576020916105aa91613ecb565b3461055b57602036600319011261055b576108d6614ea9565b5060043560005260008051602061537783398151915260205261097e604060002060056109656040519261090984613eff565b8054845260018060a01b038060018301541660208601526002820154166040850152600381015460608501526040516109508161094981600486016143e9565b0382613f50565b608085015261094960405180948193016143e9565b60a08201526040519182916020835260208301906142b3565b0390f35b3461055b5760208060031936011261055b576109d861099f613fd5565b6001600160a01b031660009081527f0c2c9b5e6b5a5c9d2d2f8d3c1f73b7f1c3b4d5e6f7a8b9c0d1e2f3a4b5c6d7ea6020526040902090565b604051808284829454938481520190600052846000209260005b86828210610b545784610a0781860382613f50565b8051610a2b610a15826141ee565b91610a236040519384613f50565b8083526141ee565b601f19018360005b828110610b3e5750505060005b8251811015610ae05780610a566001928561439b565b51600052600080516020615377833981519152855260406000206005610abf60405192610a8284613eff565b80548452858060a01b038087830154168a8601526002820154166040850152600381015460608501526040516109508161094981600486016143e9565b60a0820152610ace828561439b565b52610ad9818461439b565b5001610a40565b604080518581528351818701819052600092600582901b830181019186890191899085015b828710610b125785850386f35b909192938280610b2e600193603f198a820301865288516142b3565b9601920196019592919092610b05565b610b46614ea9565b828286010152018490610a33565b85548452600195860195879550930192016109f2565b3461055b57600036600319011261055b57600054610b8781614310565b906001805b82811115610baa576040516020808252819061097e90820187613dfd565b8060005281602052816040600020019060001981019181831161070657610bf892610949610be1610bf293604051928380926143e9565b610beb828961439b565b528661439b565b5061438c565b610b8c565b614161565b3461055b57600036600319011261055b57602060008051602061533783398151915254604051908152f35b3461055b57604036600319011261055b57610c46613feb565b600435600052600a60205260406000209060018060a01b0316600052602052602060ff604060002054166040519015158152f35b3461055b57604036600319011261055b576001600160a01b03610c9b613fd5565b16600052600c60205260406000206024356000526020526020604060002054604051908152f35b3461055b57602036600319011261055b57610cde600435614f3f565b506000604051610ced81613f1a565b5261097e604051610cfd81613f1a565b60008152604051918291602083526020830190613dd8565b3461055b57604036600319011261055b57602435600435600382101561055b5780151580610df2575b610d47906144d9565b6000818152600160205260409020600901546001600160a01b03163303610da957806000526001602052610d8282600c604060002001614bfb565b7f5169868b2c51c55c15085f9ccfd860c4c1f886bd83c51a3e37e1663f477d3eb5600080a3005b60405162461bcd60e51b815260206004820152602d60248201526000805160206153b783398151915260448201526c6520636f75727365207479706560981b6064820152608490fd5b50600054811115610d3e565b3461055b57608036600319011261055b57610e17613fd5565b610e1f613feb565b606435916001600160401b03831161055b57610e42610823933690600401613f8e565b9160443591614d7e565b3461055b57610e5a366141d8565b908015158080610f54575b610e6e906144d9565b81600052600a60205260406000203360005260205260ff6040600020541615610f0f5780610f03575b610ea0906144d9565b60328211610ebe576000526001602052600660406000200155600080f35b60405162461bcd60e51b815260206004820152601f60248201527f526174696e67206d757374206265206265747765656e203020616e64203530006044820152606490fd5b50600054811115610e97565b60405162461bcd60e51b815260206004820152601f60248201527f4f6e6c7920656e726f6c6c65642073747564656e74732063616e2072617465006044820152606490fd5b50600054821115610e65565b3461055b57600036600319011261055b57336000526020600f8152604060002090604051808383829554938481520190600052836000209260005b85828210610fc657505050610fb292500383613f50565b61097e604051928284938452830190613e97565b8554845260019586019588955093019201610f9b565b3461055b57602036600319011261055b5761082360043533600052600660205261100d60ff60406000205416614b12565b80600052600b60205260016040600020015461102a811515614717565b600052600a60205260406000203360005260205261104f60ff60406000205416614757565b339061509d565b3461055b57600036600319011261055b5761097e60405161107681613f35565b60058152640352e302e360dc1b6020820152604051918291602083526020830190613dd8565b3461055b57602036600319011261055b576110b5613fd5565b6110bd615064565b6001600160a01b0316600081815260036020526040902054611184578060005260036020526001604060002055600454600160401b81101561116e57600181018060045581101561115857600460009081526000805160206153d78339815191529190910180546001600160a01b031916831790557fc5fd418fcf51f4219b1f697d75c015aa2cabe33f61d6e87f477d5ca032df2ca19080a2005b634e487b7160e01b600052603260045260246000fd5b634e487b7160e01b600052604160045260246000fd5b60405162461bcd60e51b81526020600482015260176024820152764c6563747572657220616c72656164792065786973747360481b6044820152606490fd5b3461055b57604036600319011261055b57602435600435600282101561055b5780151580611290575b6111f5906144d9565b6000818152600160205260409020600901546001600160a01b031633036112455780600052600160205261123082600c604060002001614af3565b6000805160206152f7833981519152600080a3005b60405162461bcd60e51b815260206004820152602f60248201526000805160206153b783398151915260448201526e6520636f757273652073746174757360881b6064820152608490fd5b506000548111156111ec565b3461055b57604036600319011261055b576112b5613fd5565b602435908115159081830361055b576001600160a01b031691821561132c576112fe906112e1336140f3565b8460005260205260406000209060ff801983541691151516179055565b6040519081527f17307eab39ab6107e8899845ad3d59bd9653f200f220920489ca2b5937696c3160203392a3005b604051630b61174360e31b815260048101849052602490fd5b3461055b57604036600319011261055b5761135e613feb565b600435600052601260205260406000209060018060a01b03166000526020526020604060002054604051908152f35b3461055b57600036600319011261055b5760405160008051602061547783398151915280548260006113be836143af565b9283835260209460019186600182169182600014611441575050600114611402575b50506113ee92500383613f50565b61097e604051928284938452830190613dd8565b85925060005281600020906000915b8583106114295750506113ee935082010185806113e0565b80548389018501528794508693909201918101611411565b92509350506113ee94915060ff191682840152151560051b82010185806113e0565b3461055b57602036600319011261055b57600435801515806114a4575b611489906144d9565b60005260016020526020600b60406000200154604051908152f35b50600054811115611480565b3461055b57600036600319011261055b576013546040516001600160a01b039091168152602090f35b3461055b57604036600319011261055b576004356114f5613feb565b6114fd615159565b8115158061179e575b61150f906144d9565b60018060a01b03808216928360005260206006815261153560ff604060002054166146bf565b81600052600a8152604060002085600052815261155a60ff6040600020541615614d22565b8160005260018152604060002060405161157381613ee3565b8154815260405161158b8161094981600187016143e9565b838201526040516115a38161094981600287016143e9565b6040820152600382015460608201526115be60048301614519565b60808201526040516115d78161094981600587016143e9565b60a0820152600682015460c082015261166160078301549160e081019283526101a060ff600c60088701549661010085019788528a60098201541661012086015260405161162c8161094981600a86016143e9565b61014086015261163e600b8201614519565b61016086015201546116568282166101808601614580565b60081c16910161458c565b51905111156117695781600052600a8152604060002085600052815261168f60ff6040600020541615614d22565b84600052600881526116a5826040600020614f87565b6000828152600982526040902080549091600160401b82101561116e5761175596611740956116fd847fc65c83424b9743cd85950d4d05ef8ab686409eafe1bf490c528b98f4eb800048966001604097018155613ecb565b819291549060031b9184831b921b191617905584600052600a82528260002081600052825282600020600160ff19825416179055825191858352820152a1614abb565b61174b60145461438c565b9081601455614fbc565b600160008051602061541783398151915255005b6064906040519062461bcd60e51b82526004820152600e60248201526d10dbdd5c9cd9481a5cc8199d5b1b60921b6044820152fd5b50600054821115611506565b3461055b57600036600319011261055b576000805160206152b7833981519152546040516001600160a01b039091168152602090f35b3461055b57602036600319011261055b57600435600052600b6020526080604060002080549060018101549060ff6003600283015492015416916040519384526020840152604083015215156060820152f35b3461055b5761184136614284565b811515806119a5575b611853906144d9565b81600052600160209181835261187a60018060a01b03600960406000200154163314614c38565b805115611955576000825b611910575b50509082600052818152600b60406000200190604051928184018285528354809152604085019260408260051b8701019460005280600020936000905b8382106118e557886000805160206152978339815191528989038aa2005b909192938381611900819899603f198c82030186528a6143e9565b98019201920190949392916118c7565b908291815181101561194f578061192b61046285938561439b565b86600052818652611947600b604060002001610486838661439b565b019091611885565b5061188a565b60405162461bcd60e51b815260048101849052602260248201527f436f6e74656e7420555249732061727261792063616e6e6f7420626520656d70604482015261747960f01b6064820152608490fd5b5060005482111561184a565b3461055b5761010036600319011261055b576001600160401b0360043581811161055b576119e3903690600401613f8e565b9060443581811161055b576119fc903690600401613f8e565b9160643582811161055b57611a15903690600401614205565b60843583811161055b57611a2d903690600401613f8e565b9260a43590811161055b57611a46903690600401613f8e565b90600360e435101561055b57336000526003602052611a6b604060002054151561447f565b6040516020818551611a808183858a01613db5565b8101600281520301902054611d2e57611a9a60005461438c565b938460005560405191611aac83613f1a565b6000835260405196611abd88613ee3565b86885285602089015260408801526024356060880152608087015260a0860152600060c0860152600060e086015260c4356101008601523361012086015281610140860152610160850152611b1860e4356101808601614580565b60006101a0850152826000526001602052604060002084518155611b436020860151600183016145c2565b611b546040860151600283016145c2565b60608501516003820155600481016080860151906020825192611b778484614b6a565b019060005260206000206000915b838310611d115750505050611ba160a0860151600583016145c2565b60c0850151600682015560e0850151600782015561010085015160088201556101208501516009820180546001600160a01b0319166001600160a01b0392909216919091179055610140850151611bfb90600a83016145c2565b600b8101610160860151906020825192611c158484614b6a565b019060005260206000206000915b838310611cf45750505050600c0193610180810151906003821015611cde57611c4f6101a09287614bfb565b0151936002851015611cde57611cbb8492611c8d6020977fd2e3e28143fcecc8ad47c77faf891ac5b154d3b78243d7658ed60a5767c79e5294614af3565b8360405188818851611ca28183858d01613db5565b8101600281520301902055604051918291339683614c13565b0390a3611cd6611ccc60145461438c565b8060145533614fbc565b604051908152f35b634e487b7160e01b600052602160045260246000fd5b6001602082611d05839451866145c2565b01920192019190611c23565b6001602082611d22839451866145c2565b01920192019190611b85565b60405162461bcd60e51b8152602060048201526024808201527f436f7572736520776974682074686973206e616d6520616c72656164792065786044820152636973747360e01b6064820152608490fd5b3461055b57602036600319011261055b576001600160a01b03611da0613fd5565b166000526006602052602060ff604060002054166040519015158152f35b3461055b57602036600319011261055b5760043560045481101561055b5760046000526000805160206153d783398151915201546040516001600160a01b039091168152602090f35b3461055b57602036600319011261055b576001600160a01b03611e28613fd5565b16600052600360205260206040600020541515604051908152f35b3461055b57611e51366141d8565b90611e5a615159565b33600052602060068152611e7560ff60406000205416614b12565b81151580612026575b611e87906144d9565b81600052600a81526040600020336000528152611eab60ff60406000205416614757565b8160005260018152600b60406000200154831015611fea5781600052601081526040600020336000528152604060002083600052815260ff60406000205416611faa578160005260108152604060002033600052815260406000208360005281526040600020600160ff1982541617905581600052601181526040600020336000528152604060002083600052815242604060002055816000526012815260406000203360005281526040600020611f63815461438c565b905560405192835242908301527f94f9b84ca82e1a1d699e72827a6341612b09b57de733c9d3c8d37af2ef9bcdad60403393a3600160008051602061541783398151915255005b6064906040519062461bcd60e51b82526004820152601960248201527810dbdb9d195b9d08185b1c9958591e4818dbdb5c1b195d1959603a1b6044820152fd5b6064906040519062461bcd60e51b825260048201526015602482015274092dcecc2d8d2c840c6dedce8cadce840d2dcc8caf605b1b6044820152fd5b50600054821115611e7e565b3461055b5760031960603682011261055b5761204c613fd5565b602491906001600160401b03833581811161055b5761206f903690600401613f8e565b9060443590811161055b57612088903690600401613f8e565b33600052602093600385526120a3604060002054151561447f565b6001600160a01b0384811660008181526006885260409020549092919060ff16156122fb5782156122c55784511561229057600080516020615337833981519152958654966001880180981161227b57916121ab886121a687969461099f839d9e97998f9d9a8c8f8f61219e9189600595556040519561212287613eff565b8a87528187019081526040870190338252600080516020615377833981519152606089019342855260808a0195865260a08a019788528d600052526040600020975188558d600189019151169060018060a01b031991828254161790558d600289019251169082541617905551600386015551600485016145c2565b5191016145c2565b614f87565b8684867f2ec0f811294a1373db1a1f85e0a119a631d40f3e1d1bbba7776fc28ef0bd31f8604051806121df8c339783614c13565b0390a46013541692836121f7575b8785604051908152f35b61223e600092899761222f6040519a8b998a98899763130e6b2b60e01b89526004890152870152608060448701526084860190613dd8565b91848303016064850152613dd8565b03925af1612252575b8083818080806121ed565b813d8311612274575b6122658183613f50565b8101031261055b578183612247565b503d61225b565b89634e487b7160e01b60005260116004526000fd5b60405162461bcd60e51b815260048101889052600e818a01526d151a5d1b19481c995c5d5a5c995960921b6044820152606490fd5b60405162461bcd60e51b815260048101889052600f818a01526e125b9d985b1a59081cdd1d59195b9d608a1b6044820152606490fd5b60405162461bcd60e51b8152600481018890526018818a015277139bdd0818481c9959da5cdd195c9959081cdd1d59195b9d60421b6044820152606490fd5b3461055b57602036600319011261055b5760043580151580612413575b612360906144d9565b6000818152600160205260409020600901546001600160a01b031633036123b6578060019160005281602052600c60406000200161010061ff00198254161790556000805160206152f7833981519152600080a3005b60405162461bcd60e51b815260206004820152602f60248201527f4f6e6c7920636f7572736520696e7374727563746f722063616e206d61726b2060448201526e18dbdd5c9cd948185cc8195b991959608a1b6064820152608490fd5b50600054811115612357565b3461055b57600036600319011261055b57612438615064565b6000805160206152b783398151915280546001600160a01b031981169091556000906001600160a01b03166000805160206153578339815191528280a3005b3461055b57602036600319011261055b57612490613fd5565b6001600160a01b038116156124b3576124aa6020916140ba565b54604051908152f35b6040516322718ad960e21b815260006004820152602490fd5b3461055b57600036600319011261055b573360005260086020526020604060002054604051908152f35b3461055b57612504366141d8565b9060005260096020526040600020805482101561055b5760209161252791613ecb565b905460405160039290921b1c6001600160a01b03168152f35b3461055b57602036600319011261055b57610823600435614abb565b3461055b57600036600319011261055b576020600054604051908152f35b3461055b57602036600319011261055b576020612598600435614f3f565b6040516001600160a01b039091168152f35b3461055b5760208060031936011261055b5760043560005260098152604060002090604051808383829554938481520190600052836000209260005b85828210612611575050506125fd92500383613f50565b61097e604051928284938452830190613e5a565b85546001600160a01b03168452600195860195889550930192016125e6565b3461055b5761263e36614090565b906126488261435a565b9260005b838110612669576040516020808252819061097e90820188613e97565b600190826000526020601181526040600020838060a01b038616600052815260406000209082600052526040600020546126a3828861439b565b520161264c565b3461055b5760208060031936011261055b576126c761099f613fd5565b90604051808383829554938481520190600052836000209260005b858282106126f957505050610fb292500383613f50565b85548452600195860195889550930192016126e2565b3461055b57600036600319011261055b576020611cd661494f565b3461055b5760208060031936011261055b57600435600052600e8152604060002090604051808383829554938481520190600052836000209260005b8582821061277d57505050610fb292500383613f50565b8554845260019586019588955093019201612766565b3461055b57600036600319011261055b5761097e6040516127b381613f35565b60058152640312e302e360dc1b6020820152604051918291602083526020830190613dd8565b3461055b57600036600319011261055b577f00000000000000000000000000000000000000000000000000000000000000006001600160a01b031630036128325760206040516000805160206153178339815191528152f35b60405163703e46dd60e11b8152600490fd5b604036600319011261055b57612858613fd5565b6024356001600160401b03811161055b57612877903690600401613f8e565b906001600160a01b037f000000000000000000000000000000000000000000000000000000000000000081163081149081156129fa575b50612832576128bb615064565b8116906040516352d1902d60e01b8152602081600481865afa600091816129c6575b506128fb57604051634c9c8ce360e01b815260048101849052602490fd5b600080516020615317833981519152929192908181036129ae5750823b156129955780546001600160a01b03191682179055604051907fbc7cd75a20ee27fd9adebab32041f755214dbc6bffa90cc0225b39da2e5c2d3b600080a282511561297c575060008083602061082395519101845af4612976615189565b91615213565b9150503461298657005b63b398979f60e01b8152600490fd5b604051634c9c8ce360e01b815260048101839052602490fd5b60249060405190632a87526960e21b82526004820152fd5b9091506020813d6020116129f2575b816129e260209383613f50565b8101031261055b575190856128dd565b3d91506129d5565b90508160008051602061531783398151915254161415846128ae565b3461055b57602036600319011261055b576004356001600160401b03811161055b57612a5f6020612a4c81933690600401613f8e565b8160405193828580945193849201613db5565b8101600281520301902054604051908152f35b3461055b57610823612a833661412c565b9060405192612a9184613f1a565b60008452614d7e565b3461055b57600036600319011261055b57612ab3615064565b478015612b1e5760018060a01b036000805160206152b78339815191526000808080868686541682f115612b12577feaff4b37086828766ad3268786972c0cd24259d4c87a80f9d3963a3c3d999b0d91602091541692604051908152a2005b6040513d6000823e3d90fd5b60405162461bcd60e51b81526020600482015260146024820152734e6f2066756e647320746f20776974686472617760601b6044820152606490fd5b3461055b57604036600319011261055b57612b73613fd5565b3360005260209060038252612b8e604060002054151561447f565b6001600160a01b0316600081815260068352604090205490919060ff1615612c05577fd2bdfdee5627d669e777c948248fdcf31c1b210e6d815658acae79824bcaf9ef9082600052600581526040600020612bec6024358254614942565b90558260005260058152604060002054604051908152a2005b6064906040519062461bcd60e51b82526004820152600d60248201526c139bdd0818481cdd1d59195b9d609a1b6044820152fd5b3461055b57612c4736614090565b91600052601060205260406000209060018060a01b0316600052602052604060002090600052602052602060ff604060002054166040519015158152f35b3461055b57602036600319011261055b576001600160a01b03612ca6613fd5565b1660005260056020526020604060002054604051908152f35b3461055b57610823612cd03661412c565b916147af565b3461055b57604036600319011261055b57610823600435612cf5613feb565b90336000526003602052612d0f604060002054151561447f565b6001600160a01b038216600081815260066020526040902054612d349060ff166146bf565b81600052600b602052600160406000200154612d51811515614717565b600052600a602052604060002090600052602052612d7660ff60406000205416614757565b61509d565b3461055b57602036600319011261055b57612d94613fd5565b612d9c615064565b6001600160a01b03168015612de457601380546001600160a01b031916821790557f9e3c9747b000bdd55a767a5126710d1412eb8046d8b6fd3e149aa1d2e7ce4a1f600080a2005b60405162461bcd60e51b8152602060048201526013602482015272496e76616c6964204e4654206164647265737360681b6044820152606490fd5b3461055b57602036600319011261055b5760043580151580612e74575b612e45906144d9565b600052600160205261097e612e60600b604060002001614519565b604051918291602083526020830190613dfd565b50600054811115612e3c565b3461055b57600036600319011261055b57604051600780548083526000918252602080840193926000805160206152d783398151915292915b828210612ee45761097e85612ed081890382613f50565b604051918291602083526020830190613e5a565b83546001600160a01b031686529485019460019384019390910190612eb9565b3461055b57600036600319011261055b57604051600480548083526000918252602080840193926000805160206153d783398151915292915b828210612f545761097e85612ed081890382613f50565b83546001600160a01b031686529485019460019384019390910190612f3d565b3461055b5760208060031936011261055b57612f8e613fd5565b3360005260038252612fa6604060002054151561447f565b6001600160a01b0316600081815260068352604090205490919060ff16613047576000828152600582526040808220829055600683529020805460ff1916600117905560075490600160401b82101561116e576001820180600755821015611158576007600052600020018160018060a01b03198254161790557f9edd7adc4f13e66b48b3f2ca14caea1707777c0c1376097b67151bc0efbb83f4600080a2005b6064906040519062461bcd60e51b82526004820152601660248201527553747564656e7420616c72656164792065786973747360501b6044820152fd5b3461055b576130923661405e565b8115158061315e575b6130a4906144d9565b6000828152600160205260409020600901546001600160a01b03163303613118576104437f47ed34406a736ccb7fe3e05f167e8de4143bd4f80ef2b29219bcb76a62fd2eb49183600052600160205261310481600a6040600020016145c2565b604051918291602083526020830190613dd8565b60405162461bcd60e51b815260206004820152602a60248201526000805160206153b783398151915260448201526965206d6574616461746160b01b6064820152608490fd5b5060005482111561309b565b3461055b57602036600319011261055b5760006101a060405161318c81613ee3565b828152606060208201526060604082015282606082015260606080820152606060a08201528260c08201528260e0820152826101008201528261012082015260606101408201526060610160820152826101808201520152600435151580613420575b6131f8906144d9565b6004356000526001602052604060002061330560ff600c6040519361321c85613ee3565b805485526040516132348161094981600186016143e9565b602086015260405161324d8161094981600286016143e9565b60408601526003810154606086015261326860048201614519565b60808601526040516132818161094981600586016143e9565b60a0860152600681015460c0860152600781015460e0860152600881015461010086015260098101546001600160a01b03166101208601526040516132cd8161094981600a86016143e9565b6101408601526132df600b8201614519565b61016086015201546132f78282166101808601614580565b60081c166101a0830161458c565b6040519060208252805160208301526133ef6133d761338a61337461335461333e60208701516101c060408a01526101e0890190613dd8565b6040870151888203601f190160608a0152613dd8565b606086015160808801526080860151601f198883030160a0890152614001565b60a0850151868203601f190160c0880152613dd8565b60c084015160e086015260e084015161010086015261010084015161012086015260018060a01b0361012085015116610140860152610140840151601f1986830301610160870152613dd8565b610160830151848203601f1901610180860152614001565b90610180810151906003821015611cde576101a091828501520151906002821015611cde5782916101c08301520390f35b5060005460043511156131ef565b3461055b5760208060031936011261055b57600435336000526003825261345b604060002054151561447f565b801515806135b3575b61346d906144d9565b80600052600182523360018060a01b03600960406000200154160361357257613497600d5461438c565b600d81905560405190919060808101906001600160401b0382118183101761116e5761350e9160405283815260038582018481526040830142815260608401916000835287600052600b895260406000209451855551600185015551600284015551151591019060ff801983541691151516179055565b80600052600e8352613524826040600020614f87565b33600052600f835261353a826040600020614f87565b817f9d810e0082f8a92772407ea94a85bc457d358804c697a63a434a5043bf81be7f84604051428152a3611cd6611ccc60145461438c565b60405162461bcd60e51b81526004810183905260196024820152782737ba103a34329031b7bab939b29034b739ba393ab1ba37b960391b6044820152606490fd5b50600054811115613464565b3461055b57604036600319011261055b576135d8613fd5565b6024356135e481614f3f565b33151580613693575b80613673575b61365b576001600160a01b039283169282918491167f8c5be1e5ebec7d5bd14f71427d1e84f3dd0314c0f7b2291e5b200ac8c7c3b925600080a460009081526000805160206154378339815191526020526040902080546001600160a01b0319169091179055005b60405163a9fbf51f60e01b8152336004820152602490fd5b5061367d816140f3565b3360005260205260ff60406000205416156135f3565b506001600160a01b0381163314156135ed565b3461055b57602036600319011261055b576004356136c381614f3f565b50600052600080516020615437833981519152602052602060018060a01b0360406000205416604051908152f35b3461055b57606036600319011261055b576001600160401b0360043581811161055b57613722903690600401613f8e565b60243582811161055b5761373a903690600401613f8e565b906044356001600160a01b038116810361055b576000805160206154578339815191529283549460ff8660401c16159381871696871580613aa4575b60018099149081613a9a575b159081613a91575b50613a7f576001600160401b031981168817875585613a64575b506137ad6151b9565b6137b56151b9565b805182811161116e57600080516020615277833981519152906137d882546143af565b92601f93848111613a34575b506020908483116001146139d2576138079291600091836139c7575b50506145af565b90555b825191821161116e576000805160206154778339815191529261382d84546143af565b82811161398d575b50602091831160011461392457918061385c9261386f9695946000926139195750506145af565b90555b6138676151b9565b61081e6151b9565b6138776151b9565b61387f6151b9565b6138876151b9565b82600080516020615417833981519152556138a06151b9565b6138a86151b9565b6138b06151b9565b6138b86151b9565b6138c06151b9565b6000600d556138cd6151b9565b6138d56151b9565b60006014556138e057005b805460ff60401b191690556040519081527fc7f505b2f371ae2175ee4913f4499e1f2633a7b5936321eed1cdaeb6115181d290602090a1005b015190508980613800565b9392918791601f1982169084600052806000209160005b8181106139755750968361386f981061395c575b505050811b01905561385f565b015160001960f88460031b161c1916905588808061394f565b8289015184558b95909301926020928301920161393b565b6139b8908560005260206000208480870160051c820192602088106139be575b0160051c0190614598565b88613835565b925081926139ad565b015190508b80613800565b8a9291601f1983169185600052816000209260005b818110613a1c57508411613a03575b505050811b01905561380a565b015160001960f88460031b161c191690558a80806139f6565b8284015185558e9690940193602093840193016139e7565b613a5e908460005260206000208680860160051c820192602087106139be570160051c0190614598565b8a6137e4565b6001600160481b0319166001600160401b01178655876137a4565b60405163f92ee8a960e01b8152600490fd5b9050158961378a565b303b159150613782565b5085613776565b3461055b57600036600319011261055b576040516000805160206152778339815191528054826000613adc836143af565b9283835260209460019186600182169182600014611441575050600114613b0b5750506113ee92500383613f50565b85925060005281600020906000915b858310613b325750506113ee935082010185806113e0565b80548389018501528794508693909201918101613b1a565b3461055b57602036600319011261055b5760043560075481101561055b5760076000526000805160206152d783398151915201546040516001600160a01b039091168152602090f35b3461055b57600036600319011261055b57600054613bb081614310565b613bb9826141ee565b613bc66040519182613f50565b828152613bd2836141ee565b602090601f19013683830137613be78461435a565b90613bf18561435a565b92613bfb86614310565b9560015b81811115613c6757613c308761097e8a613c598a613c4b8b613c3d8c8c6040519a8b9a60a08c5260a08c0190613dfd565b918a8303908b0152613e5a565b908782036040890152613e97565b908582036060870152613e97565b908382036080850152613dfd565b806000526001845260016040600020019060001981019181831161070657613d4592610949613c9f610bf293604051928380926143e9565b613ca9828c61439b565b52613cb4818b61439b565b5060008381526001885260409020600901546001600160a01b0316613cd9828861439b565b528260005260018752600860406000200154613cf5828a61439b565b528260005260018752600760406000200154613d11828b61439b565b528260005260018752610949613d346002604060002001604051928380926143e9565b613d3e828d61439b565b528a61439b565b613bff565b3461055b57602036600319011261055b576004359063ffffffff60e01b821680920361055b576020916380ac58cd60e01b8114908115613da4575b8115613d93575b5015158152f35b6301ffc9a760e01b14905083613d8c565b635b5e139f60e01b81149150613d85565b60005b838110613dc85750506000910152565b8181015183820152602001613db8565b90602091613df181518092818552858086019101613db5565b601f01601f1916010190565b90808251908181526020809101926020808460051b8301019501936000915b848310613e2c5750505050505090565b9091929394958480613e4a600193601f198682030187528a51613dd8565b9801930193019194939290613e1c565b90815180825260208080930193019160005b828110613e7a575050505090565b83516001600160a01b031685529381019392810192600101613e6c565b90815180825260208080930193019160005b828110613eb7575050505090565b835185529381019392810192600101613ea9565b80548210156111585760005260206000200190600090565b6101c081019081106001600160401b0382111761116e57604052565b60c081019081106001600160401b0382111761116e57604052565b602081019081106001600160401b0382111761116e57604052565b604081019081106001600160401b0382111761116e57604052565b601f909101601f19168101906001600160401b0382119082101761116e57604052565b6001600160401b03811161116e57601f01601f191660200190565b81601f8201121561055b57803590613fa582613f73565b92613fb36040519485613f50565b8284526020838301011161055b57816000926020809301838601378301015290565b600435906001600160a01b038216820361055b57565b602435906001600160a01b038216820361055b57565b90808251908181526020809101926020808460051b8301019501936000915b8483106140305750505050505090565b909192939495848061404e600193601f198682030187528a51613dd8565b9801930193019194939290614020565b90604060031983011261055b5760043591602435906001600160401b03821161055b5761408d91600401613f8e565b90565b606090600319011261055b57600435906024356001600160a01b038116810361055b579060443590565b6001600160a01b031660009081527f80bb2b638cc20bc4d0a60d66940f3ab4a00c1d7b313497ca82fb0b4ab00793036020526040902090565b6001600160a01b031660009081527f80bb2b638cc20bc4d0a60d66940f3ab4a00c1d7b313497ca82fb0b4ab00793056020526040902090565b606090600319011261055b576001600160a01b0390600435828116810361055b5791602435908116810361055b579060443590565b3461055b5760208060031936011261055b576001600160a01b03614183613fd5565b1660005260088152604060002090604051808383829554938481520190600052836000209260005b858282106141c257505050610fb292500383613f50565b85548452600195860195889550930192016141ab565b604090600319011261055b576004359060243590565b6001600160401b03811161116e5760051b60200190565b81601f8201121561055b5780359160209161421f846141ee565b9361422d6040519586613f50565b808552838086019160051b8301019280841161055b57848301915b8483106142585750505050505090565b82356001600160401b03811161055b57869161427984848094890101613f8e565b815201920191614248565b90604060031983011261055b5760043591602435906001600160401b03821161055b5761408d91600401614205565b61408d9181518152602082015160018060a01b03809116602083015260408301511660408201526060820151606082015260a06142ff608084015160c0608085015260c0840190613dd8565b9201519060a0818403910152613dd8565b9061431a826141ee565b6143276040519182613f50565b8281528092614338601f19916141ee565b019060005b82811061434957505050565b80606060208093850101520161433d565b90614364826141ee565b6143716040519182613f50565b8281528092614382601f19916141ee565b0190602036910137565b60001981146107065760010190565b80518210156111585760209160051b010190565b90600182811c921680156143df575b60208310146143c957565b634e487b7160e01b600052602260045260246000fd5b91607f16916143be565b8054600093926143f8826143af565b91828252602093600191600181169081600014614460575060011461441f575b5050505050565b90939495506000929192528360002092846000945b83861061444c57505050500101903880808080614418565b805485870183015294019385908201614434565b60ff19168685015250505090151560051b010191503880808080614418565b1561448657565b60405162461bcd60e51b815260206004820152602560248201527f4f6e6c79206c656374757265722063616e20706572666f726d2074686973206160448201526431ba34b7b760d91b6064820152608490fd5b156144e057565b60405162461bcd60e51b8152602060048201526011602482015270125b9d985b1a590818dbdd5c9cd9481251607a1b6044820152606490fd5b908154614525816141ee565b926040936145366040519182613f50565b82815280946020809201926000526020600020906000935b85851061455d57505050505050565b6001848192845161457281610949818a6143e9565b81520193019401939161454e565b6003821015611cde5752565b6002821015611cde5752565b8181106145a3575050565b60008155600101614598565b8160011b916000199060031b1c19161790565b81519192916001600160401b03811161116e576145df82546143af565b601f8111614682575b50602080601f831160011461461d5750819061460e9394956000926146125750506145af565b9055565b015190503880613800565b90601f19831695846000526020600020926000905b88821061466a57505083600195969710614651575b505050811b019055565b015160001960f88460031b161c19169055388080614647565b80600185968294968601518155019501930190614632565b6146af90836000526020600020601f840160051c810191602085106146b5575b601f0160051c0190614598565b386145e8565b90915081906146a2565b156146c657565b60405162461bcd60e51b815260206004820152602360248201527f41646472657373206973206e6f74206120726567697374657265642073747564604482015262195b9d60ea1b6064820152608490fd5b1561471e57565b60405162461bcd60e51b815260206004820152601160248201527014d95cdcda5bdb881b9bdd08199bdd5b99607a1b6044820152606490fd5b1561475e57565b60405162461bcd60e51b815260206004820152602360248201527f53747564656e74206e6f7420656e726f6c6c656420696e207468697320636f7560448201526272736560e81b6064820152608490fd5b6001600160a01b038281169391841561492957826000958187526000805160206153f7833981519152958660205260409785898220541697889233151580614883575b5090614812600080516020615397833981519152939285614864576140ba565b8054600101905585825260205289812080546001600160a01b0319168517905580a416928383036148435750505050565b6064945051926364283d7b60e01b8452600484015260248301526044820152fd5b61486d886151e8565b614876866140ba565b80546000190190556140ba565b91935091939450806148da575b156148a157918791879493386147f2565b8887896148be576024915190637e27328960e01b82526004820152fd5b604491519063177e802f60e01b82523360048301526024820152fd5b50338814801561490d575b80614890575086835260008051602061543783398151915260205233868a8520541614614890565b50614917886140f3565b33845260205260ff89842054166148e5565b604051633250574960e11b815260006004820152602490fd5b9190820180921161070657565b600090338252602060088152604092838120938051808685829854938481520190855285852092855b87828210614aa55750505061498f92500386613f50565b81809281955b8751871015614a65576149a8878961439b565b518352600e86528383209184518093849189825491828152019187528987209087905b8b818310614a4a57505050506149ef92916149e7910385613f50565b835190614942565b90835b8351811015614a3c57338552600c8852858520614a0f828661439b565b518652885260018686205414614a28575b6001016149f2565b95614a3460019161438c565b969050614a20565b509660019192500195614995565b839550600192948392945481520194019201869392916149cb565b96509450919250508215614a9f57606482029180830460641490151715614a8b57500490565b634e487b7160e01b81526011600452602490fd5b91505090565b855484526001958601958b955093019201614978565b80151580614ae7575b614acd906144d9565b6000526001602052600760406000200161460e815461438c565b50600054811115614ac4565b906002811015611cde5761ff0082549160081b169061ff001916179055565b15614b1957565b60405162461bcd60e51b8152602060048201526024808201527f4f6e6c792073747564656e742063616e20706572666f726d20746869732061636044820152633a34b7b760e11b6064820152608490fd5b600160401b821161116e57805491808255828110614b8757505050565b60009182526020906020832093840193015b838110614ba65750505050565b8083614bb4600193546143af565b80614bc2575b505001614b99565b601f8082118514614bd957505081555b8338614bba565b614bf290848452868420920160051c8201858301614598565b81835555614bd2565b906003811015611cde5760ff80198354169116179055565b9091614c2a61408d93604084526040840190613dd8565b916020818403910152613dd8565b15614c3f57565b60405162461bcd60e51b815260206004820152602660248201527f4f6e6c7920636f7572736520696e7374727563746f722063616e2061646420636044820152651bdb9d195b9d60d21b6064820152608490fd5b15614c9a57565b60405162461bcd60e51b815260206004820152601b60248201527a436f6e74656e74205552492063616e6e6f7420626520656d70747960281b6044820152606490fd5b8054600160401b81101561116e57614cfa91600182018155613ecb565b919091614d0c57614d0a916145c2565b565b634e487b7160e01b600052600060045260246000fd5b15614d2957565b60405162461bcd60e51b815260206004820152602760248201527f53747564656e7420616c726561647920656e726f6c6c656420696e207468697360448201526620636f7572736560c81b6064820152608490fd5b9190614d8b8282856147af565b803b614d98575b50505050565b614dda60018060a01b0380921694604051938493630a85bd0160e11b968786523360048701521660248501526044840152608060648401526084830190613dd8565b03906020816000938185885af190829082614e59575b5050614e285782614dff615189565b8051919082614e2157604051633250574960e11b815260048101839052602490fd5b6020915001fd5b6001600160e01b03191603614e41575038808080614d92565b60249060405190633250574960e11b82526004820152fd5b909192506020813d602011614ea1575b81614e7660209383613f50565b81010312614e9d5751906001600160e01b031982168203614e9a5750903880614df0565b80fd5b5080fd5b3d9150614e69565b60405190614eb682613eff565b606060a0836000815260006020820152600060408201526000838201528260808201520152565b6001600160a01b03908116908115614f26576000805160206152b783398151915280546001600160a01b03198116841790915516600080516020615357833981519152600080a3565b604051631e4fbdf760e01b815260006004820152602490fd5b60008181526000805160206153f783398151915260205260409020546001600160a01b0316908115614f6f575090565b60249060405190637e27328960e01b82526004820152fd5b8054600160401b81101561116e57614fa491600182018155613ecb565b819291549060031b91821b91600019901b1916179055565b6001600160a01b03918183168015614929576000938285526000805160206153f78339815191529081602052604086205416906150008215159586615052576140ba565b805460010190558386526020526040852080546001600160a01b031916831790556000805160206153978339815191528580a461503a5750565b602490604051906339e3563760e11b82526004820152fd5b61505b866151e8565b614876846140ba565b6000805160206152b7833981519152546001600160a01b0316330361508557565b60405163118cdaa760e01b8152336004820152602490fd5b6000818152602092600b84526040906150bd600183852001541515614717565b6001600160a01b0316808352600c855281832084845285528183205490949061511b57848352600c815281832084845290528120600190557f9e5d24579183fa37d9de3c53c170caae77e5ea5a3ed2c66fdd356f590ff779f49080a3565b606491519062461bcd60e51b825260048201526019602482015278105d1d195b99185b98d948185b1c9958591e481b585c9ad959603a1b6044820152fd5b60008051602061541783398151915260028154146151775760029055565b604051633ee5aeb560e01b8152600490fd5b3d156151b4573d9061519a82613f73565b916151a86040519384613f50565b82523d6000602084013e565b606090565b60ff6000805160206154578339815191525460401c16156151d657565b604051631afcd79f60e31b8152600490fd5b60009081526000805160206154378339815191526020526040902080546001600160a01b0319169055565b9061523a575080511561522857602081519101fd5b60405163d6bda27560e01b8152600490fd5b8151158061526d575b61524b575090565b604051639996b31560e01b81526001600160a01b039091166004820152602490fd5b50803b1561524356fe80bb2b638cc20bc4d0a60d66940f3ab4a00c1d7b313497ca82fb0b4ab00793005f3ecb61e63394d34a984597179063028a9e892ab46083cc23665bc92a81137a9016d09d72d40fdae2fd8ceac6b6234c7706214fd39c1cd1e609a0528c199300a66cc928b5edb82af9bd49922954155ab7b0942694bea4ce44661d9a8736c688a6a22954c37b3d13b6b94ddf132e33a30f8312c1cfbdf1018a1a9742dd1c9301360894a13ba1a3210667c828492db98dca3e2076cc3735a920a3ca505d382bbc0c2c9b5e6b5a5c9d2d2f8d3c1f73b7f1c3b4d5e6f7a8b9c0d1e2f3a4b5c6d7e88be0079c531659141344cd1fd0a4f28419497f9722a3daafe3b4186f6b6457e00c2c9b5e6b5a5c9d2d2f8d3c1f73b7f1c3b4d5e6f7a8b9c0d1e2f3a4b5c6d7e9ddf252ad1be2c89b69c2b068fc378daa952ba7f163c4a11628f55a4df523b3ef4f6e6c7920636f7572736520696e7374727563746f722063616e2075706461748a35acfbc15ff81a39ae7d344fd709f28e8600b4aa8c65c6b64bfe7fe36bd19b80bb2b638cc20bc4d0a60d66940f3ab4a00c1d7b313497ca82fb0b4ab00793029b779b17422d0df92223018b32b4d1fa46e071723d6817e2486d003becc55f0080bb2b638cc20bc4d0a60d66940f3ab4a00c1d7b313497ca82fb0b4ab0079304f0c57e16840df040f15088dc2f81fe391c3923bec73e23a9662efc9c229c6a0080bb2b638cc20bc4d0a60d66940f3ab4a00c1d7b313497ca82fb0b4ab0079301a26469706673582212202619786babc87a9cc55224f8afc4d16919bd970fb8185aa586fa5015a962c01764736f6c63430008160033",
  "linkReferences": {},
  "deployedLinkReferences": {}
}