{
    "_format": "hh-sol-artifact-1",
    "contractName": "Celorean",
    "sourceName": "contracts/Celorean.sol",
    "abi": [
        {
            "inputs": [
                {
                    "internalType": "address",
                    "name": "target",
                    "type": "address"
                }
            ],
            "name": "AddressEmptyCode",
            "type": "error"
        },
        {
            "inputs": [
                {
                    "internalType": "address",
                    "name": "implementation",
                    "type": "address"
                }
            ],
            "name": "ERC1967InvalidImplementation",
            "type": "error"
        },
        {
            "inputs": [],
            "name": "ERC1967NonPayable",
            "type": "error"
        },
        {
            "inputs": [
                {
                    "internalType": "address",
                    "name": "sender",
                    "type": "address"
                },
                {
                    "internalType": "uint256",
                    "name": "tokenId",
                    "type": "uint256"
                },
                {
                    "internalType": "address",
                    "name": "owner",
                    "type": "address"
                }
            ],
            "name": "ERC721IncorrectOwner",
            "type": "error"
        },
        {
            "inputs": [
                {
                    "internalType": "address",
                    "name": "operator",
                    "type": "address"
                },
                {
                    "internalType": "uint256",
                    "name": "tokenId",
                    "type": "uint256"
                }
            ],
            "name": "ERC721InsufficientApproval",
            "type": "error"
        },
        {
            "inputs": [
                {
                    "internalType": "address",
                    "name": "approver",
                    "type": "address"
                }
            ],
            "name": "ERC721InvalidApprover",
            "type": "error"
        },
        {
            "inputs": [
                {
                    "internalType": "address",
                    "name": "operator",
                    "type": "address"
                }
            ],
            "name": "ERC721InvalidOperator",
            "type": "error"
        },
        {
            "inputs": [
                {
                    "internalType": "address",
                    "name": "owner",
                    "type": "address"
                }
            ],
            "name": "ERC721InvalidOwner",
            "type": "error"
        },
        {
            "inputs": [
                {
                    "internalType": "address",
                    "name": "receiver",
                    "type": "address"
                }
            ],
            "name": "ERC721InvalidReceiver",
            "type": "error"
        },
        {
            "inputs": [
                {
                    "internalType": "address",
                    "name": "sender",
                    "type": "address"
                }
            ],
            "name": "ERC721InvalidSender",
            "type": "error"
        },
        {
            "inputs": [
                {
                    "internalType": "uint256",
                    "name": "tokenId",
                    "type": "uint256"
                }
            ],
            "name": "ERC721NonexistentToken",
            "type": "error"
        },
        {
            "inputs": [],
            "name": "FailedCall",
            "type": "error"
        },
        {
            "inputs": [],
            "name": "InvalidInitialization",
            "type": "error"
        },
        {
            "inputs": [],
            "name": "NotInitializing",
            "type": "error"
        },
        {
            "inputs": [
                {
                    "internalType": "address",
                    "name": "owner",
                    "type": "address"
                }
            ],
            "name": "OwnableInvalidOwner",
            "type": "error"
        },
        {
            "inputs": [
                {
                    "internalType": "address",
                    "name": "account",
                    "type": "address"
                }
            ],
            "name": "OwnableUnauthorizedAccount",
            "type": "error"
        },
        {
            "inputs": [],
            "name": "ReentrancyGuardReentrantCall",
            "type": "error"
        },
        {
            "inputs": [],
            "name": "UUPSUnauthorizedCallContext",
            "type": "error"
        },
        {
            "inputs": [
                {
                    "internalType": "bytes32",
                    "name": "slot",
                    "type": "bytes32"
                }
            ],
            "name": "UUPSUnsupportedProxiableUUID",
            "type": "error"
        },
        {
            "anonymous": false,
            "inputs": [
                {
                    "indexed": true,
                    "internalType": "address",
                    "name": "owner",
                    "type": "address"
                },
                {
                    "indexed": true,
                    "internalType": "address",
                    "name": "approved",
                    "type": "address"
                },
                {
                    "indexed": true,
                    "internalType": "uint256",
                    "name": "tokenId",
                    "type": "uint256"
                }
            ],
            "name": "Approval",
            "type": "event"
        },
        {
            "anonymous": false,
            "inputs": [
                {
                    "indexed": true,
                    "internalType": "address",
                    "name": "owner",
                    "type": "address"
                },
                {
                    "indexed": true,
                    "internalType": "address",
                    "name": "operator",
                    "type": "address"
                },
                {
                    "indexed": false,
                    "internalType": "bool",
                    "name": "approved",
                    "type": "bool"
                }
            ],
            "name": "ApprovalForAll",
            "type": "event"
        },
        {
            "anonymous": false,
            "inputs": [
                {
                    "indexed": true,
                    "internalType": "uint256",
                    "name": "sessionId",
                    "type": "uint256"
                },
                {
                    "indexed": true,
                    "internalType": "address",
                    "name": "student",
                    "type": "address"
                }
            ],
            "name": "AttendanceMarked",
            "type": "event"
        },
        {
            "anonymous": false,
            "inputs": [
                {
                    "indexed": true,
                    "internalType": "uint256",
                    "name": "sessionId",
                    "type": "uint256"
                },
                {
                    "indexed": true,
                    "internalType": "uint256",
                    "name": "courseId",
                    "type": "uint256"
                },
                {
                    "indexed": false,
                    "internalType": "uint256",
                    "name": "timestamp",
                    "type": "uint256"
                }
            ],
            "name": "ClassSessionCreated",
            "type": "event"
        },
        {
            "anonymous": false,
            "inputs": [
                {
                    "indexed": true,
                    "internalType": "uint256",
                    "name": "courseId",
                    "type": "uint256"
                },
                {
                    "indexed": false,
                    "internalType": "string",
                    "name": "title",
                    "type": "string"
                },
                {
                    "indexed": true,
                    "internalType": "address",
                    "name": "instructor",
                    "type": "address"
                },
                {
                    "indexed": false,
                    "internalType": "uint256",
                    "name": "price",
                    "type": "uint256"
                },
                {
                    "indexed": false,
                    "internalType": "string",
                    "name": "metadataUri",
                    "type": "string"
                }
            ],
            "name": "CourseCreated",
            "type": "event"
        },
        {
            "anonymous": false,
            "inputs": [
                {
                    "indexed": false,
                    "internalType": "uint64",
                    "name": "version",
                    "type": "uint64"
                }
            ],
            "name": "Initialized",
            "type": "event"
        },
        {
            "anonymous": false,
            "inputs": [
                {
                    "indexed": true,
                    "internalType": "address",
                    "name": "lecturer",
                    "type": "address"
                },
                {
                    "indexed": false,
                    "internalType": "uint256",
                    "name": "amount",
                    "type": "uint256"
                }
            ],
            "name": "LecturerEmployed",
            "type": "event"
        },
        {
            "anonymous": false,
            "inputs": [
                {
                    "indexed": true,
                    "internalType": "address",
                    "name": "previousOwner",
                    "type": "address"
                },
                {
                    "indexed": true,
                    "internalType": "address",
                    "name": "newOwner",
                    "type": "address"
                }
            ],
            "name": "OwnershipTransferred",
            "type": "event"
        },
        {
            "anonymous": false,
            "inputs": [
                {
                    "indexed": true,
                    "internalType": "address",
                    "name": "student",
                    "type": "address"
                },
                {
                    "indexed": false,
                    "internalType": "uint256",
                    "name": "amount",
                    "type": "uint256"
                }
            ],
            "name": "StudentAdmitted",
            "type": "event"
        },
        {
            "anonymous": false,
            "inputs": [
                {
                    "indexed": false,
                    "internalType": "uint256",
                    "name": "courseId",
                    "type": "uint256"
                },
                {
                    "indexed": false,
                    "internalType": "address",
                    "name": "student",
                    "type": "address"
                }
            ],
            "name": "StudentRegistered",
            "type": "event"
        },
        {
            "anonymous": false,
            "inputs": [
                {
                    "indexed": true,
                    "internalType": "address",
                    "name": "from",
                    "type": "address"
                },
                {
                    "indexed": true,
                    "internalType": "address",
                    "name": "to",
                    "type": "address"
                },
                {
                    "indexed": true,
                    "internalType": "uint256",
                    "name": "tokenId",
                    "type": "uint256"
                }
            ],
            "name": "Transfer",
            "type": "event"
        },
        {
            "anonymous": false,
            "inputs": [
                {
                    "indexed": true,
                    "internalType": "address",
                    "name": "implementation",
                    "type": "address"
                }
            ],
            "name": "Upgraded",
            "type": "event"
        },
        {
            "inputs": [],
            "name": "UPGRADE_INTERFACE_VERSION",
            "outputs": [
                {
                    "internalType": "string",
                    "name": "",
                    "type": "string"
                }
            ],
            "stateMutability": "view",
            "type": "function"
        },
        {
            "inputs": [
                {
                    "internalType": "address",
                    "name": "student",
                    "type": "address"
                },
                {
                    "internalType": "uint256",
                    "name": "amount",
                    "type": "uint256"
                }
            ],
            "name": "admitStudent",
            "outputs": [],
            "stateMutability": "nonpayable",
            "type": "function"
        },
        {
            "inputs": [
                {
                    "internalType": "address",
                    "name": "to",
                    "type": "address"
                },
                {
                    "internalType": "uint256",
                    "name": "tokenId",
                    "type": "uint256"
                }
            ],
            "name": "approve",
            "outputs": [],
            "stateMutability": "nonpayable",
            "type": "function"
        },
        {
            "inputs": [
                {
                    "internalType": "address",
                    "name": "owner",
                    "type": "address"
                }
            ],
            "name": "balanceOf",
            "outputs": [
                {
                    "internalType": "uint256",
                    "name": "",
                    "type": "uint256"
                }
            ],
            "stateMutability": "view",
            "type": "function"
        },
        {
            "inputs": [
                {
                    "internalType": "uint256",
                    "name": "",
                    "type": "uint256"
                }
            ],
            "name": "classSessions",
            "outputs": [
                {
                    "internalType": "uint256",
                    "name": "id",
                    "type": "uint256"
                },
                {
                    "internalType": "uint256",
                    "name": "courseId",
                    "type": "uint256"
                },
                {
                    "internalType": "uint256",
                    "name": "timestamp",
                    "type": "uint256"
                },
                {
                    "internalType": "bool",
                    "name": "marked",
                    "type": "bool"
                }
            ],
            "stateMutability": "view",
            "type": "function"
        },
        {
            "inputs": [],
            "name": "courseCount",
            "outputs": [
                {
                    "internalType": "uint256",
                    "name": "",
                    "type": "uint256"
                }
            ],
            "stateMutability": "view",
            "type": "function"
        },
        {
            "inputs": [
                {
                    "internalType": "string",
                    "name": "",
                    "type": "string"
                }
            ],
            "name": "courseNameToId",
            "outputs": [
                {
                    "internalType": "uint256",
                    "name": "",
                    "type": "uint256"
                }
            ],
            "stateMutability": "view",
            "type": "function"
        },
        {
            "inputs": [
                {
                    "internalType": "uint256",
                    "name": "",
                    "type": "uint256"
                },
                {
                    "internalType": "uint256",
                    "name": "",
                    "type": "uint256"
                }
            ],
            "name": "courseStudents",
            "outputs": [
                {
                    "internalType": "address",
                    "name": "",
                    "type": "address"
                }
            ],
            "stateMutability": "view",
            "type": "function"
        },
        {
            "inputs": [
                {
                    "internalType": "uint256",
                    "name": "",
                    "type": "uint256"
                }
            ],
            "name": "courses",
            "outputs": [
                {
                    "internalType": "uint256",
                    "name": "id",
                    "type": "uint256"
                },
                {
                    "internalType": "string",
                    "name": "title",
                    "type": "string"
                },
                {
                    "internalType": "string",
                    "name": "description",
                    "type": "string"
                },
                {
                    "internalType": "uint256",
                    "name": "duration",
                    "type": "uint256"
                },
                {
                    "internalType": "uint256",
                    "name": "price",
                    "type": "uint256"
                },
                {
                    "internalType": "string",
                    "name": "level",
                    "type": "string"
                },
                {
                    "internalType": "uint256",
                    "name": "rating",
                    "type": "uint256"
                },
                {
                    "internalType": "uint256",
                    "name": "enrolledCount",
                    "type": "uint256"
                },
                {
                    "internalType": "address",
                    "name": "instructor",
                    "type": "address"
                },
                {
                    "internalType": "string",
                    "name": "metadataUri",
                    "type": "string"
                }
            ],
            "stateMutability": "view",
            "type": "function"
        },
        {
            "inputs": [
                {
                    "internalType": "uint256",
                    "name": "courseId",
                    "type": "uint256"
                }
            ],
            "name": "createClassSession",
            "outputs": [
                {
                    "internalType": "uint256",
                    "name": "",
                    "type": "uint256"
                }
            ],
            "stateMutability": "nonpayable",
            "type": "function"
        },
        {
            "inputs": [
                {
                    "internalType": "string",
                    "name": "title",
                    "type": "string"
                },
                {
                    "internalType": "uint256",
                    "name": "duration",
                    "type": "uint256"
                },
                {
                    "internalType": "string",
                    "name": "description",
                    "type": "string"
                },
                {
                    "internalType": "uint256",
                    "name": "price",
                    "type": "uint256"
                },
                {
                    "internalType": "string[]",
                    "name": "tags",
                    "type": "string[]"
                },
                {
                    "internalType": "string",
                    "name": "level",
                    "type": "string"
                },
                {
                    "internalType": "string",
                    "name": "metadataUri",
                    "type": "string"
                }
            ],
            "name": "createCourse",
            "outputs": [
                {
                    "internalType": "uint256",
                    "name": "",
                    "type": "uint256"
                }
            ],
            "stateMutability": "nonpayable",
            "type": "function"
        },
        {
            "inputs": [
                {
                    "internalType": "address",
                    "name": "lecturer",
                    "type": "address"
                },
                {
                    "internalType": "uint256",
                    "name": "value",
                    "type": "uint256"
                }
            ],
            "name": "employLecturer",
            "outputs": [],
            "stateMutability": "nonpayable",
            "type": "function"
        },
        {
            "inputs": [
                {
                    "internalType": "uint256",
                    "name": "tokenId",
                    "type": "uint256"
                }
            ],
            "name": "getApproved",
            "outputs": [
                {
                    "internalType": "address",
                    "name": "",
                    "type": "address"
                }
            ],
            "stateMutability": "view",
            "type": "function"
        },
        {
            "inputs": [
                {
                    "internalType": "uint256",
                    "name": "courseId",
                    "type": "uint256"
                }
            ],
            "name": "getCourse",
            "outputs": [
                {
                    "components": [
                        {
                            "internalType": "uint256",
                            "name": "id",
                            "type": "uint256"
                        },
                        {
                            "internalType": "string",
                            "name": "title",
                            "type": "string"
                        },
                        {
                            "internalType": "string",
                            "name": "description",
                            "type": "string"
                        },
                        {
                            "internalType": "uint256",
                            "name": "duration",
                            "type": "uint256"
                        },
                        {
                            "internalType": "uint256",
                            "name": "price",
                            "type": "uint256"
                        },
                        {
                            "internalType": "string[]",
                            "name": "tags",
                            "type": "string[]"
                        },
                        {
                            "internalType": "string",
                            "name": "level",
                            "type": "string"
                        },
                        {
                            "internalType": "uint256",
                            "name": "rating",
                            "type": "uint256"
                        },
                        {
                            "internalType": "uint256",
                            "name": "enrolledCount",
                            "type": "uint256"
                        },
                        {
                            "internalType": "address",
                            "name": "instructor",
                            "type": "address"
                        },
                        {
                            "internalType": "string",
                            "name": "metadataUri",
                            "type": "string"
                        }
                    ],
                    "internalType": "struct CourseModule.Course",
                    "name": "",
                    "type": "tuple"
                }
            ],
            "stateMutability": "view",
            "type": "function"
        },
        {
            "inputs": [
                {
                    "internalType": "uint256",
                    "name": "courseId",
                    "type": "uint256"
                }
            ],
            "name": "getCourseStudents",
            "outputs": [
                {
                    "internalType": "address[]",
                    "name": "",
                    "type": "address[]"
                }
            ],
            "stateMutability": "view",
            "type": "function"
        },
        {
            "inputs": [],
            "name": "getLecturerList",
            "outputs": [
                {
                    "internalType": "address[]",
                    "name": "",
                    "type": "address[]"
                }
            ],
            "stateMutability": "view",
            "type": "function"
        },
        {
            "inputs": [],
            "name": "getListOfStudents",
            "outputs": [
                {
                    "internalType": "address[]",
                    "name": "",
                    "type": "address[]"
                }
            ],
            "stateMutability": "view",
            "type": "function"
        },
        {
            "inputs": [
                {
                    "internalType": "address",
                    "name": "student",
                    "type": "address"
                }
            ],
            "name": "getStudentCourses",
            "outputs": [
                {
                    "internalType": "uint256[]",
                    "name": "",
                    "type": "uint256[]"
                }
            ],
            "stateMutability": "view",
            "type": "function"
        },
        {
            "inputs": [
                {
                    "internalType": "uint256",
                    "name": "courseId",
                    "type": "uint256"
                }
            ],
            "name": "incrementEnrollment",
            "outputs": [],
            "stateMutability": "nonpayable",
            "type": "function"
        },
        {
            "inputs": [
                {
                    "internalType": "string",
                    "name": "name",
                    "type": "string"
                },
                {
                    "internalType": "string",
                    "name": "symbol",
                    "type": "string"
                },
                {
                    "internalType": "address",
                    "name": "owner",
                    "type": "address"
                }
            ],
            "name": "initialize",
            "outputs": [],
            "stateMutability": "nonpayable",
            "type": "function"
        },
        {
            "inputs": [
                {
                    "internalType": "address",
                    "name": "owner",
                    "type": "address"
                },
                {
                    "internalType": "address",
                    "name": "operator",
                    "type": "address"
                }
            ],
            "name": "isApprovedForAll",
            "outputs": [
                {
                    "internalType": "bool",
                    "name": "",
                    "type": "bool"
                }
            ],
            "stateMutability": "view",
            "type": "function"
        },
        {
            "inputs": [
                {
                    "internalType": "address",
                    "name": "account",
                    "type": "address"
                }
            ],
            "name": "isLecturer",
            "outputs": [
                {
                    "internalType": "bool",
                    "name": "",
                    "type": "bool"
                }
            ],
            "stateMutability": "view",
            "type": "function"
        },
        {
            "inputs": [
                {
                    "internalType": "address",
                    "name": "",
                    "type": "address"
                }
            ],
            "name": "isStudent",
            "outputs": [
                {
                    "internalType": "bool",
                    "name": "",
                    "type": "bool"
                }
            ],
            "stateMutability": "view",
            "type": "function"
        },
        {
            "inputs": [
                {
                    "internalType": "uint256",
                    "name": "",
                    "type": "uint256"
                }
            ],
            "name": "lecturerList",
            "outputs": [
                {
                    "internalType": "address",
                    "name": "",
                    "type": "address"
                }
            ],
            "stateMutability": "view",
            "type": "function"
        },
        {
            "inputs": [
                {
                    "internalType": "address",
                    "name": "",
                    "type": "address"
                }
            ],
            "name": "lecturers",
            "outputs": [
                {
                    "internalType": "uint256",
                    "name": "",
                    "type": "uint256"
                }
            ],
            "stateMutability": "view",
            "type": "function"
        },
        {
            "inputs": [
                {
                    "internalType": "uint256",
                    "name": "sessionId",
                    "type": "uint256"
                },
                {
                    "internalType": "address",
                    "name": "student",
                    "type": "address"
                }
            ],
            "name": "markAttendance",
            "outputs": [],
            "stateMutability": "nonpayable",
            "type": "function"
        },
        {
            "inputs": [],
            "name": "name",
            "outputs": [
                {
                    "internalType": "string",
                    "name": "",
                    "type": "string"
                }
            ],
            "stateMutability": "view",
            "type": "function"
        },
        {
            "inputs": [],
            "name": "owner",
            "outputs": [
                {
                    "internalType": "address",
                    "name": "",
                    "type": "address"
                }
            ],
            "stateMutability": "view",
            "type": "function"
        },
        {
            "inputs": [
                {
                    "internalType": "uint256",
                    "name": "tokenId",
                    "type": "uint256"
                }
            ],
            "name": "ownerOf",
            "outputs": [
                {
                    "internalType": "address",
                    "name": "",
                    "type": "address"
                }
            ],
            "stateMutability": "view",
            "type": "function"
        },
        {
            "inputs": [],
            "name": "proxiableUUID",
            "outputs": [
                {
                    "internalType": "bytes32",
                    "name": "",
                    "type": "bytes32"
                }
            ],
            "stateMutability": "view",
            "type": "function"
        },
        {
            "inputs": [
                {
                    "internalType": "uint256",
                    "name": "courseId",
                    "type": "uint256"
                },
                {
                    "internalType": "address",
                    "name": "student",
                    "type": "address"
                }
            ],
            "name": "registerForCourse",
            "outputs": [],
            "stateMutability": "payable",
            "type": "function"
        },
        {
            "inputs": [],
            "name": "renounceOwnership",
            "outputs": [],
            "stateMutability": "nonpayable",
            "type": "function"
        },
        {
            "inputs": [
                {
                    "internalType": "address",
                    "name": "from",
                    "type": "address"
                },
                {
                    "internalType": "address",
                    "name": "to",
                    "type": "address"
                },
                {
                    "internalType": "uint256",
                    "name": "tokenId",
                    "type": "uint256"
                }
            ],
            "name": "safeTransferFrom",
            "outputs": [],
            "stateMutability": "nonpayable",
            "type": "function"
        },
        {
            "inputs": [
                {
                    "internalType": "address",
                    "name": "from",
                    "type": "address"
                },
                {
                    "internalType": "address",
                    "name": "to",
                    "type": "address"
                },
                {
                    "internalType": "uint256",
                    "name": "tokenId",
                    "type": "uint256"
                },
                {
                    "internalType": "bytes",
                    "name": "data",
                    "type": "bytes"
                }
            ],
            "name": "safeTransferFrom",
            "outputs": [],
            "stateMutability": "nonpayable",
            "type": "function"
        },
        {
            "inputs": [
                {
                    "internalType": "address",
                    "name": "operator",
                    "type": "address"
                },
                {
                    "internalType": "bool",
                    "name": "approved",
                    "type": "bool"
                }
            ],
            "name": "setApprovalForAll",
            "outputs": [],
            "stateMutability": "nonpayable",
            "type": "function"
        },
        {
            "inputs": [
                {
                    "internalType": "address",
                    "name": "",
                    "type": "address"
                },
                {
                    "internalType": "uint256",
                    "name": "",
                    "type": "uint256"
                }
            ],
            "name": "studentCourses",
            "outputs": [
                {
                    "internalType": "uint256",
                    "name": "",
                    "type": "uint256"
                }
            ],
            "stateMutability": "view",
            "type": "function"
        },
        {
            "inputs": [
                {
                    "internalType": "address",
                    "name": "",
                    "type": "address"
                },
                {
                    "internalType": "uint256",
                    "name": "",
                    "type": "uint256"
                }
            ],
            "name": "studentSessionAttendance",
            "outputs": [
                {
                    "internalType": "uint256",
                    "name": "",
                    "type": "uint256"
                }
            ],
            "stateMutability": "view",
            "type": "function"
        },
        {
            "inputs": [
                {
                    "internalType": "address",
                    "name": "",
                    "type": "address"
                }
            ],
            "name": "studentTokens",
            "outputs": [
                {
                    "internalType": "uint256",
                    "name": "",
                    "type": "uint256"
                }
            ],
            "stateMutability": "view",
            "type": "function"
        },
        {
            "inputs": [
                {
                    "internalType": "uint256",
                    "name": "",
                    "type": "uint256"
                }
            ],
            "name": "students",
            "outputs": [
                {
                    "internalType": "address",
                    "name": "",
                    "type": "address"
                }
            ],
            "stateMutability": "view",
            "type": "function"
        },
        {
            "inputs": [
                {
                    "internalType": "bytes4",
                    "name": "interfaceId",
                    "type": "bytes4"
                }
            ],
            "name": "supportsInterface",
            "outputs": [
                {
                    "internalType": "bool",
                    "name": "",
                    "type": "bool"
                }
            ],
            "stateMutability": "view",
            "type": "function"
        },
        {
            "inputs": [],
            "name": "symbol",
            "outputs": [
                {
                    "internalType": "string",
                    "name": "",
                    "type": "string"
                }
            ],
            "stateMutability": "view",
            "type": "function"
        },
        {
            "inputs": [
                {
                    "internalType": "uint256",
                    "name": "tokenId",
                    "type": "uint256"
                }
            ],
            "name": "tokenURI",
            "outputs": [
                {
                    "internalType": "string",
                    "name": "",
                    "type": "string"
                }
            ],
            "stateMutability": "view",
            "type": "function"
        },
        {
            "inputs": [
                {
                    "internalType": "address",
                    "name": "from",
                    "type": "address"
                },
                {
                    "internalType": "address",
                    "name": "to",
                    "type": "address"
                },
                {
                    "internalType": "uint256",
                    "name": "tokenId",
                    "type": "uint256"
                }
            ],
            "name": "transferFrom",
            "outputs": [],
            "stateMutability": "nonpayable",
            "type": "function"
        },
        {
            "inputs": [
                {
                    "internalType": "address",
                    "name": "newOwner",
                    "type": "address"
                }
            ],
            "name": "transferOwnership",
            "outputs": [],
            "stateMutability": "nonpayable",
            "type": "function"
        },
        {
            "inputs": [
                {
                    "internalType": "uint256",
                    "name": "courseId",
                    "type": "uint256"
                },
                {
                    "internalType": "uint256",
                    "name": "newRating",
                    "type": "uint256"
                }
            ],
            "name": "updateCourseRating",
            "outputs": [],
            "stateMutability": "nonpayable",
            "type": "function"
        },
        {
            "inputs": [
                {
                    "internalType": "address",
                    "name": "newImplementation",
                    "type": "address"
                },
                {
                    "internalType": "bytes",
                    "name": "data",
                    "type": "bytes"
                }
            ],
            "name": "upgradeToAndCall",
            "outputs": [],
            "stateMutability": "payable",
            "type": "function"
        },
        {
            "inputs": [],
            "name": "version",
            "outputs": [
                {
                    "internalType": "string",
                    "name": "",
                    "type": "string"
                }
            ],
            "stateMutability": "pure",
            "type": "function"
        },
        {
            "inputs": [],
            "name": "withdraw",
            "outputs": [],
            "stateMutability": "nonpayable",
            "type": "function"
        }
    ],
    "bytecode": "0x60a06040523060805234801561001457600080fd5b50608051613e9b61003e60003960008181612793015281816127bc01526128fd0152613e9b6000f3fe6080604052600436106102935760003560e01c80636aee02d31161015a57806396f979d2116100c1578063c8deced61161007a578063c8deced614610889578063d40761e4146108c1578063e985e9c5146108ee578063f2fde38b1461090e578063fc9250601461092e578063fd95cc511461095b57600080fd5b806396f979d2146107a2578063a22cb465146107d8578063ad3cb1cc146107f8578063b60da9b014610829578063b88d4fde14610849578063c87b56dd1461086957600080fd5b806382f7d3921161011357806382f7d392146106ae5780638a4b81ab146106de5780638c572bbe146106fe5780638da5cb5b146107655780638f58c3b21461077a57806395d89b411461078d57600080fd5b80636aee02d3146105e15780636e274a341461060157806370a0823114610621578063715018a6146106415780637bf1f66f146106565780637d9252921461068e57600080fd5b80632af47f46116101fe57806352d1902d116101b757806352d1902d1461052857806354fd4d501461053d57806360dd60e31461056b578063631527081461058b5780636352211e146105ab57806366055159146105cb57600080fd5b80632af47f461461045b57806334a1e9de146104885780633ccfd60b146104a857806342842e0e146104bd57806348147ea4146104dd5780634f1ef2861461051557600080fd5b80630a5776bb116102505780630a5776bb146103895780630b91e28d146103b7578063158dec4f146103e457806315f6febd146104065780631ae4815e1461041b57806323b872dd1461043b57600080fd5b806301ffc9a71461029857806306ead22e146102cd57806306fdde0314610305578063077f224a14610327578063081812fc14610349578063095ea7b314610369575b600080fd5b3480156102a457600080fd5b506102b86102b3366004613338565b61097b565b60405190151581526020015b60405180910390f35b3480156102d957600080fd5b506102ed6102e8366004613355565b61098c565b6040516001600160a01b0390911681526020016102c4565b34801561031157600080fd5b5061031a6109b6565b6040516102c491906133be565b34801561033357600080fd5b5061034761034236600461349f565b610a5a565b005b34801561035557600080fd5b506102ed610364366004613355565b610b9f565b34801561037557600080fd5b50610347610384366004613513565b610bb4565b34801561039557600080fd5b506103a96103a4366004613355565b610bc3565b6040519081526020016102c4565b3480156103c357600080fd5b506103d76103d2366004613355565b610cc5565b6040516102c49190613597565b3480156103f057600080fd5b506103f96110e2565b6040516102c4919061368a565b34801561041257600080fd5b506103f9611144565b34801561042757600080fd5b506103476104363660046136d7565b6111a4565b34801561044757600080fd5b50610347610456366004613703565b611212565b34801561046757600080fd5b506103a961047636600461373f565b60056020526000908152604090205481565b34801561049457600080fd5b506103a96104a33660046137ed565b61129d565b3480156104b457600080fd5b50610347611309565b3480156104c957600080fd5b506103476104d8366004613703565b611396565b3480156104e957600080fd5b506103a96104f83660046138d2565b805160208183018101805160028252928201919093012091525481565b610347610523366004613907565b6113b6565b34801561053457600080fd5b506103a96113d1565b34801561054957600080fd5b506040805180820190915260058152640312e302e360dc1b602082015261031a565b34801561057757600080fd5b506103f9610586366004613355565b6113ee565b34801561059757600080fd5b506103476105a6366004613513565b61145a565b3480156105b757600080fd5b506102ed6105c6366004613355565b611564565b3480156105d757600080fd5b506103a960005481565b3480156105ed57600080fd5b506103476105fc366004613355565b61156f565b34801561060d57600080fd5b506102ed61061c366004613955565b6115c2565b34801561062d57600080fd5b506103a961063c36600461373f565b6115fa565b34801561064d57600080fd5b50610347611656565b34801561066257600080fd5b506102b861067136600461373f565b6001600160a01b0316600090815260036020526040902054151590565b34801561069a57600080fd5b506102ed6106a9366004613355565b61166a565b3480156106ba57600080fd5b506102b86106c936600461373f565b60066020526000908152604090205460ff1681565b3480156106ea57600080fd5b506103476106f9366004613513565b61167a565b34801561070a57600080fd5b50610743610719366004613355565b600a6020526000908152604090208054600182015460028301546003909301549192909160ff1684565b60408051948552602085019390935291830152151560608201526080016102c4565b34801561077157600080fd5b506102ed61176c565b6103476107883660046136d7565b61179a565b34801561079957600080fd5b5061031a611c81565b3480156107ae57600080fd5b506107c26107bd366004613355565b611cc0565b6040516102c49a99989796959493929190613977565b3480156107e457600080fd5b506103476107f3366004613a09565b611f3b565b34801561080457600080fd5b5061031a604051806040016040528060058152602001640352e302e360dc1b81525081565b34801561083557600080fd5b50610347610844366004613955565b611f46565b34801561085557600080fd5b50610347610864366004613a45565b611fda565b34801561087557600080fd5b5061031a610884366004613355565b611ff2565b34801561089557600080fd5b506103a96108a4366004613513565b600b60209081526000928352604080842090915290825290205481565b3480156108cd57600080fd5b506108e16108dc36600461373f565b612067565b6040516102c49190613aad565b3480156108fa57600080fd5b506102b8610909366004613ae5565b6120d2565b34801561091a57600080fd5b5061034761092936600461373f565b61211f565b34801561093a57600080fd5b506103a961094936600461373f565b60036020526000908152604090205481565b34801561096757600080fd5b506103a9610976366004613513565b61215d565b60006109868261218e565b92915050565b6007818154811061099c57600080fd5b6000918252602090912001546001600160a01b0316905081565b600080516020613e2683398151915280546060919081906109d690613b0f565b80601f0160208091040260200160405190810160405280929190818152602001828054610a0290613b0f565b8015610a4f5780601f10610a2457610100808354040283529160200191610a4f565b820191906000526020600020905b815481529060010190602001808311610a3257829003601f168201915b505050505091505090565b6000610a646121de565b805490915060ff600160401b820416159067ffffffffffffffff16600081158015610a8c5750825b905060008267ffffffffffffffff166001148015610aa95750303b155b905081158015610ab7575080155b15610ad55760405163f92ee8a960e01b815260040160405180910390fd5b845467ffffffffffffffff191660011785558315610aff57845460ff60401b1916600160401b1785555b610b098888612207565b610b1286612219565b610b1a61222a565b610b22612232565b610b2a61222a565b610b3261222a565b610b3a61222a565b610b4261222a565b610b4a612242565b6000600d558315610b9557845460ff60401b19168555604051600181527fc7f505b2f371ae2175ee4913f4499e1f2633a7b5936321eed1cdaeb6115181d29060200160405180910390a15b5050505050505050565b6000610baa82612251565b5061098682612289565b610bbf8282336122c3565b5050565b33600090815260036020526040812054610bf85760405162461bcd60e51b8152600401610bef90613b49565b60405180910390fd5b600082118015610c0a57506000548211155b610c265760405162461bcd60e51b8152600401610bef90613b8e565b6000828152600160205260409020600901546001600160a01b03163314610c8f5760405162461bcd60e51b815260206004820152601960248201527f4e6f742074686520636f7572736520696e7374727563746f72000000000000006044820152606401610bef565b6000610c9a836122d0565b600d80549192506000610cac83613bcf565b9190505550610cbd33600d5461237b565b90505b919050565b610d2b60405180610160016040528060008152602001606081526020016060815260200160008152602001600081526020016060815260200160608152602001600081526020016000815260200160006001600160a01b03168152602001606081525090565b600082118015610d3d57506000548211155b610d595760405162461bcd60e51b8152600401610bef90613b8e565b6000828152600160208181526040928390208351610160810190945280548452918201805491840191610d8b90613b0f565b80601f0160208091040260200160405190810160405280929190818152602001828054610db790613b0f565b8015610e045780601f10610dd957610100808354040283529160200191610e04565b820191906000526020600020905b815481529060010190602001808311610de757829003601f168201915b50505050508152602001600282018054610e1d90613b0f565b80601f0160208091040260200160405190810160405280929190818152602001828054610e4990613b0f565b8015610e965780601f10610e6b57610100808354040283529160200191610e96565b820191906000526020600020905b815481529060010190602001808311610e7957829003601f168201915b50505050508152602001600382015481526020016004820154815260200160058201805480602002602001604051908101604052809291908181526020016000905b82821015610f84578382906000526020600020018054610ef790613b0f565b80601f0160208091040260200160405190810160405280929190818152602001828054610f2390613b0f565b8015610f705780601f10610f4557610100808354040283529160200191610f70565b820191906000526020600020905b815481529060010190602001808311610f5357829003601f168201915b505050505081526020019060010190610ed8565b505050508152602001600682018054610f9c90613b0f565b80601f0160208091040260200160405190810160405280929190818152602001828054610fc890613b0f565b80156110155780601f10610fea57610100808354040283529160200191611015565b820191906000526020600020905b815481529060010190602001808311610ff857829003601f168201915b5050509183525050600782015460208201526008820154604082015260098201546001600160a01b03166060820152600a8201805460809092019161105990613b0f565b80601f016020809104026020016040519081016040528092919081815260200182805461108590613b0f565b80156110d25780601f106110a7576101008083540402835291602001916110d2565b820191906000526020600020905b8154815290600101906020018083116110b557829003601f168201915b5050505050815250509050919050565b6060600480548060200260200160405190810160405280929190818152602001828054801561113a57602002820191906000526020600020905b81546001600160a01b0316815260019091019060200180831161111c575b5050505050905090565b6060600780548060200260200160405190810160405280929190818152602001828054801561113a576020028201919060005260206000209081546001600160a01b0316815260019091019060200180831161111c575050505050905090565b336000908152600360205260409020546111d05760405162461bcd60e51b8152600401610bef90613b49565b6001600160a01b03811660009081526006602052604090205460ff166112085760405162461bcd60e51b8152600401610bef90613be8565b610bbf82826123e0565b6001600160a01b03821661123c57604051633250574960e11b815260006004820152602401610bef565b6000611249838333612484565b9050836001600160a01b0316816001600160a01b031614611297576040516364283d7b60e01b81526001600160a01b0380861660048301526024820184905282166044820152606401610bef565b50505050565b336000908152600360205260408120546112c95760405162461bcd60e51b8152600401610bef90613b49565b60006112da8989898989898961258e565b600d805491925060006112ec83613bcf565b91905055506112fd33600d5461237b565b98975050505050505050565b611311612756565b47806113565760405162461bcd60e51b81526020600482015260146024820152734e6f2066756e647320746f20776974686472617760601b6044820152606401610bef565b61135e61176c565b6001600160a01b03166108fc829081150290604051600060405180830381858888f19350505050158015610bbf573d6000803e3d6000fd5b6113b183838360405180602001604052806000815250611fda565b505050565b6113be612788565b6113c78261282d565b610bbf8282612835565b60006113db6128f2565b50600080516020613e4683398151915290565b60008181526009602090815260409182902080548351818402810184019094528084526060939283018282801561144e57602002820191906000526020600020905b81546001600160a01b03168152600190910190602001808311611430575b50505050509050919050565b6001600160a01b03821660009081526006602052604090205460ff16156114bc5760405162461bcd60e51b815260206004820152601660248201527553747564656e7420616c72656164792065786973747360501b6044820152606401610bef565b6001600160a01b038216600081815260056020908152604080832085905560068252808320805460ff191660019081179091556007805491820181559093527fa66cc928b5edb82af9bd49922954155ab7b0942694bea4ce44661d9a8736c68890920180546001600160a01b0319168417905590518381527f481f70abdaaa7e4e53bed4ead7bded11ecbcdaa9f01fe0b3f850cb01e071bf9191015b60405180910390a25050565b600061098682612251565b60008111801561158157506000548111155b61159d5760405162461bcd60e51b8152600401610bef90613b8e565b60008181526001602052604081206008018054916115ba83613bcf565b919050555050565b600960205281600052604060002081815481106115de57600080fd5b6000918252602090912001546001600160a01b03169150829050565b6000600080516020613e268339815191526001600160a01b038316611635576040516322718ad960e21b815260006004820152602401610bef565b6001600160a01b039092166000908152600390920160205250604090205490565b61165e612756565b611668600061293b565b565b6004818154811061099c57600080fd5b6001600160a01b038216600090815260036020526040902054156116e05760405162461bcd60e51b815260206004820152601760248201527f4c6563747572657220616c7265616479206578697374730000000000000000006044820152606401610bef565b6001600160a01b0382166000818152600360205260408082208490556004805460018101825592527f8a35acfbc15ff81a39ae7d344fd709f28e8600b4aa8c65c6b64bfe7fe36bd19b90910180546001600160a01b03191683179055517ff41b6f34bb9c4ca3f7fd3415e13442244ab51655583ce1a228b284abca8c33dc906115589084815260200190565b7f9016d09d72d40fdae2fd8ceac6b6234c7706214fd39c1cd1e609a0528c199300546001600160a01b031690565b6117a26129ac565b6000821180156117b457506000548211155b6117d05760405162461bcd60e51b8152600401610bef90613b8e565b6001600160a01b03811660009081526006602052604090205460ff166118085760405162461bcd60e51b8152600401610bef90613be8565b60008281526001602081815260408084208151610160810190925280548252928301805491939284019161183b90613b0f565b80601f016020809104026020016040519081016040528092919081815260200182805461186790613b0f565b80156118b45780601f10611889576101008083540402835291602001916118b4565b820191906000526020600020905b81548152906001019060200180831161189757829003601f168201915b505050505081526020016002820180546118cd90613b0f565b80601f01602080910402602001604051908101604052809291908181526020018280546118f990613b0f565b80156119465780601f1061191b57610100808354040283529160200191611946565b820191906000526020600020905b81548152906001019060200180831161192957829003601f168201915b50505050508152602001600382015481526020016004820154815260200160058201805480602002602001604051908101604052809291908181526020016000905b82821015611a345783829060005260206000200180546119a790613b0f565b80601f01602080910402602001604051908101604052809291908181526020018280546119d390613b0f565b8015611a205780601f106119f557610100808354040283529160200191611a20565b820191906000526020600020905b815481529060010190602001808311611a0357829003601f168201915b505050505081526020019060010190611988565b505050508152602001600682018054611a4c90613b0f565b80601f0160208091040260200160405190810160405280929190818152602001828054611a7890613b0f565b8015611ac55780601f10611a9a57610100808354040283529160200191611ac5565b820191906000526020600020905b815481529060010190602001808311611aa857829003601f168201915b5050509183525050600782015460208201526008820154604082015260098201546001600160a01b03166060820152600a82018054608090920191611b0990613b0f565b80601f0160208091040260200160405190810160405280929190818152602001828054611b3590613b0f565b8015611b825780601f10611b5757610100808354040283529160200191611b82565b820191906000526020600020905b815481529060010190602001808311611b6557829003601f168201915b50505050508152505090508060800151341015611bd85760405162461bcd60e51b8152602060048201526014602482015273125b9cdd59999a58da595b9d081c185e5b595b9d60621b6044820152606401610bef565b611be283836129f6565b611beb8361156f565b600d8054906000611bfb83613bcf565b9190505550611c0c82600d5461237b565b8060800151341115611c5757608081015133906108fc90611c2d9034613c2b565b6040518115909202916000818181858888f19350505050158015611c55573d6000803e3d6000fd5b505b50610bbf60017f9b779b17422d0df92223018b32b4d1fa46e071723d6817e2486d003becc55f0055565b7f80bb2b638cc20bc4d0a60d66940f3ab4a00c1d7b313497ca82fb0b4ab00793018054606091600080516020613e26833981519152916109d690613b0f565b600160208190526000918252604090912080549181018054611ce190613b0f565b80601f0160208091040260200160405190810160405280929190818152602001828054611d0d90613b0f565b8015611d5a5780601f10611d2f57610100808354040283529160200191611d5a565b820191906000526020600020905b815481529060010190602001808311611d3d57829003601f168201915b505050505090806002018054611d6f90613b0f565b80601f0160208091040260200160405190810160405280929190818152602001828054611d9b90613b0f565b8015611de85780601f10611dbd57610100808354040283529160200191611de8565b820191906000526020600020905b815481529060010190602001808311611dcb57829003601f168201915b505050505090806003015490806004015490806006018054611e0990613b0f565b80601f0160208091040260200160405190810160405280929190818152602001828054611e3590613b0f565b8015611e825780601f10611e5757610100808354040283529160200191611e82565b820191906000526020600020905b815481529060010190602001808311611e6557829003601f168201915b505050600784015460088501546009860154600a87018054969793969295506001600160a01b03909116935090611eb890613b0f565b80601f0160208091040260200160405190810160405280929190818152602001828054611ee490613b0f565b8015611f315780601f10611f0657610100808354040283529160200191611f31565b820191906000526020600020905b815481529060010190602001808311611f1457829003601f168201915b505050505090508a565b610bbf338383612aaf565b600082118015611f5857506000548211155b611f745760405162461bcd60e51b8152600401610bef90613b8e565b6032811115611fc55760405162461bcd60e51b815260206004820152601f60248201527f526174696e67206d757374206265206265747765656e203020616e64203530006044820152606401610bef565b60009182526001602052604090912060070155565b611fe5848484611212565b6112973385858585612b60565b6060611ffd82612251565b50600061201560408051602081019091526000815290565b905060008151116120355760405180602001604052806000815250612060565b8061203f84612c8b565b604051602001612050929190613c3e565b6040516020818303038152906040525b9392505050565b6001600160a01b03811660009081526008602090815260409182902080548351818402810184019094528084526060939283018282801561144e57602002820191906000526020600020905b8154815260200190600101908083116120b35750505050509050919050565b6001600160a01b0391821660009081527f80bb2b638cc20bc4d0a60d66940f3ab4a00c1d7b313497ca82fb0b4ab00793056020908152604080832093909416825291909152205460ff1690565b612127612756565b6001600160a01b03811661215157604051631e4fbdf760e01b815260006004820152602401610bef565b61215a8161293b565b50565b6008602052816000526040600020818154811061217957600080fd5b90600052602060002001600091509150505481565b60006001600160e01b031982166380ac58cd60e01b14806121bf57506001600160e01b03198216635b5e139f60e01b145b8061098657506301ffc9a760e01b6001600160e01b0319831614610986565b6000807ff0c57e16840df040f15088dc2f81fe391c3923bec73e23a9662efc9c229c6a00610986565b61220f612d1e565b610bbf8282612d43565b612221612d1e565b61215a81612d74565b611668612d1e565b61223a612d1e565b611668612d7c565b61224a612d1e565b6000600c55565b60008061225d83612d84565b90506001600160a01b038116610cbd57604051637e27328960e01b815260048101849052602401610bef565b60009081527f80bb2b638cc20bc4d0a60d66940f3ab4a00c1d7b313497ca82fb0b4ab007930460205260409020546001600160a01b031690565b6113b18383836001612dbe565b600c8054600091826122e183613bcf565b9091555050600c5460408051608081018252828152602080820186815242838501818152600060608601818152888252600a865290879020955186559251600186015551600285015590516003909301805460ff1916931515939093179092559151908152849183917f9d810e0082f8a92772407ea94a85bc457d358804c697a63a434a5043bf81be7f910160405180910390a392915050565b6001600160a01b0382166123a557604051633250574960e11b815260006004820152602401610bef565b60006123b383836000612484565b90506001600160a01b038116156113b1576040516339e3563760e11b815260006004820152602401610bef565b6000828152600a60205260409020600101546124325760405162461bcd60e51b815260206004820152601160248201527014d95cdcda5bdb881b9bdd08199bdd5b99607a1b6044820152606401610bef565b6001600160a01b0381166000818152600b60209081526040808320868452909152808220600190555184917f9e5d24579183fa37d9de3c53c170caae77e5ea5a3ed2c66fdd356f590ff779f491a35050565b6000600080516020613e268339815191528161249f85612d84565b90506001600160a01b038416156124bb576124bb818587612ed4565b6001600160a01b038116156124fb576124d8600086600080612dbe565b6001600160a01b0381166000908152600383016020526040902080546000190190555b6001600160a01b0386161561252c576001600160a01b03861660009081526003830160205260409020805460010190555b600085815260028301602052604080822080546001600160a01b0319166001600160a01b038a811691821790925591518893918516917fddf252ad1be2c89b69c2b068fc378daa952ba7f163c4a11628f55a4df523b3ef91a495945050505050565b60008054818061259d83613bcf565b91905055506000805490506040518061016001604052808281526020018a81526020018881526020018981526020018781526020018681526020018581526020016000815260200160008152602001336001600160a01b0316815260200184815250600160008381526020019081526020016000206000820151816000015560208201518160010190816126319190613cb5565b50604082015160028201906126469082613cb5565b50606082015160038201556080820151600482015560a08201518051612676916005840191602090910190613265565b5060c0820151600682019061268b9082613cb5565b5060e0820151600782015561010082015160088201556101208201516009820180546001600160a01b0319166001600160a01b03909216919091179055610140820151600a8201906126dd9082613cb5565b509050508060028a6040516126f29190613d75565b908152602001604051809103902081905550336001600160a01b0316817fc3f596bfc7ef9eee7af478cb34ec2e69df92434440c3ef1abbc3c8bb89a133ab8b898760405161274293929190613d91565b60405180910390a398975050505050505050565b3361275f61176c565b6001600160a01b0316146116685760405163118cdaa760e01b8152336004820152602401610bef565b306001600160a01b037f000000000000000000000000000000000000000000000000000000000000000016148061280f57507f00000000000000000000000000000000000000000000000000000000000000006001600160a01b0316612803600080516020613e46833981519152546001600160a01b031690565b6001600160a01b031614155b156116685760405163703e46dd60e11b815260040160405180910390fd5b61215a612756565b816001600160a01b03166352d1902d6040518163ffffffff1660e01b8152600401602060405180830381865afa92505050801561288f575060408051601f3d908101601f1916820190925261288c91810190613dbc565b60015b6128b757604051634c9c8ce360e01b81526001600160a01b0383166004820152602401610bef565b600080516020613e4683398151915281146128e857604051632a87526960e21b815260048101829052602401610bef565b6113b18383612f38565b306001600160a01b037f000000000000000000000000000000000000000000000000000000000000000016146116685760405163703e46dd60e11b815260040160405180910390fd5b7f9016d09d72d40fdae2fd8ceac6b6234c7706214fd39c1cd1e609a0528c19930080546001600160a01b031981166001600160a01b03848116918217845560405192169182907f8be0079c531659141344cd1fd0a4f28419497f9722a3daafe3b4186f6b6457e090600090a3505050565b7f9b779b17422d0df92223018b32b4d1fa46e071723d6817e2486d003becc55f008054600119016129f057604051633ee5aeb560e01b815260040160405180910390fd5b60029055565b6001600160a01b038116600081815260086020908152604080832080546001808201835591855283852001879055868452600983528184208054918201815584529282902090920180546001600160a01b031916841790558151858152908101929092527fc65c83424b9743cd85950d4d05ef8ab686409eafe1bf490c528b98f4eb800048910160405180910390a15050565b60017f9b779b17422d0df92223018b32b4d1fa46e071723d6817e2486d003becc55f0055565b600080516020613e268339815191526001600160a01b038316612af057604051630b61174360e31b81526001600160a01b0384166004820152602401610bef565b6001600160a01b038481166000818152600584016020908152604080832094881680845294825291829020805460ff191687151590811790915591519182527f17307eab39ab6107e8899845ad3d59bd9653f200f220920489ca2b5937696c31910160405180910390a350505050565b6001600160a01b0383163b15612c8457604051630a85bd0160e11b81526001600160a01b0384169063150b7a0290612ba2908890889087908790600401613dd5565b6020604051808303816000875af1925050508015612bdd575060408051601f3d908101601f19168201909252612bda91810190613e08565b60015b612c46573d808015612c0b576040519150601f19603f3d011682016040523d82523d6000602084013e612c10565b606091505b508051600003612c3e57604051633250574960e11b81526001600160a01b0385166004820152602401610bef565b805181602001fd5b6001600160e01b03198116630a85bd0160e11b14612c8257604051633250574960e11b81526001600160a01b0385166004820152602401610bef565b505b5050505050565b60606000612c9883612f8e565b600101905060008167ffffffffffffffff811115612cb857612cb86133d1565b6040519080825280601f01601f191660200182016040528015612ce2576020820181803683370190505b5090508181016020015b600019016f181899199a1a9b1b9c1cb0b131b232b360811b600a86061a8153600a8504945084612cec57509392505050565b612d26613066565b61166857604051631afcd79f60e31b815260040160405180910390fd5b612d4b612d1e565b600080516020613e2683398151915280612d658482613cb5565b50600181016112978382613cb5565b612127612d1e565b612a89612d1e565b60009081527f80bb2b638cc20bc4d0a60d66940f3ab4a00c1d7b313497ca82fb0b4ab007930260205260409020546001600160a01b031690565b600080516020613e268339815191528180612de157506001600160a01b03831615155b15612ea3576000612df185612251565b90506001600160a01b03841615801590612e1d5750836001600160a01b0316816001600160a01b031614155b8015612e305750612e2e81856120d2565b155b15612e595760405163a9fbf51f60e01b81526001600160a01b0385166004820152602401610bef565b8215612ea15784866001600160a01b0316826001600160a01b03167f8c5be1e5ebec7d5bd14f71427d1e84f3dd0314c0f7b2291e5b200ac8c7c3b92560405160405180910390a45b505b600093845260040160205250506040902080546001600160a01b0319166001600160a01b0392909216919091179055565b612edf838383613080565b6113b1576001600160a01b038316612f0d57604051637e27328960e01b815260048101829052602401610bef565b60405163177e802f60e01b81526001600160a01b038316600482015260248101829052604401610bef565b612f41826130e6565b6040516001600160a01b038316907fbc7cd75a20ee27fd9adebab32041f755214dbc6bffa90cc0225b39da2e5c2d3b90600090a2805115612f86576113b1828261314b565b610bbf6131c1565b60008072184f03e93ff9f4daa797ed6e38ed64bf6a1f0160401b8310612fcd5772184f03e93ff9f4daa797ed6e38ed64bf6a1f0160401b830492506040015b6d04ee2d6d415b85acef81000000008310612ff9576d04ee2d6d415b85acef8100000000830492506020015b662386f26fc10000831061301757662386f26fc10000830492506010015b6305f5e100831061302f576305f5e100830492506008015b612710831061304357612710830492506004015b60648310613055576064830492506002015b600a8310610cbd5760010192915050565b60006130706121de565b54600160401b900460ff16919050565b60006001600160a01b038316158015906130de5750826001600160a01b0316846001600160a01b031614806130ba57506130ba84846120d2565b806130de5750826001600160a01b03166130d383612289565b6001600160a01b0316145b949350505050565b806001600160a01b03163b60000361311c57604051634c9c8ce360e01b81526001600160a01b0382166004820152602401610bef565b600080516020613e4683398151915280546001600160a01b0319166001600160a01b0392909216919091179055565b6060600080846001600160a01b0316846040516131689190613d75565b600060405180830381855af49150503d80600081146131a3576040519150601f19603f3d011682016040523d82523d6000602084013e6131a8565b606091505b50915091506131b88583836131e0565b95945050505050565b34156116685760405163b398979f60e01b815260040160405180910390fd5b6060826131f5576131f08261323c565b612060565b815115801561320c57506001600160a01b0384163b155b1561323557604051639996b31560e01b81526001600160a01b0385166004820152602401610bef565b5080612060565b80511561324c5780518082602001fd5b60405163d6bda27560e01b815260040160405180910390fd5b8280548282559060005260206000209081019282156132ab579160200282015b828111156132ab578251829061329b9082613cb5565b5091602001919060010190613285565b506132b79291506132bb565b5090565b808211156132b75760006132cf82826132d8565b506001016132bb565b5080546132e490613b0f565b6000825580601f106132f4575050565b601f01602090049060005260206000209081019061215a91905b808211156132b7576000815560010161330e565b6001600160e01b03198116811461215a57600080fd5b60006020828403121561334a57600080fd5b813561206081613322565b60006020828403121561336757600080fd5b5035919050565b60005b83811015613389578181015183820152602001613371565b50506000910152565b600081518084526133aa81602086016020860161336e565b601f01601f19169290920160200192915050565b6020815260006120606020830184613392565b634e487b7160e01b600052604160045260246000fd5b604051601f8201601f1916810167ffffffffffffffff81118282101715613410576134106133d1565b604052919050565b600082601f83011261342957600080fd5b813567ffffffffffffffff811115613443576134436133d1565b613456601f8201601f19166020016133e7565b81815284602083860101111561346b57600080fd5b816020850160208301376000918101602001919091529392505050565b80356001600160a01b0381168114610cc057600080fd5b6000806000606084860312156134b457600080fd5b833567ffffffffffffffff808211156134cc57600080fd5b6134d887838801613418565b945060208601359150808211156134ee57600080fd5b506134fb86828701613418565b92505061350a60408501613488565b90509250925092565b6000806040838503121561352657600080fd5b61352f83613488565b946020939093013593505050565b60008282518085526020808601955060208260051b8401016020860160005b8481101561358a57601f19868403018952613578838351613392565b9884019892509083019060010161355c565b5090979650505050505050565b6020815281516020820152600060208301516101608060408501526135c0610180850183613392565b91506040850151601f19808685030160608701526135de8483613392565b935060608701516080870152608087015160a087015260a08701519150808685030160c087015261360f848361353d565b935060c08701519150808685030160e087015261362c8483613392565b60e088015161010088810191909152880151610120808901919091528801519094509150610140613667818801846001600160a01b03169052565b8701518685039091018387015290506136808382613392565b9695505050505050565b6020808252825182820181905260009190848201906040850190845b818110156136cb5783516001600160a01b0316835292840192918401916001016136a6565b50909695505050505050565b600080604083850312156136ea57600080fd5b823591506136fa60208401613488565b90509250929050565b60008060006060848603121561371857600080fd5b61372184613488565b925061372f60208501613488565b9150604084013590509250925092565b60006020828403121561375157600080fd5b61206082613488565b600082601f83011261376b57600080fd5b8135602067ffffffffffffffff80831115613788576137886133d1565b8260051b6137978382016133e7565b93845285810183019383810190888611156137b157600080fd5b84880192505b858310156112fd578235848111156137cf5760008081fd5b6137dd8a87838c0101613418565b83525091840191908401906137b7565b600080600080600080600060e0888a03121561380857600080fd5b873567ffffffffffffffff8082111561382057600080fd5b61382c8b838c01613418565b985060208a0135975060408a013591508082111561384957600080fd5b6138558b838c01613418565b965060608a0135955060808a013591508082111561387257600080fd5b61387e8b838c0161375a565b945060a08a013591508082111561389457600080fd5b6138a08b838c01613418565b935060c08a01359150808211156138b657600080fd5b506138c38a828b01613418565b91505092959891949750929550565b6000602082840312156138e457600080fd5b813567ffffffffffffffff8111156138fb57600080fd5b6130de84828501613418565b6000806040838503121561391a57600080fd5b61392383613488565b9150602083013567ffffffffffffffff81111561393f57600080fd5b61394b85828601613418565b9150509250929050565b6000806040838503121561396857600080fd5b50508035926020909101359150565b60006101408c83528060208401526139918184018d613392565b905082810360408401526139a5818c613392565b905089606084015288608084015282810360a08401526139c58189613392565b60c0840188905260e084018790526001600160a01b03861661010085015283810361012085015290506139f88185613392565b9d9c50505050505050505050505050565b60008060408385031215613a1c57600080fd5b613a2583613488565b915060208301358015158114613a3a57600080fd5b809150509250929050565b60008060008060808587031215613a5b57600080fd5b613a6485613488565b9350613a7260208601613488565b925060408501359150606085013567ffffffffffffffff811115613a9557600080fd5b613aa187828801613418565b91505092959194509250565b6020808252825182820181905260009190848201906040850190845b818110156136cb57835183529284019291840191600101613ac9565b60008060408385031215613af857600080fd5b613b0183613488565b91506136fa60208401613488565b600181811c90821680613b2357607f821691505b602082108103613b4357634e487b7160e01b600052602260045260246000fd5b50919050565b60208082526025908201527f4f6e6c79206c656374757265722063616e20706572666f726d2074686973206160408201526431ba34b7b760d91b606082015260800190565b602080825260119082015270125b9d985b1a590818dbdd5c9cd9481251607a1b604082015260600190565b634e487b7160e01b600052601160045260246000fd5b600060018201613be157613be1613bb9565b5060010190565b60208082526023908201527f41646472657373206973206e6f74206120726567697374657265642073747564604082015262195b9d60ea1b606082015260800190565b8181038181111561098657610986613bb9565b60008351613c5081846020880161336e565b835190830190613c6481836020880161336e565b01949350505050565b601f8211156113b1576000816000526020600020601f850160051c81016020861015613c965750805b601f850160051c820191505b81811015612c8257828155600101613ca2565b815167ffffffffffffffff811115613ccf57613ccf6133d1565b613ce381613cdd8454613b0f565b84613c6d565b602080601f831160018114613d185760008415613d005750858301515b600019600386901b1c1916600185901b178555612c82565b600085815260208120601f198616915b82811015613d4757888601518255948401946001909101908401613d28565b5085821015613d655787850151600019600388901b60f8161c191681555b5050505050600190811b01905550565b60008251613d8781846020870161336e565b9190910192915050565b606081526000613da46060830186613392565b84602084015282810360408401526136808185613392565b600060208284031215613dce57600080fd5b5051919050565b6001600160a01b038581168252841660208201526040810183905260806060820181905260009061368090830184613392565b600060208284031215613e1a57600080fd5b81516120608161332256fe80bb2b638cc20bc4d0a60d66940f3ab4a00c1d7b313497ca82fb0b4ab0079300360894a13ba1a3210667c828492db98dca3e2076cc3735a920a3ca505d382bbca2646970667358221220fd8d7ea1b6474a6a4ff0ca05994cb529fce66e42802451e14479376ce0a5913e64736f6c63430008160033",
    "linkReferences": {},
    "deployedLinkReferences": {}
}