{
    "_format": "hh-sol-artifact-1",
    "contractName": "Celorean",
    "sourceName": "contracts/Celorean.sol",
    "abi": [
        {
            "anonymous": false,
            "inputs": [
                {
                    "indexed": false,
                    "internalType": "address",
                    "name": "previousAdmin",
                    "type": "address"
                },
                {
                    "indexed": false,
                    "internalType": "address",
                    "name": "newAdmin",
                    "type": "address"
                }
            ],
            "name": "AdminChanged",
            "type": "event"
        },
        {
            "anonymous": false,
            "inputs": [
                {
                    "indexed": true,
                    "internalType": "address",
                    "name": "owner",
                    "type": "address"
                },
                {
                    "indexed": true,
                    "internalType": "address",
                    "name": "approved",
                    "type": "address"
                },
                {
                    "indexed": true,
                    "internalType": "uint256",
                    "name": "tokenId",
                    "type": "uint256"
                }
            ],
            "name": "Approval",
            "type": "event"
        },
        {
            "anonymous": false,
            "inputs": [
                {
                    "indexed": true,
                    "internalType": "address",
                    "name": "owner",
                    "type": "address"
                },
                {
                    "indexed": true,
                    "internalType": "address",
                    "name": "operator",
                    "type": "address"
                },
                {
                    "indexed": false,
                    "internalType": "bool",
                    "name": "approved",
                    "type": "bool"
                }
            ],
            "name": "ApprovalForAll",
            "type": "event"
        },
        {
            "anonymous": false,
            "inputs": [
                {
                    "indexed": true,
                    "internalType": "uint256",
                    "name": "sessionId",
                    "type": "uint256"
                },
                {
                    "indexed": true,
                    "internalType": "address",
                    "name": "student",
                    "type": "address"
                }
            ],
            "name": "AttendanceMarked",
            "type": "event"
        },
        {
            "anonymous": false,
            "inputs": [
                {
                    "indexed": true,
                    "internalType": "address",
                    "name": "beacon",
                    "type": "address"
                }
            ],
            "name": "BeaconUpgraded",
            "type": "event"
        },
        {
            "anonymous": false,
            "inputs": [
                {
                    "indexed": true,
                    "internalType": "uint256",
                    "name": "sessionId",
                    "type": "uint256"
                },
                {
                    "indexed": true,
                    "internalType": "uint256",
                    "name": "courseId",
                    "type": "uint256"
                },
                {
                    "indexed": false,
                    "internalType": "uint256",
                    "name": "timestamp",
                    "type": "uint256"
                }
            ],
            "name": "ClassSessionCreated",
            "type": "event"
        },
        {
            "anonymous": false,
            "inputs": [
                {
                    "indexed": true,
                    "internalType": "uint256",
                    "name": "courseId",
                    "type": "uint256"
                },
                {
                    "indexed": false,
                    "internalType": "string",
                    "name": "newContentUri",
                    "type": "string"
                }
            ],
            "name": "CourseContentUpdated",
            "type": "event"
        },
        {
            "anonymous": false,
            "inputs": [
                {
                    "indexed": true,
                    "internalType": "uint256",
                    "name": "courseId",
                    "type": "uint256"
                },
                {
                    "indexed": false,
                    "internalType": "string",
                    "name": "title",
                    "type": "string"
                },
                {
                    "indexed": true,
                    "internalType": "address",
                    "name": "instructor",
                    "type": "address"
                },
                {
                    "indexed": false,
                    "internalType": "uint256",
                    "name": "price",
                    "type": "uint256"
                },
                {
                    "indexed": false,
                    "internalType": "string",
                    "name": "metadataUri",
                    "type": "string"
                }
            ],
            "name": "CourseCreated",
            "type": "event"
        },
        {
            "anonymous": false,
            "inputs": [
                {
                    "indexed": true,
                    "internalType": "uint256",
                    "name": "courseId",
                    "type": "uint256"
                },
                {
                    "indexed": false,
                    "internalType": "string",
                    "name": "newMetadataUri",
                    "type": "string"
                }
            ],
            "name": "CourseMetadataUpdated",
            "type": "event"
        },
        {
            "anonymous": false,
            "inputs": [
                {
                    "indexed": false,
                    "internalType": "uint8",
                    "name": "version",
                    "type": "uint8"
                }
            ],
            "name": "Initialized",
            "type": "event"
        },
        {
            "anonymous": false,
            "inputs": [
                {
                    "indexed": true,
                    "internalType": "address",
                    "name": "lecturer",
                    "type": "address"
                },
                {
                    "indexed": false,
                    "internalType": "uint256",
                    "name": "amount",
                    "type": "uint256"
                }
            ],
            "name": "LecturerEmployed",
            "type": "event"
        },
        {
            "anonymous": false,
            "inputs": [
                {
                    "indexed": true,
                    "internalType": "address",
                    "name": "previousOwner",
                    "type": "address"
                },
                {
                    "indexed": true,
                    "internalType": "address",
                    "name": "newOwner",
                    "type": "address"
                }
            ],
            "name": "OwnershipTransferred",
            "type": "event"
        },
        {
            "anonymous": false,
            "inputs": [
                {
                    "indexed": true,
                    "internalType": "address",
                    "name": "student",
                    "type": "address"
                },
                {
                    "indexed": false,
                    "internalType": "uint256",
                    "name": "amount",
                    "type": "uint256"
                }
            ],
            "name": "StudentAdmitted",
            "type": "event"
        },
        {
            "anonymous": false,
            "inputs": [
                {
                    "indexed": false,
                    "internalType": "uint256",
                    "name": "courseId",
                    "type": "uint256"
                },
                {
                    "indexed": false,
                    "internalType": "address",
                    "name": "student",
                    "type": "address"
                }
            ],
            "name": "StudentRegistered",
            "type": "event"
        },
        {
            "anonymous": false,
            "inputs": [
                {
                    "indexed": true,
                    "internalType": "address",
                    "name": "from",
                    "type": "address"
                },
                {
                    "indexed": true,
                    "internalType": "address",
                    "name": "to",
                    "type": "address"
                },
                {
                    "indexed": true,
                    "internalType": "uint256",
                    "name": "tokenId",
                    "type": "uint256"
                }
            ],
            "name": "Transfer",
            "type": "event"
        },
        {
            "anonymous": false,
            "inputs": [
                {
                    "indexed": true,
                    "internalType": "address",
                    "name": "implementation",
                    "type": "address"
                }
            ],
            "name": "Upgraded",
            "type": "event"
        },
        {
            "inputs": [
                {
                    "internalType": "address",
                    "name": "student",
                    "type": "address"
                },
                {
                    "internalType": "uint256",
                    "name": "amount",
                    "type": "uint256"
                }
            ],
            "name": "admitStudent",
            "outputs": [],
            "stateMutability": "nonpayable",
            "type": "function"
        },
        {
            "inputs": [
                {
                    "internalType": "address",
                    "name": "to",
                    "type": "address"
                },
                {
                    "internalType": "uint256",
                    "name": "tokenId",
                    "type": "uint256"
                }
            ],
            "name": "approve",
            "outputs": [],
            "stateMutability": "nonpayable",
            "type": "function"
        },
        {
            "inputs": [
                {
                    "internalType": "address",
                    "name": "owner",
                    "type": "address"
                }
            ],
            "name": "balanceOf",
            "outputs": [
                {
                    "internalType": "uint256",
                    "name": "",
                    "type": "uint256"
                }
            ],
            "stateMutability": "view",
            "type": "function"
        },
        {
            "inputs": [
                {
                    "internalType": "uint256",
                    "name": "",
                    "type": "uint256"
                }
            ],
            "name": "classSessions",
            "outputs": [
                {
                    "internalType": "uint256",
                    "name": "id",
                    "type": "uint256"
                },
                {
                    "internalType": "uint256",
                    "name": "courseId",
                    "type": "uint256"
                },
                {
                    "internalType": "uint256",
                    "name": "timestamp",
                    "type": "uint256"
                },
                {
                    "internalType": "bool",
                    "name": "marked",
                    "type": "bool"
                }
            ],
            "stateMutability": "view",
            "type": "function"
        },
        {
            "inputs": [],
            "name": "courseCount",
            "outputs": [
                {
                    "internalType": "uint256",
                    "name": "",
                    "type": "uint256"
                }
            ],
            "stateMutability": "view",
            "type": "function"
        },
        {
            "inputs": [
                {
                    "internalType": "string",
                    "name": "",
                    "type": "string"
                }
            ],
            "name": "courseNameToId",
            "outputs": [
                {
                    "internalType": "uint256",
                    "name": "",
                    "type": "uint256"
                }
            ],
            "stateMutability": "view",
            "type": "function"
        },
        {
            "inputs": [
                {
                    "internalType": "uint256",
                    "name": "",
                    "type": "uint256"
                },
                {
                    "internalType": "uint256",
                    "name": "",
                    "type": "uint256"
                }
            ],
            "name": "courseStudents",
            "outputs": [
                {
                    "internalType": "address",
                    "name": "",
                    "type": "address"
                }
            ],
            "stateMutability": "view",
            "type": "function"
        },
        {
            "inputs": [
                {
                    "internalType": "uint256",
                    "name": "",
                    "type": "uint256"
                }
            ],
            "name": "courses",
            "outputs": [
                {
                    "internalType": "uint256",
                    "name": "id",
                    "type": "uint256"
                },
                {
                    "internalType": "string",
                    "name": "title",
                    "type": "string"
                },
                {
                    "internalType": "string",
                    "name": "description",
                    "type": "string"
                },
                {
                    "internalType": "uint256",
                    "name": "duration",
                    "type": "uint256"
                },
                {
                    "internalType": "uint256",
                    "name": "price",
                    "type": "uint256"
                },
                {
                    "internalType": "string",
                    "name": "level",
                    "type": "string"
                },
                {
                    "internalType": "uint256",
                    "name": "rating",
                    "type": "uint256"
                },
                {
                    "internalType": "uint256",
                    "name": "enrolledCount",
                    "type": "uint256"
                },
                {
                    "internalType": "address",
                    "name": "instructor",
                    "type": "address"
                },
                {
                    "internalType": "string",
                    "name": "metadataUri",
                    "type": "string"
                },
                {
                    "internalType": "string",
                    "name": "contentUri",
                    "type": "string"
                }
            ],
            "stateMutability": "view",
            "type": "function"
        },
        {
            "inputs": [
                {
                    "internalType": "uint256",
                    "name": "courseId",
                    "type": "uint256"
                }
            ],
            "name": "createClassSession",
            "outputs": [
                {
                    "internalType": "uint256",
                    "name": "",
                    "type": "uint256"
                }
            ],
            "stateMutability": "nonpayable",
            "type": "function"
        },
        {
            "inputs": [
                {
                    "internalType": "string",
                    "name": "title",
                    "type": "string"
                },
                {
                    "internalType": "uint256",
                    "name": "duration",
                    "type": "uint256"
                },
                {
                    "internalType": "string",
                    "name": "description",
                    "type": "string"
                },
                {
                    "internalType": "uint256",
                    "name": "price",
                    "type": "uint256"
                },
                {
                    "internalType": "string[]",
                    "name": "tags",
                    "type": "string[]"
                },
                {
                    "internalType": "string",
                    "name": "level",
                    "type": "string"
                },
                {
                    "internalType": "string",
                    "name": "metadataUri",
                    "type": "string"
                }
            ],
            "name": "createCourse",
            "outputs": [
                {
                    "internalType": "uint256",
                    "name": "",
                    "type": "uint256"
                }
            ],
            "stateMutability": "nonpayable",
            "type": "function"
        },
        {
            "inputs": [
                {
                    "internalType": "address",
                    "name": "lecturer",
                    "type": "address"
                },
                {
                    "internalType": "uint256",
                    "name": "value",
                    "type": "uint256"
                }
            ],
            "name": "employLecturer",
            "outputs": [],
            "stateMutability": "nonpayable",
            "type": "function"
        },
        {
            "inputs": [
                {
                    "internalType": "uint256",
                    "name": "tokenId",
                    "type": "uint256"
                }
            ],
            "name": "getApproved",
            "outputs": [
                {
                    "internalType": "address",
                    "name": "",
                    "type": "address"
                }
            ],
            "stateMutability": "view",
            "type": "function"
        },
        {
            "inputs": [
                {
                    "internalType": "uint256",
                    "name": "courseId",
                    "type": "uint256"
                }
            ],
            "name": "getCourse",
            "outputs": [
                {
                    "components": [
                        {
                            "internalType": "uint256",
                            "name": "id",
                            "type": "uint256"
                        },
                        {
                            "internalType": "string",
                            "name": "title",
                            "type": "string"
                        },
                        {
                            "internalType": "string",
                            "name": "description",
                            "type": "string"
                        },
                        {
                            "internalType": "uint256",
                            "name": "duration",
                            "type": "uint256"
                        },
                        {
                            "internalType": "uint256",
                            "name": "price",
                            "type": "uint256"
                        },
                        {
                            "internalType": "string[]",
                            "name": "tags",
                            "type": "string[]"
                        },
                        {
                            "internalType": "string",
                            "name": "level",
                            "type": "string"
                        },
                        {
                            "internalType": "uint256",
                            "name": "rating",
                            "type": "uint256"
                        },
                        {
                            "internalType": "uint256",
                            "name": "enrolledCount",
                            "type": "uint256"
                        },
                        {
                            "internalType": "address",
                            "name": "instructor",
                            "type": "address"
                        },
                        {
                            "internalType": "string",
                            "name": "metadataUri",
                            "type": "string"
                        },
                        {
                            "internalType": "string",
                            "name": "contentUri",
                            "type": "string"
                        }
                    ],
                    "internalType": "struct CourseModule.Course",
                    "name": "",
                    "type": "tuple"
                }
            ],
            "stateMutability": "view",
            "type": "function"
        },
        {
            "inputs": [
                {
                    "internalType": "uint256",
                    "name": "courseId",
                    "type": "uint256"
                }
            ],
            "name": "getCourseStudents",
            "outputs": [
                {
                    "internalType": "address[]",
                    "name": "",
                    "type": "address[]"
                }
            ],
            "stateMutability": "view",
            "type": "function"
        },
        {
            "inputs": [],
            "name": "getLecturerList",
            "outputs": [
                {
                    "internalType": "address[]",
                    "name": "",
                    "type": "address[]"
                }
            ],
            "stateMutability": "view",
            "type": "function"
        },
        {
            "inputs": [],
            "name": "getListOfStudents",
            "outputs": [
                {
                    "internalType": "address[]",
                    "name": "",
                    "type": "address[]"
                }
            ],
            "stateMutability": "view",
            "type": "function"
        },
        {
            "inputs": [
                {
                    "internalType": "address",
                    "name": "student",
                    "type": "address"
                }
            ],
            "name": "getStudentCourses",
            "outputs": [
                {
                    "internalType": "uint256[]",
                    "name": "",
                    "type": "uint256[]"
                }
            ],
            "stateMutability": "view",
            "type": "function"
        },
        {
            "inputs": [
                {
                    "internalType": "uint256",
                    "name": "courseId",
                    "type": "uint256"
                }
            ],
            "name": "incrementEnrollment",
            "outputs": [],
            "stateMutability": "nonpayable",
            "type": "function"
        },
        {
            "inputs": [
                {
                    "internalType": "string",
                    "name": "name",
                    "type": "string"
                },
                {
                    "internalType": "string",
                    "name": "symbol",
                    "type": "string"
                },
                {
                    "internalType": "address",
                    "name": "owner",
                    "type": "address"
                }
            ],
            "name": "initialize",
            "outputs": [],
            "stateMutability": "nonpayable",
            "type": "function"
        },
        {
            "inputs": [
                {
                    "internalType": "address",
                    "name": "owner",
                    "type": "address"
                },
                {
                    "internalType": "address",
                    "name": "operator",
                    "type": "address"
                }
            ],
            "name": "isApprovedForAll",
            "outputs": [
                {
                    "internalType": "bool",
                    "name": "",
                    "type": "bool"
                }
            ],
            "stateMutability": "view",
            "type": "function"
        },
        {
            "inputs": [
                {
                    "internalType": "uint256",
                    "name": "",
                    "type": "uint256"
                },
                {
                    "internalType": "address",
                    "name": "",
                    "type": "address"
                }
            ],
            "name": "isEnrolled",
            "outputs": [
                {
                    "internalType": "bool",
                    "name": "",
                    "type": "bool"
                }
            ],
            "stateMutability": "view",
            "type": "function"
        },
        {
            "inputs": [
                {
                    "internalType": "address",
                    "name": "account",
                    "type": "address"
                }
            ],
            "name": "isLecturer",
            "outputs": [
                {
                    "internalType": "bool",
                    "name": "",
                    "type": "bool"
                }
            ],
            "stateMutability": "view",
            "type": "function"
        },
        {
            "inputs": [
                {
                    "internalType": "address",
                    "name": "",
                    "type": "address"
                }
            ],
            "name": "isStudent",
            "outputs": [
                {
                    "internalType": "bool",
                    "name": "",
                    "type": "bool"
                }
            ],
            "stateMutability": "view",
            "type": "function"
        },
        {
            "inputs": [
                {
                    "internalType": "uint256",
                    "name": "courseId",
                    "type": "uint256"
                },
                {
                    "internalType": "address",
                    "name": "student",
                    "type": "address"
                }
            ],
            "name": "isStudentEnrolled",
            "outputs": [
                {
                    "internalType": "bool",
                    "name": "",
                    "type": "bool"
                }
            ],
            "stateMutability": "view",
            "type": "function"
        },
        {
            "inputs": [
                {
                    "internalType": "uint256",
                    "name": "",
                    "type": "uint256"
                }
            ],
            "name": "lecturerList",
            "outputs": [
                {
                    "internalType": "address",
                    "name": "",
                    "type": "address"
                }
            ],
            "stateMutability": "view",
            "type": "function"
        },
        {
            "inputs": [
                {
                    "internalType": "address",
                    "name": "",
                    "type": "address"
                }
            ],
            "name": "lecturers",
            "outputs": [
                {
                    "internalType": "uint256",
                    "name": "",
                    "type": "uint256"
                }
            ],
            "stateMutability": "view",
            "type": "function"
        },
        {
            "inputs": [
                {
                    "internalType": "uint256",
                    "name": "sessionId",
                    "type": "uint256"
                },
                {
                    "internalType": "address",
                    "name": "student",
                    "type": "address"
                }
            ],
            "name": "markAttendance",
            "outputs": [],
            "stateMutability": "nonpayable",
            "type": "function"
        },
        {
            "inputs": [],
            "name": "name",
            "outputs": [
                {
                    "internalType": "string",
                    "name": "",
                    "type": "string"
                }
            ],
            "stateMutability": "view",
            "type": "function"
        },
        {
            "inputs": [],
            "name": "owner",
            "outputs": [
                {
                    "internalType": "address",
                    "name": "",
                    "type": "address"
                }
            ],
            "stateMutability": "view",
            "type": "function"
        },
        {
            "inputs": [
                {
                    "internalType": "uint256",
                    "name": "tokenId",
                    "type": "uint256"
                }
            ],
            "name": "ownerOf",
            "outputs": [
                {
                    "internalType": "address",
                    "name": "",
                    "type": "address"
                }
            ],
            "stateMutability": "view",
            "type": "function"
        },
        {
            "inputs": [],
            "name": "proxiableUUID",
            "outputs": [
                {
                    "internalType": "bytes32",
                    "name": "",
                    "type": "bytes32"
                }
            ],
            "stateMutability": "view",
            "type": "function"
        },
        {
            "inputs": [
                {
                    "internalType": "uint256",
                    "name": "courseId",
                    "type": "uint256"
                },
                {
                    "internalType": "address",
                    "name": "student",
                    "type": "address"
                }
            ],
            "name": "registerForCourse",
            "outputs": [],
            "stateMutability": "payable",
            "type": "function"
        },
        {
            "inputs": [],
            "name": "renounceOwnership",
            "outputs": [],
            "stateMutability": "nonpayable",
            "type": "function"
        },
        {
            "inputs": [
                {
                    "internalType": "address",
                    "name": "from",
                    "type": "address"
                },
                {
                    "internalType": "address",
                    "name": "to",
                    "type": "address"
                },
                {
                    "internalType": "uint256",
                    "name": "tokenId",
                    "type": "uint256"
                }
            ],
            "name": "safeTransferFrom",
            "outputs": [],
            "stateMutability": "nonpayable",
            "type": "function"
        },
        {
            "inputs": [
                {
                    "internalType": "address",
                    "name": "from",
                    "type": "address"
                },
                {
                    "internalType": "address",
                    "name": "to",
                    "type": "address"
                },
                {
                    "internalType": "uint256",
                    "name": "tokenId",
                    "type": "uint256"
                },
                {
                    "internalType": "bytes",
                    "name": "data",
                    "type": "bytes"
                }
            ],
            "name": "safeTransferFrom",
            "outputs": [],
            "stateMutability": "nonpayable",
            "type": "function"
        },
        {
            "inputs": [
                {
                    "internalType": "address",
                    "name": "operator",
                    "type": "address"
                },
                {
                    "internalType": "bool",
                    "name": "approved",
                    "type": "bool"
                }
            ],
            "name": "setApprovalForAll",
            "outputs": [],
            "stateMutability": "nonpayable",
            "type": "function"
        },
        {
            "inputs": [
                {
                    "internalType": "address",
                    "name": "",
                    "type": "address"
                },
                {
                    "internalType": "uint256",
                    "name": "",
                    "type": "uint256"
                }
            ],
            "name": "studentCourses",
            "outputs": [
                {
                    "internalType": "uint256",
                    "name": "",
                    "type": "uint256"
                }
            ],
            "stateMutability": "view",
            "type": "function"
        },
        {
            "inputs": [
                {
                    "internalType": "address",
                    "name": "",
                    "type": "address"
                },
                {
                    "internalType": "uint256",
                    "name": "",
                    "type": "uint256"
                }
            ],
            "name": "studentSessionAttendance",
            "outputs": [
                {
                    "internalType": "uint256",
                    "name": "",
                    "type": "uint256"
                }
            ],
            "stateMutability": "view",
            "type": "function"
        },
        {
            "inputs": [
                {
                    "internalType": "address",
                    "name": "",
                    "type": "address"
                }
            ],
            "name": "studentTokens",
            "outputs": [
                {
                    "internalType": "uint256",
                    "name": "",
                    "type": "uint256"
                }
            ],
            "stateMutability": "view",
            "type": "function"
        },
        {
            "inputs": [
                {
                    "internalType": "uint256",
                    "name": "",
                    "type": "uint256"
                }
            ],
            "name": "students",
            "outputs": [
                {
                    "internalType": "address",
                    "name": "",
                    "type": "address"
                }
            ],
            "stateMutability": "view",
            "type": "function"
        },
        {
            "inputs": [
                {
                    "internalType": "bytes4",
                    "name": "interfaceId",
                    "type": "bytes4"
                }
            ],
            "name": "supportsInterface",
            "outputs": [
                {
                    "internalType": "bool",
                    "name": "",
                    "type": "bool"
                }
            ],
            "stateMutability": "view",
            "type": "function"
        },
        {
            "inputs": [],
            "name": "symbol",
            "outputs": [
                {
                    "internalType": "string",
                    "name": "",
                    "type": "string"
                }
            ],
            "stateMutability": "view",
            "type": "function"
        },
        {
            "inputs": [
                {
                    "internalType": "uint256",
                    "name": "tokenId",
                    "type": "uint256"
                }
            ],
            "name": "tokenURI",
            "outputs": [
                {
                    "internalType": "string",
                    "name": "",
                    "type": "string"
                }
            ],
            "stateMutability": "view",
            "type": "function"
        },
        {
            "inputs": [
                {
                    "internalType": "address",
                    "name": "from",
                    "type": "address"
                },
                {
                    "internalType": "address",
                    "name": "to",
                    "type": "address"
                },
                {
                    "internalType": "uint256",
                    "name": "tokenId",
                    "type": "uint256"
                }
            ],
            "name": "transferFrom",
            "outputs": [],
            "stateMutability": "nonpayable",
            "type": "function"
        },
        {
            "inputs": [
                {
                    "internalType": "address",
                    "name": "newOwner",
                    "type": "address"
                }
            ],
            "name": "transferOwnership",
            "outputs": [],
            "stateMutability": "nonpayable",
            "type": "function"
        },
        {
            "inputs": [
                {
                    "internalType": "uint256",
                    "name": "courseId",
                    "type": "uint256"
                },
                {
                    "internalType": "string",
                    "name": "newContentUri",
                    "type": "string"
                }
            ],
            "name": "updateCourseContent",
            "outputs": [],
            "stateMutability": "nonpayable",
            "type": "function"
        },
        {
            "inputs": [
                {
                    "internalType": "uint256",
                    "name": "courseId",
                    "type": "uint256"
                },
                {
                    "internalType": "string",
                    "name": "newMetadataUri",
                    "type": "string"
                }
            ],
            "name": "updateCourseMetadata",
            "outputs": [],
            "stateMutability": "nonpayable",
            "type": "function"
        },
        {
            "inputs": [
                {
                    "internalType": "uint256",
                    "name": "courseId",
                    "type": "uint256"
                },
                {
                    "internalType": "uint256",
                    "name": "newRating",
                    "type": "uint256"
                }
            ],
            "name": "updateCourseRating",
            "outputs": [],
            "stateMutability": "nonpayable",
            "type": "function"
        },
        {
            "inputs": [
                {
                    "internalType": "address",
                    "name": "newImplementation",
                    "type": "address"
                }
            ],
            "name": "upgradeTo",
            "outputs": [],
            "stateMutability": "nonpayable",
            "type": "function"
        },
        {
            "inputs": [
                {
                    "internalType": "address",
                    "name": "newImplementation",
                    "type": "address"
                },
                {
                    "internalType": "bytes",
                    "name": "data",
                    "type": "bytes"
                }
            ],
            "name": "upgradeToAndCall",
            "outputs": [],
            "stateMutability": "payable",
            "type": "function"
        },
        {
            "inputs": [],
            "name": "version",
            "outputs": [
                {
                    "internalType": "string",
                    "name": "",
                    "type": "string"
                }
            ],
            "stateMutability": "pure",
            "type": "function"
        },
        {
            "inputs": [],
            "name": "withdraw",
            "outputs": [],
            "stateMutability": "nonpayable",
            "type": "function"
        }
    ],
    "bytecode": "0x60a06040523060805234801561001457600080fd5b50608051614b1b61004c600039600081816117f70152818161183701528181611978015281816119b80152611a470152614b1b6000f3fe6080604052600436106102ff5760003560e01c8063660551591161019057806395d89b41116100dc578063c8deced611610095578063e985e9c51161006f578063e985e9c514610a1d578063f2fde38b14610a66578063fc92506014610a86578063fd95cc5114610ab457600080fd5b8063c8deced61461097b578063c9768315146109b4578063d40761e4146109f057600080fd5b806395d89b41146108af57806396f979d2146108c4578063a22cb465146108fb578063b60da9b01461091b578063b88d4fde1461093b578063c87b56dd1461095b57600080fd5b80637d925292116101495780638a954a03116101235780638a954a03146107cf5780638c572bbe146108165780638da5cb5b1461087e5780638f58c3b21461089c57600080fd5b80637d9252921461075e57806382f7d3921461077e5780638a4b81ab146107af57600080fd5b806366055159146106995780636aee02d3146106b05780636e274a34146106d057806370a08231146106f0578063715018a6146107105780637bf1f66f1461072557600080fd5b806323b872dd1161024f57806348147ea41161020857806354fd4d50116101e257806354fd4d501461060b57806360dd60e31461063957806363152708146106595780636352211e1461067957600080fd5b806348147ea4146105aa5780634f1ef286146105e357806352d1902d146105f657600080fd5b806323b872dd146104e75780632af47f461461050757806334a1e9de146105355780633659cfe6146105555780633ccfd60b1461057557806342842e0e1461058a57600080fd5b8063095ea7b3116102bc57806310f267261161029657806310f2672614610470578063158dec4f1461049057806315f6febd146104b25780631ae4815e146104c757600080fd5b8063095ea7b3146103f55780630a5776bb146104155780630b91e28d1461044357600080fd5b806301ffc9a714610304578063068352831461033957806306ead22e1461035b57806306fdde0314610393578063077f224a146103b5578063081812fc146103d5575b600080fd5b34801561031057600080fd5b5061032461031f366004613d3e565b610ad4565b60405190151581526020015b60405180910390f35b34801561034557600080fd5b50610359610354366004613e12565b610ae5565b005b34801561036757600080fd5b5061037b610376366004613e59565b610bf2565b6040516001600160a01b039091168152602001610330565b34801561039f57600080fd5b506103a8610c1d565b6040516103309190613ec2565b3480156103c157600080fd5b506103596103d0366004613eec565b610caf565b3480156103e157600080fd5b5061037b6103f0366004613e59565b610e24565b34801561040157600080fd5b50610359610410366004613f60565b610e4b565b34801561042157600080fd5b50610435610430366004613e59565b610f60565b604051908152602001610330565b34801561044f57600080fd5b5061046361045e366004613e59565b61105e565b6040516103309190613fe4565b34801561047c57600080fd5b5061035961048b366004613e12565b61151d565b34801561049c57600080fd5b506104a5611616565b60405161033091906140ed565b3480156104be57600080fd5b506104a5611678565b3480156104d357600080fd5b506103596104e236600461413a565b6116d9565b3480156104f357600080fd5b50610359610502366004614166565b61174d565b34801561051357600080fd5b506104356105223660046141a2565b6101646020526000908152604090205481565b34801561054157600080fd5b50610435610550366004614250565b61177e565b34801561056157600080fd5b506103596105703660046141a2565b6117ed565b34801561058157600080fd5b506103596118cc565b34801561059657600080fd5b506103596105a5366004614166565b611953565b3480156105b657600080fd5b506104356105c5366004614335565b80516020818301810180516101618252928201919093012091525481565b6103596105f136600461436a565b61196e565b34801561060257600080fd5b50610435611a3a565b34801561061757600080fd5b506040805180820190915260058152640312e302e360dc1b60208201526103a8565b34801561064557600080fd5b506104a5610654366004613e59565b611aed565b34801561066557600080fd5b50610359610674366004613f60565b611b5a565b34801561068557600080fd5b5061037b610694366004613e59565b611c60565b3480156106a557600080fd5b5061043561015f5481565b3480156106bc57600080fd5b506103596106cb366004613e59565b611cc0565b3480156106dc57600080fd5b5061037b6106eb3660046143a2565b611d15565b3480156106fc57600080fd5b5061043561070b3660046141a2565b611d4e565b34801561071c57600080fd5b50610359611dd4565b34801561073157600080fd5b506103246107403660046141a2565b6001600160a01b031660009081526101626020526040902054151590565b34801561076a57600080fd5b5061037b610779366004613e59565b611de8565b34801561078a57600080fd5b506103246107993660046141a2565b6101656020526000908152604090205460ff1681565b3480156107bb57600080fd5b506103596107ca366004613f60565b611df9565b3480156107db57600080fd5b506103246107ea36600461413a565b6000918252610169602090815260408084206001600160a01b0393909316845291905290205460ff1690565b34801561082257600080fd5b5061085c610831366004613e59565b61016a6020526000908152604090208054600182015460028301546003909301549192909160ff1684565b6040805194855260208501939093529183015215156060820152608001610330565b34801561088a57600080fd5b506097546001600160a01b031661037b565b6103596108aa36600461413a565b611eee565b3480156108bb57600080fd5b506103a861249a565b3480156108d057600080fd5b506108e46108df366004613e59565b6124a9565b6040516103309b9a999897969594939291906143c4565b34801561090757600080fd5b5061035961091636600461446c565b6127b4565b34801561092757600080fd5b506103596109363660046143a2565b6127bf565b34801561094757600080fd5b506103596109563660046144a8565b612855565b34801561096757600080fd5b506103a8610976366004613e59565b612887565b34801561098757600080fd5b50610435610996366004613f60565b61016b60209081526000928352604080842090915290825290205481565b3480156109c057600080fd5b506103246109cf36600461413a565b61016960209081526000928352604080842090915290825290205460ff1681565b3480156109fc57600080fd5b50610a10610a0b3660046141a2565b6128fb565b6040516103309190614510565b348015610a2957600080fd5b50610324610a38366004614548565b6001600160a01b039182166000908152606a6020908152604080832093909416825291909152205460ff1690565b348015610a7257600080fd5b50610359610a813660046141a2565b612967565b348015610a9257600080fd5b50610435610aa13660046141a2565b6101626020526000908152604090205481565b348015610ac057600080fd5b50610435610acf366004613f60565b6129dd565b6000610adf82612a0f565b92915050565b600082118015610af8575061015f548211155b610b1d5760405162461bcd60e51b8152600401610b1490614572565b60405180910390fd5b600082815261016060205260409020600901546001600160a01b03163314610b995760405162461bcd60e51b815260206004820152602960248201527f4f6e6c7920636f7572736520696e7374727563746f722063616e207570646174604482015268194818dbdb9d195b9d60ba1b6064820152608401610b14565b600082815261016060205260409020600b01610bb58282614627565b50817fff17974657ab76ee702e86a2e7d1704c9155c8728bc10e78d6ff4126f1041c0082604051610be69190613ec2565b60405180910390a25050565b6101668181548110610c0357600080fd5b6000918252602090912001546001600160a01b0316905081565b606060658054610c2c9061459d565b80601f0160208091040260200160405190810160405280929190818152602001828054610c589061459d565b8015610ca55780601f10610c7a57610100808354040283529160200191610ca5565b820191906000526020600020905b815481529060010190602001808311610c8857829003601f168201915b5050505050905090565b600054610100900460ff1615808015610ccf5750600054600160ff909116105b80610ce95750303b158015610ce9575060005460ff166001145b610d4c5760405162461bcd60e51b815260206004820152602e60248201527f496e697469616c697a61626c653a20636f6e747261637420697320616c72656160448201526d191e481a5b9a5d1a585b1a5e995960921b6064820152608401610b14565b6000805460ff191660011790558015610d6f576000805461ff0019166101001790555b610d798484612a5f565b610d81612a90565b610d89612abf565b610d91612ae6565b610d99612abf565b610da1612abf565b610da9612abf565b610db1612abf565b610db9612b15565b600061016d556001600160a01b0382163314610dd857610dd882612b44565b8015610e1e576000805461ff0019169055604051600181527f7f26b83ff96e1f2b6a682f133852f6798a09c465da95921460cefb38474024989060200160405180910390a15b50505050565b6000610e2f82612b96565b506000908152606960205260409020546001600160a01b031690565b6000610e5682611c60565b9050806001600160a01b0316836001600160a01b031603610ec35760405162461bcd60e51b815260206004820152602160248201527f4552433732313a20617070726f76616c20746f2063757272656e74206f776e656044820152603960f91b6064820152608401610b14565b336001600160a01b0382161480610edf5750610edf8133610a38565b610f515760405162461bcd60e51b815260206004820152603d60248201527f4552433732313a20617070726f76652063616c6c6572206973206e6f7420746f60448201527f6b656e206f776e6572206f7220617070726f76656420666f7220616c6c0000006064820152608401610b14565b610f5b8383612bf5565b505050565b3360009081526101626020526040812054610f8d5760405162461bcd60e51b8152600401610b14906146e7565b600082118015610fa0575061015f548211155b610fbc5760405162461bcd60e51b8152600401610b1490614572565b600082815261016060205260409020600901546001600160a01b031633146110265760405162461bcd60e51b815260206004820152601960248201527f4e6f742074686520636f7572736520696e7374727563746f72000000000000006044820152606401610b14565b600061103183612c63565b61016d8054919250600061104483614742565b91905055506110563361016d54612d11565b90505b919050565b6110cb60405180610180016040528060008152602001606081526020016060815260200160008152602001600081526020016060815260200160608152602001600081526020016000815260200160006001600160a01b0316815260200160608152602001606081525090565b6000821180156110de575061015f548211155b6110fa5760405162461bcd60e51b8152600401610b1490614572565b610160600083815260200190815260200160002060405180610180016040529081600082015481526020016001820180546111349061459d565b80601f01602080910402602001604051908101604052809291908181526020018280546111609061459d565b80156111ad5780601f10611182576101008083540402835291602001916111ad565b820191906000526020600020905b81548152906001019060200180831161119057829003601f168201915b505050505081526020016002820180546111c69061459d565b80601f01602080910402602001604051908101604052809291908181526020018280546111f29061459d565b801561123f5780601f106112145761010080835404028352916020019161123f565b820191906000526020600020905b81548152906001019060200180831161122257829003601f168201915b50505050508152602001600382015481526020016004820154815260200160058201805480602002602001604051908101604052809291908181526020016000905b8282101561132d5783829060005260206000200180546112a09061459d565b80601f01602080910402602001604051908101604052809291908181526020018280546112cc9061459d565b80156113195780601f106112ee57610100808354040283529160200191611319565b820191906000526020600020905b8154815290600101906020018083116112fc57829003601f168201915b505050505081526020019060010190611281565b5050505081526020016006820180546113459061459d565b80601f01602080910402602001604051908101604052809291908181526020018280546113719061459d565b80156113be5780601f10611393576101008083540402835291602001916113be565b820191906000526020600020905b8154815290600101906020018083116113a157829003601f168201915b5050509183525050600782015460208201526008820154604082015260098201546001600160a01b03166060820152600a820180546080909201916114029061459d565b80601f016020809104026020016040519081016040528092919081815260200182805461142e9061459d565b801561147b5780601f106114505761010080835404028352916020019161147b565b820191906000526020600020905b81548152906001019060200180831161145e57829003601f168201915b50505050508152602001600b820180546114949061459d565b80601f01602080910402602001604051908101604052809291908181526020018280546114c09061459d565b801561150d5780601f106114e25761010080835404028352916020019161150d565b820191906000526020600020905b8154815290600101906020018083116114f057829003601f168201915b5050505050815250509050919050565b600082118015611530575061015f548211155b61154c5760405162461bcd60e51b8152600401610b1490614572565b600082815261016060205260409020600901546001600160a01b031633146115c95760405162461bcd60e51b815260206004820152602a60248201527f4f6e6c7920636f7572736520696e7374727563746f722063616e20757064617460448201526965206d6574616461746160b01b6064820152608401610b14565b600082815261016060205260409020600a016115e58282614627565b50817f47ed34406a736ccb7fe3e05f167e8de4143bd4f80ef2b29219bcb76a62fd2eb482604051610be69190613ec2565b6060610163805480602002602001604051908101604052809291908181526020018280548015610ca557602002820191906000526020600020905b81546001600160a01b03168152600190910190602001808311611651575050505050905090565b6060610166805480602002602001604051908101604052809291908181526020018280548015610ca5576020028201919060005260206000209081546001600160a01b03168152600190910190602001808311611651575050505050905090565b33600090815261016260205260409020546117065760405162461bcd60e51b8152600401610b14906146e7565b6001600160a01b0381166000908152610165602052604090205460ff1661173f5760405162461bcd60e51b8152600401610b149061475b565b6117498282612e9c565b5050565b6117573382612f42565b6117735760405162461bcd60e51b8152600401610b149061479e565b610f5b838383612fc1565b33600090815261016260205260408120546117ab5760405162461bcd60e51b8152600401610b14906146e7565b60006117bc89898989898989613125565b61016d805491925060006117cf83614742565b91905055506117e13361016d54612d11565b98975050505050505050565b6001600160a01b037f00000000000000000000000000000000000000000000000000000000000000001630036118355760405162461bcd60e51b8152600401610b14906147eb565b7f00000000000000000000000000000000000000000000000000000000000000006001600160a01b031661187e600080516020614a9f833981519152546001600160a01b031690565b6001600160a01b0316146118a45760405162461bcd60e51b8152600401610b1490614837565b6118ad81613309565b604080516000808252602082019092526118c991839190613311565b50565b6118d461347c565b47806119195760405162461bcd60e51b81526020600482015260146024820152734e6f2066756e647320746f20776974686472617760601b6044820152606401610b14565b6097546040516001600160a01b039091169082156108fc029083906000818181858888f19350505050158015611749573d6000803e3d6000fd5b610f5b83838360405180602001604052806000815250612855565b6001600160a01b037f00000000000000000000000000000000000000000000000000000000000000001630036119b65760405162461bcd60e51b8152600401610b14906147eb565b7f00000000000000000000000000000000000000000000000000000000000000006001600160a01b03166119ff600080516020614a9f833981519152546001600160a01b031690565b6001600160a01b031614611a255760405162461bcd60e51b8152600401610b1490614837565b611a2e82613309565b61174982826001613311565b6000306001600160a01b037f00000000000000000000000000000000000000000000000000000000000000001614611ada5760405162461bcd60e51b815260206004820152603860248201527f555550535570677261646561626c653a206d757374206e6f742062652063616c60448201527f6c6564207468726f7567682064656c656761746563616c6c00000000000000006064820152608401610b14565b50600080516020614a9f83398151915290565b60008181526101686020908152604091829020805483518184028101840190945280845260609392830182828015611b4e57602002820191906000526020600020905b81546001600160a01b03168152600190910190602001808311611b30575b50505050509050919050565b6001600160a01b0382166000908152610165602052604090205460ff1615611bbd5760405162461bcd60e51b815260206004820152601660248201527553747564656e7420616c72656164792065786973747360501b6044820152606401610b14565b6001600160a01b0382166000818152610164602090815260408083208590556101658252808320805460ff19166001908117909155610166805491820181559093527fa5a4c57b7184ec73d55be4993773cb4eef681bc86a28d0285cd66efb50676a9790920180546001600160a01b0319168417905590518381527f481f70abdaaa7e4e53bed4ead7bded11ecbcdaa9f01fe0b3f850cb01e071bf919101610be6565b6000818152606760205260408120546001600160a01b0316806110565760405162461bcd60e51b8152602060048201526018602482015277115490cdcc8c4e881a5b9d985b1a59081d1bdad95b88125160421b6044820152606401610b14565b600081118015611cd3575061015f548111155b611cef5760405162461bcd60e51b8152600401610b1490614572565b600081815261016060205260408120600801805491611d0d83614742565b919050555050565b6101686020528160005260406000208181548110611d3257600080fd5b6000918252602090912001546001600160a01b03169150829050565b60006001600160a01b038216611db85760405162461bcd60e51b815260206004820152602960248201527f4552433732313a2061646472657373207a65726f206973206e6f7420612076616044820152683634b21037bbb732b960b91b6064820152608401610b14565b506001600160a01b031660009081526068602052604090205490565b611ddc61347c565b611de66000612b44565b565b6101638181548110610c0357600080fd5b6001600160a01b0382166000908152610162602052604090205415611e605760405162461bcd60e51b815260206004820152601760248201527f4c6563747572657220616c7265616479206578697374730000000000000000006044820152606401610b14565b6001600160a01b03821660008181526101626020526040808220849055610163805460018101825592527fb0f3e90519fd0de3100ca1a24094c0a25e5cbf467d74a2603172b5a5204555b390910180546001600160a01b03191683179055517ff41b6f34bb9c4ca3f7fd3415e13442244ab51655583ce1a228b284abca8c33dc90610be69084815260200190565b611ef66134d6565b600082118015611f09575061015f548211155b611f255760405162461bcd60e51b8152600401610b1490614572565b6001600160a01b0381166000908152610165602052604090205460ff16611f5e5760405162461bcd60e51b8152600401610b149061475b565b6000828152610169602090815260408083206001600160a01b038516845290915290205460ff1615611fa25760405162461bcd60e51b8152600401610b1490614883565b600061016060008481526020019081526020016000206040518061018001604052908160008201548152602001600182018054611fde9061459d565b80601f016020809104026020016040519081016040528092919081815260200182805461200a9061459d565b80156120575780601f1061202c57610100808354040283529160200191612057565b820191906000526020600020905b81548152906001019060200180831161203a57829003601f168201915b505050505081526020016002820180546120709061459d565b80601f016020809104026020016040519081016040528092919081815260200182805461209c9061459d565b80156120e95780601f106120be576101008083540402835291602001916120e9565b820191906000526020600020905b8154815290600101906020018083116120cc57829003601f168201915b50505050508152602001600382015481526020016004820154815260200160058201805480602002602001604051908101604052809291908181526020016000905b828210156121d757838290600052602060002001805461214a9061459d565b80601f01602080910402602001604051908101604052809291908181526020018280546121769061459d565b80156121c35780601f10612198576101008083540402835291602001916121c3565b820191906000526020600020905b8154815290600101906020018083116121a657829003601f168201915b50505050508152602001906001019061212b565b5050505081526020016006820180546121ef9061459d565b80601f016020809104026020016040519081016040528092919081815260200182805461221b9061459d565b80156122685780601f1061223d57610100808354040283529160200191612268565b820191906000526020600020905b81548152906001019060200180831161224b57829003601f168201915b5050509183525050600782015460208201526008820154604082015260098201546001600160a01b03166060820152600a820180546080909201916122ac9061459d565b80601f01602080910402602001604051908101604052809291908181526020018280546122d89061459d565b80156123255780601f106122fa57610100808354040283529160200191612325565b820191906000526020600020905b81548152906001019060200180831161230857829003601f168201915b50505050508152602001600b8201805461233e9061459d565b80601f016020809104026020016040519081016040528092919081815260200182805461236a9061459d565b80156123b75780601f1061238c576101008083540402835291602001916123b7565b820191906000526020600020905b81548152906001019060200180831161239a57829003601f168201915b5050505050815250509050806080015134101561240d5760405162461bcd60e51b8152602060048201526014602482015273125b9cdd59999a58da595b9d081c185e5b595b9d60621b6044820152606401610b14565b6124178383613531565b61242083611cc0565b61016d805490600061243183614742565b91905055506124438261016d54612d11565b806080015134111561248e57608081015133906108fc9061246490346148ca565b6040518115909202916000818181858888f1935050505015801561248c573d6000803e3d6000fd5b505b50611749600161012d55565b606060668054610c2c9061459d565b61016060205260009081526040902080546001820180549192916124cc9061459d565b80601f01602080910402602001604051908101604052809291908181526020018280546124f89061459d565b80156125455780601f1061251a57610100808354040283529160200191612545565b820191906000526020600020905b81548152906001019060200180831161252857829003601f168201915b50505050509080600201805461255a9061459d565b80601f01602080910402602001604051908101604052809291908181526020018280546125869061459d565b80156125d35780601f106125a8576101008083540402835291602001916125d3565b820191906000526020600020905b8154815290600101906020018083116125b657829003601f168201915b5050505050908060030154908060040154908060060180546125f49061459d565b80601f01602080910402602001604051908101604052809291908181526020018280546126209061459d565b801561266d5780601f106126425761010080835404028352916020019161266d565b820191906000526020600020905b81548152906001019060200180831161265057829003601f168201915b505050600784015460088501546009860154600a87018054969793969295506001600160a01b039091169350906126a39061459d565b80601f01602080910402602001604051908101604052809291908181526020018280546126cf9061459d565b801561271c5780601f106126f15761010080835404028352916020019161271c565b820191906000526020600020905b8154815290600101906020018083116126ff57829003601f168201915b50505050509080600b0180546127319061459d565b80601f016020809104026020016040519081016040528092919081815260200182805461275d9061459d565b80156127aa5780601f1061277f576101008083540402835291602001916127aa565b820191906000526020600020905b81548152906001019060200180831161278d57829003601f168201915b505050505090508b565b611749338383613630565b6000821180156127d2575061015f548211155b6127ee5760405162461bcd60e51b8152600401610b1490614572565b603281111561283f5760405162461bcd60e51b815260206004820152601f60248201527f526174696e67206d757374206265206265747765656e203020616e64203530006044820152606401610b14565b6000918252610160602052604090912060070155565b61285f3383612f42565b61287b5760405162461bcd60e51b8152600401610b149061479e565b610e1e848484846136fe565b606061289282612b96565b60006128a960408051602081019091526000815290565b905060008151116128c957604051806020016040528060008152506128f4565b806128d384613731565b6040516020016128e49291906148dd565b6040516020818303038152906040525b9392505050565b6001600160a01b03811660009081526101676020908152604091829020805483518184028101840190945280845260609392830182828015611b4e57602002820191906000526020600020905b8154815260200190600101908083116129485750505050509050919050565b61296f61347c565b6001600160a01b0381166129d45760405162461bcd60e51b815260206004820152602660248201527f4f776e61626c653a206e6577206f776e657220697320746865207a65726f206160448201526564647265737360d01b6064820152608401610b14565b6118c981612b44565b61016760205281600052604060002081815481106129fa57600080fd5b90600052602060002001600091509150505481565b60006001600160e01b031982166380ac58cd60e01b1480612a4057506001600160e01b03198216635b5e139f60e01b145b80610adf57506301ffc9a760e01b6001600160e01b0319831614610adf565b600054610100900460ff16612a865760405162461bcd60e51b8152600401610b149061490c565b61174982826137c4565b600054610100900460ff16612ab75760405162461bcd60e51b8152600401610b149061490c565b611de6613804565b600054610100900460ff16611de65760405162461bcd60e51b8152600401610b149061490c565b600054610100900460ff16612b0d5760405162461bcd60e51b8152600401610b149061490c565b611de6613834565b600054610100900460ff16612b3c5760405162461bcd60e51b8152600401610b149061490c565b600061016c55565b609780546001600160a01b038381166001600160a01b0319831681179093556040519116919082907f8be0079c531659141344cd1fd0a4f28419497f9722a3daafe3b4186f6b6457e090600090a35050565b6000818152606760205260409020546001600160a01b03166118c95760405162461bcd60e51b8152602060048201526018602482015277115490cdcc8c4e881a5b9d985b1a59081d1bdad95b88125160421b6044820152606401610b14565b600081815260696020526040902080546001600160a01b0319166001600160a01b0384169081179091558190612c2a82611c60565b6001600160a01b03167f8c5be1e5ebec7d5bd14f71427d1e84f3dd0314c0f7b2291e5b200ac8c7c3b92560405160405180910390a45050565b61016c805460009182612c7583614742565b909155505061016c546040805160808101825282815260208082018681524283850181815260006060860181815288825261016a865290879020955186559251600186015551600285015590516003909301805460ff1916931515939093179092559151908152849183917f9d810e0082f8a92772407ea94a85bc457d358804c697a63a434a5043bf81be7f910160405180910390a392915050565b6001600160a01b038216612d675760405162461bcd60e51b815260206004820181905260248201527f4552433732313a206d696e7420746f20746865207a65726f20616464726573736044820152606401610b14565b6000818152606760205260409020546001600160a01b031615612dcc5760405162461bcd60e51b815260206004820152601c60248201527f4552433732313a20746f6b656e20616c7265616479206d696e746564000000006044820152606401610b14565b6000818152606760205260409020546001600160a01b031615612e315760405162461bcd60e51b815260206004820152601c60248201527f4552433732313a20746f6b656e20616c7265616479206d696e746564000000006044820152606401610b14565b6001600160a01b038216600081815260686020908152604080832080546001019055848352606790915280822080546001600160a01b0319168417905551839291907fddf252ad1be2c89b69c2b068fc378daa952ba7f163c4a11628f55a4df523b3ef908290a45050565b600082815261016a6020526040902060010154612eef5760405162461bcd60e51b815260206004820152601160248201527014d95cdcda5bdb881b9bdd08199bdd5b99607a1b6044820152606401610b14565b6001600160a01b038116600081815261016b60209081526040808320868452909152808220600190555184917f9e5d24579183fa37d9de3c53c170caae77e5ea5a3ed2c66fdd356f590ff779f491a35050565b600080612f4e83611c60565b9050806001600160a01b0316846001600160a01b03161480612f9557506001600160a01b038082166000908152606a602090815260408083209388168352929052205460ff165b80612fb95750836001600160a01b0316612fae84610e24565b6001600160a01b0316145b949350505050565b826001600160a01b0316612fd482611c60565b6001600160a01b031614612ffa5760405162461bcd60e51b8152600401610b1490614957565b6001600160a01b03821661305c5760405162461bcd60e51b8152602060048201526024808201527f4552433732313a207472616e7366657220746f20746865207a65726f206164646044820152637265737360e01b6064820152608401610b14565b826001600160a01b031661306f82611c60565b6001600160a01b0316146130955760405162461bcd60e51b8152600401610b1490614957565b600081815260696020908152604080832080546001600160a01b03199081169091556001600160a01b0387811680865260688552838620805460001901905590871680865283862080546001019055868652606790945282852080549092168417909155905184937fddf252ad1be2c89b69c2b068fc378daa952ba7f163c4a11628f55a4df523b3ef91a4505050565b61015f80546000918261313783614742565b909155505061015f54604080516101808101825282815260208082018c81528284018b9052606083018c9052608083018a905260a0830189905260c08301889052600060e084018190526101008401819052336101208501526101408401889052845180840186528181526101608086019190915286825290925292902081518155915190919060018201906131cd9082614627565b50604082015160028201906131e29082614627565b50606082015160038201556080820151600482015560a08201518051613212916005840191602090910190613c6b565b5060c082015160068201906132279082614627565b5060e0820151600782015561010082015160088201556101208201516009820180546001600160a01b0319166001600160a01b03909216919091179055610140820151600a8201906132799082614627565b50610160820151600b82019061328f9082614627565b50905050806101618a6040516132a5919061499c565b908152602001604051809103902081905550336001600160a01b0316817fc3f596bfc7ef9eee7af478cb34ec2e69df92434440c3ef1abbc3c8bb89a133ab8b89876040516132f5939291906149b8565b60405180910390a398975050505050505050565b6118c961347c565b7f4910fdfa16fed3260ed0e7147f7cc6da11a60208b5b9406d12a635614ffd91435460ff161561334457610f5b8361385b565b826001600160a01b03166352d1902d6040518163ffffffff1660e01b8152600401602060405180830381865afa92505050801561339e575060408051601f3d908101601f1916820190925261339b918101906149e3565b60015b6134015760405162461bcd60e51b815260206004820152602e60248201527f45524331393637557067726164653a206e657720696d706c656d656e7461746960448201526d6f6e206973206e6f74205555505360901b6064820152608401610b14565b600080516020614a9f83398151915281146134705760405162461bcd60e51b815260206004820152602960248201527f45524331393637557067726164653a20756e737570706f727465642070726f786044820152681a58589b195555525160ba1b6064820152608401610b14565b50610f5b8383836138f7565b6097546001600160a01b03163314611de65760405162461bcd60e51b815260206004820181905260248201527f4f776e61626c653a2063616c6c6572206973206e6f7420746865206f776e65726044820152606401610b14565b600261012d54036135295760405162461bcd60e51b815260206004820152601f60248201527f5265656e7472616e637947756172643a207265656e7472616e742063616c6c006044820152606401610b14565b600261012d55565b6000828152610169602090815260408083206001600160a01b038516845290915290205460ff16156135755760405162461bcd60e51b8152600401610b1490614883565b6001600160a01b038116600081815261016760209081526040808320805460018082018355918552838520018790558684526101688352818420805480830182559085528385200180546001600160a01b031916861790558684526101698352818420858552835292819020805460ff19169093179092558151858152908101929092527fc65c83424b9743cd85950d4d05ef8ab686409eafe1bf490c528b98f4eb800048910160405180910390a15050565b600161012d55565b816001600160a01b0316836001600160a01b0316036136915760405162461bcd60e51b815260206004820152601960248201527f4552433732313a20617070726f766520746f2063616c6c6572000000000000006044820152606401610b14565b6001600160a01b038381166000818152606a6020908152604080832094871680845294825291829020805460ff191686151590811790915591519182527f17307eab39ab6107e8899845ad3d59bd9653f200f220920489ca2b5937696c31910160405180910390a3505050565b613709848484612fc1565b6137158484848461391c565b610e1e5760405162461bcd60e51b8152600401610b14906149fc565b6060600061373e83613a1d565b600101905060008167ffffffffffffffff81111561375e5761375e613d5b565b6040519080825280601f01601f191660200182016040528015613788576020820181803683370190505b5090508181016020015b600019016f181899199a1a9b1b9c1cb0b131b232b360811b600a86061a8153600a850494508461379257509392505050565b600054610100900460ff166137eb5760405162461bcd60e51b8152600401610b149061490c565b60656137f78382614627565b506066610f5b8282614627565b600054610100900460ff1661382b5760405162461bcd60e51b8152600401610b149061490c565b611de633612b44565b600054610100900460ff166136285760405162461bcd60e51b8152600401610b149061490c565b6001600160a01b0381163b6138c85760405162461bcd60e51b815260206004820152602d60248201527f455243313936373a206e657720696d706c656d656e746174696f6e206973206e60448201526c1bdd08184818dbdb9d1c9858dd609a1b6064820152608401610b14565b600080516020614a9f83398151915280546001600160a01b0319166001600160a01b0392909216919091179055565b61390083613af5565b60008251118061390d5750805b15610f5b57610e1e8383613b35565b60006001600160a01b0384163b15613a1257604051630a85bd0160e11b81526001600160a01b0385169063150b7a0290613960903390899088908890600401614a4e565b6020604051808303816000875af192505050801561399b575060408051601f3d908101601f1916820190925261399891810190614a81565b60015b6139f8573d8080156139c9576040519150601f19603f3d011682016040523d82523d6000602084013e6139ce565b606091505b5080516000036139f05760405162461bcd60e51b8152600401610b14906149fc565b805181602001fd5b6001600160e01b031916630a85bd0160e11b149050612fb9565b506001949350505050565b60008072184f03e93ff9f4daa797ed6e38ed64bf6a1f0160401b8310613a5c5772184f03e93ff9f4daa797ed6e38ed64bf6a1f0160401b830492506040015b6d04ee2d6d415b85acef81000000008310613a88576d04ee2d6d415b85acef8100000000830492506020015b662386f26fc100008310613aa657662386f26fc10000830492506010015b6305f5e1008310613abe576305f5e100830492506008015b6127108310613ad257612710830492506004015b60648310613ae4576064830492506002015b600a83106110565760010192915050565b613afe8161385b565b6040516001600160a01b038216907fbc7cd75a20ee27fd9adebab32041f755214dbc6bffa90cc0225b39da2e5c2d3b90600090a250565b60606128f48383604051806060016040528060278152602001614abf602791396060600080856001600160a01b031685604051613b72919061499c565b600060405180830381855af49150503d8060008114613bad576040519150601f19603f3d011682016040523d82523d6000602084013e613bb2565b606091505b5091509150613bc386838387613bcd565b9695505050505050565b60608315613c3c578251600003613c35576001600160a01b0385163b613c355760405162461bcd60e51b815260206004820152601d60248201527f416464726573733a2063616c6c20746f206e6f6e2d636f6e74726163740000006044820152606401610b14565b5081612fb9565b612fb98383815115613c515781518083602001fd5b8060405162461bcd60e51b8152600401610b149190613ec2565b828054828255906000526020600020908101928215613cb1579160200282015b82811115613cb15782518290613ca19082614627565b5091602001919060010190613c8b565b50613cbd929150613cc1565b5090565b80821115613cbd576000613cd58282613cde565b50600101613cc1565b508054613cea9061459d565b6000825580601f10613cfa575050565b601f0160209004906000526020600020908101906118c991905b80821115613cbd5760008155600101613d14565b6001600160e01b0319811681146118c957600080fd5b600060208284031215613d5057600080fd5b81356128f481613d28565b634e487b7160e01b600052604160045260246000fd5b604051601f8201601f1916810167ffffffffffffffff81118282101715613d9a57613d9a613d5b565b604052919050565b600082601f830112613db357600080fd5b813567ffffffffffffffff811115613dcd57613dcd613d5b565b613de0601f8201601f1916602001613d71565b818152846020838601011115613df557600080fd5b816020850160208301376000918101602001919091529392505050565b60008060408385031215613e2557600080fd5b82359150602083013567ffffffffffffffff811115613e4357600080fd5b613e4f85828601613da2565b9150509250929050565b600060208284031215613e6b57600080fd5b5035919050565b60005b83811015613e8d578181015183820152602001613e75565b50506000910152565b60008151808452613eae816020860160208601613e72565b601f01601f19169290920160200192915050565b6020815260006128f46020830184613e96565b80356001600160a01b038116811461105957600080fd5b600080600060608486031215613f0157600080fd5b833567ffffffffffffffff80821115613f1957600080fd5b613f2587838801613da2565b94506020860135915080821115613f3b57600080fd5b50613f4886828701613da2565b925050613f5760408501613ed5565b90509250925092565b60008060408385031215613f7357600080fd5b613f7c83613ed5565b946020939093013593505050565b60008282518085526020808601955060208260051b8401016020860160005b84811015613fd757601f19868403018952613fc5838351613e96565b98840198925090830190600101613fa9565b5090979650505050505050565b60208152815160208201526000602083015161018080604085015261400d6101a0850183613e96565b91506040850151601f198086850301606087015261402b8483613e96565b935060608701516080870152608087015160a087015260a08701519150808685030160c087015261405c8483613f8a565b935060c08701519150808685030160e08701526140798483613e96565b60e0880151610100888101919091528801516101208089019190915288015190945091506101406140b4818801846001600160a01b03169052565b808801519250506101608187860301818801526140d18584613e96565b908801518782039092018488015293509050613bc38382613e96565b6020808252825182820181905260009190848201906040850190845b8181101561412e5783516001600160a01b031683529284019291840191600101614109565b50909695505050505050565b6000806040838503121561414d57600080fd5b8235915061415d60208401613ed5565b90509250929050565b60008060006060848603121561417b57600080fd5b61418484613ed5565b925061419260208501613ed5565b9150604084013590509250925092565b6000602082840312156141b457600080fd5b6128f482613ed5565b600082601f8301126141ce57600080fd5b8135602067ffffffffffffffff808311156141eb576141eb613d5b565b8260051b6141fa838201613d71565b938452858101830193838101908886111561421457600080fd5b84880192505b858310156117e1578235848111156142325760008081fd5b6142408a87838c0101613da2565b835250918401919084019061421a565b600080600080600080600060e0888a03121561426b57600080fd5b873567ffffffffffffffff8082111561428357600080fd5b61428f8b838c01613da2565b985060208a0135975060408a01359150808211156142ac57600080fd5b6142b88b838c01613da2565b965060608a0135955060808a01359150808211156142d557600080fd5b6142e18b838c016141bd565b945060a08a01359150808211156142f757600080fd5b6143038b838c01613da2565b935060c08a013591508082111561431957600080fd5b506143268a828b01613da2565b91505092959891949750929550565b60006020828403121561434757600080fd5b813567ffffffffffffffff81111561435e57600080fd5b612fb984828501613da2565b6000806040838503121561437d57600080fd5b61438683613ed5565b9150602083013567ffffffffffffffff811115613e4357600080fd5b600080604083850312156143b557600080fd5b50508035926020909101359150565b60006101608d83528060208401526143de8184018e613e96565b905082810360408401526143f2818d613e96565b90508a606084015289608084015282810360a0840152614412818a613e96565b60c0840189905260e084018890526001600160a01b03871661010085015283810361012085015290506144458186613e96565b905082810361014084015261445a8185613e96565b9e9d5050505050505050505050505050565b6000806040838503121561447f57600080fd5b61448883613ed5565b91506020830135801515811461449d57600080fd5b809150509250929050565b600080600080608085870312156144be57600080fd5b6144c785613ed5565b93506144d560208601613ed5565b925060408501359150606085013567ffffffffffffffff8111156144f857600080fd5b61450487828801613da2565b91505092959194509250565b6020808252825182820181905260009190848201906040850190845b8181101561412e5783518352928401929184019160010161452c565b6000806040838503121561455b57600080fd5b61456483613ed5565b915061415d60208401613ed5565b602080825260119082015270125b9d985b1a590818dbdd5c9cd9481251607a1b604082015260600190565b600181811c908216806145b157607f821691505b6020821081036145d157634e487b7160e01b600052602260045260246000fd5b50919050565b601f821115610f5b576000816000526020600020601f850160051c810160208610156146005750805b601f850160051c820191505b8181101561461f5782815560010161460c565b505050505050565b815167ffffffffffffffff81111561464157614641613d5b565b6146558161464f845461459d565b846145d7565b602080601f83116001811461468a57600084156146725750858301515b600019600386901b1c1916600185901b17855561461f565b600085815260208120601f198616915b828110156146b95788860151825594840194600190910190840161469a565b50858210156146d75787850151600019600388901b60f8161c191681555b5050505050600190811b01905550565b60208082526025908201527f4f6e6c79206c656374757265722063616e20706572666f726d2074686973206160408201526431ba34b7b760d91b606082015260800190565b634e487b7160e01b600052601160045260246000fd5b6000600182016147545761475461472c565b5060010190565b60208082526023908201527f41646472657373206973206e6f74206120726567697374657265642073747564604082015262195b9d60ea1b606082015260800190565b6020808252602d908201527f4552433732313a2063616c6c6572206973206e6f7420746f6b656e206f776e6560408201526c1c881bdc88185c1c1c9bdd9959609a1b606082015260800190565b6020808252602c908201527f46756e6374696f6e206d7573742062652063616c6c6564207468726f7567682060408201526b19195b1959d85d1958d85b1b60a21b606082015260800190565b6020808252602c908201527f46756e6374696f6e206d7573742062652063616c6c6564207468726f7567682060408201526b6163746976652070726f787960a01b606082015260800190565b60208082526027908201527f53747564656e7420616c726561647920656e726f6c6c656420696e207468697360408201526620636f7572736560c81b606082015260800190565b81810381811115610adf57610adf61472c565b600083516148ef818460208801613e72565b835190830190614903818360208801613e72565b01949350505050565b6020808252602b908201527f496e697469616c697a61626c653a20636f6e7472616374206973206e6f74206960408201526a6e697469616c697a696e6760a81b606082015260800190565b60208082526025908201527f4552433732313a207472616e736665722066726f6d20696e636f72726563742060408201526437bbb732b960d91b606082015260800190565b600082516149ae818460208701613e72565b9190910192915050565b6060815260006149cb6060830186613e96565b8460208401528281036040840152613bc38185613e96565b6000602082840312156149f557600080fd5b5051919050565b60208082526032908201527f4552433732313a207472616e7366657220746f206e6f6e20455243373231526560408201527131b2b4bb32b91034b6b83632b6b2b73a32b960711b606082015260800190565b6001600160a01b0385811682528416602082015260408101839052608060608201819052600090613bc390830184613e96565b600060208284031215614a9357600080fd5b81516128f481613d2856fe360894a13ba1a3210667c828492db98dca3e2076cc3735a920a3ca505d382bbc416464726573733a206c6f772d6c6576656c2064656c65676174652063616c6c206661696c6564a2646970667358221220639823fff05231c40f0022f675ee25644618b4ca570d124d61dc50132b67eada64736f6c63430008160033",
    "linkReferences": {},
    "deployedLinkReferences": {}
}