{
  "_format": "hh-sol-artifact-1",
  "contractName": "Celorean",
  "sourceName": "contracts/Celorean.sol",
  "abi": [
    {
      "inputs": [
        {
          "internalType": "address",
          "name": "target",
          "type": "address"
        }
      ],
      "name": "AddressEmptyCode",
      "type": "error"
    },
    {
      "inputs": [
        {
          "internalType": "address",
          "name": "implementation",
          "type": "address"
        }
      ],
      "name": "ERC1967InvalidImplementation",
      "type": "error"
    },
    {
      "inputs": [],
      "name": "ERC1967NonPayable",
      "type": "error"
    },
    {
      "inputs": [
        {
          "internalType": "address",
          "name": "sender",
          "type": "address"
        },
        {
          "internalType": "uint256",
          "name": "tokenId",
          "type": "uint256"
        },
        {
          "internalType": "address",
          "name": "owner",
          "type": "address"
        }
      ],
      "name": "ERC721IncorrectOwner",
      "type": "error"
    },
    {
      "inputs": [
        {
          "internalType": "address",
          "name": "operator",
          "type": "address"
        },
        {
          "internalType": "uint256",
          "name": "tokenId",
          "type": "uint256"
        }
      ],
      "name": "ERC721InsufficientApproval",
      "type": "error"
    },
    {
      "inputs": [
        {
          "internalType": "address",
          "name": "approver",
          "type": "address"
        }
      ],
      "name": "ERC721InvalidApprover",
      "type": "error"
    },
    {
      "inputs": [
        {
          "internalType": "address",
          "name": "operator",
          "type": "address"
        }
      ],
      "name": "ERC721InvalidOperator",
      "type": "error"
    },
    {
      "inputs": [
        {
          "internalType": "address",
          "name": "owner",
          "type": "address"
        }
      ],
      "name": "ERC721InvalidOwner",
      "type": "error"
    },
    {
      "inputs": [
        {
          "internalType": "address",
          "name": "receiver",
          "type": "address"
        }
      ],
      "name": "ERC721InvalidReceiver",
      "type": "error"
    },
    {
      "inputs": [
        {
          "internalType": "address",
          "name": "sender",
          "type": "address"
        }
      ],
      "name": "ERC721InvalidSender",
      "type": "error"
    },
    {
      "inputs": [
        {
          "internalType": "uint256",
          "name": "tokenId",
          "type": "uint256"
        }
      ],
      "name": "ERC721NonexistentToken",
      "type": "error"
    },
    {
      "inputs": [],
      "name": "FailedCall",
      "type": "error"
    },
    {
      "inputs": [],
      "name": "InvalidInitialization",
      "type": "error"
    },
    {
      "inputs": [],
      "name": "NotInitializing",
      "type": "error"
    },
    {
      "inputs": [
        {
          "internalType": "address",
          "name": "owner",
          "type": "address"
        }
      ],
      "name": "OwnableInvalidOwner",
      "type": "error"
    },
    {
      "inputs": [
        {
          "internalType": "address",
          "name": "account",
          "type": "address"
        }
      ],
      "name": "OwnableUnauthorizedAccount",
      "type": "error"
    },
    {
      "inputs": [],
      "name": "ReentrancyGuardReentrantCall",
      "type": "error"
    },
    {
      "inputs": [],
      "name": "UUPSUnauthorizedCallContext",
      "type": "error"
    },
    {
      "inputs": [
        {
          "internalType": "bytes32",
          "name": "slot",
          "type": "bytes32"
        }
      ],
      "name": "UUPSUnsupportedProxiableUUID",
      "type": "error"
    },
    {
      "anonymous": false,
      "inputs": [
        {
          "indexed": true,
          "internalType": "address",
          "name": "owner",
          "type": "address"
        },
        {
          "indexed": true,
          "internalType": "address",
          "name": "approved",
          "type": "address"
        },
        {
          "indexed": true,
          "internalType": "uint256",
          "name": "tokenId",
          "type": "uint256"
        }
      ],
      "name": "Approval",
      "type": "event"
    },
    {
      "anonymous": false,
      "inputs": [
        {
          "indexed": true,
          "internalType": "address",
          "name": "owner",
          "type": "address"
        },
        {
          "indexed": true,
          "internalType": "address",
          "name": "operator",
          "type": "address"
        },
        {
          "indexed": false,
          "internalType": "bool",
          "name": "approved",
          "type": "bool"
        }
      ],
      "name": "ApprovalForAll",
      "type": "event"
    },
    {
      "anonymous": false,
      "inputs": [
        {
          "indexed": true,
          "internalType": "uint256",
          "name": "sessionId",
          "type": "uint256"
        },
        {
          "indexed": true,
          "internalType": "address",
          "name": "student",
          "type": "address"
        }
      ],
      "name": "AttendanceMarked",
      "type": "event"
    },
    {
      "anonymous": false,
      "inputs": [
        {
          "indexed": true,
          "internalType": "address",
          "name": "nft",
          "type": "address"
        }
      ],
      "name": "CertificateNFTUpdated",
      "type": "event"
    },
    {
      "anonymous": false,
      "inputs": [
        {
          "indexed": true,
          "internalType": "uint256",
          "name": "sessionId",
          "type": "uint256"
        },
        {
          "indexed": true,
          "internalType": "uint256",
          "name": "courseId",
          "type": "uint256"
        },
        {
          "indexed": false,
          "internalType": "uint256",
          "name": "timestamp",
          "type": "uint256"
        }
      ],
      "name": "ClassSessionCreated",
      "type": "event"
    },
    {
      "anonymous": false,
      "inputs": [
        {
          "indexed": true,
          "internalType": "uint256",
          "name": "courseId",
          "type": "uint256"
        },
        {
          "indexed": false,
          "internalType": "string",
          "name": "newContentUri",
          "type": "string"
        },
        {
          "indexed": false,
          "internalType": "uint256",
          "name": "contentIndex",
          "type": "uint256"
        }
      ],
      "name": "CourseContentAdded",
      "type": "event"
    },
    {
      "anonymous": false,
      "inputs": [
        {
          "indexed": true,
          "internalType": "uint256",
          "name": "courseId",
          "type": "uint256"
        },
        {
          "indexed": false,
          "internalType": "string[]",
          "name": "newContentUris",
          "type": "string[]"
        }
      ],
      "name": "CourseContentUpdated",
      "type": "event"
    },
    {
      "anonymous": false,
      "inputs": [
        {
          "indexed": true,
          "internalType": "uint256",
          "name": "courseId",
          "type": "uint256"
        },
        {
          "indexed": false,
          "internalType": "string",
          "name": "title",
          "type": "string"
        },
        {
          "indexed": true,
          "internalType": "address",
          "name": "instructor",
          "type": "address"
        },
        {
          "indexed": false,
          "internalType": "uint256",
          "name": "price",
          "type": "uint256"
        },
        {
          "indexed": false,
          "internalType": "string",
          "name": "metadataUri",
          "type": "string"
        }
      ],
      "name": "CourseCreated",
      "type": "event"
    },
    {
      "anonymous": false,
      "inputs": [
        {
          "indexed": true,
          "internalType": "uint256",
          "name": "courseId",
          "type": "uint256"
        },
        {
          "indexed": false,
          "internalType": "string",
          "name": "newMetadataUri",
          "type": "string"
        }
      ],
      "name": "CourseMetadataUpdated",
      "type": "event"
    },
    {
      "anonymous": false,
      "inputs": [
        {
          "indexed": true,
          "internalType": "uint256",
          "name": "id",
          "type": "uint256"
        },
        {
          "indexed": true,
          "internalType": "address",
          "name": "student",
          "type": "address"
        },
        {
          "indexed": true,
          "internalType": "address",
          "name": "issuer",
          "type": "address"
        },
        {
          "indexed": false,
          "internalType": "string",
          "name": "title",
          "type": "string"
        },
        {
          "indexed": false,
          "internalType": "string",
          "name": "metadataUri",
          "type": "string"
        }
      ],
      "name": "CredentialIssued",
      "type": "event"
    },
    {
      "anonymous": false,
      "inputs": [
        {
          "indexed": false,
          "internalType": "uint64",
          "name": "version",
          "type": "uint64"
        }
      ],
      "name": "Initialized",
      "type": "event"
    },
    {
      "anonymous": false,
      "inputs": [
        {
          "indexed": true,
          "internalType": "address",
          "name": "lecturer",
          "type": "address"
        },
        {
          "indexed": false,
          "internalType": "uint256",
          "name": "amount",
          "type": "uint256"
        }
      ],
      "name": "LecturerEmployed",
      "type": "event"
    },
    {
      "anonymous": false,
      "inputs": [
        {
          "indexed": true,
          "internalType": "address",
          "name": "previousOwner",
          "type": "address"
        },
        {
          "indexed": true,
          "internalType": "address",
          "name": "newOwner",
          "type": "address"
        }
      ],
      "name": "OwnershipTransferred",
      "type": "event"
    },
    {
      "anonymous": false,
      "inputs": [
        {
          "indexed": true,
          "internalType": "address",
          "name": "student",
          "type": "address"
        },
        {
          "indexed": false,
          "internalType": "uint256",
          "name": "amount",
          "type": "uint256"
        }
      ],
      "name": "StudentAdmitted",
      "type": "event"
    },
    {
      "anonymous": false,
      "inputs": [
        {
          "indexed": false,
          "internalType": "uint256",
          "name": "courseId",
          "type": "uint256"
        },
        {
          "indexed": false,
          "internalType": "address",
          "name": "student",
          "type": "address"
        }
      ],
      "name": "StudentRegistered",
      "type": "event"
    },
    {
      "anonymous": false,
      "inputs": [
        {
          "indexed": true,
          "internalType": "address",
          "name": "from",
          "type": "address"
        },
        {
          "indexed": true,
          "internalType": "address",
          "name": "to",
          "type": "address"
        },
        {
          "indexed": true,
          "internalType": "uint256",
          "name": "tokenId",
          "type": "uint256"
        }
      ],
      "name": "Transfer",
      "type": "event"
    },
    {
      "anonymous": false,
      "inputs": [
        {
          "indexed": true,
          "internalType": "address",
          "name": "implementation",
          "type": "address"
        }
      ],
      "name": "Upgraded",
      "type": "event"
    },
    {
      "inputs": [],
      "name": "UPGRADE_INTERFACE_VERSION",
      "outputs": [
        {
          "internalType": "string",
          "name": "",
          "type": "string"
        }
      ],
      "stateMutability": "view",
      "type": "function"
    },
    {
      "inputs": [
        {
          "internalType": "uint256",
          "name": "courseId",
          "type": "uint256"
        },
        {
          "internalType": "string",
          "name": "newContentUri",
          "type": "string"
        }
      ],
      "name": "addCourseContent",
      "outputs": [],
      "stateMutability": "nonpayable",
      "type": "function"
    },
    {
      "inputs": [
        {
          "internalType": "uint256",
          "name": "courseId",
          "type": "uint256"
        },
        {
          "internalType": "string[]",
          "name": "newContentUris",
          "type": "string[]"
        }
      ],
      "name": "addMultipleCourseContent",
      "outputs": [],
      "stateMutability": "nonpayable",
      "type": "function"
    },
    {
      "inputs": [
        {
          "internalType": "address",
          "name": "student",
          "type": "address"
        },
        {
          "internalType": "uint256",
          "name": "amount",
          "type": "uint256"
        }
      ],
      "name": "admitStudent",
      "outputs": [],
      "stateMutability": "nonpayable",
      "type": "function"
    },
    {
      "inputs": [
        {
          "internalType": "address",
          "name": "to",
          "type": "address"
        },
        {
          "internalType": "uint256",
          "name": "tokenId",
          "type": "uint256"
        }
      ],
      "name": "approve",
      "outputs": [],
      "stateMutability": "nonpayable",
      "type": "function"
    },
    {
      "inputs": [
        {
          "internalType": "address",
          "name": "owner",
          "type": "address"
        }
      ],
      "name": "balanceOf",
      "outputs": [
        {
          "internalType": "uint256",
          "name": "",
          "type": "uint256"
        }
      ],
      "stateMutability": "view",
      "type": "function"
    },
    {
      "inputs": [],
      "name": "certificateNFT",
      "outputs": [
        {
          "internalType": "address",
          "name": "",
          "type": "address"
        }
      ],
      "stateMutability": "view",
      "type": "function"
    },
    {
      "inputs": [
        {
          "internalType": "uint256",
          "name": "",
          "type": "uint256"
        }
      ],
      "name": "classSessions",
      "outputs": [
        {
          "internalType": "uint256",
          "name": "id",
          "type": "uint256"
        },
        {
          "internalType": "uint256",
          "name": "courseId",
          "type": "uint256"
        },
        {
          "internalType": "uint256",
          "name": "timestamp",
          "type": "uint256"
        },
        {
          "internalType": "bool",
          "name": "marked",
          "type": "bool"
        }
      ],
      "stateMutability": "view",
      "type": "function"
    },
    {
      "inputs": [],
      "name": "courseCount",
      "outputs": [
        {
          "internalType": "uint256",
          "name": "",
          "type": "uint256"
        }
      ],
      "stateMutability": "view",
      "type": "function"
    },
    {
      "inputs": [
        {
          "internalType": "string",
          "name": "",
          "type": "string"
        }
      ],
      "name": "courseNameToId",
      "outputs": [
        {
          "internalType": "uint256",
          "name": "",
          "type": "uint256"
        }
      ],
      "stateMutability": "view",
      "type": "function"
    },
    {
      "inputs": [
        {
          "internalType": "uint256",
          "name": "",
          "type": "uint256"
        },
        {
          "internalType": "uint256",
          "name": "",
          "type": "uint256"
        }
      ],
      "name": "courseStudents",
      "outputs": [
        {
          "internalType": "address",
          "name": "",
          "type": "address"
        }
      ],
      "stateMutability": "view",
      "type": "function"
    },
    {
      "inputs": [
        {
          "internalType": "uint256",
          "name": "courseId",
          "type": "uint256"
        }
      ],
      "name": "createClassSession",
      "outputs": [
        {
          "internalType": "uint256",
          "name": "",
          "type": "uint256"
        }
      ],
      "stateMutability": "nonpayable",
      "type": "function"
    },
    {
      "inputs": [
        {
          "internalType": "string",
          "name": "title",
          "type": "string"
        },
        {
          "internalType": "uint256",
          "name": "duration",
          "type": "uint256"
        },
        {
          "internalType": "string",
          "name": "description",
          "type": "string"
        },
        {
          "internalType": "uint256",
          "name": "price",
          "type": "uint256"
        },
        {
          "internalType": "string[]",
          "name": "tags",
          "type": "string[]"
        },
        {
          "internalType": "string",
          "name": "level",
          "type": "string"
        },
        {
          "internalType": "string",
          "name": "metadataUri",
          "type": "string"
        }
      ],
      "name": "createCourse",
      "outputs": [
        {
          "internalType": "uint256",
          "name": "",
          "type": "uint256"
        }
      ],
      "stateMutability": "nonpayable",
      "type": "function"
    },
    {
      "inputs": [],
      "name": "credentialCount",
      "outputs": [
        {
          "internalType": "uint256",
          "name": "",
          "type": "uint256"
        }
      ],
      "stateMutability": "view",
      "type": "function"
    },
    {
      "inputs": [
        {
          "internalType": "uint256",
          "name": "id",
          "type": "uint256"
        }
      ],
      "name": "credentials",
      "outputs": [
        {
          "components": [
            {
              "internalType": "uint256",
              "name": "id",
              "type": "uint256"
            },
            {
              "internalType": "address",
              "name": "student",
              "type": "address"
            },
            {
              "internalType": "address",
              "name": "issuer",
              "type": "address"
            },
            {
              "internalType": "uint256",
              "name": "issuedAt",
              "type": "uint256"
            },
            {
              "internalType": "string",
              "name": "title",
              "type": "string"
            },
            {
              "internalType": "string",
              "name": "metadataUri",
              "type": "string"
            }
          ],
          "internalType": "struct CredentialStorage.Credential",
          "name": "",
          "type": "tuple"
        }
      ],
      "stateMutability": "view",
      "type": "function"
    },
    {
      "inputs": [
        {
          "internalType": "address",
          "name": "lecturer",
          "type": "address"
        },
        {
          "internalType": "uint256",
          "name": "value",
          "type": "uint256"
        }
      ],
      "name": "employLecturer",
      "outputs": [],
      "stateMutability": "nonpayable",
      "type": "function"
    },
    {
      "inputs": [
        {
          "internalType": "uint256",
          "name": "tokenId",
          "type": "uint256"
        }
      ],
      "name": "getApproved",
      "outputs": [
        {
          "internalType": "address",
          "name": "",
          "type": "address"
        }
      ],
      "stateMutability": "view",
      "type": "function"
    },
    {
      "inputs": [
        {
          "internalType": "uint256",
          "name": "courseId",
          "type": "uint256"
        }
      ],
      "name": "getCourse",
      "outputs": [
        {
          "components": [
            {
              "internalType": "uint256",
              "name": "id",
              "type": "uint256"
            },
            {
              "internalType": "string",
              "name": "title",
              "type": "string"
            },
            {
              "internalType": "string",
              "name": "description",
              "type": "string"
            },
            {
              "internalType": "uint256",
              "name": "duration",
              "type": "uint256"
            },
            {
              "internalType": "uint256",
              "name": "price",
              "type": "uint256"
            },
            {
              "internalType": "string[]",
              "name": "tags",
              "type": "string[]"
            },
            {
              "internalType": "string",
              "name": "level",
              "type": "string"
            },
            {
              "internalType": "uint256",
              "name": "rating",
              "type": "uint256"
            },
            {
              "internalType": "uint256",
              "name": "enrolledCount",
              "type": "uint256"
            },
            {
              "internalType": "address",
              "name": "instructor",
              "type": "address"
            },
            {
              "internalType": "string",
              "name": "metadataUri",
              "type": "string"
            },
            {
              "internalType": "string[]",
              "name": "contentUris",
              "type": "string[]"
            }
          ],
          "internalType": "struct CourseModule.Course",
          "name": "",
          "type": "tuple"
        }
      ],
      "stateMutability": "view",
      "type": "function"
    },
    {
      "inputs": [
        {
          "internalType": "uint256",
          "name": "courseId",
          "type": "uint256"
        }
      ],
      "name": "getCourseContentCount",
      "outputs": [
        {
          "internalType": "uint256",
          "name": "",
          "type": "uint256"
        }
      ],
      "stateMutability": "view",
      "type": "function"
    },
    {
      "inputs": [
        {
          "internalType": "uint256",
          "name": "courseId",
          "type": "uint256"
        }
      ],
      "name": "getCourseContentUris",
      "outputs": [
        {
          "internalType": "string[]",
          "name": "",
          "type": "string[]"
        }
      ],
      "stateMutability": "view",
      "type": "function"
    },
    {
      "inputs": [
        {
          "internalType": "uint256",
          "name": "courseId",
          "type": "uint256"
        }
      ],
      "name": "getCourseStudents",
      "outputs": [
        {
          "internalType": "address[]",
          "name": "",
          "type": "address[]"
        }
      ],
      "stateMutability": "view",
      "type": "function"
    },
    {
      "inputs": [
        {
          "internalType": "address",
          "name": "student",
          "type": "address"
        }
      ],
      "name": "getCredentialsByStudent",
      "outputs": [
        {
          "components": [
            {
              "internalType": "uint256",
              "name": "id",
              "type": "uint256"
            },
            {
              "internalType": "address",
              "name": "student",
              "type": "address"
            },
            {
              "internalType": "address",
              "name": "issuer",
              "type": "address"
            },
            {
              "internalType": "uint256",
              "name": "issuedAt",
              "type": "uint256"
            },
            {
              "internalType": "string",
              "name": "title",
              "type": "string"
            },
            {
              "internalType": "string",
              "name": "metadataUri",
              "type": "string"
            }
          ],
          "internalType": "struct CredentialStorage.Credential[]",
          "name": "",
          "type": "tuple[]"
        }
      ],
      "stateMutability": "view",
      "type": "function"
    },
    {
      "inputs": [],
      "name": "getLecturerList",
      "outputs": [
        {
          "internalType": "address[]",
          "name": "",
          "type": "address[]"
        }
      ],
      "stateMutability": "view",
      "type": "function"
    },
    {
      "inputs": [],
      "name": "getListOfStudents",
      "outputs": [
        {
          "internalType": "address[]",
          "name": "",
          "type": "address[]"
        }
      ],
      "stateMutability": "view",
      "type": "function"
    },
    {
      "inputs": [
        {
          "internalType": "address",
          "name": "student",
          "type": "address"
        }
      ],
      "name": "getStudentCourses",
      "outputs": [
        {
          "internalType": "uint256[]",
          "name": "",
          "type": "uint256[]"
        }
      ],
      "stateMutability": "view",
      "type": "function"
    },
    {
      "inputs": [
        {
          "internalType": "address",
          "name": "student",
          "type": "address"
        }
      ],
      "name": "getStudentCredentialIds",
      "outputs": [
        {
          "internalType": "uint256[]",
          "name": "",
          "type": "uint256[]"
        }
      ],
      "stateMutability": "view",
      "type": "function"
    },
    {
      "inputs": [
        {
          "internalType": "uint256",
          "name": "courseId",
          "type": "uint256"
        }
      ],
      "name": "incrementEnrollment",
      "outputs": [],
      "stateMutability": "nonpayable",
      "type": "function"
    },
    {
      "inputs": [
        {
          "internalType": "string",
          "name": "name",
          "type": "string"
        },
        {
          "internalType": "string",
          "name": "symbol",
          "type": "string"
        },
        {
          "internalType": "address",
          "name": "owner",
          "type": "address"
        }
      ],
      "name": "initialize",
      "outputs": [],
      "stateMutability": "nonpayable",
      "type": "function"
    },
    {
      "inputs": [
        {
          "internalType": "address",
          "name": "owner",
          "type": "address"
        },
        {
          "internalType": "address",
          "name": "operator",
          "type": "address"
        }
      ],
      "name": "isApprovedForAll",
      "outputs": [
        {
          "internalType": "bool",
          "name": "",
          "type": "bool"
        }
      ],
      "stateMutability": "view",
      "type": "function"
    },
    {
      "inputs": [
        {
          "internalType": "uint256",
          "name": "",
          "type": "uint256"
        },
        {
          "internalType": "address",
          "name": "",
          "type": "address"
        }
      ],
      "name": "isEnrolled",
      "outputs": [
        {
          "internalType": "bool",
          "name": "",
          "type": "bool"
        }
      ],
      "stateMutability": "view",
      "type": "function"
    },
    {
      "inputs": [
        {
          "internalType": "address",
          "name": "account",
          "type": "address"
        }
      ],
      "name": "isLecturer",
      "outputs": [
        {
          "internalType": "bool",
          "name": "",
          "type": "bool"
        }
      ],
      "stateMutability": "view",
      "type": "function"
    },
    {
      "inputs": [
        {
          "internalType": "address",
          "name": "",
          "type": "address"
        }
      ],
      "name": "isStudent",
      "outputs": [
        {
          "internalType": "bool",
          "name": "",
          "type": "bool"
        }
      ],
      "stateMutability": "view",
      "type": "function"
    },
    {
      "inputs": [
        {
          "internalType": "uint256",
          "name": "courseId",
          "type": "uint256"
        },
        {
          "internalType": "address",
          "name": "student",
          "type": "address"
        }
      ],
      "name": "isStudentEnrolled",
      "outputs": [
        {
          "internalType": "bool",
          "name": "",
          "type": "bool"
        }
      ],
      "stateMutability": "view",
      "type": "function"
    },
    {
      "inputs": [
        {
          "internalType": "address",
          "name": "student",
          "type": "address"
        },
        {
          "internalType": "string",
          "name": "title",
          "type": "string"
        },
        {
          "internalType": "string",
          "name": "metadataUri",
          "type": "string"
        }
      ],
      "name": "issueCredentialForStudent",
      "outputs": [
        {
          "internalType": "uint256",
          "name": "",
          "type": "uint256"
        }
      ],
      "stateMutability": "nonpayable",
      "type": "function"
    },
    {
      "inputs": [
        {
          "internalType": "uint256",
          "name": "",
          "type": "uint256"
        }
      ],
      "name": "lecturerList",
      "outputs": [
        {
          "internalType": "address",
          "name": "",
          "type": "address"
        }
      ],
      "stateMutability": "view",
      "type": "function"
    },
    {
      "inputs": [
        {
          "internalType": "address",
          "name": "",
          "type": "address"
        }
      ],
      "name": "lecturers",
      "outputs": [
        {
          "internalType": "uint256",
          "name": "",
          "type": "uint256"
        }
      ],
      "stateMutability": "view",
      "type": "function"
    },
    {
      "inputs": [
        {
          "internalType": "uint256",
          "name": "sessionId",
          "type": "uint256"
        },
        {
          "internalType": "address",
          "name": "student",
          "type": "address"
        }
      ],
      "name": "markAttendance",
      "outputs": [],
      "stateMutability": "nonpayable",
      "type": "function"
    },
    {
      "inputs": [],
      "name": "name",
      "outputs": [
        {
          "internalType": "string",
          "name": "",
          "type": "string"
        }
      ],
      "stateMutability": "view",
      "type": "function"
    },
    {
      "inputs": [],
      "name": "owner",
      "outputs": [
        {
          "internalType": "address",
          "name": "",
          "type": "address"
        }
      ],
      "stateMutability": "view",
      "type": "function"
    },
    {
      "inputs": [
        {
          "internalType": "uint256",
          "name": "tokenId",
          "type": "uint256"
        }
      ],
      "name": "ownerOf",
      "outputs": [
        {
          "internalType": "address",
          "name": "",
          "type": "address"
        }
      ],
      "stateMutability": "view",
      "type": "function"
    },
    {
      "inputs": [],
      "name": "proxiableUUID",
      "outputs": [
        {
          "internalType": "bytes32",
          "name": "",
          "type": "bytes32"
        }
      ],
      "stateMutability": "view",
      "type": "function"
    },
    {
      "inputs": [
        {
          "internalType": "uint256",
          "name": "courseId",
          "type": "uint256"
        },
        {
          "internalType": "address",
          "name": "student",
          "type": "address"
        }
      ],
      "name": "registerForCourse",
      "outputs": [],
      "stateMutability": "payable",
      "type": "function"
    },
    {
      "inputs": [],
      "name": "renounceOwnership",
      "outputs": [],
      "stateMutability": "nonpayable",
      "type": "function"
    },
    {
      "inputs": [
        {
          "internalType": "address",
          "name": "from",
          "type": "address"
        },
        {
          "internalType": "address",
          "name": "to",
          "type": "address"
        },
        {
          "internalType": "uint256",
          "name": "tokenId",
          "type": "uint256"
        }
      ],
      "name": "safeTransferFrom",
      "outputs": [],
      "stateMutability": "nonpayable",
      "type": "function"
    },
    {
      "inputs": [
        {
          "internalType": "address",
          "name": "from",
          "type": "address"
        },
        {
          "internalType": "address",
          "name": "to",
          "type": "address"
        },
        {
          "internalType": "uint256",
          "name": "tokenId",
          "type": "uint256"
        },
        {
          "internalType": "bytes",
          "name": "data",
          "type": "bytes"
        }
      ],
      "name": "safeTransferFrom",
      "outputs": [],
      "stateMutability": "nonpayable",
      "type": "function"
    },
    {
      "inputs": [
        {
          "internalType": "address",
          "name": "operator",
          "type": "address"
        },
        {
          "internalType": "bool",
          "name": "approved",
          "type": "bool"
        }
      ],
      "name": "setApprovalForAll",
      "outputs": [],
      "stateMutability": "nonpayable",
      "type": "function"
    },
    {
      "inputs": [
        {
          "internalType": "address",
          "name": "nft",
          "type": "address"
        }
      ],
      "name": "setCertificateNFT",
      "outputs": [],
      "stateMutability": "nonpayable",
      "type": "function"
    },
    {
      "inputs": [
        {
          "internalType": "address",
          "name": "",
          "type": "address"
        },
        {
          "internalType": "uint256",
          "name": "",
          "type": "uint256"
        }
      ],
      "name": "studentCourses",
      "outputs": [
        {
          "internalType": "uint256",
          "name": "",
          "type": "uint256"
        }
      ],
      "stateMutability": "view",
      "type": "function"
    },
    {
      "inputs": [
        {
          "internalType": "address",
          "name": "",
          "type": "address"
        },
        {
          "internalType": "uint256",
          "name": "",
          "type": "uint256"
        }
      ],
      "name": "studentSessionAttendance",
      "outputs": [
        {
          "internalType": "uint256",
          "name": "",
          "type": "uint256"
        }
      ],
      "stateMutability": "view",
      "type": "function"
    },
    {
      "inputs": [
        {
          "internalType": "address",
          "name": "",
          "type": "address"
        }
      ],
      "name": "studentTokens",
      "outputs": [
        {
          "internalType": "uint256",
          "name": "",
          "type": "uint256"
        }
      ],
      "stateMutability": "view",
      "type": "function"
    },
    {
      "inputs": [
        {
          "internalType": "uint256",
          "name": "",
          "type": "uint256"
        }
      ],
      "name": "students",
      "outputs": [
        {
          "internalType": "address",
          "name": "",
          "type": "address"
        }
      ],
      "stateMutability": "view",
      "type": "function"
    },
    {
      "inputs": [
        {
          "internalType": "bytes4",
          "name": "interfaceId",
          "type": "bytes4"
        }
      ],
      "name": "supportsInterface",
      "outputs": [
        {
          "internalType": "bool",
          "name": "",
          "type": "bool"
        }
      ],
      "stateMutability": "view",
      "type": "function"
    },
    {
      "inputs": [],
      "name": "symbol",
      "outputs": [
        {
          "internalType": "string",
          "name": "",
          "type": "string"
        }
      ],
      "stateMutability": "view",
      "type": "function"
    },
    {
      "inputs": [
        {
          "internalType": "uint256",
          "name": "tokenId",
          "type": "uint256"
        }
      ],
      "name": "tokenURI",
      "outputs": [
        {
          "internalType": "string",
          "name": "",
          "type": "string"
        }
      ],
      "stateMutability": "view",
      "type": "function"
    },
    {
      "inputs": [
        {
          "internalType": "address",
          "name": "from",
          "type": "address"
        },
        {
          "internalType": "address",
          "name": "to",
          "type": "address"
        },
        {
          "internalType": "uint256",
          "name": "tokenId",
          "type": "uint256"
        }
      ],
      "name": "transferFrom",
      "outputs": [],
      "stateMutability": "nonpayable",
      "type": "function"
    },
    {
      "inputs": [
        {
          "internalType": "address",
          "name": "newOwner",
          "type": "address"
        }
      ],
      "name": "transferOwnership",
      "outputs": [],
      "stateMutability": "nonpayable",
      "type": "function"
    },
    {
      "inputs": [
        {
          "internalType": "uint256",
          "name": "courseId",
          "type": "uint256"
        },
        {
          "internalType": "string[]",
          "name": "newContentUris",
          "type": "string[]"
        }
      ],
      "name": "updateCourseContent",
      "outputs": [],
      "stateMutability": "nonpayable",
      "type": "function"
    },
    {
      "inputs": [
        {
          "internalType": "uint256",
          "name": "courseId",
          "type": "uint256"
        },
        {
          "internalType": "string",
          "name": "newMetadataUri",
          "type": "string"
        }
      ],
      "name": "updateCourseMetadata",
      "outputs": [],
      "stateMutability": "nonpayable",
      "type": "function"
    },
    {
      "inputs": [
        {
          "internalType": "uint256",
          "name": "courseId",
          "type": "uint256"
        },
        {
          "internalType": "uint256",
          "name": "newRating",
          "type": "uint256"
        }
      ],
      "name": "updateCourseRating",
      "outputs": [],
      "stateMutability": "nonpayable",
      "type": "function"
    },
    {
      "inputs": [
        {
          "internalType": "address",
          "name": "newImplementation",
          "type": "address"
        },
        {
          "internalType": "bytes",
          "name": "data",
          "type": "bytes"
        }
      ],
      "name": "upgradeToAndCall",
      "outputs": [],
      "stateMutability": "payable",
      "type": "function"
    },
    {
      "inputs": [],
      "name": "version",
      "outputs": [
        {
          "internalType": "string",
          "name": "",
          "type": "string"
        }
      ],
      "stateMutability": "pure",
      "type": "function"
    },
    {
      "inputs": [],
      "name": "withdraw",
      "outputs": [],
      "stateMutability": "nonpayable",
      "type": "function"
    }
  ],
  "bytecode": "0x60a0806040523461002a57306080526143f990816100308239608051818181611cbc0152611d520152f35b600080fdfe608080604052600436101561001357600080fd5b60003560e01c90816301ffc9a7146131a65750806306ead22e1461314b57806306fdde031461309a578063077f224a14612c7f578063081812fc14612c34578063095ea7b314612b4d5780630a5776bb146129eb5780630b91e28d1461278657806310f267261461268e578063158dec4f1461261e57806315f6febd1461259c57806316edbe541461252e578063189a0f271461248a5780631ae4815e1461234757806323b872dd146123305780632af47f46146122f657806334a1e9de14611ff15780633ccfd60b14611f6a57806342842e0e14611f4257806348147ea414611ee65780634f1ef28614611d1457806352d1902d14611ca957806354fd4d5014611c635780635cc6fa7114611bfb57806360dd60e314611b795780636315270814611a735780636352211e14611a435780636605515914611a255780636aee02d314611a095780636e274a34146119bf57806370a082311461196a578063715018a614611900578063798cdb46146115cf5780637bf1f66f146115935780637d9252921461154a57806382f7d3921461150b5780638a4b81ab146113fc5780638a954a0314610a085780638bd7a3331461126c5780638c572bbe146112195780638da5cb5b146111e35780638f58c3b214610eb157806391aec72a14610e885780639281a96d14610e2957806395d89b4114610d41578063a22cb46514610c98578063ad3cb1cc14610c52578063b60da9b014610b3e578063b88d4fde14610af0578063c87b56dd14610a9d578063c8deced614610a55578063c976831514610a08578063cd0e35b9146109cb578063d40761e414610944578063d735d7cd1461075c578063e0574e3f14610697578063e985e9c514610649578063f2fde38b1461061e578063faf8e8b41461052f578063fc925060146104f5578063fd95cc511461049d5763ff6785e0146102c957600080fd5b34610498576102d7366135f0565b908015158061048c575b6102ea906137a6565b80600052600191602083815260018060a01b03600960406000200154163303610436578260005283815283600b8060406000200180549060008155816103c5575b5050906000905b610373575b60405183815285907f5f3ecb61e63394d34a984597179063028a9e892ab46083cc23665bc92a81137a908061036e8188018961338d565b0390a2005b83518110156103c05790858261039661038d839588613d2b565b51511515613d3f565b866000528185526103b8836040600020016103b18389613d2b565b5190613d89565b019091610332565b610337565b6000528284600020918201915b8281106103df575061032b565b6103e9815461367c565b806103f8575b500183906103d2565b601f90818111600114610412575050600081555b386103ef565b61042d600092848452898420920160051c82018583016138a8565b8183555561040c565b6084906040519062461bcd60e51b82526004820152602960248201527f4f6e6c7920636f7572736520696e7374727563746f722063616e207570646174604482015268194818dbdb9d195b9d60ba1b6064820152fd5b506000548111156102e1565b600080fd5b34610498576040366003190112610498576104b6613361565b6001600160a01b0316600090815260086020526040902080546024359190821015610498576020916104e791613211565b90546040519160031b1c8152f35b34610498576020366003190112610498576001600160a01b03610516613361565b1660005260036020526020604060002054604051908152f35b346104985761053d366133ea565b81151580610612575b61054f906137a6565b81600052600160205261057360018060a01b03600960406000200154163314613cd0565b61057f81511515613d3f565b81600052600160205261059981600b604060002001613d89565b816000526001602052600b6040600020015460001981019081116105fc577ff04740232fc267e81c1f5142df00ffab820e31dcb32d747e5af68a744c279cee916105f19160405192839260408452604084019061324c565b9060208301520390a2005b634e487b7160e01b600052601160045260246000fd5b50600054821115610546565b346104985760203660031901126104985761064761063a613361565b610642614196565b613f89565b005b3461049857604036600319011261049857610662613361565b61067361066d613377565b916134cf565b9060018060a01b0316600052602052602060ff604060002054166040519015158152f35b34610498576020366003190112610498576106b0613f55565b506004356000526000805160206143448339815191526020526107586040600020600561073f604051926106e38461328d565b8054845260018060a01b0380600183015416602086015260028201541660408501526003810154606085015260405161072a8161072381600486016136b6565b03826132de565b608085015261072360405180948193016136b6565b60a082015260405191829160208352602083019061361f565b0390f35b3461049857602080600319360112610498576107b2610779613361565b6001600160a01b031660009081527f0c2c9b5e6b5a5c9d2d2f8d3c1f73b7f1c3b4d5e6f7a8b9c0d1e2f3a4b5c6d7ea6020526040902090565b604051808284829454938481520190600052846000209260005b8682821061092e57846107e1818603826132de565b80516108056107ef82613508565b916107fd60405193846132de565b808352613508565b601f19018360005b8281106109185750505060005b82518110156108ba578061083060019285613d2b565b516000526000805160206143448339815191528552604060002060056108996040519261085c8461328d565b80548452858060a01b038087830154168a86015260028201541660408501526003810154606085015260405161072a8161072381600486016136b6565b60a08201526108a88285613d2b565b526108b38184613d2b565b500161081a565b604080518581528351818701819052600092600582901b830181019186890191899085015b8287106108ec5785850386f35b909192938280610908600193603f198a8203018652885161361f565b96019201960195929190926108df565b610920613f55565b82828601015201849061080d565b85548452600195860195879550930192016107cc565b3461049857602080600319360112610498576001600160a01b03610966613361565b1660005260086020526040600020906040519081602084549182815201936000526020600020916000905b8282106109b457610758856109a8818903826132de565b6040519182918261359e565b835486529485019460019384019390910190610991565b346104985760003660031901126104985760207f0c2c9b5e6b5a5c9d2d2f8d3c1f73b7f1c3b4d5e6f7a8b9c0d1e2f3a4b5c6d7e854604051908152f35b3461049857604036600319011261049857610a21613377565b600435600052600a60205260406000209060018060a01b0316600052602052602060ff604060002054166040519015158152f35b34610498576040366003190112610498576001600160a01b03610a76613361565b16600052600c60205260406000206024356000526020526020604060002054604051908152f35b3461049857602036600319011261049857610ab9600435613ffd565b506000604051610ac8816132a8565b52610758604051610ad8816132a8565b6000815260405191829160208352602083019061324c565b3461049857608036600319011261049857610b09613361565b610b11613377565b606435916001600160401b03831161049857610b3461064793369060040161331a565b9160443591613e2a565b3461049857610b4c366135da565b908015158080610c46575b610b60906137a6565b81600052600a60205260406000203360005260205260ff6040600020541615610c015780610bf5575b610b92906137a6565b60328211610bb0576000526001602052600760406000200155600080f35b60405162461bcd60e51b815260206004820152601f60248201527f526174696e67206d757374206265206265747765656e203020616e64203530006044820152606490fd5b50600054811115610b89565b60405162461bcd60e51b815260206004820152601f60248201527f4f6e6c7920656e726f6c6c65642073747564656e74732063616e2072617465006044820152606490fd5b50600054821115610b57565b3461049857600036600319011261049857610758604051610c72816132c3565b60058152640352e302e360dc1b602082015260405191829160208352602083019061324c565b3461049857604036600319011261049857610cb1613361565b6024359081151590818303610498576001600160a01b0316918215610d2857610cfa90610cdd336134cf565b8460005260205260406000209060ff801983541691151516179055565b6040519081527f17307eab39ab6107e8899845ad3d59bd9653f200f220920489ca2b5937696c3160203392a3005b604051630b61174360e31b815260048101849052602490fd5b34610498576000366003190112610498576040517f80bb2b638cc20bc4d0a60d66940f3ab4a00c1d7b313497ca82fb0b4ab00793018054826000610d848361367c565b9283835260209460019186600182169182600014610e07575050600114610dc8575b5050610db4925003836132de565b61075860405192828493845283019061324c565b85925060005281600020906000915b858310610def575050610db493508201018580610da6565b80548389018501528794508693909201918101610dd7565b9250935050610db494915060ff191682840152151560051b8201018580610da6565b346104985760203660031901126104985760043580151580610e7c575b610e4f906137a6565b610e61610e5c33836140ff565b6137f5565b60005260016020526020600b60406000200154604051908152f35b50600054811115610e46565b3461049857600036600319011261049857600e546040516001600160a01b039091168152602090f35b604036600319011261049857600435610ec8613377565b907f9b779b17422d0df92223018b32b4d1fa46e071723d6817e2486d003becc55f009160028354146111d15760028355811515806111c5575b610f0a906137a6565b60018060a01b0390818116918260005260209360068552610f3260ff604060002054166139ca565b80600052600a85526040600020846000528552610f5760ff6040600020541615613dce565b8060005260018552604060002094604051610f7181613271565b86548152604051610f89816107238160018c016136b6565b82820152604051610fa1816107238160028c016136b6565b604082015260038701546060820152610160611031600b60048a015499608085019a8b52610fd160058201613841565b60a0860152604051610fea8161072381600686016136b6565b60c0860152600781015460e08601526008810154610100860152876009820154166101208601526040516110258161072381600a86016136b6565b61014086015201613841565b9101528551341061118a5781600052600a8152604060002085600052815261106160ff6040600020541615613dce565b84600052600881526110778260406000206141cf565b6000828152600982526040902080549091600160401b8210156111745761112796611112956110cf847fc65c83424b9743cd85950d4d05ef8ab686409eafe1bf490c528b98f4eb800048966001604097018155613211565b819291549060031b9184831b921b191617905584600052600a82528260002081600052825282600020600160ff19825416179055825191858352820152a1613c98565b61111d600f546137e6565b9081600f55614045565b51803411611136575b60018255005b803403903482116105fc57600080809381938290341461116b575b3390f11561115f5781611130565b6040513d6000823e3d90fd5b506108fc611151565b634e487b7160e01b600052604160045260246000fd5b6064906040519062461bcd60e51b825260048201526014602482015273125b9cdd59999a58da595b9d081c185e5b595b9d60621b6044820152fd5b50600054821115610f01565b604051633ee5aeb560e01b8152600490fd5b3461049857600036600319011261049857600080516020614304833981519152546040516001600160a01b039091168152602090f35b3461049857602036600319011261049857600435600052600b6020526080604060002080549060018101549060ff6003600283015492015416916040519384526020840152604083015215156060820152f35b346104985761127a366135f0565b811515806113f0575b61128c906137a6565b8160005260016020918183526112b360018060a01b03600960406000200154163314613cd0565b8051156113a0576000825b61135b575b50509082600052818152600b60406000200190604051928184018285528354809152604085019260408260051b8701019460005280600020936000905b83821061133057887f5f3ecb61e63394d34a984597179063028a9e892ab46083cc23665bc92a81137a8989038aa2005b90919293838161134b819899603f198c82030186528a6136b6565b9801920192019094939291611300565b908291815181101561139a578061137661038d859385613d2b565b86600052818652611392600b6040600020016103b18386613d2b565b0190916112be565b506112c3565b60405162461bcd60e51b815260048101849052602260248201527f436f6e74656e7420555249732061727261792063616e6e6f7420626520656d70604482015261747960f01b6064820152608490fd5b50600054821115611283565b3461049857604036600319011261049857611415613361565b6001600160a01b0316600081815260036020526040902054602435906114cc5781600052600360205280604060002055600454600160401b8110156111745760018101806004558110156114b65760046000526000805160206143648339815191520180546001600160a01b031916831790556040519081527ff41b6f34bb9c4ca3f7fd3415e13442244ab51655583ce1a228b284abca8c33dc90602090a2005b634e487b7160e01b600052603260045260246000fd5b60405162461bcd60e51b81526020600482015260176024820152764c6563747572657220616c72656164792065786973747360481b6044820152606490fd5b34610498576020366003190112610498576001600160a01b0361152c613361565b166000526006602052602060ff604060002054166040519015158152f35b346104985760203660031901126104985760043560045481101561049857600460005260008051602061436483398151915201546040516001600160a01b039091168152602090f35b34610498576020366003190112610498576001600160a01b036115b4613361565b16600052600360205260206040600020541515604051908152f35b3461049857600319606036820112610498576115e9613361565b602491906001600160401b0383358181116104985761160c90369060040161331a565b906044359081116104985761162590369060040161331a565b3360005260209360038552611640604060002054151561374c565b6001600160a01b0384811660008181526006885260409020549092919060ff16156118c157821561188b57845115611856577f0c2c9b5e6b5a5c9d2d2f8d3c1f73b7f1c3b4d5e6f7a8b9c0d1e2f3a4b5c6d7e89586549660018801809811611841579161175a88611755879694610779839d9e97998f9d9a8c8f8f61174d918960059555604051956116d18761328d565b8a87528187019081526040870190338252600080516020614344833981519152606089019342855260808a0195865260a08a019788528d600052526040600020975188558d600189019151169060018060a01b031991828254161790558d600289019251169082541617905551600386015551600485016138bf565b5191016138bf565b6141cf565b6040516040815284867f2ec0f811294a1373db1a1f85e0a119a631d40f3e1d1bbba7776fc28ef0bd31f8611791604085018c61324c565b938085038d820152806117a533968d61324c565b0390a4600e541692836117bd575b8785604051908152f35b61180460009289976117f56040519a8b998a98899763130e6b2b60e01b8952600489015287015260806044870152608486019061324c565b9184830301606485015261324c565b03925af1611818575b8083818080806117b3565b813d831161183a575b61182b81836132de565b8101031261049857818361180d565b503d611821565b89634e487b7160e01b60005260116004526000fd5b60405162461bcd60e51b815260048101889052600e818a01526d151a5d1b19481c995c5d5a5c995960921b6044820152606490fd5b60405162461bcd60e51b815260048101889052600f818a01526e125b9d985b1a59081cdd1d59195b9d608a1b6044820152606490fd5b60405162461bcd60e51b8152600481018890526018818a015277139bdd0818481c9959da5cdd195c9959081cdd1d59195b9d60421b6044820152606490fd5b3461049857600036600319011261049857611919614196565b60008051602061430483398151915280546001600160a01b031981169091556000906001600160a01b03167f8be0079c531659141344cd1fd0a4f28419497f9722a3daafe3b4186f6b6457e08280a3005b3461049857602036600319011261049857611983613361565b6001600160a01b038116156119a65761199d602091613496565b54604051908152f35b6040516322718ad960e21b815260006004820152602490fd5b34610498576119cd366135da565b90600052600960205260406000208054821015610498576020916119f091613211565b905460405160039290921b1c6001600160a01b03168152f35b3461049857602036600319011261049857610647600435613c98565b34610498576000366003190112610498576020600054604051908152f35b34610498576020366003190112610498576020611a61600435613ffd565b6040516001600160a01b039091168152f35b3461049857604036600319011261049857611a8c613361565b6001600160a01b0316600081815260066020908152604090912054602435919060ff16611b3c576000838152600582526040808220849055600683529020805460ff1916600117905560075491600160401b8310156111745760018301806007558310156114b6576007600090815282902090920180546001600160a01b031916841790556040519182527f481f70abdaaa7e4e53bed4ead7bded11ecbcdaa9f01fe0b3f850cb01e071bf9191a2005b6064906040519062461bcd60e51b82526004820152601660248201527553747564656e7420616c72656164792065786973747360501b6044820152fd5b34610498576020806003193601126104985760043560005260096020526040600020906040519081602084549182815201936000526020600020916000905b828210611bdb5761075885611bcf818903826132de565b6040519182918261341c565b83546001600160a01b031686529485019460019384019390910190611bb8565b346104985760208060031936011261049857611c18610779613361565b906040519081602084549182815201936000526020600020916000905b828210611c4c57610758856109a8818903826132de565b835486529485019460019384019390910190611c35565b3461049857600036600319011261049857610758604051611c83816132c3565b60058152640312e302e360dc1b602082015260405191829160208352602083019061324c565b34610498576000366003190112610498577f00000000000000000000000000000000000000000000000000000000000000006001600160a01b03163003611d025760206040516000805160206143248339815191528152f35b60405163703e46dd60e11b8152600490fd5b604036600319011261049857611d28613361565b6024356001600160401b03811161049857611d4790369060040161331a565b906001600160a01b037f00000000000000000000000000000000000000000000000000000000000000008116308114908115611eca575b50611d0257611d8b614196565b8116906040516352d1902d60e01b8152602081600481865afa60009181611e96575b50611dcb57604051634c9c8ce360e01b815260048101849052602490fd5b60008051602061432483398151915292919290818103611e7e5750823b15611e655780546001600160a01b03191682179055604051907fbc7cd75a20ee27fd9adebab32041f755214dbc6bffa90cc0225b39da2e5c2d3b600080a2825115611e4c575060008083602061064795519101845af4611e46614204565b916142a0565b91505034611e5657005b63b398979f60e01b8152600490fd5b604051634c9c8ce360e01b815260048101839052602490fd5b60249060405190632a87526960e21b82526004820152fd5b9091506020813d602011611ec2575b81611eb2602093836132de565b8101031261049857519085611dad565b3d9150611ea5565b9050816000805160206143248339815191525416141584611d7e565b34610498576020366003190112610498576004356001600160401b03811161049857611f2f6020611f1c8193369060040161331a565b8160405193828580945193849201613229565b8101600281520301902054604051908152f35b3461049857610647611f5336613461565b9060405192611f61846132a8565b60008452613e2a565b3461049857600036600319011261049857611f83614196565b478015611fb557600080516020614304833981519152546000918291829182916001600160a01b031682f11561115f57005b60405162461bcd60e51b81526020600482015260146024820152734e6f2066756e647320746f20776974686472617760601b6044820152606490fd5b346104985760e0366003190112610498576001600160401b036004358181116104985761202290369060040161331a565b906044358181116104985761203b90369060040161331a565b6084358281116104985761205390369060040161351f565b9060a4358381116104985761206c90369060040161331a565b9260c4359081116104985761208590369060040161331a565b9133600052600360205261209f604060002054151561374c565b6120aa6000546137e6565b9384600055604051916120bc836132a8565b60008352604051936120cd85613271565b86855287602086015260408501526024356060850152606435608085015260a084015260c0830152600060e08301526000610100830152336101208301528261014083015261016082015282600052600160205260406000208151815561213b6020830151600183016138bf565b61214c6040830151600283016138bf565b60608201516003820155608082015160048201556005810160a08301519060208251926121798484613c07565b019060005260206000206000915b8383106122d95750505050600b610160916121a960c0850151600683016138bf565b60e0840151600782015561010084015160088201556101208401516009820180546001600160a01b0319166001600160a01b03929092169190911790556101408401516121f990600a83016138bf565b0191015190602082519261220d8484613c07565b019060005260206000206000915b8383106122bc5760208686817fc3f596bfc7ef9eee7af478cb34ec2e69df92434440c3ef1abbc3c8bb89a133ab6122838c83604051888184516122618183858901613229565b810160028152030190205561229960405192839260608452606084019061324c565b606435898401528281036040840152339661324c565b0390a36122b46122aa600f546137e6565b80600f5533614045565b604051908152f35b60016020826122cd839451866138bf565b0192019201919061221b565b60016020826122ea839451866138bf565b01920192019190612187565b34610498576020366003190112610498576001600160a01b03612317613361565b1660005260056020526020604060002054604051908152f35b346104985761064761234136613461565b91613a62565b3461049857604036600319011261049857600435612363613377565b90336000526020916003835261237f604060002054151561374c565b60018060a01b03169182600052600681526123a160ff604060002054166139ca565b81600052600b81526001604060002001546123bd811515613a22565b600052600a8152604060002083600052815260ff604060002054161561243a5781600052600b81526123f86001604060002001541515613a22565b82600052600c8152604060002090826000525260016040600020557f9e5d24579183fa37d9de3c53c170caae77e5ea5a3ed2c66fdd356f590ff779f4600080a3005b6084906040519062461bcd60e51b82526004820152602360248201527f53747564656e74206e6f7420656e726f6c6c656420696e207468697320636f7560448201526272736560e81b6064820152fd5b34610498576020366003190112610498576124a3613361565b6124ab614196565b6001600160a01b031680156124f357600e80546001600160a01b031916821790557f9e3c9747b000bdd55a767a5126710d1412eb8046d8b6fd3e149aa1d2e7ce4a1f600080a2005b60405162461bcd60e51b8152602060048201526013602482015272496e76616c6964204e4654206164647265737360681b6044820152606490fd5b346104985760203660031901126104985760043580151580612590575b612554906137a6565b612561610e5c33836140ff565b600052600160205261075861257c600b604060002001613841565b60405191829160208352602083019061338d565b5060005481111561254b565b3461049857600036600319011261049857604051600780548083526000918252602080840193927fa66cc928b5edb82af9bd49922954155ab7b0942694bea4ce44661d9a8736c68892915b8282106125fe5761075885611bcf818903826132de565b83546001600160a01b0316865294850194600193840193909101906125e7565b34610498576000366003190112610498576040516004805480835260009182526020808401939260008051602061436483398151915292915b82821061266e5761075885611bcf818903826132de565b83546001600160a01b031686529485019460019384019390910190612657565b346104985761269c366133ea565b8115158061277a575b6126ae906137a6565b6000828152600160205260409020600901546001600160a01b031633036127225761036e7f47ed34406a736ccb7fe3e05f167e8de4143bd4f80ef2b29219bcb76a62fd2eb49183600052600160205261270e81600a6040600020016138bf565b60405191829160208352602083019061324c565b60405162461bcd60e51b815260206004820152602a60248201527f4f6e6c7920636f7572736520696e7374727563746f722063616e20757064617460448201526965206d6574616461746160b01b6064820152608490fd5b506000548211156126a5565b346104985760203660031901126104985760043560606101606040516127ab81613271565b60008152826020820152826040820152600083820152600060808201528260a08201528260c0820152600060e082015260006101008201526000610120820152826101408201520152801515806129df575b612806906137a6565b612813610e5c33836140ff565b600052600160205261075860406000206128f2600b6040519261283584613271565b8054845260405161284d8161072381600186016136b6565b60208501526040516128668161072381600286016136b6565b6040850152600381015460608501526004810154608085015261288b60058201613841565b60a08501526040516128a48161072381600686016136b6565b60c0850152600781015460e0850152600881015461010085015260098101546001600160a01b03166101208501526040516128e68161072381600a86016136b6565b61014085015201613841565b61016082015260405191829160208352805160208401526101606129ca612989612973612949612933602087015161018060408b01526101a08a019061324c565b6040870151898203601f190160608b015261324c565b60608601516080890152608086015160a089015260a0860151601f198983030160c08a015261338d565b60c0850151878203601f190160e089015261324c565b60e084015161010087015261010084015161012087015260018060a01b0361012085015116610140870152610140840151601f19878303018488015261324c565b910151838203601f190161018085015261338d565b506000548111156127fd565b3461049857602080600319360112610498576004353360005260038252612a18604060002054151561374c565b80151580612b41575b612a2a906137a6565b80600052600182523360018060a01b036009604060002001541603612b0057612a54600d546137e6565b9081600d5560405160808101908082106001600160401b0383111761117457612ac89160405283815260038582018481526040830142815260608401916000835287600052600b895260406000209451855551600185015551600284015551151591019060ff801983541691151516179055565b817f9d810e0082f8a92772407ea94a85bc457d358804c697a63a434a5043bf81be7f84604051428152a36122b46122aa600f546137e6565b60405162461bcd60e51b81526004810183905260196024820152782737ba103a34329031b7bab939b29034b739ba393ab1ba37b960391b6044820152606490fd5b50600054811115612a21565b3461049857604036600319011261049857612b66613361565b602435612b7281613ffd565b33151580612c21575b80612c01575b612be9576001600160a01b039283169282918491167f8c5be1e5ebec7d5bd14f71427d1e84f3dd0314c0f7b2291e5b200ac8c7c3b925600080a460009081526000805160206143a48339815191526020526040902080546001600160a01b0319169091179055005b60405163a9fbf51f60e01b8152336004820152602490fd5b50612c0b816134cf565b3360005260205260ff6040600020541615612b81565b506001600160a01b038116331415612b7b565b3461049857602036600319011261049857600435612c5181613ffd565b506000526000805160206143a4833981519152602052602060018060a01b0360406000205416604051908152f35b34610498576060366003190112610498576001600160401b0360043581811161049857612cb090369060040161331a565b60243582811161049857612cc890369060040161331a565b906044356001600160a01b0381168103610498577ff0c57e16840df040f15088dc2f81fe391c3923bec73e23a9662efc9c229c6a009283549460ff8660401c16159381871696871580613093575b60018099149081613089575b159081613080575b5061306e5767ffffffffffffffff198116881787558561304f575b50612d4e614234565b612d56614234565b8051828111611174577f80bb2b638cc20bc4d0a60d66940f3ab4a00c1d7b313497ca82fb0b4ab007930090612d8b825461367c565b92601f9384811161301f575b50602090848311600114612fbd57612dc8929160009183612fb2575b50508160011b916000199060031b1c19161790565b90555b8251918211611174577f80bb2b638cc20bc4d0a60d66940f3ab4a00c1d7b313497ca82fb0b4ab007930192612e00845461367c565b828111612f78575b506020918311600114612f0f579180612e3d92612e50969594600092612f045750508160011b916000199060031b1c19161790565b90555b612e48614234565b610642614234565b612e58614234565b612e60614234565b612e68614234565b827f9b779b17422d0df92223018b32b4d1fa46e071723d6817e2486d003becc55f0055612e93614234565b612e9b614234565b612ea3614234565b612eab614234565b612eb3614234565b6000600d55612ec0614234565b6000600f55612ecb57005b805460ff60401b191690556040519081527fc7f505b2f371ae2175ee4913f4499e1f2633a7b5936321eed1cdaeb6115181d290602090a1005b015190508980612db3565b9392918791601f1982169084600052806000209160005b818110612f6057509683612e509810612f47575b505050811b019055612e40565b015160001960f88460031b161c19169055888080612f3a565b8289015184558b959093019260209283019201612f26565b612fa3908560005260206000208480870160051c82019260208810612fa9575b0160051c01906138a8565b88612e08565b92508192612f98565b015190508b80612db3565b8a9291601f1983169185600052816000209260005b81811061300757508411612fee575b505050811b019055612dcb565b015160001960f88460031b161c191690558a8080612fe1565b8284015185558e969094019360209384019301612fd2565b613049908460005260206000208680860160051c82019260208710612fa9570160051c01906138a8565b8a612d97565b68ffffffffffffffffff19166801000000000000000117865587612d45565b60405163f92ee8a960e01b8152600490fd5b90501589612d2a565b303b159150612d22565b5085612d16565b34610498576000366003190112610498576040517f80bb2b638cc20bc4d0a60d66940f3ab4a00c1d7b313497ca82fb0b4ab007930080548260006130dd8361367c565b9283835260209460019186600182169182600014610e0757505060011461310c575050610db4925003836132de565b85925060005281600020906000915b858310613133575050610db493508201018580610da6565b8054838901850152879450869390920191810161311b565b34610498576020366003190112610498576004356007548110156104985760076000527fa66cc928b5edb82af9bd49922954155ab7b0942694bea4ce44661d9a8736c68801546040516001600160a01b039091168152602090f35b34610498576020366003190112610498576004359063ffffffff60e01b8216809203610498576020916380ac58cd60e01b8114908115613200575b81156131ef575b5015158152f35b6301ffc9a760e01b149050836131e8565b635b5e139f60e01b811491506131e1565b80548210156114b65760005260206000200190600090565b60005b83811061323c5750506000910152565b818101518382015260200161322c565b9060209161326581518092818552858086019101613229565b601f01601f1916010190565b61018081019081106001600160401b0382111761117457604052565b60c081019081106001600160401b0382111761117457604052565b602081019081106001600160401b0382111761117457604052565b604081019081106001600160401b0382111761117457604052565b90601f801991011681019081106001600160401b0382111761117457604052565b6001600160401b03811161117457601f01601f191660200190565b81601f8201121561049857803590613331826132ff565b9261333f60405194856132de565b8284526020838301011161049857816000926020809301838601378301015290565b600435906001600160a01b038216820361049857565b602435906001600160a01b038216820361049857565b90808251908181526020809101926020808460051b8301019501936000915b8483106133bc5750505050505090565b90919293949584806133da600193601f198682030187528a5161324c565b98019301930191949392906133ac565b9060406003198301126104985760043591602435906001600160401b038211610498576134199160040161331a565b90565b602090602060408183019282815285518094520193019160005b828110613444575050505090565b83516001600160a01b031685529381019392810192600101613436565b6060906003190112610498576001600160a01b0390600435828116810361049857916024359081168103610498579060443590565b6001600160a01b031660009081527f80bb2b638cc20bc4d0a60d66940f3ab4a00c1d7b313497ca82fb0b4ab00793036020526040902090565b6001600160a01b031660009081527f80bb2b638cc20bc4d0a60d66940f3ab4a00c1d7b313497ca82fb0b4ab00793056020526040902090565b6001600160401b0381116111745760051b60200190565b81601f820112156104985780359160209161353984613508565b9361354760405195866132de565b808552838086019160051b8301019280841161049857848301915b8483106135725750505050505090565b82356001600160401b0381116104985786916135938484809489010161331a565b815201920191613562565b602090602060408183019282815285518094520193019160005b8281106135c6575050505090565b8351855293810193928101926001016135b8565b6040906003190112610498576004359060243590565b9060406003198301126104985760043591602435906001600160401b038211610498576134199160040161351f565b6134199181518152602082015160018060a01b03809116602083015260408301511660408201526060820151606082015260a061366b608084015160c0608085015260c084019061324c565b9201519060a081840391015261324c565b90600182811c921680156136ac575b602083101461369657565b634e487b7160e01b600052602260045260246000fd5b91607f169161368b565b8054600093926136c58261367c565b9182825260209360019160018116908160001461372d57506001146136ec575b5050505050565b90939495506000929192528360002092846000945b838610613719575050505001019038808080806136e5565b805485870183015294019385908201613701565b60ff19168685015250505090151560051b0101915038808080806136e5565b1561375357565b60405162461bcd60e51b815260206004820152602560248201527f4f6e6c79206c656374757265722063616e20706572666f726d2074686973206160448201526431ba34b7b760d91b6064820152608490fd5b156137ad57565b60405162461bcd60e51b8152602060048201526011602482015270125b9d985b1a590818dbdd5c9cd9481251607a1b6044820152606490fd5b60001981146105fc5760010190565b156137fc57565b60405162461bcd60e51b815260206004820152601d60248201527f4163636573732064656e6965643a206e6f7420617574686f72697a65640000006044820152606490fd5b90815461384d81613508565b9260409361385e60405191826132de565b82815280946020809201926000526020600020906000935b85851061388557505050505050565b6001848192845161389a81610723818a6136b6565b815201930194019391613876565b8181106138b3575050565b600081556001016138a8565b91909182516001600160401b038111611174576138dc825461367c565b601f811161398d575b50602080601f83116001146139285750819061391993949560009261391d5750508160011b916000199060031b1c19161790565b9055565b015190503880612db3565b90601f19831695846000526020600020926000905b8882106139755750508360019596971061395c575b505050811b019055565b015160001960f88460031b161c19169055388080613952565b8060018596829496860151815501950193019061393d565b6139ba90836000526020600020601f840160051c810191602085106139c0575b601f0160051c01906138a8565b386138e5565b90915081906139ad565b156139d157565b60405162461bcd60e51b815260206004820152602360248201527f41646472657373206973206e6f74206120726567697374657265642073747564604482015262195b9d60ea1b6064820152608490fd5b15613a2957565b60405162461bcd60e51b815260206004820152601160248201527014d95cdcda5bdb881b9bdd08199bdd5b99607a1b6044820152606490fd5b6001600160a01b0382811693918415613bee5782600095818752600080516020614384833981519152958660205260409785898220541697889233151580613b48575b5090613ad77fddf252ad1be2c89b69c2b068fc378daa952ba7f163c4a11628f55a4df523b3ef939285613b2957613496565b8054600101905585825260205289812080546001600160a01b0319168517905580a41692838303613b085750505050565b6064945051926364283d7b60e01b8452600484015260248301526044820152fd5b613b3288614275565b613b3b86613496565b8054600019019055613496565b9193509193945080613b9f575b15613b665791879187949338613aa5565b888789613b83576024915190637e27328960e01b82526004820152fd5b604491519063177e802f60e01b82523360048301526024820152fd5b503388148015613bd2575b80613b5557508683526000805160206143a483398151915260205233868a8520541614613b55565b50613bdc886134cf565b33845260205260ff8984205416613baa565b604051633250574960e11b815260006004820152602490fd5b600160401b821161117457805491808255828110613c2457505050565b60009182526020906020832093840193015b838110613c435750505050565b8083613c516001935461367c565b80613c5f575b505001613c36565b601f8082118514613c7657505081555b8338613c57565b613c8f90848452868420920160051c82018583016138a8565b81835555613c6f565b80151580613cc4575b613caa906137a6565b6000526001602052600860406000200161391981546137e6565b50600054811115613ca1565b15613cd757565b60405162461bcd60e51b815260206004820152602660248201527f4f6e6c7920636f7572736520696e7374727563746f722063616e2061646420636044820152651bdb9d195b9d60d21b6064820152608490fd5b80518210156114b65760209160051b010190565b15613d4657565b60405162461bcd60e51b815260206004820152601b60248201527a436f6e74656e74205552492063616e6e6f7420626520656d70747960281b6044820152606490fd5b8054600160401b81101561117457613da691600182018155613211565b919091613db857613db6916138bf565b565b634e487b7160e01b600052600060045260246000fd5b15613dd557565b60405162461bcd60e51b815260206004820152602760248201527f53747564656e7420616c726561647920656e726f6c6c656420696e207468697360448201526620636f7572736560c81b6064820152608490fd5b9190613e37828285613a62565b803b613e44575b50505050565b613e8660018060a01b0380921694604051938493630a85bd0160e11b96878652336004870152166024850152604484015260806064840152608483019061324c565b03906020816000938185885af190829082613f05575b5050613ed45782613eab614204565b8051919082613ecd57604051633250574960e11b815260048101839052602490fd5b6020915001fd5b6001600160e01b03191603613eed575038808080613e3e565b60249060405190633250574960e11b82526004820152fd5b909192506020813d602011613f4d575b81613f22602093836132de565b81010312613f495751906001600160e01b031982168203613f465750903880613e9c565b80fd5b5080fd5b3d9150613f15565b60405190613f628261328d565b606060a0836000815260006020820152600060408201526000838201528260808201520152565b6001600160a01b03908116908115613fe45760008051602061430483398151915280546001600160a01b031981168417909155167f8be0079c531659141344cd1fd0a4f28419497f9722a3daafe3b4186f6b6457e0600080a3565b604051631e4fbdf760e01b815260006004820152602490fd5b600081815260008051602061438483398151915260205260409020546001600160a01b031690811561402d575090565b60249060405190637e27328960e01b82526004820152fd5b6001600160a01b03918183168015613bee5760009382855260008051602061438483398151915290816020526040862054169061408982151595866140ed57613496565b805460010190558386526020526040852080546001600160a01b031916831790557fddf252ad1be2c89b69c2b068fc378daa952ba7f163c4a11628f55a4df523b3ef8580a46140d55750565b602490604051906339e3563760e11b82526004820152fd5b6140f686614275565b613b3b84613496565b8015801561418b575b6141845760008181526001602052604081206009015490926001600160a01b039081169116811461417c57808352600660205260ff6040842054169182614159575b50506141535790565b50600190565b9091508252600a6020526040822090825260205260ff604082205416388061414a565b505050600190565b5050600090565b506000548111614108565b600080516020614304833981519152546001600160a01b031633036141b757565b60405163118cdaa760e01b8152336004820152602490fd5b8054600160401b811015611174576141ec91600182018155613211565b819291549060031b91821b91600019901b1916179055565b3d1561422f573d90614215826132ff565b9161422360405193846132de565b82523d6000602084013e565b606090565b60ff7ff0c57e16840df040f15088dc2f81fe391c3923bec73e23a9662efc9c229c6a005460401c161561426357565b604051631afcd79f60e31b8152600490fd5b60009081526000805160206143a48339815191526020526040902080546001600160a01b0319169055565b906142c757508051156142b557602081519101fd5b60405163d6bda27560e01b8152600490fd5b815115806142fa575b6142d8575090565b604051639996b31560e01b81526001600160a01b039091166004820152602490fd5b50803b156142d056fe9016d09d72d40fdae2fd8ceac6b6234c7706214fd39c1cd1e609a0528c199300360894a13ba1a3210667c828492db98dca3e2076cc3735a920a3ca505d382bbc0c2c9b5e6b5a5c9d2d2f8d3c1f73b7f1c3b4d5e6f7a8b9c0d1e2f3a4b5c6d7e98a35acfbc15ff81a39ae7d344fd709f28e8600b4aa8c65c6b64bfe7fe36bd19b80bb2b638cc20bc4d0a60d66940f3ab4a00c1d7b313497ca82fb0b4ab007930280bb2b638cc20bc4d0a60d66940f3ab4a00c1d7b313497ca82fb0b4ab0079304a26469706673582212208ae98f79599bcfa4888cc640d7f52bb54b19254c86fdbf8cdd7d12b0974a2c5364736f6c63430008160033",
  "linkReferences": {},
  "deployedLinkReferences": {}
}