{
  "_format": "hh-sol-artifact-1",
  "contractName": "CertificateNFT",
  "sourceName": "contracts/CertificateNFT.sol",
  "abi": [
    {
      "inputs": [
        {
          "internalType": "string",
          "name": "name_",
          "type": "string"
        },
        {
          "internalType": "string",
          "name": "symbol_",
          "type": "string"
        }
      ],
      "stateMutability": "nonpayable",
      "type": "constructor"
    },
    {
      "inputs": [],
      "name": "AccessControlBadConfirmation",
      "type": "error"
    },
    {
      "inputs": [
        {
          "internalType": "address",
          "name": "account",
          "type": "address"
        },
        {
          "internalType": "bytes32",
          "name": "neededRole",
          "type": "bytes32"
        }
      ],
      "name": "AccessControlUnauthorizedAccount",
      "type": "error"
    },
    {
      "inputs": [
        {
          "internalType": "address",
          "name": "sender",
          "type": "address"
        },
        {
          "internalType": "uint256",
          "name": "tokenId",
          "type": "uint256"
        },
        {
          "internalType": "address",
          "name": "owner",
          "type": "address"
        }
      ],
      "name": "ERC721IncorrectOwner",
      "type": "error"
    },
    {
      "inputs": [
        {
          "internalType": "address",
          "name": "operator",
          "type": "address"
        },
        {
          "internalType": "uint256",
          "name": "tokenId",
          "type": "uint256"
        }
      ],
      "name": "ERC721InsufficientApproval",
      "type": "error"
    },
    {
      "inputs": [
        {
          "internalType": "address",
          "name": "approver",
          "type": "address"
        }
      ],
      "name": "ERC721InvalidApprover",
      "type": "error"
    },
    {
      "inputs": [
        {
          "internalType": "address",
          "name": "operator",
          "type": "address"
        }
      ],
      "name": "ERC721InvalidOperator",
      "type": "error"
    },
    {
      "inputs": [
        {
          "internalType": "address",
          "name": "owner",
          "type": "address"
        }
      ],
      "name": "ERC721InvalidOwner",
      "type": "error"
    },
    {
      "inputs": [
        {
          "internalType": "address",
          "name": "receiver",
          "type": "address"
        }
      ],
      "name": "ERC721InvalidReceiver",
      "type": "error"
    },
    {
      "inputs": [
        {
          "internalType": "address",
          "name": "sender",
          "type": "address"
        }
      ],
      "name": "ERC721InvalidSender",
      "type": "error"
    },
    {
      "inputs": [
        {
          "internalType": "uint256",
          "name": "tokenId",
          "type": "uint256"
        }
      ],
      "name": "ERC721NonexistentToken",
      "type": "error"
    },
    {
      "inputs": [
        {
          "internalType": "address",
          "name": "owner",
          "type": "address"
        }
      ],
      "name": "OwnableInvalidOwner",
      "type": "error"
    },
    {
      "inputs": [
        {
          "internalType": "address",
          "name": "account",
          "type": "address"
        }
      ],
      "name": "OwnableUnauthorizedAccount",
      "type": "error"
    },
    {
      "anonymous": false,
      "inputs": [
        {
          "indexed": true,
          "internalType": "address",
          "name": "owner",
          "type": "address"
        },
        {
          "indexed": true,
          "internalType": "address",
          "name": "approved",
          "type": "address"
        },
        {
          "indexed": true,
          "internalType": "uint256",
          "name": "tokenId",
          "type": "uint256"
        }
      ],
      "name": "Approval",
      "type": "event"
    },
    {
      "anonymous": false,
      "inputs": [
        {
          "indexed": true,
          "internalType": "address",
          "name": "owner",
          "type": "address"
        },
        {
          "indexed": true,
          "internalType": "address",
          "name": "operator",
          "type": "address"
        },
        {
          "indexed": false,
          "internalType": "bool",
          "name": "approved",
          "type": "bool"
        }
      ],
      "name": "ApprovalForAll",
      "type": "event"
    },
    {
      "anonymous": false,
      "inputs": [
        {
          "indexed": true,
          "internalType": "uint256",
          "name": "tokenId",
          "type": "uint256"
        },
        {
          "indexed": true,
          "internalType": "address",
          "name": "to",
          "type": "address"
        },
        {
          "indexed": false,
          "internalType": "uint256",
          "name": "credentialId",
          "type": "uint256"
        },
        {
          "indexed": false,
          "internalType": "string",
          "name": "title",
          "type": "string"
        },
        {
          "indexed": false,
          "internalType": "string",
          "name": "metadataUri",
          "type": "string"
        }
      ],
      "name": "CertificateMinted",
      "type": "event"
    },
    {
      "anonymous": false,
      "inputs": [
        {
          "indexed": true,
          "internalType": "address",
          "name": "previousOwner",
          "type": "address"
        },
        {
          "indexed": true,
          "internalType": "address",
          "name": "newOwner",
          "type": "address"
        }
      ],
      "name": "OwnershipTransferred",
      "type": "event"
    },
    {
      "anonymous": false,
      "inputs": [
        {
          "indexed": true,
          "internalType": "bytes32",
          "name": "role",
          "type": "bytes32"
        },
        {
          "indexed": true,
          "internalType": "bytes32",
          "name": "previousAdminRole",
          "type": "bytes32"
        },
        {
          "indexed": true,
          "internalType": "bytes32",
          "name": "newAdminRole",
          "type": "bytes32"
        }
      ],
      "name": "RoleAdminChanged",
      "type": "event"
    },
    {
      "anonymous": false,
      "inputs": [
        {
          "indexed": true,
          "internalType": "bytes32",
          "name": "role",
          "type": "bytes32"
        },
        {
          "indexed": true,
          "internalType": "address",
          "name": "account",
          "type": "address"
        },
        {
          "indexed": true,
          "internalType": "address",
          "name": "sender",
          "type": "address"
        }
      ],
      "name": "RoleGranted",
      "type": "event"
    },
    {
      "anonymous": false,
      "inputs": [
        {
          "indexed": true,
          "internalType": "bytes32",
          "name": "role",
          "type": "bytes32"
        },
        {
          "indexed": true,
          "internalType": "address",
          "name": "account",
          "type": "address"
        },
        {
          "indexed": true,
          "internalType": "address",
          "name": "sender",
          "type": "address"
        }
      ],
      "name": "RoleRevoked",
      "type": "event"
    },
    {
      "anonymous": false,
      "inputs": [
        {
          "indexed": true,
          "internalType": "address",
          "name": "from",
          "type": "address"
        },
        {
          "indexed": true,
          "internalType": "address",
          "name": "to",
          "type": "address"
        },
        {
          "indexed": true,
          "internalType": "uint256",
          "name": "tokenId",
          "type": "uint256"
        }
      ],
      "name": "Transfer",
      "type": "event"
    },
    {
      "inputs": [],
      "name": "DEFAULT_ADMIN_ROLE",
      "outputs": [
        {
          "internalType": "bytes32",
          "name": "",
          "type": "bytes32"
        }
      ],
      "stateMutability": "view",
      "type": "function"
    },
    {
      "inputs": [],
      "name": "MINTER_ROLE",
      "outputs": [
        {
          "internalType": "bytes32",
          "name": "",
          "type": "bytes32"
        }
      ],
      "stateMutability": "view",
      "type": "function"
    },
    {
      "inputs": [
        {
          "internalType": "address",
          "name": "to",
          "type": "address"
        },
        {
          "internalType": "uint256",
          "name": "tokenId",
          "type": "uint256"
        }
      ],
      "name": "approve",
      "outputs": [],
      "stateMutability": "nonpayable",
      "type": "function"
    },
    {
      "inputs": [
        {
          "internalType": "address",
          "name": "owner",
          "type": "address"
        }
      ],
      "name": "balanceOf",
      "outputs": [
        {
          "internalType": "uint256",
          "name": "",
          "type": "uint256"
        }
      ],
      "stateMutability": "view",
      "type": "function"
    },
    {
      "inputs": [
        {
          "internalType": "uint256",
          "name": "",
          "type": "uint256"
        }
      ],
      "name": "certificateCredential",
      "outputs": [
        {
          "internalType": "uint256",
          "name": "",
          "type": "uint256"
        }
      ],
      "stateMutability": "view",
      "type": "function"
    },
    {
      "inputs": [
        {
          "internalType": "uint256",
          "name": "",
          "type": "uint256"
        }
      ],
      "name": "credentialCertificate",
      "outputs": [
        {
          "internalType": "uint256",
          "name": "",
          "type": "uint256"
        }
      ],
      "stateMutability": "view",
      "type": "function"
    },
    {
      "inputs": [
        {
          "internalType": "uint256",
          "name": "tokenId",
          "type": "uint256"
        }
      ],
      "name": "getApproved",
      "outputs": [
        {
          "internalType": "address",
          "name": "",
          "type": "address"
        }
      ],
      "stateMutability": "view",
      "type": "function"
    },
    {
      "inputs": [
        {
          "internalType": "bytes32",
          "name": "role",
          "type": "bytes32"
        }
      ],
      "name": "getRoleAdmin",
      "outputs": [
        {
          "internalType": "bytes32",
          "name": "",
          "type": "bytes32"
        }
      ],
      "stateMutability": "view",
      "type": "function"
    },
    {
      "inputs": [
        {
          "internalType": "bytes32",
          "name": "role",
          "type": "bytes32"
        },
        {
          "internalType": "address",
          "name": "account",
          "type": "address"
        }
      ],
      "name": "grantRole",
      "outputs": [],
      "stateMutability": "nonpayable",
      "type": "function"
    },
    {
      "inputs": [
        {
          "internalType": "bytes32",
          "name": "role",
          "type": "bytes32"
        },
        {
          "internalType": "address",
          "name": "account",
          "type": "address"
        }
      ],
      "name": "hasRole",
      "outputs": [
        {
          "internalType": "bool",
          "name": "",
          "type": "bool"
        }
      ],
      "stateMutability": "view",
      "type": "function"
    },
    {
      "inputs": [
        {
          "internalType": "address",
          "name": "owner",
          "type": "address"
        },
        {
          "internalType": "address",
          "name": "operator",
          "type": "address"
        }
      ],
      "name": "isApprovedForAll",
      "outputs": [
        {
          "internalType": "bool",
          "name": "",
          "type": "bool"
        }
      ],
      "stateMutability": "view",
      "type": "function"
    },
    {
      "inputs": [
        {
          "internalType": "address",
          "name": "to",
          "type": "address"
        },
        {
          "internalType": "string",
          "name": "title",
          "type": "string"
        },
        {
          "internalType": "string",
          "name": "metadataUri",
          "type": "string"
        }
      ],
      "name": "mintCertificate",
      "outputs": [
        {
          "internalType": "uint256",
          "name": "",
          "type": "uint256"
        }
      ],
      "stateMutability": "nonpayable",
      "type": "function"
    },
    {
      "inputs": [
        {
          "internalType": "address",
          "name": "to",
          "type": "address"
        },
        {
          "internalType": "uint256",
          "name": "credentialId",
          "type": "uint256"
        },
        {
          "internalType": "string",
          "name": "title",
          "type": "string"
        },
        {
          "internalType": "string",
          "name": "metadataUri",
          "type": "string"
        }
      ],
      "name": "mintCertificateForCredential",
      "outputs": [
        {
          "internalType": "uint256",
          "name": "",
          "type": "uint256"
        }
      ],
      "stateMutability": "nonpayable",
      "type": "function"
    },
    {
      "inputs": [],
      "name": "name",
      "outputs": [
        {
          "internalType": "string",
          "name": "",
          "type": "string"
        }
      ],
      "stateMutability": "view",
      "type": "function"
    },
    {
      "inputs": [],
      "name": "owner",
      "outputs": [
        {
          "internalType": "address",
          "name": "",
          "type": "address"
        }
      ],
      "stateMutability": "view",
      "type": "function"
    },
    {
      "inputs": [
        {
          "internalType": "uint256",
          "name": "tokenId",
          "type": "uint256"
        }
      ],
      "name": "ownerOf",
      "outputs": [
        {
          "internalType": "address",
          "name": "",
          "type": "address"
        }
      ],
      "stateMutability": "view",
      "type": "function"
    },
    {
      "inputs": [],
      "name": "renounceOwnership",
      "outputs": [],
      "stateMutability": "nonpayable",
      "type": "function"
    },
    {
      "inputs": [
        {
          "internalType": "bytes32",
          "name": "role",
          "type": "bytes32"
        },
        {
          "internalType": "address",
          "name": "callerConfirmation",
          "type": "address"
        }
      ],
      "name": "renounceRole",
      "outputs": [],
      "stateMutability": "nonpayable",
      "type": "function"
    },
    {
      "inputs": [
        {
          "internalType": "bytes32",
          "name": "role",
          "type": "bytes32"
        },
        {
          "internalType": "address",
          "name": "account",
          "type": "address"
        }
      ],
      "name": "revokeRole",
      "outputs": [],
      "stateMutability": "nonpayable",
      "type": "function"
    },
    {
      "inputs": [
        {
          "internalType": "address",
          "name": "from",
          "type": "address"
        },
        {
          "internalType": "address",
          "name": "to",
          "type": "address"
        },
        {
          "internalType": "uint256",
          "name": "tokenId",
          "type": "uint256"
        }
      ],
      "name": "safeTransferFrom",
      "outputs": [],
      "stateMutability": "nonpayable",
      "type": "function"
    },
    {
      "inputs": [
        {
          "internalType": "address",
          "name": "from",
          "type": "address"
        },
        {
          "internalType": "address",
          "name": "to",
          "type": "address"
        },
        {
          "internalType": "uint256",
          "name": "tokenId",
          "type": "uint256"
        },
        {
          "internalType": "bytes",
          "name": "data",
          "type": "bytes"
        }
      ],
      "name": "safeTransferFrom",
      "outputs": [],
      "stateMutability": "nonpayable",
      "type": "function"
    },
    {
      "inputs": [
        {
          "internalType": "address",
          "name": "operator",
          "type": "address"
        },
        {
          "internalType": "bool",
          "name": "approved",
          "type": "bool"
        }
      ],
      "name": "setApprovalForAll",
      "outputs": [],
      "stateMutability": "nonpayable",
      "type": "function"
    },
    {
      "inputs": [
        {
          "internalType": "address",
          "name": "account",
          "type": "address"
        },
        {
          "internalType": "bool",
          "name": "enabled",
          "type": "bool"
        }
      ],
      "name": "setMinter",
      "outputs": [],
      "stateMutability": "nonpayable",
      "type": "function"
    },
    {
      "inputs": [
        {
          "internalType": "bytes4",
          "name": "interfaceId",
          "type": "bytes4"
        }
      ],
      "name": "supportsInterface",
      "outputs": [
        {
          "internalType": "bool",
          "name": "",
          "type": "bool"
        }
      ],
      "stateMutability": "view",
      "type": "function"
    },
    {
      "inputs": [],
      "name": "symbol",
      "outputs": [
        {
          "internalType": "string",
          "name": "",
          "type": "string"
        }
      ],
      "stateMutability": "view",
      "type": "function"
    },
    {
      "inputs": [
        {
          "internalType": "uint256",
          "name": "tokenId",
          "type": "uint256"
        }
      ],
      "name": "tokenURI",
      "outputs": [
        {
          "internalType": "string",
          "name": "",
          "type": "string"
        }
      ],
      "stateMutability": "view",
      "type": "function"
    },
    {
      "inputs": [
        {
          "internalType": "address",
          "name": "from",
          "type": "address"
        },
        {
          "internalType": "address",
          "name": "to",
          "type": "address"
        },
        {
          "internalType": "uint256",
          "name": "tokenId",
          "type": "uint256"
        }
      ],
      "name": "transferFrom",
      "outputs": [],
      "stateMutability": "nonpayable",
      "type": "function"
    },
    {
      "inputs": [
        {
          "internalType": "address",
          "name": "newOwner",
          "type": "address"
        }
      ],
      "name": "transferOwnership",
      "outputs": [],
      "stateMutability": "nonpayable",
      "type": "function"
    }
  ],
  "bytecode": "0x608060405234620003995762001fb4803803806200001d816200039e565b9283398101604082820312620003995781516001600160401b0392908381116200039957826200004f918301620003c4565b906020928382015185811162000399576200006b9201620003c4565b92815181811162000383576000938454916001948584811c9416801562000378575b8385101462000364578190601f9485811162000311575b508390858311600114620002ad578892620002a1575b5050600019600383901b1c191690851b1785555b85519283116200028d5783548481811c9116801562000282575b828210146200026e5782811162000226575b5080918311600114620001c05750839482939492620001b4575b5050600019600383901b1c191690821b1790555b33156200019c5760068054336001600160a01b0319821681179092556001600160a01b03167f8be0079c531659141344cd1fd0a4f28419497f9722a3daafe3b4186f6b6457e08380a36200017c3362000436565b506200018833620004b7565b50600855604051611a3990816200055b8239f35b60249060405190631e4fbdf760e01b82526004820152fd5b01519050388062000114565b90601f198316958486528286209286905b8882106200020e5750508385969710620001f4575b505050811b01905562000128565b015160001960f88460031b161c19169055388080620001e6565b808785968294968601518155019501930190620001d1565b8486528186208380860160051c82019284871062000264575b0160051c019085905b82811062000258575050620000fa565b87815501859062000248565b925081926200023f565b634e487b7160e01b86526022600452602486fd5b90607f1690620000e8565b634e487b7160e01b85526041600452602485fd5b015190503880620000ba565b8880528489208894509190601f1984168a5b87828210620002fa5750508411620002e0575b505050811b018555620000ce565b015160001960f88460031b161c19169055388080620002d2565b8385015186558b97909501949384019301620002bf565b9091508780528388208580850160051c8201928686106200035a575b918991869594930160051c01915b8281106200034b575050620000a4565b8a81558594508991016200033b565b925081926200032d565b634e487b7160e01b87526022600452602487fd5b93607f16936200008d565b634e487b7160e01b600052604160045260246000fd5b600080fd5b6040519190601f01601f191682016001600160401b038111838210176200038357604052565b919080601f84011215620003995782516001600160401b0381116200038357602090620003fa601f8201601f191683016200039e565b92818452828287010111620003995760005b8181106200042257508260009394955001015290565b85810183015184820184015282016200040c565b6001600160a01b031660008181527f6d5257204ebe7d88fd91ae87941cb2dd9d8062b64ae5a2bd2d28ec40b9fbf6df602052604081205490919060ff16620004b35781805260076020526040822081835260205260408220600160ff19825416179055339160008051602062001f948339815191528180a4600190565b5090565b6001600160a01b031660008181527fa4bfd7afe708e2e87e7f0e2ad9b4d545417e0f795f57b5c5ab5d799c565a04f460205260408120549091907f9f2df0fed2c77648de5860a4cc508cd0818c85b8b8a1ab4ceeef8d981c8956a69060ff16620005555780835260076020526040832082845260205260408320600160ff1982541617905560008051602062001f94833981519152339380a4600190565b50509056fe6080604081815260048036101561001557600080fd5b600092833560e01c90816301ffc9a714610ef75750806306fdde0314610e64578063081812fc14610e29578063095ea7b314610d4d578063130e6b2b14610a5957806323b872dd14610a41578063248a9ca314610a175780632f2ff15d146109ee57806336568abe146109a757806342842e0e146109785780636352211e146109475780636b55243d146106dc5780636c05af0a146106b557806370a0823114610660578063715018a6146106155780638da5cb5b146105ec57806391d14854146105a657806395d89b41146104e85780639b0987cf146104c1578063a217fddf146104a6578063a22cb46514610419578063b88d4fde146103a7578063c87b56dd146102bc578063cf456ae71461028b578063d539139314610262578063d547741f14610223578063e985e9c5146101d15763f2fde38b1461015757600080fd5b346101cd5760203660031901126101cd57610170610fbd565b9061017961178b565b6001600160a01b039182169283156101b7575050600680546001600160a01b031981168417909155166000805160206119448339815191528380a380f35b51631e4fbdf760e01b8152908101849052602490fd5b8280fd5b50503461021f578060031936011261021f5760ff816020936101f1610fbd565b6101f9610fd8565b6001600160a01b0391821683526005875283832091168252855220549151911615158152f35b5080fd5b5090346101cd57806003193601126101cd5761025e91356102596001610247610fd8565b9383875260076020528620015461139b565b611726565b5080f35b50503461021f578160031936011261021f57602090516000805160206119648339815191528152f35b83346102b95761029a366110e7565b6102a261178b565b156102b05761025e906115ca565b61025e906116b0565b80fd5b5090346101cd57602091826003193601126103a357356102db8161130a565b508352600b82528083208151938491818154906102f782611116565b928386526001928860018216918260001461037957505060011461033b575b858861033789610328848a038561101f565b51928284938452830190610f7d565b0390f35b87945081939291528383205b828410610361575050508201018161032861033738610316565b8054848a018601528895508794909301928101610347565b60ff19168882015294151560051b8701909401945085935061032892506103379150389050610316565b8380fd5b83823461021f57608036600319011261021f576103c2610fbd565b6103ca610fd8565b604435906064356001600160401b038111610415573660238201121561041557610412948160246104009336930135910161105d565b9261040c838383611190565b336117b7565b80f35b8580fd5b5090346101cd57610429366110e7565b6001600160a01b03909116929091908315610491575033845260056020528084208385526020528084209115159160ff1981541660ff8416179055519081527f17307eab39ab6107e8899845ad3d59bd9653f200f220920489ca2b5937696c3160203392a380f35b836024925191630b61174360e31b8352820152fd5b50503461021f578160031936011261021f5751908152602090f35b50346101cd5760203660031901126101cd576020928291358152600a845220549051908152f35b8284346102b957806003193601126102b95781519182826001936001549461050f86611116565b918285526020968760018216918260001461057f575050600114610541575b505050610337929161032891038561101f565b9190869350600183528383205b828410610567575050508201018161032861033761052e565b8054848a01860152889550879490930192810161054e565b60ff19168782015293151560051b860190930193508492506103289150610337905061052e565b50346101cd57816003193601126101cd578160209360ff926105c6610fd8565b90358252600786528282206001600160a01b039091168252855220549151911615158152f35b50503461021f578160031936011261021f5760065490516001600160a01b039091168152602090f35b83346102b957806003193601126102b95761062e61178b565b600680546001600160a01b0319811690915581906001600160a01b03166000805160206119448339815191528280a380f35b5091346102b95760203660031901126102b9576001600160a01b03610683610fbd565b169283156106a05750806020938392526003845220549051908152f35b91516322718ad960e21b815291820152602490fd5b50346101cd5760203660031901126101cd5760209282913581526009845220549051908152f35b5090346101cd5760603660031901126101cd576106f7610fbd565b926001600160401b03926024358481116101cd576107189036908301611094565b6044358581116103a35761072f9036908401611094565b92610738611345565b6001600160a01b0387169361074e851515611150565b8251156109135760085496600198898901809911610900578861077491816008556113c1565b878352602098600b8a528784209583519283116108ed575090889493929161079c8754611116565b601f8111610898575b508a601f831160011461081f579180806000805160206119e483398151915298999361080b96958893610814575b501b916000199060031b1c19161790555b6107fe8851948594855260608c8601526060850190610f7d565b9083820389850152610f7d565b0390a351908152f35b8601519250386107d3565b8785528b852091929190601f198316868e5b8282106108805750509183916000805160206119e4833981519152999a9461080b97969410610867575b5050811b0190556107e4565b85015160001960f88460031b161c19169055388061085b565b8784015185558e9a509386019392830192018e610831565b909192939495508685528a8520601f840160051c8101918c85106108e3575b90601f8c989796959493920160051c01905b8181106108d657506107a5565b8581558b975082016108c9565b90915081906108b7565b634e487b7160e01b855260419052602484fd5b634e487b7160e01b845260118652602484fd5b855162461bcd60e51b8152602081860152600e60248201526d151a5d1b19481c995c5d5a5c995960921b6044820152606490fd5b5091346102b95760203660031901126102b957506109676020923561130a565b90516001600160a01b039091168152f35b50503461021f576104129061098c366110b2565b9192519261099984610fee565b85845261040c838383611190565b5091903461021f578060031936011261021f576109c2610fd8565b90336001600160a01b038316036109df575061025e919235611726565b5163334bd91960e11b81528390fd5b5090346101cd57806003193601126101cd5761025e9135610a126001610247610fd8565b611647565b50346101cd5760203660031901126101cd5781602093600192358152600785522001549051908152f35b83346102b957610412610a53366110b2565b91611190565b5091903461021f57608036600319011261021f57610a75610fbd565b6001600160401b0392906024356044358581116103a357610a999036908801611094565b90606435868111610d4957610ab19036908901611094565b610ab9611345565b6001600160a01b03841694610acf861515611150565b8215610d0f5782815260209860098a5287822054610ccc5760085498600196878b01809b11610cb9578a610b0691816008556113c1565b898352600b8b52888320918451918211610ca6575091818a96959493610b2d8b9454611116565b601f8111610c47575b508c98601f8211600114610bb357918180859361080b9897956000805160206119e48339815191529c9d8b9893610ba8575b501b916000199060031b1c19161790555b82815260098d528882822055888152600a8d5220556107fe8851948594855260608c8601526060850190610f7d565b890151925038610b68565b90988d90601f198b168486528286209286905b828210610c185750509a61080b9796949289969492826000805160206119e48339815191529d9e10610bff575b5050811b019055610b79565b88015160001960f88460031b161c191690553880610bf3565b9295989a9c96999b509396509181878192878d015181550195019301918e9a98959b999794928e979492610bc6565b9193509193949596508284528b8420601f830160051c8101918d8410610c9c575b91898d999897969492601f8e97950160051c01915b828110610c8b575050610b36565b8581558e9a508d96508b9101610c7d565b9091508190610c68565b634e487b7160e01b845260419052602483fd5b634e487b7160e01b845260118352602484fd5b875162461bcd60e51b81529081018a9052601d60248201527f416c7265616479206d696e74656420666f722063726564656e7469616c0000006044820152606490fd5b865162461bcd60e51b81526020818b01526014602482015273125b9d985b1a590818dc9959195b9d1a585b125960621b6044820152606490fd5b8480fd5b5090346101cd57806003193601126101cd57610d67610fbd565b91602435610d748161130a565b33151580610e16575b80610ded575b610dd7576001600160a01b039485169482918691167f8c5be1e5ebec7d5bd14f71427d1e84f3dd0314c0f7b2291e5b200ac8c7c3b9258880a48452602052822080546001600160a01b031916909117905580f35b835163a9fbf51f60e01b81523381850152602490fd5b506001600160a01b03811686526005602090815284872033885290528386205460ff1615610d83565b506001600160a01b038116331415610d7d565b50346101cd5760203660031901126101cd57918260209335610e4a8161130a565b50825283528190205490516001600160a01b039091168152f35b8284346102b957806003193601126102b95781519182828354610e8681611116565b908184526020956001918760018216918260001461057f575050600114610eba57505050610337929161032891038561101f565b91908693508280528383205b828410610edf575050508201018161032861033761052e565b8054848a018601528895508794909301928101610ec6565b925050346101cd5760203660031901126101cd573563ffffffff60e01b81168091036101cd5760209250637965db0b60e01b8114908115610f3a575b5015158152f35b6380ac58cd60e01b811491508115610f6c575b8115610f5b575b5038610f33565b6301ffc9a760e01b14905038610f54565b635b5e139f60e01b81149150610f4d565b919082519283825260005b848110610fa9575050826000602080949584010152601f8019910116010190565b602081830181015184830182015201610f88565b600435906001600160a01b0382168203610fd357565b600080fd5b602435906001600160a01b0382168203610fd357565b602081019081106001600160401b0382111761100957604052565b634e487b7160e01b600052604160045260246000fd5b601f909101601f19168101906001600160401b0382119082101761100957604052565b6001600160401b03811161100957601f01601f191660200190565b92919261106982611042565b91611077604051938461101f565b829481845281830111610fd3578281602093846000960137010152565b9080601f83011215610fd3578160206110af9335910161105d565b90565b6060906003190112610fd3576001600160a01b03906004358281168103610fd357916024359081168103610fd3579060443590565b6040906003190112610fd3576004356001600160a01b0381168103610fd357906024358015158103610fd35790565b90600182811c92168015611146575b602083101461113057565b634e487b7160e01b600052602260045260246000fd5b91607f1691611125565b1561115757565b60405162461bcd60e51b8152602060048201526011602482015270125b9d985b1a59081c9958da5c1a595b9d607a1b6044820152606490fd5b6001600160a01b0391821692909183156112f15760009282845282602095600287526040968488882054169687913315158061125b575b50906002600080516020611984833981519152928461123b575b858352600381528b8320805460010190558683525289812080546001600160a01b0319168517905580a4169283830361121a5750505050565b6064945051926364283d7b60e01b8452600484015260248301526044820152fd5b61124487611905565b848352600381528b832080546000190190556111e1565b919394509150806112b0575b15611277578592918791386111c7565b878688611294576024915190637e27328960e01b82526004820152fd5b604491519063177e802f60e01b82523360048301526024820152fd5b5033871480156112d5575b806112675750858252600481523385898420541614611267565b5086825260058152878220338352815260ff88832054166112bb565b604051633250574960e11b815260006004820152602490fd5b6000818152600260205260409020546001600160a01b031690811561132d575090565b60249060405190637e27328960e01b82526004820152fd5b3360009081526000805160206119c483398151915260205260409020546000805160206119648339815191529060ff161561137d5750565b6044906040519063e2517d3f60e01b82523360048301526024820152fd5b80600052600760205260406000203360005260205260ff604060002054161561137d5750565b604080516113ce81610fee565b6000808252936001600160a01b038481169490929085156115b25782875260209360028552858820541683878215159283611592575b818b5260038852888b2080546001019055828b5260028852888b2080546001600160a01b031916831790556000805160206119848339815191528b80a461157a573b611453575b505050505050565b82611491918596979894955180938192630a85bd0160e11b968784523360048501528c60248501526044840152608060648401526084830190610f7d565b03818a8a5af1879181611536575b506114ff575050503d6000146114f6573d6114b981611042565b906114c68451928361101f565b81528094823d92013e5b835193846114f0578251633250574960e11b815260048101859052602490fd5b84925001fd5b606093506114d0565b919550915063ffffffff60e01b160361151f57505038808080808061144b565b602492505190633250574960e11b82526004820152fd5b9091508481813d8311611573575b61154e818361101f565b8101031261156f57516001600160e01b03198116810361156f57903861149f565b8780fd5b503d611544565b84516339e3563760e11b815260048101889052602490fd5b61159b83611905565b808b5260038852888b208054600019019055611404565b8451633250574960e11b815260048101889052602490fd5b6001600160a01b031660008181526000805160206119c483398151915260205260408120549091906000805160206119648339815191529060ff166116425780835260076020526040832082845260205260408320600160ff19825416179055600080516020611924833981519152339380a4600190565b505090565b906000918083526007602052604083209160018060a01b03169182845260205260ff604084205416156000146116425780835260076020526040832082845260205260408320600160ff19825416179055600080516020611924833981519152339380a4600190565b6001600160a01b031660008181526000805160206119c483398151915260205260408120549091906000805160206119648339815191529060ff1615611642578083526007602052604083208284526020526040832060ff1981541690556000805160206119a4833981519152339380a4600190565b906000918083526007602052604083209160018060a01b03169182845260205260ff604084205416600014611642578083526007602052604083208284526020526040832060ff1981541690556000805160206119a4833981519152339380a4600190565b6006546001600160a01b0316330361179f57565b60405163118cdaa760e01b8152336004820152602490fd5b90939192833b6117c9575b5050505050565b604051630a85bd0160e11b8082526001600160a01b039384166004830152958316602482015260448101919091526080606482015294921692602092918590611816906084830190610f7d565b039483816000978189895af18691816118c1575b5061188b575050503d600014611882573d61184481611042565b90611852604051928361101f565b81528093823d92013e5b8251928361187d57604051633250574960e11b815260048101849052602490fd5b019050fd5b6060925061185c565b919450915063ffffffff60e01b16036118a9575038808080806117c2565b60249060405190633250574960e11b82526004820152fd5b9091508481813d83116118fe575b6118d9818361101f565b810103126118fa57516001600160e01b0319811681036118fa57903861182a565b8680fd5b503d6118cf565b600090815260046020526040902080546001600160a01b031916905556fe2f8788117e7eff1d82e926ec794901d17c78024a50270940304540a733656f0d8be0079c531659141344cd1fd0a4f28419497f9722a3daafe3b4186f6b6457e09f2df0fed2c77648de5860a4cc508cd0818c85b8b8a1ab4ceeef8d981c8956a6ddf252ad1be2c89b69c2b068fc378daa952ba7f163c4a11628f55a4df523b3eff6391f5c32d9c69d2a47ea670b442974b53935d1edc7fd64eb21e047a839171ba4bfd7afe708e2e87e7f0e2ad9b4d545417e0f795f57b5c5ab5d799c565a04f49ae0cfbac8ccb2f26426960ee56b3314d14c0b9fa03b7a07acfd5ec27f09c08aa2646970667358221220a5cb23c1abf7d604badb528e00e60aa380dce7678512872ccb34e652a679364264736f6c634300081600332f8788117e7eff1d82e926ec794901d17c78024a50270940304540a733656f0d",
  "linkReferences": {},
  "deployedLinkReferences": {}
}