{
  "_format": "hh-sol-artifact-1",
  "contractName": "CertificateNFT",
  "sourceName": "contracts/CertificateNFT.sol",
  "abi": [
    {
      "inputs": [
        {
          "internalType": "string",
          "name": "name_",
          "type": "string"
        },
        {
          "internalType": "string",
          "name": "symbol_",
          "type": "string"
        }
      ],
      "stateMutability": "nonpayable",
      "type": "constructor"
    },
    {
      "inputs": [],
      "name": "AccessControlBadConfirmation",
      "type": "error"
    },
    {
      "inputs": [
        {
          "internalType": "address",
          "name": "account",
          "type": "address"
        },
        {
          "internalType": "bytes32",
          "name": "neededRole",
          "type": "bytes32"
        }
      ],
      "name": "AccessControlUnauthorizedAccount",
      "type": "error"
    },
    {
      "inputs": [
        {
          "internalType": "address",
          "name": "sender",
          "type": "address"
        },
        {
          "internalType": "uint256",
          "name": "tokenId",
          "type": "uint256"
        },
        {
          "internalType": "address",
          "name": "owner",
          "type": "address"
        }
      ],
      "name": "ERC721IncorrectOwner",
      "type": "error"
    },
    {
      "inputs": [
        {
          "internalType": "address",
          "name": "operator",
          "type": "address"
        },
        {
          "internalType": "uint256",
          "name": "tokenId",
          "type": "uint256"
        }
      ],
      "name": "ERC721InsufficientApproval",
      "type": "error"
    },
    {
      "inputs": [
        {
          "internalType": "address",
          "name": "approver",
          "type": "address"
        }
      ],
      "name": "ERC721InvalidApprover",
      "type": "error"
    },
    {
      "inputs": [
        {
          "internalType": "address",
          "name": "operator",
          "type": "address"
        }
      ],
      "name": "ERC721InvalidOperator",
      "type": "error"
    },
    {
      "inputs": [
        {
          "internalType": "address",
          "name": "owner",
          "type": "address"
        }
      ],
      "name": "ERC721InvalidOwner",
      "type": "error"
    },
    {
      "inputs": [
        {
          "internalType": "address",
          "name": "receiver",
          "type": "address"
        }
      ],
      "name": "ERC721InvalidReceiver",
      "type": "error"
    },
    {
      "inputs": [
        {
          "internalType": "address",
          "name": "sender",
          "type": "address"
        }
      ],
      "name": "ERC721InvalidSender",
      "type": "error"
    },
    {
      "inputs": [
        {
          "internalType": "uint256",
          "name": "tokenId",
          "type": "uint256"
        }
      ],
      "name": "ERC721NonexistentToken",
      "type": "error"
    },
    {
      "inputs": [
        {
          "internalType": "address",
          "name": "owner",
          "type": "address"
        }
      ],
      "name": "OwnableInvalidOwner",
      "type": "error"
    },
    {
      "inputs": [
        {
          "internalType": "address",
          "name": "account",
          "type": "address"
        }
      ],
      "name": "OwnableUnauthorizedAccount",
      "type": "error"
    },
    {
      "anonymous": false,
      "inputs": [
        {
          "indexed": true,
          "internalType": "address",
          "name": "owner",
          "type": "address"
        },
        {
          "indexed": true,
          "internalType": "address",
          "name": "approved",
          "type": "address"
        },
        {
          "indexed": true,
          "internalType": "uint256",
          "name": "tokenId",
          "type": "uint256"
        }
      ],
      "name": "Approval",
      "type": "event"
    },
    {
      "anonymous": false,
      "inputs": [
        {
          "indexed": true,
          "internalType": "address",
          "name": "owner",
          "type": "address"
        },
        {
          "indexed": true,
          "internalType": "address",
          "name": "operator",
          "type": "address"
        },
        {
          "indexed": false,
          "internalType": "bool",
          "name": "approved",
          "type": "bool"
        }
      ],
      "name": "ApprovalForAll",
      "type": "event"
    },
    {
      "anonymous": false,
      "inputs": [
        {
          "indexed": true,
          "internalType": "uint256",
          "name": "tokenId",
          "type": "uint256"
        },
        {
          "indexed": true,
          "internalType": "address",
          "name": "to",
          "type": "address"
        },
        {
          "indexed": false,
          "internalType": "uint256",
          "name": "credentialId",
          "type": "uint256"
        },
        {
          "indexed": false,
          "internalType": "string",
          "name": "title",
          "type": "string"
        },
        {
          "indexed": false,
          "internalType": "string",
          "name": "metadataUri",
          "type": "string"
        }
      ],
      "name": "CertificateMinted",
      "type": "event"
    },
    {
      "anonymous": false,
      "inputs": [
        {
          "indexed": true,
          "internalType": "address",
          "name": "previousOwner",
          "type": "address"
        },
        {
          "indexed": true,
          "internalType": "address",
          "name": "newOwner",
          "type": "address"
        }
      ],
      "name": "OwnershipTransferred",
      "type": "event"
    },
    {
      "anonymous": false,
      "inputs": [
        {
          "indexed": true,
          "internalType": "bytes32",
          "name": "role",
          "type": "bytes32"
        },
        {
          "indexed": true,
          "internalType": "bytes32",
          "name": "previousAdminRole",
          "type": "bytes32"
        },
        {
          "indexed": true,
          "internalType": "bytes32",
          "name": "newAdminRole",
          "type": "bytes32"
        }
      ],
      "name": "RoleAdminChanged",
      "type": "event"
    },
    {
      "anonymous": false,
      "inputs": [
        {
          "indexed": true,
          "internalType": "bytes32",
          "name": "role",
          "type": "bytes32"
        },
        {
          "indexed": true,
          "internalType": "address",
          "name": "account",
          "type": "address"
        },
        {
          "indexed": true,
          "internalType": "address",
          "name": "sender",
          "type": "address"
        }
      ],
      "name": "RoleGranted",
      "type": "event"
    },
    {
      "anonymous": false,
      "inputs": [
        {
          "indexed": true,
          "internalType": "bytes32",
          "name": "role",
          "type": "bytes32"
        },
        {
          "indexed": true,
          "internalType": "address",
          "name": "account",
          "type": "address"
        },
        {
          "indexed": true,
          "internalType": "address",
          "name": "sender",
          "type": "address"
        }
      ],
      "name": "RoleRevoked",
      "type": "event"
    },
    {
      "anonymous": false,
      "inputs": [
        {
          "indexed": true,
          "internalType": "address",
          "name": "from",
          "type": "address"
        },
        {
          "indexed": true,
          "internalType": "address",
          "name": "to",
          "type": "address"
        },
        {
          "indexed": true,
          "internalType": "uint256",
          "name": "tokenId",
          "type": "uint256"
        }
      ],
      "name": "Transfer",
      "type": "event"
    },
    {
      "inputs": [],
      "name": "DEFAULT_ADMIN_ROLE",
      "outputs": [
        {
          "internalType": "bytes32",
          "name": "",
          "type": "bytes32"
        }
      ],
      "stateMutability": "view",
      "type": "function"
    },
    {
      "inputs": [],
      "name": "MINTER_ROLE",
      "outputs": [
        {
          "internalType": "bytes32",
          "name": "",
          "type": "bytes32"
        }
      ],
      "stateMutability": "view",
      "type": "function"
    },
    {
      "inputs": [
        {
          "internalType": "address",
          "name": "to",
          "type": "address"
        },
        {
          "internalType": "uint256",
          "name": "tokenId",
          "type": "uint256"
        }
      ],
      "name": "approve",
      "outputs": [],
      "stateMutability": "nonpayable",
      "type": "function"
    },
    {
      "inputs": [
        {
          "internalType": "address",
          "name": "owner",
          "type": "address"
        }
      ],
      "name": "balanceOf",
      "outputs": [
        {
          "internalType": "uint256",
          "name": "",
          "type": "uint256"
        }
      ],
      "stateMutability": "view",
      "type": "function"
    },
    {
      "inputs": [
        {
          "internalType": "uint256",
          "name": "",
          "type": "uint256"
        }
      ],
      "name": "certificateCredential",
      "outputs": [
        {
          "internalType": "uint256",
          "name": "",
          "type": "uint256"
        }
      ],
      "stateMutability": "view",
      "type": "function"
    },
    {
      "inputs": [
        {
          "internalType": "uint256",
          "name": "",
          "type": "uint256"
        }
      ],
      "name": "credentialCertificate",
      "outputs": [
        {
          "internalType": "uint256",
          "name": "",
          "type": "uint256"
        }
      ],
      "stateMutability": "view",
      "type": "function"
    },
    {
      "inputs": [
        {
          "internalType": "uint256",
          "name": "tokenId",
          "type": "uint256"
        }
      ],
      "name": "getApproved",
      "outputs": [
        {
          "internalType": "address",
          "name": "",
          "type": "address"
        }
      ],
      "stateMutability": "view",
      "type": "function"
    },
    {
      "inputs": [
        {
          "internalType": "bytes32",
          "name": "role",
          "type": "bytes32"
        }
      ],
      "name": "getRoleAdmin",
      "outputs": [
        {
          "internalType": "bytes32",
          "name": "",
          "type": "bytes32"
        }
      ],
      "stateMutability": "view",
      "type": "function"
    },
    {
      "inputs": [
        {
          "internalType": "bytes32",
          "name": "role",
          "type": "bytes32"
        },
        {
          "internalType": "address",
          "name": "account",
          "type": "address"
        }
      ],
      "name": "grantRole",
      "outputs": [],
      "stateMutability": "nonpayable",
      "type": "function"
    },
    {
      "inputs": [
        {
          "internalType": "bytes32",
          "name": "role",
          "type": "bytes32"
        },
        {
          "internalType": "address",
          "name": "account",
          "type": "address"
        }
      ],
      "name": "hasRole",
      "outputs": [
        {
          "internalType": "bool",
          "name": "",
          "type": "bool"
        }
      ],
      "stateMutability": "view",
      "type": "function"
    },
    {
      "inputs": [
        {
          "internalType": "address",
          "name": "owner",
          "type": "address"
        },
        {
          "internalType": "address",
          "name": "operator",
          "type": "address"
        }
      ],
      "name": "isApprovedForAll",
      "outputs": [
        {
          "internalType": "bool",
          "name": "",
          "type": "bool"
        }
      ],
      "stateMutability": "view",
      "type": "function"
    },
    {
      "inputs": [
        {
          "internalType": "address",
          "name": "to",
          "type": "address"
        },
        {
          "internalType": "string",
          "name": "title",
          "type": "string"
        },
        {
          "internalType": "string",
          "name": "metadataUri",
          "type": "string"
        }
      ],
      "name": "mintCertificate",
      "outputs": [
        {
          "internalType": "uint256",
          "name": "",
          "type": "uint256"
        }
      ],
      "stateMutability": "nonpayable",
      "type": "function"
    },
    {
      "inputs": [
        {
          "internalType": "address",
          "name": "to",
          "type": "address"
        },
        {
          "internalType": "uint256",
          "name": "credentialId",
          "type": "uint256"
        },
        {
          "internalType": "string",
          "name": "title",
          "type": "string"
        },
        {
          "internalType": "string",
          "name": "metadataUri",
          "type": "string"
        }
      ],
      "name": "mintCertificateForCredential",
      "outputs": [
        {
          "internalType": "uint256",
          "name": "",
          "type": "uint256"
        }
      ],
      "stateMutability": "nonpayable",
      "type": "function"
    },
    {
      "inputs": [],
      "name": "name",
      "outputs": [
        {
          "internalType": "string",
          "name": "",
          "type": "string"
        }
      ],
      "stateMutability": "view",
      "type": "function"
    },
    {
      "inputs": [],
      "name": "owner",
      "outputs": [
        {
          "internalType": "address",
          "name": "",
          "type": "address"
        }
      ],
      "stateMutability": "view",
      "type": "function"
    },
    {
      "inputs": [
        {
          "internalType": "uint256",
          "name": "tokenId",
          "type": "uint256"
        }
      ],
      "name": "ownerOf",
      "outputs": [
        {
          "internalType": "address",
          "name": "",
          "type": "address"
        }
      ],
      "stateMutability": "view",
      "type": "function"
    },
    {
      "inputs": [],
      "name": "renounceOwnership",
      "outputs": [],
      "stateMutability": "nonpayable",
      "type": "function"
    },
    {
      "inputs": [
        {
          "internalType": "bytes32",
          "name": "role",
          "type": "bytes32"
        },
        {
          "internalType": "address",
          "name": "callerConfirmation",
          "type": "address"
        }
      ],
      "name": "renounceRole",
      "outputs": [],
      "stateMutability": "nonpayable",
      "type": "function"
    },
    {
      "inputs": [
        {
          "internalType": "bytes32",
          "name": "role",
          "type": "bytes32"
        },
        {
          "internalType": "address",
          "name": "account",
          "type": "address"
        }
      ],
      "name": "revokeRole",
      "outputs": [],
      "stateMutability": "nonpayable",
      "type": "function"
    },
    {
      "inputs": [
        {
          "internalType": "address",
          "name": "from",
          "type": "address"
        },
        {
          "internalType": "address",
          "name": "to",
          "type": "address"
        },
        {
          "internalType": "uint256",
          "name": "tokenId",
          "type": "uint256"
        }
      ],
      "name": "safeTransferFrom",
      "outputs": [],
      "stateMutability": "nonpayable",
      "type": "function"
    },
    {
      "inputs": [
        {
          "internalType": "address",
          "name": "from",
          "type": "address"
        },
        {
          "internalType": "address",
          "name": "to",
          "type": "address"
        },
        {
          "internalType": "uint256",
          "name": "tokenId",
          "type": "uint256"
        },
        {
          "internalType": "bytes",
          "name": "data",
          "type": "bytes"
        }
      ],
      "name": "safeTransferFrom",
      "outputs": [],
      "stateMutability": "nonpayable",
      "type": "function"
    },
    {
      "inputs": [
        {
          "internalType": "address",
          "name": "operator",
          "type": "address"
        },
        {
          "internalType": "bool",
          "name": "approved",
          "type": "bool"
        }
      ],
      "name": "setApprovalForAll",
      "outputs": [],
      "stateMutability": "nonpayable",
      "type": "function"
    },
    {
      "inputs": [
        {
          "internalType": "address",
          "name": "account",
          "type": "address"
        },
        {
          "internalType": "bool",
          "name": "enabled",
          "type": "bool"
        }
      ],
      "name": "setMinter",
      "outputs": [],
      "stateMutability": "nonpayable",
      "type": "function"
    },
    {
      "inputs": [
        {
          "internalType": "bytes4",
          "name": "interfaceId",
          "type": "bytes4"
        }
      ],
      "name": "supportsInterface",
      "outputs": [
        {
          "internalType": "bool",
          "name": "",
          "type": "bool"
        }
      ],
      "stateMutability": "view",
      "type": "function"
    },
    {
      "inputs": [],
      "name": "symbol",
      "outputs": [
        {
          "internalType": "string",
          "name": "",
          "type": "string"
        }
      ],
      "stateMutability": "view",
      "type": "function"
    },
    {
      "inputs": [
        {
          "internalType": "uint256",
          "name": "tokenId",
          "type": "uint256"
        }
      ],
      "name": "tokenURI",
      "outputs": [
        {
          "internalType": "string",
          "name": "",
          "type": "string"
        }
      ],
      "stateMutability": "view",
      "type": "function"
    },
    {
      "inputs": [
        {
          "internalType": "address",
          "name": "from",
          "type": "address"
        },
        {
          "internalType": "address",
          "name": "to",
          "type": "address"
        },
        {
          "internalType": "uint256",
          "name": "tokenId",
          "type": "uint256"
        }
      ],
      "name": "transferFrom",
      "outputs": [],
      "stateMutability": "nonpayable",
      "type": "function"
    },
    {
      "inputs": [
        {
          "internalType": "address",
          "name": "newOwner",
          "type": "address"
        }
      ],
      "name": "transferOwnership",
      "outputs": [],
      "stateMutability": "nonpayable",
      "type": "function"
    }
  ],
  "bytecode": "0x608060405234620003995762001fca803803806200001d816200039e565b9283398101604082820312620003995781516001600160401b0392908381116200039957826200004f918301620003c4565b906020928382015185811162000399576200006b9201620003c4565b92815181811162000383576000938454916001948584811c9416801562000378575b8385101462000364578190601f9485811162000311575b508390858311600114620002ad578892620002a1575b5050600019600383901b1c191690851b1785555b85519283116200028d5783548481811c9116801562000282575b828210146200026e5782811162000226575b5080918311600114620001c05750839482939492620001b4575b5050600019600383901b1c191690821b1790555b33156200019c5760068054336001600160a01b0319821681179092556001600160a01b03167f8be0079c531659141344cd1fd0a4f28419497f9722a3daafe3b4186f6b6457e08380a36200017c3362000436565b506200018833620004b7565b50600855604051611a4f90816200055b8239f35b60249060405190631e4fbdf760e01b82526004820152fd5b01519050388062000114565b90601f198316958486528286209286905b8882106200020e5750508385969710620001f4575b505050811b01905562000128565b015160001960f88460031b161c19169055388080620001e6565b808785968294968601518155019501930190620001d1565b8486528186208380860160051c82019284871062000264575b0160051c019085905b82811062000258575050620000fa565b87815501859062000248565b925081926200023f565b634e487b7160e01b86526022600452602486fd5b90607f1690620000e8565b634e487b7160e01b85526041600452602485fd5b015190503880620000ba565b8880528489208894509190601f1984168a5b87828210620002fa5750508411620002e0575b505050811b018555620000ce565b015160001960f88460031b161c19169055388080620002d2565b8385015186558b97909501949384019301620002bf565b9091508780528388208580850160051c8201928686106200035a575b918991869594930160051c01915b8281106200034b575050620000a4565b8a81558594508991016200033b565b925081926200032d565b634e487b7160e01b87526022600452602487fd5b93607f16936200008d565b634e487b7160e01b600052604160045260246000fd5b600080fd5b6040519190601f01601f191682016001600160401b038111838210176200038357604052565b919080601f84011215620003995782516001600160401b0381116200038357602090620003fa601f8201601f191683016200039e565b92818452828287010111620003995760005b8181106200042257508260009394955001015290565b85810183015184820184015282016200040c565b6001600160a01b031660008181527f6d5257204ebe7d88fd91ae87941cb2dd9d8062b64ae5a2bd2d28ec40b9fbf6df602052604081205490919060ff16620004b35781805260076020526040822081835260205260408220600160ff19825416179055339160008051602062001faa8339815191528180a4600190565b5090565b6001600160a01b031660008181527fa4bfd7afe708e2e87e7f0e2ad9b4d545417e0f795f57b5c5ab5d799c565a04f460205260408120549091907f9f2df0fed2c77648de5860a4cc508cd0818c85b8b8a1ab4ceeef8d981c8956a69060ff16620005555780835260076020526040832082845260205260408320600160ff1982541617905560008051602062001faa833981519152339380a4600190565b50509056fe6080604081815260048036101561001557600080fd5b600092833560e01c90816301ffc9a714610f1b5750806306fdde0314610e88578063081812fc14610e4d578063095ea7b314610d71578063130e6b2b14610a7d57806323b872dd14610a65578063248a9ca314610a3b5780632f2ff15d14610a1257806336568abe146109cb57806342842e0e1461099c5780636352211e1461096b5780636b55243d146107005780636c05af0a146106d957806370a0823114610684578063715018a6146106275780638da5cb5b146105fe57806391d14854146105b857806395d89b41146104fa5780639b0987cf146104d3578063a217fddf146104b8578063a22cb4651461042b578063b88d4fde146103b9578063c87b56dd146102ce578063cf456ae71461029d578063d539139314610274578063d547741f14610235578063e985e9c5146101e35763f2fde38b1461015757600080fd5b346101df5760203660031901126101df57610170610fe1565b9061017961183f565b6001600160a01b039182169283156101c9575050600680546001600160a01b031981168417909155167f8be0079c531659141344cd1fd0a4f28419497f9722a3daafe3b4186f6b6457e08380a380f35b51631e4fbdf760e01b8152908101849052602490fd5b8280fd5b50503461023157806003193601126102315760ff81602093610203610fe1565b61020b610ffc565b6001600160a01b0391821683526005875283832091168252855220549151911615158152f35b5080fd5b5090346101df57806003193601126101df57610270913561026b6001610259610ffc565b938387526007602052862001546113e2565b6117c8565b5080f35b505034610231578160031936011261023157602090516000805160206119ba8339815191528152f35b83346102cb576102ac36611109565b6102b461183f565b156102c25761027090611636565b61027090611740565b80fd5b5090346101df57602091826003193601126103b557356102ed81611351565b508352600b825280832081519384918181549061030982611138565b928386526001928860018216918260001461038b57505060011461034d575b85886103498961033a848a0385611043565b51928284938452830190610fa1565b0390f35b87945081939291528383205b828410610373575050508201018161033a61034938610328565b8054848a018601528895508794909301928101610359565b60ff19168882015294151560051b8701909401945085935061033a92506103499150389050610328565b8380fd5b838234610231576080366003190112610231576103d4610fe1565b6103dc610ffc565b604435906064356001600160401b038111610427573660238201121561042757610424948160246104129336930135910161107f565b9261041e8383836111b2565b3361186b565b80f35b8580fd5b5090346101df5761043b36611109565b6001600160a01b039091169290919083156104a3575033845260056020528084208385526020528084209115159160ff1981541660ff8416179055519081527f17307eab39ab6107e8899845ad3d59bd9653f200f220920489ca2b5937696c3160203392a380f35b836024925191630b61174360e31b8352820152fd5b50503461023157816003193601126102315751908152602090f35b50346101df5760203660031901126101df576020928291358152600a845220549051908152f35b8284346102cb57806003193601126102cb5781519182826001936001549461052186611138565b9182855260209687600182169182600014610591575050600114610553575b505050610349929161033a910385611043565b9190869350600183528383205b828410610579575050508201018161033a610349610540565b8054848a018601528895508794909301928101610560565b60ff19168782015293151560051b8601909301935084925061033a91506103499050610540565b50346101df57816003193601126101df578160209360ff926105d8610ffc565b90358252600786528282206001600160a01b039091168252855220549151911615158152f35b50503461023157816003193601126102315760065490516001600160a01b039091168152602090f35b83346102cb57806003193601126102cb5761064061183f565b600680546001600160a01b0319811690915581906001600160a01b03167f8be0079c531659141344cd1fd0a4f28419497f9722a3daafe3b4186f6b6457e08280a380f35b5091346102cb5760203660031901126102cb576001600160a01b036106a7610fe1565b169283156106c45750806020938392526003845220549051908152f35b91516322718ad960e21b815291820152602490fd5b50346101df5760203660031901126101df5760209282913581526009845220549051908152f35b5090346101df5760603660031901126101df5761071b610fe1565b926001600160401b03926024358481116101df5761073c90369083016110b6565b6044358581116103b55761075390369084016110b6565b9261075c61138c565b6001600160a01b03871693610772851515611172565b825115610937576008549660019889890180991161092457886107989181600855611408565b878352602098600b8a5287842095835192831161091157509088949392916107c08754611138565b601f81116108bc575b508a601f8311600114610843579180806000805160206119fa83398151915298999361082f96958893610838575b501b916000199060031b1c19161790555b6108228851948594855260608c8601526060850190610fa1565b9083820389850152610fa1565b0390a351908152f35b8601519250386107f7565b8785528b852091929190601f198316868e5b8282106108a45750509183916000805160206119fa833981519152999a9461082f9796941061088b575b5050811b019055610808565b85015160001960f88460031b161c19169055388061087f565b8784015185558e9a509386019392830192018e610855565b909192939495508685528a8520601f840160051c8101918c8510610907575b90601f8c989796959493920160051c01905b8181106108fa57506107c9565b8581558b975082016108ed565b90915081906108db565b634e487b7160e01b855260419052602484fd5b634e487b7160e01b845260118652602484fd5b855162461bcd60e51b8152602081860152600e60248201526d151a5d1b19481c995c5d5a5c995960921b6044820152606490fd5b5091346102cb5760203660031901126102cb575061098b60209235611351565b90516001600160a01b039091168152f35b50503461023157610424906109b0366110d4565b919251926109bd84611012565b85845261041e8383836111b2565b509190346102315780600319360112610231576109e6610ffc565b90336001600160a01b03831603610a0357506102709192356117c8565b5163334bd91960e11b81528390fd5b5090346101df57806003193601126101df576102709135610a366001610259610ffc565b6116c5565b50346101df5760203660031901126101df5781602093600192358152600785522001549051908152f35b83346102cb57610424610a77366110d4565b916111b2565b5091903461023157608036600319011261023157610a99610fe1565b6001600160401b0392906024356044358581116103b557610abd90369088016110b6565b90606435868111610d6d57610ad590369089016110b6565b610add61138c565b6001600160a01b03841694610af3861515611172565b8215610d335782815260209860098a5287822054610cf05760085498600196878b01809b11610cdd578a610b2a9181600855611408565b898352600b8b52888320918451918211610cca575091818a96959493610b518b9454611138565b601f8111610c6b575b508c98601f8211600114610bd757918180859361082f9897956000805160206119fa8339815191529c9d8b9893610bcc575b501b916000199060031b1c19161790555b82815260098d528882822055888152600a8d5220556108228851948594855260608c8601526060850190610fa1565b890151925038610b8c565b90988d90601f198b168486528286209286905b828210610c3c5750509a61082f9796949289969492826000805160206119fa8339815191529d9e10610c23575b5050811b019055610b9d565b88015160001960f88460031b161c191690553880610c17565b9295989a9c96999b509396509181878192878d015181550195019301918e9a98959b999794928e979492610bea565b9193509193949596508284528b8420601f830160051c8101918d8410610cc0575b91898d999897969492601f8e97950160051c01915b828110610caf575050610b5a565b8581558e9a508d96508b9101610ca1565b9091508190610c8c565b634e487b7160e01b845260419052602483fd5b634e487b7160e01b845260118352602484fd5b875162461bcd60e51b81529081018a9052601d60248201527f416c7265616479206d696e74656420666f722063726564656e7469616c0000006044820152606490fd5b865162461bcd60e51b81526020818b01526014602482015273125b9d985b1a590818dc9959195b9d1a585b125960621b6044820152606490fd5b8480fd5b5090346101df57806003193601126101df57610d8b610fe1565b91602435610d9881611351565b33151580610e3a575b80610e11575b610dfb576001600160a01b039485169482918691167f8c5be1e5ebec7d5bd14f71427d1e84f3dd0314c0f7b2291e5b200ac8c7c3b9258880a48452602052822080546001600160a01b031916909117905580f35b835163a9fbf51f60e01b81523381850152602490fd5b506001600160a01b03811686526005602090815284872033885290528386205460ff1615610da7565b506001600160a01b038116331415610da1565b50346101df5760203660031901126101df57918260209335610e6e81611351565b50825283528190205490516001600160a01b039091168152f35b8284346102cb57806003193601126102cb5781519182828354610eaa81611138565b9081845260209560019187600182169182600014610591575050600114610ede57505050610349929161033a910385611043565b91908693508280528383205b828410610f03575050508201018161033a610349610540565b8054848a018601528895508794909301928101610eea565b925050346101df5760203660031901126101df573563ffffffff60e01b81168091036101df5760209250637965db0b60e01b8114908115610f5e575b5015158152f35b6380ac58cd60e01b811491508115610f90575b8115610f7f575b5038610f57565b6301ffc9a760e01b14905038610f78565b635b5e139f60e01b81149150610f71565b919082519283825260005b848110610fcd575050826000602080949584010152601f8019910116010190565b602081830181015184830182015201610fac565b600435906001600160a01b0382168203610ff757565b600080fd5b602435906001600160a01b0382168203610ff757565b602081019081106001600160401b0382111761102d57604052565b634e487b7160e01b600052604160045260246000fd5b90601f801991011681019081106001600160401b0382111761102d57604052565b6001600160401b03811161102d57601f01601f191660200190565b92919261108b82611064565b916110996040519384611043565b829481845281830111610ff7578281602093846000960137010152565b9080601f83011215610ff7578160206110d19335910161107f565b90565b6060906003190112610ff7576001600160a01b03906004358281168103610ff757916024359081168103610ff7579060443590565b6040906003190112610ff7576004356001600160a01b0381168103610ff757906024358015158103610ff75790565b90600182811c92168015611168575b602083101461115257565b634e487b7160e01b600052602260045260246000fd5b91607f1691611147565b1561117957565b60405162461bcd60e51b8152602060048201526011602482015270125b9d985b1a59081c9958da5c1a595b9d607a1b6044820152606490fd5b6001600160a01b039182169290918315611338576000928284528260209560028752604096848888205416968791331515806112a2575b509060027fddf252ad1be2c89b69c2b068fc378daa952ba7f163c4a11628f55a4df523b3ef928461126f575b858352600381528b8320805460010190558683525289812080546001600160a01b0319168517905580a4169283830361124e5750505050565b6064945051926364283d7b60e01b8452600484015260248301526044820152fd5b600087815260046020526040902080546001600160a01b0319169055848352600381528b83208054600019019055611215565b919394509150806112f7575b156112be578592918791386111e9565b8786886112db576024915190637e27328960e01b82526004820152fd5b604491519063177e802f60e01b82523360048301526024820152fd5b50338714801561131c575b806112ae57508582526004815233858984205416146112ae565b5086825260058152878220338352815260ff8883205416611302565b604051633250574960e11b815260006004820152602490fd5b6000818152600260205260409020546001600160a01b0316908115611374575090565b60249060405190637e27328960e01b82526004820152fd5b3360009081526000805160206119da83398151915260205260409020546000805160206119ba8339815191529060ff16156113c45750565b6044906040519063e2517d3f60e01b82523360048301526024820152fd5b80600052600760205260406000203360005260205260ff60406000205416156113c45750565b6040805161141581611012565b6000808252936001600160a01b0384811694909290851561161e57828752602093600285528588205416838782151592836115eb575b818b5260038852888b2080546001019055828b5260028852888b2080546001600160a01b031916831790557fddf252ad1be2c89b69c2b068fc378daa952ba7f163c4a11628f55a4df523b3ef8b80a46115d3573b6114ac575b505050505050565b826114ea918596979894955180938192630a85bd0160e11b968784523360048501528c60248501526044840152608060648401526084830190610fa1565b03818a8a5af187918161158f575b50611558575050503d60001461154f573d61151281611064565b9061151f84519283611043565b81528094823d92013e5b83519384611549578251633250574960e11b815260048101859052602490fd5b84925001fd5b60609350611529565b919550915063ffffffff60e01b16036115785750503880808080806114a4565b602492505190633250574960e11b82526004820152fd5b9091508481813d83116115cc575b6115a78183611043565b810103126115c857516001600160e01b0319811681036115c85790386114f8565b8780fd5b503d61159d565b84516339e3563760e11b815260048101889052602490fd5b600083815260046020526040902080546001600160a01b0319169055808b5260038852888b20805460001901905561144b565b8451633250574960e11b815260048101889052602490fd5b6001600160a01b031660008181526000805160206119da83398151915260205260408120549091906000805160206119ba8339815191529060ff166116c05780835260076020526040832082845260205260408320600160ff198254161790557f2f8788117e7eff1d82e926ec794901d17c78024a50270940304540a733656f0d339380a4600190565b505090565b906000918083526007602052604083209160018060a01b03169182845260205260ff604084205416156000146116c05780835260076020526040832082845260205260408320600160ff198254161790557f2f8788117e7eff1d82e926ec794901d17c78024a50270940304540a733656f0d339380a4600190565b6001600160a01b031660008181526000805160206119da83398151915260205260408120549091906000805160206119ba8339815191529060ff16156116c0578083526007602052604083208284526020526040832060ff1981541690557ff6391f5c32d9c69d2a47ea670b442974b53935d1edc7fd64eb21e047a839171b339380a4600190565b906000918083526007602052604083209160018060a01b03169182845260205260ff6040842054166000146116c0578083526007602052604083208284526020526040832060ff1981541690557ff6391f5c32d9c69d2a47ea670b442974b53935d1edc7fd64eb21e047a839171b339380a4600190565b6006546001600160a01b0316330361185357565b60405163118cdaa760e01b8152336004820152602490fd5b90939192833b61187d575b5050505050565b604051630a85bd0160e11b8082526001600160a01b0393841660048301529583166024820152604481019190915260806064820152949216926020929185906118ca906084830190610fa1565b039483816000978189895af1869181611975575b5061193f575050503d600014611936573d6118f881611064565b906119066040519283611043565b81528093823d92013e5b8251928361193157604051633250574960e11b815260048101849052602490fd5b019050fd5b60609250611910565b919450915063ffffffff60e01b160361195d57503880808080611876565b60249060405190633250574960e11b82526004820152fd5b9091508481813d83116119b2575b61198d8183611043565b810103126119ae57516001600160e01b0319811681036119ae5790386118de565b8680fd5b503d61198356fe9f2df0fed2c77648de5860a4cc508cd0818c85b8b8a1ab4ceeef8d981c8956a6a4bfd7afe708e2e87e7f0e2ad9b4d545417e0f795f57b5c5ab5d799c565a04f49ae0cfbac8ccb2f26426960ee56b3314d14c0b9fa03b7a07acfd5ec27f09c08aa2646970667358221220dcb9516b519795dbfd742400f4780dcae161fa07aac6753767a4f77faaf1723464736f6c634300081600332f8788117e7eff1d82e926ec794901d17c78024a50270940304540a733656f0d",
  "linkReferences": {},
  "deployedLinkReferences": {}
}