{
  "_format": "hh-sol-artifact-1",
  "contractName": "EventManager",
  "sourceName": "contracts/EventManager.sol",
  "abi": [
    {
      "inputs": [],
      "stateMutability": "nonpayable",
      "type": "constructor"
    },
    {
      "inputs": [],
      "name": "AccessControlBadConfirmation",
      "type": "error"
    },
    {
      "inputs": [
        {
          "internalType": "address",
          "name": "account",
          "type": "address"
        },
        {
          "internalType": "bytes32",
          "name": "neededRole",
          "type": "bytes32"
        }
      ],
      "name": "AccessControlUnauthorizedAccount",
      "type": "error"
    },
    {
      "inputs": [
        {
          "internalType": "address",
          "name": "owner",
          "type": "address"
        }
      ],
      "name": "OwnableInvalidOwner",
      "type": "error"
    },
    {
      "inputs": [
        {
          "internalType": "address",
          "name": "account",
          "type": "address"
        }
      ],
      "name": "OwnableUnauthorizedAccount",
      "type": "error"
    },
    {
      "anonymous": false,
      "inputs": [
        {
          "indexed": true,
          "internalType": "uint256",
          "name": "eventId",
          "type": "uint256"
        },
        {
          "indexed": true,
          "internalType": "address",
          "name": "attendee",
          "type": "address"
        },
        {
          "indexed": false,
          "internalType": "uint256",
          "name": "tokenId",
          "type": "uint256"
        }
      ],
      "name": "CertificateIssued",
      "type": "event"
    },
    {
      "anonymous": false,
      "inputs": [
        {
          "indexed": true,
          "internalType": "address",
          "name": "nft",
          "type": "address"
        }
      ],
      "name": "CertificateNFTSet",
      "type": "event"
    },
    {
      "anonymous": false,
      "inputs": [
        {
          "indexed": true,
          "internalType": "uint256",
          "name": "eventId",
          "type": "uint256"
        }
      ],
      "name": "EventCompleted",
      "type": "event"
    },
    {
      "anonymous": false,
      "inputs": [
        {
          "indexed": true,
          "internalType": "uint256",
          "name": "eventId",
          "type": "uint256"
        },
        {
          "indexed": false,
          "internalType": "string",
          "name": "title",
          "type": "string"
        },
        {
          "indexed": true,
          "internalType": "address",
          "name": "organizer",
          "type": "address"
        }
      ],
      "name": "EventCreated",
      "type": "event"
    },
    {
      "anonymous": false,
      "inputs": [
        {
          "indexed": true,
          "internalType": "uint256",
          "name": "eventId",
          "type": "uint256"
        }
      ],
      "name": "EventUpdated",
      "type": "event"
    },
    {
      "anonymous": false,
      "inputs": [
        {
          "indexed": true,
          "internalType": "address",
          "name": "previousOwner",
          "type": "address"
        },
        {
          "indexed": true,
          "internalType": "address",
          "name": "newOwner",
          "type": "address"
        }
      ],
      "name": "OwnershipTransferred",
      "type": "event"
    },
    {
      "anonymous": false,
      "inputs": [
        {
          "indexed": true,
          "internalType": "uint256",
          "name": "eventId",
          "type": "uint256"
        },
        {
          "indexed": true,
          "internalType": "address",
          "name": "attendee",
          "type": "address"
        }
      ],
      "name": "Registered",
      "type": "event"
    },
    {
      "anonymous": false,
      "inputs": [
        {
          "indexed": true,
          "internalType": "bytes32",
          "name": "role",
          "type": "bytes32"
        },
        {
          "indexed": true,
          "internalType": "bytes32",
          "name": "previousAdminRole",
          "type": "bytes32"
        },
        {
          "indexed": true,
          "internalType": "bytes32",
          "name": "newAdminRole",
          "type": "bytes32"
        }
      ],
      "name": "RoleAdminChanged",
      "type": "event"
    },
    {
      "anonymous": false,
      "inputs": [
        {
          "indexed": true,
          "internalType": "bytes32",
          "name": "role",
          "type": "bytes32"
        },
        {
          "indexed": true,
          "internalType": "address",
          "name": "account",
          "type": "address"
        },
        {
          "indexed": true,
          "internalType": "address",
          "name": "sender",
          "type": "address"
        }
      ],
      "name": "RoleGranted",
      "type": "event"
    },
    {
      "anonymous": false,
      "inputs": [
        {
          "indexed": true,
          "internalType": "bytes32",
          "name": "role",
          "type": "bytes32"
        },
        {
          "indexed": true,
          "internalType": "address",
          "name": "account",
          "type": "address"
        },
        {
          "indexed": true,
          "internalType": "address",
          "name": "sender",
          "type": "address"
        }
      ],
      "name": "RoleRevoked",
      "type": "event"
    },
    {
      "inputs": [],
      "name": "DEFAULT_ADMIN_ROLE",
      "outputs": [
        {
          "internalType": "bytes32",
          "name": "",
          "type": "bytes32"
        }
      ],
      "stateMutability": "view",
      "type": "function"
    },
    {
      "inputs": [],
      "name": "ORGANIZER_ROLE",
      "outputs": [
        {
          "internalType": "bytes32",
          "name": "",
          "type": "bytes32"
        }
      ],
      "stateMutability": "view",
      "type": "function"
    },
    {
      "inputs": [],
      "name": "certificateNFT",
      "outputs": [
        {
          "internalType": "address",
          "name": "",
          "type": "address"
        }
      ],
      "stateMutability": "view",
      "type": "function"
    },
    {
      "inputs": [
        {
          "internalType": "uint256",
          "name": "eventId",
          "type": "uint256"
        }
      ],
      "name": "completeEvent",
      "outputs": [],
      "stateMutability": "nonpayable",
      "type": "function"
    },
    {
      "inputs": [
        {
          "internalType": "string",
          "name": "title",
          "type": "string"
        },
        {
          "internalType": "string",
          "name": "description",
          "type": "string"
        },
        {
          "internalType": "string",
          "name": "category",
          "type": "string"
        },
        {
          "internalType": "string",
          "name": "metadataUri",
          "type": "string"
        },
        {
          "internalType": "uint256",
          "name": "priceWei",
          "type": "uint256"
        },
        {
          "internalType": "uint256",
          "name": "capacity",
          "type": "uint256"
        },
        {
          "internalType": "uint64",
          "name": "startTime",
          "type": "uint64"
        },
        {
          "internalType": "uint64",
          "name": "endTime",
          "type": "uint64"
        }
      ],
      "name": "createEvent",
      "outputs": [
        {
          "internalType": "uint256",
          "name": "",
          "type": "uint256"
        }
      ],
      "stateMutability": "nonpayable",
      "type": "function"
    },
    {
      "inputs": [],
      "name": "eventCount",
      "outputs": [
        {
          "internalType": "uint256",
          "name": "",
          "type": "uint256"
        }
      ],
      "stateMutability": "view",
      "type": "function"
    },
    {
      "inputs": [
        {
          "internalType": "uint256",
          "name": "",
          "type": "uint256"
        }
      ],
      "name": "eventsById",
      "outputs": [
        {
          "internalType": "uint256",
          "name": "id",
          "type": "uint256"
        },
        {
          "internalType": "string",
          "name": "title",
          "type": "string"
        },
        {
          "internalType": "string",
          "name": "description",
          "type": "string"
        },
        {
          "internalType": "string",
          "name": "category",
          "type": "string"
        },
        {
          "internalType": "string",
          "name": "metadataUri",
          "type": "string"
        },
        {
          "internalType": "address",
          "name": "organizer",
          "type": "address"
        },
        {
          "internalType": "uint256",
          "name": "priceWei",
          "type": "uint256"
        },
        {
          "internalType": "uint256",
          "name": "capacity",
          "type": "uint256"
        },
        {
          "internalType": "uint64",
          "name": "startTime",
          "type": "uint64"
        },
        {
          "internalType": "uint64",
          "name": "endTime",
          "type": "uint64"
        },
        {
          "internalType": "uint32",
          "name": "registeredCount",
          "type": "uint32"
        },
        {
          "internalType": "bool",
          "name": "isCompleted",
          "type": "bool"
        }
      ],
      "stateMutability": "view",
      "type": "function"
    },
    {
      "inputs": [
        {
          "internalType": "uint256",
          "name": "eventId",
          "type": "uint256"
        }
      ],
      "name": "getRegistrants",
      "outputs": [
        {
          "internalType": "address[]",
          "name": "",
          "type": "address[]"
        }
      ],
      "stateMutability": "view",
      "type": "function"
    },
    {
      "inputs": [
        {
          "internalType": "bytes32",
          "name": "role",
          "type": "bytes32"
        }
      ],
      "name": "getRoleAdmin",
      "outputs": [
        {
          "internalType": "bytes32",
          "name": "",
          "type": "bytes32"
        }
      ],
      "stateMutability": "view",
      "type": "function"
    },
    {
      "inputs": [
        {
          "internalType": "bytes32",
          "name": "role",
          "type": "bytes32"
        },
        {
          "internalType": "address",
          "name": "account",
          "type": "address"
        }
      ],
      "name": "grantRole",
      "outputs": [],
      "stateMutability": "nonpayable",
      "type": "function"
    },
    {
      "inputs": [
        {
          "internalType": "bytes32",
          "name": "role",
          "type": "bytes32"
        },
        {
          "internalType": "address",
          "name": "account",
          "type": "address"
        }
      ],
      "name": "hasRole",
      "outputs": [
        {
          "internalType": "bool",
          "name": "",
          "type": "bool"
        }
      ],
      "stateMutability": "view",
      "type": "function"
    },
    {
      "inputs": [
        {
          "internalType": "uint256",
          "name": "",
          "type": "uint256"
        },
        {
          "internalType": "address",
          "name": "",
          "type": "address"
        }
      ],
      "name": "isRegistered",
      "outputs": [
        {
          "internalType": "bool",
          "name": "",
          "type": "bool"
        }
      ],
      "stateMutability": "view",
      "type": "function"
    },
    {
      "inputs": [
        {
          "internalType": "uint256",
          "name": "eventId",
          "type": "uint256"
        },
        {
          "internalType": "address",
          "name": "attendee",
          "type": "address"
        }
      ],
      "name": "issueCertificateToAttendee",
      "outputs": [
        {
          "internalType": "uint256",
          "name": "",
          "type": "uint256"
        }
      ],
      "stateMutability": "nonpayable",
      "type": "function"
    },
    {
      "inputs": [],
      "name": "owner",
      "outputs": [
        {
          "internalType": "address",
          "name": "",
          "type": "address"
        }
      ],
      "stateMutability": "view",
      "type": "function"
    },
    {
      "inputs": [
        {
          "internalType": "uint256",
          "name": "eventId",
          "type": "uint256"
        }
      ],
      "name": "register",
      "outputs": [],
      "stateMutability": "payable",
      "type": "function"
    },
    {
      "inputs": [
        {
          "internalType": "uint256",
          "name": "",
          "type": "uint256"
        },
        {
          "internalType": "uint256",
          "name": "",
          "type": "uint256"
        }
      ],
      "name": "registrants",
      "outputs": [
        {
          "internalType": "address",
          "name": "",
          "type": "address"
        }
      ],
      "stateMutability": "view",
      "type": "function"
    },
    {
      "inputs": [],
      "name": "renounceOwnership",
      "outputs": [],
      "stateMutability": "nonpayable",
      "type": "function"
    },
    {
      "inputs": [
        {
          "internalType": "bytes32",
          "name": "role",
          "type": "bytes32"
        },
        {
          "internalType": "address",
          "name": "callerConfirmation",
          "type": "address"
        }
      ],
      "name": "renounceRole",
      "outputs": [],
      "stateMutability": "nonpayable",
      "type": "function"
    },
    {
      "inputs": [
        {
          "internalType": "bytes32",
          "name": "role",
          "type": "bytes32"
        },
        {
          "internalType": "address",
          "name": "account",
          "type": "address"
        }
      ],
      "name": "revokeRole",
      "outputs": [],
      "stateMutability": "nonpayable",
      "type": "function"
    },
    {
      "inputs": [
        {
          "internalType": "address",
          "name": "nft",
          "type": "address"
        }
      ],
      "name": "setCertificateNFT",
      "outputs": [],
      "stateMutability": "nonpayable",
      "type": "function"
    },
    {
      "inputs": [
        {
          "internalType": "address",
          "name": "account",
          "type": "address"
        },
        {
          "internalType": "bool",
          "name": "enabled",
          "type": "bool"
        }
      ],
      "name": "setOrganizer",
      "outputs": [],
      "stateMutability": "nonpayable",
      "type": "function"
    },
    {
      "inputs": [
        {
          "internalType": "bytes4",
          "name": "interfaceId",
          "type": "bytes4"
        }
      ],
      "name": "supportsInterface",
      "outputs": [
        {
          "internalType": "bool",
          "name": "",
          "type": "bool"
        }
      ],
      "stateMutability": "view",
      "type": "function"
    },
    {
      "inputs": [
        {
          "internalType": "address",
          "name": "newOwner",
          "type": "address"
        }
      ],
      "name": "transferOwnership",
      "outputs": [],
      "stateMutability": "nonpayable",
      "type": "function"
    },
    {
      "inputs": [
        {
          "internalType": "uint256",
          "name": "eventId",
          "type": "uint256"
        },
        {
          "internalType": "string",
          "name": "title",
          "type": "string"
        },
        {
          "internalType": "string",
          "name": "description",
          "type": "string"
        },
        {
          "internalType": "string",
          "name": "category",
          "type": "string"
        },
        {
          "internalType": "string",
          "name": "metadataUri",
          "type": "string"
        },
        {
          "internalType": "uint256",
          "name": "priceWei",
          "type": "uint256"
        },
        {
          "internalType": "uint256",
          "name": "capacity",
          "type": "uint256"
        },
        {
          "internalType": "uint64",
          "name": "startTime",
          "type": "uint64"
        },
        {
          "internalType": "uint64",
          "name": "endTime",
          "type": "uint64"
        }
      ],
      "name": "updateEvent",
      "outputs": [],
      "stateMutability": "nonpayable",
      "type": "function"
    },
    {
      "inputs": [
        {
          "internalType": "uint256",
          "name": "eventId",
          "type": "uint256"
        }
      ],
      "name": "withdraw",
      "outputs": [],
      "stateMutability": "nonpayable",
      "type": "function"
    }
  ],
  "bytecode": "0x60808060405234620000955733156200007f5760008054336001600160a01b0319821681178355916001600160a01b03909116907f8be0079c531659141344cd1fd0a4f28419497f9722a3daafe3b4186f6b6457e09080a362000062336200009a565b506200006e336200011b565b506040516120f19081620001bf8239f35b631e4fbdf760e01b815260006004820152602490fd5b600080fd5b6001600160a01b031660008181527fa6eef7e35abe7026729641147f7915573c7e97b47efa546f5f6e3230263bcb49602052604081205490919060ff16620001175781805260016020526040822081835260205260408220600160ff198254161790553391600080516020620022b08339815191528180a4600190565b5090565b6001600160a01b031660008181527feb582435d52ef99f7afca0cd57330feb3340a434ae64853903dd3b38ac075cd660205260408120549091907f4d2e7a1e3f5dd6e203f087b15756ccf0e4ccd947fe1b639a38540089a1e47f639060ff16620001b95780835260016020526040832082845260205260408320600160ff19825416179055600080516020620022b0833981519152339380a4600190565b50509056fe608080604052600436101561001357600080fd5b60003560e01c908163017c565514611a7d5750806301ffc9a714611a2757806309fcd473146119d5578063189a0f2714611939578063248a9ca31461190a5780632e1a7d4d146118aa5780632f2ff15d1461186b57806336568abe146118245780633a189674146117e05780636d7524ee14611691578063715018a61461164a57806371be2e4a1461162c5780637909cb59146116035780638183a48a14610e6f5780638da5cb5b14610e4657806391aec72a14610e1d57806391d1485414610dd057806396f782d4146107fe5780639b7aea7514610782578063a217fddf14610766578063b81f6e1814610719578063d547741f146106d8578063f207564e1461045c578063f2fde38b146103e85763ff5ab4df1461013257600080fd5b346102d1576003196040368201126102d15760043590610150611b75565b610158611dde565b8260005260209260038452604060002060018060a01b03610180816005840154163314611d2a565b60ff600883015460a01c16156103ad57826000526004865280604060002094169384600052865260ff604060002054161561037757600654168015610344579085916001956001830196604051976000918154916101dd83611b8b565b926001811690811561032357506001146102e9575b5050508761026461025493610229600c60049c866b20436572746966696361746560a01b6000985203601319810186520184611c5b565b604051636b55243d60e01b81528b81018b9052606060248201529a8b97889687956064870190611c7e565b9285840301604486015201611bc5565b03925af19283156102dd576000936102a9575b507fd74e11d1754a92e22b6928590e3cb4c007c5d1a2c31cba9e5879d9908e5d0bf484604051858152a3604051908152f35b9092508381813d83116102d6575b6102c18183611c5b565b810103126102d157519138610277565b600080fd5b503d6102b7565b6040513d6000823e3d90fd5b6000908152878120929350915b8383106103105750505087018401876102646102546101f2565b8054838c018901529187019181016102f6565b60ff1916898d015250505080151502880185019050876102646102546101f2565b60405162461bcd60e51b815260048101879052600b60248201526a139195081b9bdd081cd95d60aa1b6044820152606490fd5b60405162461bcd60e51b815260048101879052600e60248201526d139bdd081c9959da5cdd195c995960921b6044820152606490fd5b60405162461bcd60e51b8152600481018790526013602482015272115d995b9d081b9bdd0818dbdb5c1b195d1959606a1b6044820152606490fd5b346102d15760203660031901126102d157610401611b5f565b610409611db2565b6001600160a01b03908116908115610443576000548260018060a01b03198216176000551660008051602061207c833981519152600080a3005b604051631e4fbdf760e01b815260006004820152602490fd5b6020806003193601126102d15760043590816000526003815260406000208054156106a1578260005260048252604060002033600052825260ff604060002054166106675760078101548015908115610650575b5015610618576006810191825434106105dd5760008481526004825260408082203383528352808220805460ff1916600117905585825260059092522080549190600160401b8310156105c7578261050f916001600895018155611b31565b81546001600160a01b0360039290921b91821b19163390911b17905501805460801c63ffffffff9081166001019081116105b15761054c91611d8f565b5480341161057f575b5033907f6cd8594df6446610564bf1ea1e804402ea0006dc7b541d3a430d1ea0a62cffd4600080a3005b803403903482116105b15760008080938193829034146105a8575b3390f1156102dd5781610555565b506108fc61059a565b634e487b7160e01b600052601160045260246000fd5b634e487b7160e01b600052604160045260246000fd5b6064906040519062461bcd60e51b825260048201526014602482015273125b9cdd59999a58da595b9d081c185e5b595b9d60621b6044820152fd5b60405162461bcd60e51b815260048101839052601060248201526f10d85c1858da5d1e481c995858da195960821b6044820152606490fd5b905063ffffffff600883015460801c1610846104b0565b60405162461bcd60e51b8152600481018390526012602482015271105b1c9958591e481c9959da5cdd195c995960721b6044820152606490fd5b60405162461bcd60e51b815260048101839052600f60248201526e115d995b9d081b9bdd08199bdd5b99608a1b6044820152606490fd5b346102d15760403660031901126102d1576107176004356106f7611b75565b90806000526001602052610712600160406000200154611e34565b611fb6565b005b346102d15760403660031901126102d157610732611b75565b600435600052600460205260406000209060018060a01b0316600052602052602060ff604060002054166040519015158152f35b346102d15760003660031901126102d157602060405160008152f35b346102d15760203660031901126102d15760043561079e611dde565b806000526003602052600860406000206107c560018060a01b036005830154163314611d2a565b01805460ff60a01b1916600160a01b1790557fbb85ff95aded757cf3b840cc38e6e719a2915827f28e3364f62cbefa25bbe2de600080a2005b346102d1576101203660031901126102d1576024356001600160401b0381116102d15761082f903690600401611cbe565b6044356001600160401b0381116102d15761084e903690600401611cbe565b906064356001600160401b0381116102d15761086e903690600401611cbe565b916084356001600160401b0381116102d15761088e903690600401611cbe565b610896611d14565b91610104356001600160401b03811690036102d1576108b3611dde565b60043560005260036020526040600020936108db60018060a01b036005870154163314611d2a565b8051906001600160401b0382116105c75781906108fb6001880154611b8b565b601f8111610d7d575b50602090601f8311600114610d0b57600092610d00575b50508160011b916000199060031b1c19161760018501555b8051906001600160401b0382116105c75781906109536002870154611b8b565b601f8111610cad575b50602090601f8311600114610c3b57600092610c30575b50508160011b916000199060031b1c19161760028401555b83516001600160401b0381116105c7576109a86003850154611b8b565b601f8111610be9575b50602094601f8211600114610b7d57948192939495600092610b72575b50508160011b916000199060031b1c19161760038401555b8051906001600160401b0382116105c757610a046004850154611b8b565b601f8111610b27575b50602090601f8311600114610ab3579180610a7e9592600894600092610aa8575b50508160011b916000199060031b1c19161760048201555b60a435600682015560c43560078201550180546001600160401b0319166001600160401b039092169190911781556101043590611d66565b6004357f809fa27991b070f066e1b77ccff5758336645c734a13941444cc6f45daa21a89600080a2005b015190508680610a2e565b90601f198316916004860160005260206000209260005b818110610b0f5750926001928592600896610a7e999610610af6575b505050811b016004820155610a46565b015160001960f88460031b161c19169055868080610ae6565b92936020600181928786015181550195019301610aca565b600485016000526020600020601f840160051c81019160208510610b68575b601f0160051c01905b818110610b5c5750610a0d565b60008155600101610b4f565b9091508190610b46565b0151905085806109ce565b601f198216956003860160005260206000209160005b888110610bd157508360019596979810610bb8575b505050811b0160038401556109e6565b015160001960f88460031b161c19169055858080610ba8565b91926020600181928685015181550194019201610b93565b600385016000526020600020601f830160051c810160208410610c29575b601f830160051c82018110610c1d5750506109b1565b60008155600101610c07565b5080610c07565b015190508680610973565b9250600286016000526020600020906000935b601f1984168510610c92576001945083601f19811610610c79575b505050811b01600284015561098b565b015160001960f88460031b161c19169055868080610c69565b81810151835560209485019460019093019290910190610c4e565b909150600286016000526020600020601f840160051c810160208510610cf9575b90849392915b601f830160051c82018110610cea57505061095c565b60008155859450600101610cd4565b5080610cce565b01519050878061091b565b9250600187016000526020600020906000935b601f1984168510610d62576001945083601f19811610610d49575b505050811b016001850155610933565b015160001960f88460031b161c19169055878080610d39565b81810151835560209485019460019093019290910190610d1e565b909150600187016000526020600020601f840160051c810160208510610dc9575b90849392915b601f830160051c82018110610dba575050610904565b60008155859450600101610da4565b5080610d9e565b346102d15760403660031901126102d157610de9611b75565b600435600052600160205260406000209060018060a01b0316600052602052602060ff604060002054166040519015158152f35b346102d15760003660031901126102d1576006546040516001600160a01b039091168152602090f35b346102d15760003660031901126102d1576000546040516001600160a01b039091168152602090f35b346102d1576101003660031901126102d1576004356001600160401b0381116102d157610ea0903690600401611cbe565b6024356001600160401b0381116102d157610ebf903690600401611cbe565b906044356001600160401b0381116102d157610edf903690600401611cbe565b906064356001600160401b0381116102d157610eff903690600401611cbe565b60c4356001600160401b03811681036102d157610f1a611d14565b91610f23611dde565b8351156115cd576001600160401b0383161580156115b7575b1561158257600254946001860186116105b157600186016002556040519661018088016001600160401b038111898210176105c7576040526001870188528560208901526040880152606087015260808601523360a086015260843560c086015260a43560e086015260018060401b031661010085015260018060401b03166101208401526000610140840152600061016084015260018201600052600360205260406000209280518455602081015180519060018060401b0382116105c757819061100b6001880154611b8b565b601f811161152f575b50602090601f83116001146114bd576000926114b2575b50508160011b916000199060031b1c19161760018501555b60408101518051906001600160401b0382116105c75781906110686002880154611b8b565b601f811161145f575b50602090601f83116001146113f2576000926113e7575b50508160011b916000199060031b1c19161760028501555b60608101518051906001600160401b0382116105c75781906110c56003880154611b8b565b601f8111611394575b50602090601f831160011461132257600092611317575b50508160011b916000199060031b1c19161760038501555b608081015180519094906001600160401b0381116105c7576111226004830154611b8b565b95601f87116112d0575b602096508690601f831160011461125e5791806101609492600894600092611253575b50508160011b916000199060031b1c19161760048201555b60a08401516005820180546001600160a01b0319166001600160a01b039290921691909117905560c0840151600682015560e08401516007820155610100840151910180546001600160401b0319166001600160401b039283161781556101208401519093916111d8911684611d66565b6111ed63ffffffff6101408301511684611d8f565b0151815460ff60a01b191690151560a01b60ff60a01b16179055604051838152339160018401917f40fb05b814a900c99fa0a76d919dfdeaf3389540e4ca70f97ba40ca9a38f37979181906112459088830190611c7e565b0390a3600160405191018152f35b01519050898061114f565b90601f1983169160048501600052886000209260005b8181106112b957509260019285926008966101609896106112a0575b505050811b016004820155611167565b015160001960f88460031b161c19169055898080611290565b92938a600181928786015181550195019301611274565b600483016000526020600020601f830160051c810160208410611310575b601f890160051c8201811061130457505061112c565b600081556001016112ee565b50806112ee565b0151905086806110e5565b9250600387016000526020600020906000935b601f1984168510611379576001945083601f19811610611360575b505050811b0160038501556110fd565b015160001960f88460031b161c19169055868080611350565b81810151835560209485019460019093019290910190611335565b909150600387016000526020600020601f840160051c8101602085106113e0575b90849392915b601f830160051c820181106113d15750506110ce565b600081558594506001016113bb565b50806113b5565b015190508680611088565b600288016000908152602081209350601f198516905b818110611447575090846001959493921061142e575b505050811b0160028501556110a0565b015160001960f88460031b161c1916905586808061141e565b92936020600181928786015181550195019301611408565b909150600287016000526020600020601f840160051c8101602085106114ab575b90849392915b601f830160051c8201811061149c575050611071565b60008155859450600101611486565b5080611480565b01519050868061102b565b9250600187016000526020600020906000935b601f1984168510611514576001945083601f198116106114fb575b505050811b016001850155611043565b015160001960f88460031b161c191690558680806114eb565b818101518355602094850194600190930192909101906114d0565b909150600187016000526020600020601f840160051c81016020851061157b575b90849392915b601f830160051c8201811061156c575050611014565b60008155859450600101611556565b5080611550565b60405162461bcd60e51b815260206004820152600d60248201526c496e76616c69642074696d657360981b6044820152606490fd5b506001600160401b038281169084161015610f3c565b60405162461bcd60e51b815260206004820152600e60248201526d151a5d1b19481c995c5d5a5c995960921b6044820152606490fd5b346102d15760003660031901126102d157602060405160008051602061205c8339815191528152f35b346102d15760003660031901126102d1576020600254604051908152f35b346102d15760003660031901126102d157611663611db2565b600080546001600160a01b0319811682556001600160a01b031660008051602061207c8339815191528280a3005b346102d15760203660031901126102d157600435600052600360205260406000208054604051916116d0836116c98160018501611bc5565b0384611c5b565b60ff6040516116ed816116e68160028701611bc5565b0382611c5b565b60405190611709826117028160038801611bc5565b0383611c5b565b604051936117258561171e8160048501611bc5565b0386611c5b565b60018060a01b036005820154169461179c60068301549161178e600860078601549501549661178060018060401b03976117726040519e8f9e8f6101809181528160208201520190611c7e565b8d810360408f015290611c7e565b908b820360608d0152611c7e565b9089820360808b0152611c7e565b9560a088015260c087015260e08601528082166101008601528160401c1661012085015263ffffffff8160801c1661014085015260a01c1615156101608301520390f35b346102d15760403660031901126102d1576117f9611b5f565b60243580151581036102d15761180d611db2565b1561181b5761071790611e5a565b61071790611f40565b346102d15760403660031901126102d15761183d611b75565b336001600160a01b038216036118595761071790600435611fb6565b60405163334bd91960e11b8152600490fd5b346102d15760403660031901126102d15761071760043561188a611b75565b908060005260016020526118a5600160406000200154611e34565b611ed7565b346102d15760203660031901126102d1576118c3611dde565b60043560005260036020526118e960018060a01b03600560406000200154163314611d2a565b600080808047818115611901575b3390f1156102dd57005b506108fc6118f7565b346102d15760203660031901126102d15760043560005260016020526020600160406000200154604051908152f35b346102d15760203660031901126102d157611952611b5f565b61195a611db2565b6001600160a01b031680156119a257600680546001600160a01b031916821790557f7e06b4789c38cf345eeb064e21aa08533c8d07f728af7a613adf7175a77c940d600080a2005b60405162461bcd60e51b815260206004820152600b60248201526a125b9d985b1a590813919560aa1b6044820152606490fd5b346102d15760403660031901126102d1576024356004356000526005602052604060002080548210156102d157602091611a0e91611b31565b905460405160039290921b1c6001600160a01b03168152f35b346102d15760203660031901126102d15760043563ffffffff60e01b81168091036102d157602090637965db0b60e01b8114908115611a6c575b506040519015158152f35b6301ffc9a760e01b14905082611a61565b346102d157602090816003193601126102d1576004356000526005825260406000208054808352838301908192600052846000209060005b86828210611b14578686611acb82880383611c5b565b604051928392818401908285525180915260408401929160005b828110611af457505050500390f35b83516001600160a01b031685528695509381019392810192600101611ae5565b83546001600160a01b031685529093019260019283019201611ab5565b8054821015611b495760005260206000200190600090565b634e487b7160e01b600052603260045260246000fd5b600435906001600160a01b03821682036102d157565b602435906001600160a01b03821682036102d157565b90600182811c92168015611bbb575b6020831014611ba557565b634e487b7160e01b600052602260045260246000fd5b91607f1691611b9a565b805460009392611bd482611b8b565b91828252602093600191600181169081600014611c3c5750600114611bfb575b5050505050565b90939495506000929192528360002092846000945b838610611c2857505050500101903880808080611bf4565b805485870183015294019385908201611c10565b60ff19168685015250505090151560051b010191503880808080611bf4565b601f909101601f19168101906001600160401b038211908210176105c757604052565b919082519283825260005b848110611caa575050826000602080949584010152601f8019910116010190565b602081830181015184830182015201611c89565b81601f820112156102d1578035906001600160401b0382116105c75760405192611cf2601f8401601f191660200185611c5b565b828452602083830101116102d157816000926020809301838601378301015290565b60e435906001600160401b03821682036102d157565b15611d3157565b60405162461bcd60e51b815260206004820152600d60248201526c2737ba1037b933b0b734bd32b960991b6044820152606490fd5b8054600160401b600160801b03191660409290921b600160401b600160801b0316919091179055565b805463ffffffff60801b191660809290921b63ffffffff60801b16919091179055565b6000546001600160a01b03163303611dc657565b60405163118cdaa760e01b8152336004820152602490fd5b33600090815260008051602061203c833981519152602052604090205460008051602061205c8339815191529060ff1615611e165750565b6044906040519063e2517d3f60e01b82523360048301526024820152fd5b80600052600160205260406000203360005260205260ff6040600020541615611e165750565b6001600160a01b0316600081815260008051602061203c833981519152602052604081205490919060008051602061205c8339815191529060ff16611ed25780835260016020526040832082845260205260408320600160ff1982541617905560008051602061201c833981519152339380a4600190565b505090565b906000918083526001602052604083209160018060a01b03169182845260205260ff60408420541615600014611ed25780835260016020526040832082845260205260408320600160ff1982541617905560008051602061201c833981519152339380a4600190565b6001600160a01b0316600081815260008051602061203c833981519152602052604081205490919060008051602061205c8339815191529060ff1615611ed2578083526001602052604083208284526020526040832060ff19815416905560008051602061209c833981519152339380a4600190565b906000918083526001602052604083209160018060a01b03169182845260205260ff604084205416600014611ed2578083526001602052604083208284526020526040832060ff19815416905560008051602061209c833981519152339380a460019056fe2f8788117e7eff1d82e926ec794901d17c78024a50270940304540a733656f0deb582435d52ef99f7afca0cd57330feb3340a434ae64853903dd3b38ac075cd64d2e7a1e3f5dd6e203f087b15756ccf0e4ccd947fe1b639a38540089a1e47f638be0079c531659141344cd1fd0a4f28419497f9722a3daafe3b4186f6b6457e0f6391f5c32d9c69d2a47ea670b442974b53935d1edc7fd64eb21e047a839171ba26469706673582212204830a1461706fe670c8636405039c9c94e7b3ba450f93ac44fad22c862efaeb464736f6c634300081600332f8788117e7eff1d82e926ec794901d17c78024a50270940304540a733656f0d",
  "linkReferences": {},
  "deployedLinkReferences": {}
}