{
  "_format": "hh-sol-artifact-1",
  "contractName": "EventManager",
  "sourceName": "contracts/EventManager.sol",
  "abi": [
    {
      "inputs": [],
      "stateMutability": "nonpayable",
      "type": "constructor"
    },
    {
      "inputs": [],
      "name": "AccessControlBadConfirmation",
      "type": "error"
    },
    {
      "inputs": [
        {
          "internalType": "address",
          "name": "account",
          "type": "address"
        },
        {
          "internalType": "bytes32",
          "name": "neededRole",
          "type": "bytes32"
        }
      ],
      "name": "AccessControlUnauthorizedAccount",
      "type": "error"
    },
    {
      "inputs": [
        {
          "internalType": "address",
          "name": "owner",
          "type": "address"
        }
      ],
      "name": "OwnableInvalidOwner",
      "type": "error"
    },
    {
      "inputs": [
        {
          "internalType": "address",
          "name": "account",
          "type": "address"
        }
      ],
      "name": "OwnableUnauthorizedAccount",
      "type": "error"
    },
    {
      "anonymous": false,
      "inputs": [
        {
          "indexed": true,
          "internalType": "uint256",
          "name": "eventId",
          "type": "uint256"
        },
        {
          "indexed": true,
          "internalType": "address",
          "name": "attendee",
          "type": "address"
        },
        {
          "indexed": false,
          "internalType": "uint256",
          "name": "tokenId",
          "type": "uint256"
        }
      ],
      "name": "CertificateIssued",
      "type": "event"
    },
    {
      "anonymous": false,
      "inputs": [
        {
          "indexed": true,
          "internalType": "address",
          "name": "nft",
          "type": "address"
        }
      ],
      "name": "CertificateNFTSet",
      "type": "event"
    },
    {
      "anonymous": false,
      "inputs": [
        {
          "indexed": true,
          "internalType": "uint256",
          "name": "eventId",
          "type": "uint256"
        }
      ],
      "name": "EventCompleted",
      "type": "event"
    },
    {
      "anonymous": false,
      "inputs": [
        {
          "indexed": true,
          "internalType": "uint256",
          "name": "eventId",
          "type": "uint256"
        },
        {
          "indexed": false,
          "internalType": "string",
          "name": "title",
          "type": "string"
        },
        {
          "indexed": true,
          "internalType": "address",
          "name": "organizer",
          "type": "address"
        }
      ],
      "name": "EventCreated",
      "type": "event"
    },
    {
      "anonymous": false,
      "inputs": [
        {
          "indexed": true,
          "internalType": "uint256",
          "name": "eventId",
          "type": "uint256"
        }
      ],
      "name": "EventUpdated",
      "type": "event"
    },
    {
      "anonymous": false,
      "inputs": [
        {
          "indexed": true,
          "internalType": "address",
          "name": "previousOwner",
          "type": "address"
        },
        {
          "indexed": true,
          "internalType": "address",
          "name": "newOwner",
          "type": "address"
        }
      ],
      "name": "OwnershipTransferred",
      "type": "event"
    },
    {
      "anonymous": false,
      "inputs": [
        {
          "indexed": true,
          "internalType": "uint256",
          "name": "eventId",
          "type": "uint256"
        },
        {
          "indexed": true,
          "internalType": "address",
          "name": "attendee",
          "type": "address"
        }
      ],
      "name": "Registered",
      "type": "event"
    },
    {
      "anonymous": false,
      "inputs": [
        {
          "indexed": true,
          "internalType": "bytes32",
          "name": "role",
          "type": "bytes32"
        },
        {
          "indexed": true,
          "internalType": "bytes32",
          "name": "previousAdminRole",
          "type": "bytes32"
        },
        {
          "indexed": true,
          "internalType": "bytes32",
          "name": "newAdminRole",
          "type": "bytes32"
        }
      ],
      "name": "RoleAdminChanged",
      "type": "event"
    },
    {
      "anonymous": false,
      "inputs": [
        {
          "indexed": true,
          "internalType": "bytes32",
          "name": "role",
          "type": "bytes32"
        },
        {
          "indexed": true,
          "internalType": "address",
          "name": "account",
          "type": "address"
        },
        {
          "indexed": true,
          "internalType": "address",
          "name": "sender",
          "type": "address"
        }
      ],
      "name": "RoleGranted",
      "type": "event"
    },
    {
      "anonymous": false,
      "inputs": [
        {
          "indexed": true,
          "internalType": "bytes32",
          "name": "role",
          "type": "bytes32"
        },
        {
          "indexed": true,
          "internalType": "address",
          "name": "account",
          "type": "address"
        },
        {
          "indexed": true,
          "internalType": "address",
          "name": "sender",
          "type": "address"
        }
      ],
      "name": "RoleRevoked",
      "type": "event"
    },
    {
      "inputs": [],
      "name": "DEFAULT_ADMIN_ROLE",
      "outputs": [
        {
          "internalType": "bytes32",
          "name": "",
          "type": "bytes32"
        }
      ],
      "stateMutability": "view",
      "type": "function"
    },
    {
      "inputs": [],
      "name": "ORGANIZER_ROLE",
      "outputs": [
        {
          "internalType": "bytes32",
          "name": "",
          "type": "bytes32"
        }
      ],
      "stateMutability": "view",
      "type": "function"
    },
    {
      "inputs": [],
      "name": "certificateNFT",
      "outputs": [
        {
          "internalType": "address",
          "name": "",
          "type": "address"
        }
      ],
      "stateMutability": "view",
      "type": "function"
    },
    {
      "inputs": [
        {
          "internalType": "uint256",
          "name": "eventId",
          "type": "uint256"
        }
      ],
      "name": "completeEvent",
      "outputs": [],
      "stateMutability": "nonpayable",
      "type": "function"
    },
    {
      "inputs": [
        {
          "internalType": "string",
          "name": "title",
          "type": "string"
        },
        {
          "internalType": "string",
          "name": "description",
          "type": "string"
        },
        {
          "internalType": "string",
          "name": "category",
          "type": "string"
        },
        {
          "internalType": "string",
          "name": "metadataUri",
          "type": "string"
        },
        {
          "internalType": "uint256",
          "name": "priceWei",
          "type": "uint256"
        },
        {
          "internalType": "uint256",
          "name": "capacity",
          "type": "uint256"
        },
        {
          "internalType": "uint64",
          "name": "startTime",
          "type": "uint64"
        },
        {
          "internalType": "uint64",
          "name": "endTime",
          "type": "uint64"
        }
      ],
      "name": "createEvent",
      "outputs": [
        {
          "internalType": "uint256",
          "name": "",
          "type": "uint256"
        }
      ],
      "stateMutability": "nonpayable",
      "type": "function"
    },
    {
      "inputs": [],
      "name": "eventCount",
      "outputs": [
        {
          "internalType": "uint256",
          "name": "",
          "type": "uint256"
        }
      ],
      "stateMutability": "view",
      "type": "function"
    },
    {
      "inputs": [
        {
          "internalType": "uint256",
          "name": "",
          "type": "uint256"
        }
      ],
      "name": "eventsById",
      "outputs": [
        {
          "internalType": "uint256",
          "name": "id",
          "type": "uint256"
        },
        {
          "internalType": "string",
          "name": "title",
          "type": "string"
        },
        {
          "internalType": "string",
          "name": "description",
          "type": "string"
        },
        {
          "internalType": "string",
          "name": "category",
          "type": "string"
        },
        {
          "internalType": "string",
          "name": "metadataUri",
          "type": "string"
        },
        {
          "internalType": "address",
          "name": "organizer",
          "type": "address"
        },
        {
          "internalType": "uint256",
          "name": "priceWei",
          "type": "uint256"
        },
        {
          "internalType": "uint256",
          "name": "capacity",
          "type": "uint256"
        },
        {
          "internalType": "uint64",
          "name": "startTime",
          "type": "uint64"
        },
        {
          "internalType": "uint64",
          "name": "endTime",
          "type": "uint64"
        },
        {
          "internalType": "uint32",
          "name": "registeredCount",
          "type": "uint32"
        },
        {
          "internalType": "bool",
          "name": "isCompleted",
          "type": "bool"
        }
      ],
      "stateMutability": "view",
      "type": "function"
    },
    {
      "inputs": [
        {
          "internalType": "uint256",
          "name": "eventId",
          "type": "uint256"
        }
      ],
      "name": "getRegistrants",
      "outputs": [
        {
          "internalType": "address[]",
          "name": "",
          "type": "address[]"
        }
      ],
      "stateMutability": "view",
      "type": "function"
    },
    {
      "inputs": [
        {
          "internalType": "bytes32",
          "name": "role",
          "type": "bytes32"
        }
      ],
      "name": "getRoleAdmin",
      "outputs": [
        {
          "internalType": "bytes32",
          "name": "",
          "type": "bytes32"
        }
      ],
      "stateMutability": "view",
      "type": "function"
    },
    {
      "inputs": [
        {
          "internalType": "bytes32",
          "name": "role",
          "type": "bytes32"
        },
        {
          "internalType": "address",
          "name": "account",
          "type": "address"
        }
      ],
      "name": "grantRole",
      "outputs": [],
      "stateMutability": "nonpayable",
      "type": "function"
    },
    {
      "inputs": [
        {
          "internalType": "bytes32",
          "name": "role",
          "type": "bytes32"
        },
        {
          "internalType": "address",
          "name": "account",
          "type": "address"
        }
      ],
      "name": "hasRole",
      "outputs": [
        {
          "internalType": "bool",
          "name": "",
          "type": "bool"
        }
      ],
      "stateMutability": "view",
      "type": "function"
    },
    {
      "inputs": [
        {
          "internalType": "uint256",
          "name": "",
          "type": "uint256"
        },
        {
          "internalType": "address",
          "name": "",
          "type": "address"
        }
      ],
      "name": "isRegistered",
      "outputs": [
        {
          "internalType": "bool",
          "name": "",
          "type": "bool"
        }
      ],
      "stateMutability": "view",
      "type": "function"
    },
    {
      "inputs": [
        {
          "internalType": "uint256",
          "name": "eventId",
          "type": "uint256"
        },
        {
          "internalType": "address",
          "name": "attendee",
          "type": "address"
        }
      ],
      "name": "issueCertificateToAttendee",
      "outputs": [
        {
          "internalType": "uint256",
          "name": "",
          "type": "uint256"
        }
      ],
      "stateMutability": "nonpayable",
      "type": "function"
    },
    {
      "inputs": [],
      "name": "owner",
      "outputs": [
        {
          "internalType": "address",
          "name": "",
          "type": "address"
        }
      ],
      "stateMutability": "view",
      "type": "function"
    },
    {
      "inputs": [
        {
          "internalType": "uint256",
          "name": "eventId",
          "type": "uint256"
        }
      ],
      "name": "register",
      "outputs": [],
      "stateMutability": "payable",
      "type": "function"
    },
    {
      "inputs": [
        {
          "internalType": "uint256",
          "name": "",
          "type": "uint256"
        },
        {
          "internalType": "uint256",
          "name": "",
          "type": "uint256"
        }
      ],
      "name": "registrants",
      "outputs": [
        {
          "internalType": "address",
          "name": "",
          "type": "address"
        }
      ],
      "stateMutability": "view",
      "type": "function"
    },
    {
      "inputs": [],
      "name": "renounceOwnership",
      "outputs": [],
      "stateMutability": "nonpayable",
      "type": "function"
    },
    {
      "inputs": [
        {
          "internalType": "bytes32",
          "name": "role",
          "type": "bytes32"
        },
        {
          "internalType": "address",
          "name": "callerConfirmation",
          "type": "address"
        }
      ],
      "name": "renounceRole",
      "outputs": [],
      "stateMutability": "nonpayable",
      "type": "function"
    },
    {
      "inputs": [
        {
          "internalType": "bytes32",
          "name": "role",
          "type": "bytes32"
        },
        {
          "internalType": "address",
          "name": "account",
          "type": "address"
        }
      ],
      "name": "revokeRole",
      "outputs": [],
      "stateMutability": "nonpayable",
      "type": "function"
    },
    {
      "inputs": [
        {
          "internalType": "address",
          "name": "nft",
          "type": "address"
        }
      ],
      "name": "setCertificateNFT",
      "outputs": [],
      "stateMutability": "nonpayable",
      "type": "function"
    },
    {
      "inputs": [
        {
          "internalType": "address",
          "name": "account",
          "type": "address"
        },
        {
          "internalType": "bool",
          "name": "enabled",
          "type": "bool"
        }
      ],
      "name": "setOrganizer",
      "outputs": [],
      "stateMutability": "nonpayable",
      "type": "function"
    },
    {
      "inputs": [
        {
          "internalType": "bytes4",
          "name": "interfaceId",
          "type": "bytes4"
        }
      ],
      "name": "supportsInterface",
      "outputs": [
        {
          "internalType": "bool",
          "name": "",
          "type": "bool"
        }
      ],
      "stateMutability": "view",
      "type": "function"
    },
    {
      "inputs": [
        {
          "internalType": "address",
          "name": "newOwner",
          "type": "address"
        }
      ],
      "name": "transferOwnership",
      "outputs": [],
      "stateMutability": "nonpayable",
      "type": "function"
    },
    {
      "inputs": [
        {
          "internalType": "uint256",
          "name": "eventId",
          "type": "uint256"
        },
        {
          "internalType": "string",
          "name": "title",
          "type": "string"
        },
        {
          "internalType": "string",
          "name": "description",
          "type": "string"
        },
        {
          "internalType": "string",
          "name": "category",
          "type": "string"
        },
        {
          "internalType": "string",
          "name": "metadataUri",
          "type": "string"
        },
        {
          "internalType": "uint256",
          "name": "priceWei",
          "type": "uint256"
        },
        {
          "internalType": "uint256",
          "name": "capacity",
          "type": "uint256"
        },
        {
          "internalType": "uint64",
          "name": "startTime",
          "type": "uint64"
        },
        {
          "internalType": "uint64",
          "name": "endTime",
          "type": "uint64"
        }
      ],
      "name": "updateEvent",
      "outputs": [],
      "stateMutability": "nonpayable",
      "type": "function"
    },
    {
      "inputs": [
        {
          "internalType": "uint256",
          "name": "eventId",
          "type": "uint256"
        }
      ],
      "name": "withdraw",
      "outputs": [],
      "stateMutability": "nonpayable",
      "type": "function"
    }
  ],
  "bytecode": "0x60808060405234620000955733156200007f5760008054336001600160a01b0319821681178355916001600160a01b03909116907f8be0079c531659141344cd1fd0a4f28419497f9722a3daafe3b4186f6b6457e09080a362000062336200009a565b506200006e336200011b565b506040516121039081620001bf8239f35b631e4fbdf760e01b815260006004820152602490fd5b600080fd5b6001600160a01b031660008181527fa6eef7e35abe7026729641147f7915573c7e97b47efa546f5f6e3230263bcb49602052604081205490919060ff16620001175781805260016020526040822081835260205260408220600160ff198254161790553391600080516020620022c28339815191528180a4600190565b5090565b6001600160a01b031660008181527feb582435d52ef99f7afca0cd57330feb3340a434ae64853903dd3b38ac075cd660205260408120549091907f4d2e7a1e3f5dd6e203f087b15756ccf0e4ccd947fe1b639a38540089a1e47f639060ff16620001b95780835260016020526040832082845260205260408320600160ff19825416179055600080516020620022c2833981519152339380a4600190565b50509056fe608080604052600436101561001357600080fd5b60003560e01c908163017c565514611aa75750806301ffc9a714611a5157806309fcd473146119ff578063189a0f2714611963578063248a9ca3146119345780632e1a7d4d146118d45780632f2ff15d1461189557806336568abe1461184e5780633a1896741461180a5780636d7524ee146116ba578063715018a61461166157806371be2e4a146116435780637909cb591461161a5780638183a48a14610e875780638da5cb5b14610e5e57806391aec72a14610e3557806391d1485414610de857806396f782d4146108105780639b7aea7514610794578063a217fddf14610778578063b81f6e181461072b578063d547741f146106ea578063f207564e1461046e578063f2fde38b146103e85763ff5ab4df1461013257600080fd5b346102d1576003196040368201126102d15760043590610150611b9f565b610158611e08565b8260005260209260038452604060002060018060a01b03610180816005840154163314611d52565b60ff600883015460a01c16156103ad57826000526004865280604060002094169384600052865260ff604060002054161561037757600654168015610344579085916001956001830196604051976000918154916101dd83611bb5565b926001811690811561032357506001146102e9575b5050508761026461025493610229600c60049c866b20436572746966696361746560a01b6000985203601319810186520184611c85565b604051636b55243d60e01b81528b81018b9052606060248201529a8b97889687956064870190611ca6565b9285840301604486015201611bef565b03925af19283156102dd576000936102a9575b507fd74e11d1754a92e22b6928590e3cb4c007c5d1a2c31cba9e5879d9908e5d0bf484604051858152a3604051908152f35b9092508381813d83116102d6575b6102c18183611c85565b810103126102d157519138610277565b600080fd5b503d6102b7565b6040513d6000823e3d90fd5b6000908152878120929350915b8383106103105750505087018401876102646102546101f2565b8054838c018901529187019181016102f6565b60ff1916898d015250505080151502880185019050876102646102546101f2565b60405162461bcd60e51b815260048101879052600b60248201526a139195081b9bdd081cd95d60aa1b6044820152606490fd5b60405162461bcd60e51b815260048101879052600e60248201526d139bdd081c9959da5cdd195c995960921b6044820152606490fd5b60405162461bcd60e51b8152600481018790526013602482015272115d995b9d081b9bdd0818dbdb5c1b195d1959606a1b6044820152606490fd5b346102d15760203660031901126102d157610401611b89565b610409611ddc565b6001600160a01b03908116908115610455576000548260018060a01b0319821617600055167f8be0079c531659141344cd1fd0a4f28419497f9722a3daafe3b4186f6b6457e0600080a3005b604051631e4fbdf760e01b815260006004820152602490fd5b6020806003193601126102d15760043590816000526003815260406000208054156106b3578260005260048252604060002033600052825260ff604060002054166106795760078101548015908115610662575b501561062a576006810191825434106105ef5760008481526004825260408082203383528352808220805460ff1916600117905585825260059092522080549190600160401b8310156105d95782610521916001600895018155611b5b565b81546001600160a01b0360039290921b91821b19163390911b17905501805460801c63ffffffff9081166001019081116105c35761055e91611db9565b54803411610591575b5033907f6cd8594df6446610564bf1ea1e804402ea0006dc7b541d3a430d1ea0a62cffd4600080a3005b803403903482116105c35760008080938193829034146105ba575b3390f1156102dd5781610567565b506108fc6105ac565b634e487b7160e01b600052601160045260246000fd5b634e487b7160e01b600052604160045260246000fd5b6064906040519062461bcd60e51b825260048201526014602482015273125b9cdd59999a58da595b9d081c185e5b595b9d60621b6044820152fd5b60405162461bcd60e51b815260048101839052601060248201526f10d85c1858da5d1e481c995858da195960821b6044820152606490fd5b905063ffffffff600883015460801c1610846104c2565b60405162461bcd60e51b8152600481018390526012602482015271105b1c9958591e481c9959da5cdd195c995960721b6044820152606490fd5b60405162461bcd60e51b815260048101839052600f60248201526e115d995b9d081b9bdd08199bdd5b99608a1b6044820152606490fd5b346102d15760403660031901126102d157610729600435610709611b9f565b90806000526001602052610724600160406000200154611e5e565b612016565b005b346102d15760403660031901126102d157610744611b9f565b600435600052600460205260406000209060018060a01b0316600052602052602060ff604060002054166040519015158152f35b346102d15760003660031901126102d157602060405160008152f35b346102d15760203660031901126102d1576004356107b0611e08565b806000526003602052600860406000206107d760018060a01b036005830154163314611d52565b01805460ff60a01b1916600160a01b1790557fbb85ff95aded757cf3b840cc38e6e719a2915827f28e3364f62cbefa25bbe2de600080a2005b346102d1576101203660031901126102d1576024356001600160401b0381116102d157610841903690600401611ce6565b6044356001600160401b0381116102d157610860903690600401611ce6565b906064356001600160401b0381116102d157610880903690600401611ce6565b916084356001600160401b0381116102d1576108a0903690600401611ce6565b6108a8611d3c565b916001600160401b03610104351661010435036102d1576108c7611e08565b60043560005260036020526040600020936108ef60018060a01b036005870154163314611d52565b8051906001600160401b0382116105d957819061090f6001880154611bb5565b601f8111610d95575b50602090601f8311600114610d2357600092610d18575b50508160011b916000199060031b1c19161760018501555b8051906001600160401b0382116105d95781906109676002870154611bb5565b601f8111610cc5575b50602090601f8311600114610c5357600092610c48575b50508160011b916000199060031b1c19161760028401555b83516001600160401b0381116105d9576109bc6003850154611bb5565b601f8111610c01575b50602094601f8211600114610b9557948192939495600092610b8a575b50508160011b916000199060031b1c19161760038401555b8051906001600160401b0382116105d957610a186004850154611bb5565b601f8111610b3f575b50602090601f8311600114610ac35793826001600160401b0393600893610a8e97600092610ab8575b50508160011b916000199060031b1c19161760048201555b60a435600682015560c43560078201550191166001600160401b03198254161781556101043590611d8e565b6004357f809fa27991b070f066e1b77ccff5758336645c734a13941444cc6f45daa21a89600080a2005b015190508780610a4a565b90601f198316916004860160005260206000209260005b818110610b27575093600893610a8e9793600193836001600160401b039810610b0e575b505050811b016004820155610a62565b015160001960f88460031b161c19169055878080610afe565b92936020600181928786015181550195019301610ada565b600485016000526020600020601f840160051c81019160208510610b80575b601f0160051c01905b818110610b745750610a21565b60008155600101610b67565b9091508190610b5e565b0151905085806109e2565b601f198216956003860160005260206000209160005b888110610be957508360019596979810610bd0575b505050811b0160038401556109fa565b015160001960f88460031b161c19169055858080610bc0565b91926020600181928685015181550194019201610bab565b600385016000526020600020601f830160051c810160208410610c41575b601f830160051c82018110610c355750506109c5565b60008155600101610c1f565b5080610c1f565b015190508680610987565b9250600286016000526020600020906000935b601f1984168510610caa576001945083601f19811610610c91575b505050811b01600284015561099f565b015160001960f88460031b161c19169055868080610c81565b81810151835560209485019460019093019290910190610c66565b909150600286016000526020600020601f840160051c810160208510610d11575b90849392915b601f830160051c82018110610d02575050610970565b60008155859450600101610cec565b5080610ce6565b01519050878061092f565b9250600187016000526020600020906000935b601f1984168510610d7a576001945083601f19811610610d61575b505050811b016001850155610947565b015160001960f88460031b161c19169055878080610d51565b81810151835560209485019460019093019290910190610d36565b909150600187016000526020600020601f840160051c810160208510610de1575b90849392915b601f830160051c82018110610dd2575050610918565b60008155859450600101610dbc565b5080610db6565b346102d15760403660031901126102d157610e01611b9f565b600435600052600160205260406000209060018060a01b0316600052602052602060ff604060002054166040519015158152f35b346102d15760003660031901126102d1576006546040516001600160a01b039091168152602090f35b346102d15760003660031901126102d1576000546040516001600160a01b039091168152602090f35b346102d1576101003660031901126102d1576004356001600160401b0381116102d157610eb8903690600401611ce6565b6024356001600160401b0381116102d157610ed7903690600401611ce6565b906044356001600160401b0381116102d157610ef7903690600401611ce6565b906064356001600160401b0381116102d157610f17903690600401611ce6565b9260c435926001600160401b03841684036102d157610f34611d3c565b90610f3d611e08565b8351156115e4576001600160401b0382161580156115c8575b1561159357600254946001860186116105c35760018601600255604051966101808801928884106001600160401b038511176105d9576001600160401b03958694604052600189018a528760208b015260408a0152606089015260808801523360a088015260843560c088015260a43560e08801521661010086015216610120840152600061014084015260006101608401526001820160005260036020526040600020928051845560208101518051906001600160401b0382116105d95781906110246001880154611bb5565b601f8111611540575b50602090601f83116001146114ce576000926114c3575b50508160011b916000199060031b1c19161760018501555b60408101518051906001600160401b0382116105d95781906110816002880154611bb5565b601f8111611470575b50602090601f8311600114611403576000926113f8575b50508160011b916000199060031b1c19161760028501555b60608101518051906001600160401b0382116105d95781906110de6003880154611bb5565b601f81116113a5575b50602090601f831160011461133357600092611328575b50508160011b916000199060031b1c19161760038501555b60808101519384516001600160401b0381116105d9576111396004830154611bb5565b95601f87116112e1575b602096508690601f831160011461126f5791806101609492600894600092611264575b50508160011b916000199060031b1c19161760048201555b6005810160018060a01b0360a08601511660018060a01b031982541617905560c0840151600682015560e0840151600782015501916001600160401b03610100820151166001600160401b03198454161783556111e96001600160401b036101208301511684611d8e565b6111fe63ffffffff6101408301511684611db9565b0151815460ff60a01b191690151560a01b60ff60a01b16179055604051838152339160018401917f40fb05b814a900c99fa0a76d919dfdeaf3389540e4ca70f97ba40ca9a38f37979181906112569088830190611ca6565b0390a3600160405191018152f35b015190508980611166565b90601f1983169160048501600052886000209260005b8181106112ca57509260019285926008966101609896106112b1575b505050811b01600482015561117e565b015160001960f88460031b161c191690558980806112a1565b92938a600181928786015181550195019301611285565b600483016000526020600020601f830160051c810160208410611321575b601f890160051c82018110611315575050611143565b600081556001016112ff565b50806112ff565b0151905086806110fe565b9250600387016000526020600020906000935b601f198416851061138a576001945083601f19811610611371575b505050811b016003850155611116565b015160001960f88460031b161c19169055868080611361565b81810151835560209485019460019093019290910190611346565b909150600387016000526020600020601f840160051c8101602085106113f1575b90849392915b601f830160051c820181106113e25750506110e7565b600081558594506001016113cc565b50806113c6565b0151905086806110a1565b600288016000908152602081209350601f198516905b818110611458575090846001959493921061143f575b505050811b0160028501556110b9565b015160001960f88460031b161c1916905586808061142f565b92936020600181928786015181550195019301611419565b909150600287016000526020600020601f840160051c8101602085106114bc575b90849392915b601f830160051c820181106114ad57505061108a565b60008155859450600101611497565b5080611491565b015190508680611044565b9250600187016000526020600020906000935b601f1984168510611525576001945083601f1981161061150c575b505050811b01600185015561105c565b015160001960f88460031b161c191690558680806114fc565b818101518355602094850194600190930192909101906114e1565b909150600187016000526020600020601f840160051c81016020851061158c575b90849392915b601f830160051c8201811061157d57505061102d565b60008155859450600101611567565b5080611561565b60405162461bcd60e51b815260206004820152600d60248201526c496e76616c69642074696d657360981b6044820152606490fd5b506001600160401b0385166001600160401b0383161015610f56565b60405162461bcd60e51b815260206004820152600e60248201526d151a5d1b19481c995c5d5a5c995960921b6044820152606490fd5b346102d15760003660031901126102d15760206040516000805160206120ae8339815191528152f35b346102d15760003660031901126102d1576020600254604051908152f35b346102d15760003660031901126102d15761167a611ddc565b600080546001600160a01b0319811682556001600160a01b03167f8be0079c531659141344cd1fd0a4f28419497f9722a3daafe3b4186f6b6457e08280a3005b346102d15760203660031901126102d157600435600052600360205260406000208054604051916116f9836116f28160018501611bef565b0384611c85565b60ff6040516117168161170f8160028701611bef565b0382611c85565b604051906117328261172b8160038801611bef565b0383611c85565b6040519361174e856117478160048501611bef565b0386611c85565b60018060a01b03600582015416946117c66006830154916117b860086007860154950154966117aa6001600160401b039761179c6040519e8f9e8f6101809181528160208201520190611ca6565b8d810360408f015290611ca6565b908b820360608d0152611ca6565b9089820360808b0152611ca6565b9560a088015260c087015260e08601528082166101008601528160401c1661012085015263ffffffff8160801c1661014085015260a01c1615156101608301520390f35b346102d15760403660031901126102d157611823611b89565b60243580151581036102d157611837611ddc565b156118455761072990611e84565b61072990611f8e565b346102d15760403660031901126102d157611867611b9f565b336001600160a01b038216036118835761072990600435612016565b60405163334bd91960e11b8152600490fd5b346102d15760403660031901126102d1576107296004356118b4611b9f565b908060005260016020526118cf600160406000200154611e5e565b611f13565b346102d15760203660031901126102d1576118ed611e08565b600435600052600360205261191360018060a01b03600560406000200154163314611d52565b60008080804781811561192b575b3390f1156102dd57005b506108fc611921565b346102d15760203660031901126102d15760043560005260016020526020600160406000200154604051908152f35b346102d15760203660031901126102d15761197c611b89565b611984611ddc565b6001600160a01b031680156119cc57600680546001600160a01b031916821790557f7e06b4789c38cf345eeb064e21aa08533c8d07f728af7a613adf7175a77c940d600080a2005b60405162461bcd60e51b815260206004820152600b60248201526a125b9d985b1a590813919560aa1b6044820152606490fd5b346102d15760403660031901126102d1576024356004356000526005602052604060002080548210156102d157602091611a3891611b5b565b905460405160039290921b1c6001600160a01b03168152f35b346102d15760203660031901126102d15760043563ffffffff60e01b81168091036102d157602090637965db0b60e01b8114908115611a96575b506040519015158152f35b6301ffc9a760e01b14905082611a8b565b346102d157602090816003193601126102d1576004356000526005825260406000208054808352838301908192600052846000209060005b86828210611b3e578686611af582880383611c85565b604051928392818401908285525180915260408401929160005b828110611b1e57505050500390f35b83516001600160a01b031685528695509381019392810192600101611b0f565b83546001600160a01b031685529093019260019283019201611adf565b8054821015611b735760005260206000200190600090565b634e487b7160e01b600052603260045260246000fd5b600435906001600160a01b03821682036102d157565b602435906001600160a01b03821682036102d157565b90600182811c92168015611be5575b6020831014611bcf57565b634e487b7160e01b600052602260045260246000fd5b91607f1691611bc4565b805460009392611bfe82611bb5565b91828252602093600191600181169081600014611c665750600114611c25575b5050505050565b90939495506000929192528360002092846000945b838610611c5257505050500101903880808080611c1e565b805485870183015294019385908201611c3a565b60ff19168685015250505090151560051b010191503880808080611c1e565b90601f801991011681019081106001600160401b038211176105d957604052565b919082519283825260005b848110611cd2575050826000602080949584010152601f8019910116010190565b602081830181015184830182015201611cb1565b81601f820112156102d1578035906001600160401b0382116105d95760405192611d1a601f8401601f191660200185611c85565b828452602083830101116102d157816000926020809301838601378301015290565b60e435906001600160401b03821682036102d157565b15611d5957565b60405162461bcd60e51b815260206004820152600d60248201526c2737ba1037b933b0b734bd32b960991b6044820152606490fd5b805467ffffffffffffffff60401b191660409290921b67ffffffffffffffff60401b16919091179055565b805463ffffffff60801b191660809290921b63ffffffff60801b16919091179055565b6000546001600160a01b03163303611df057565b60405163118cdaa760e01b8152336004820152602490fd5b33600090815260008051602061208e83398151915260205260409020546000805160206120ae8339815191529060ff1615611e405750565b6044906040519063e2517d3f60e01b82523360048301526024820152fd5b80600052600160205260406000203360005260205260ff6040600020541615611e405750565b6001600160a01b0316600081815260008051602061208e83398151915260205260408120549091906000805160206120ae8339815191529060ff16611f0e5780835260016020526040832082845260205260408320600160ff198254161790557f2f8788117e7eff1d82e926ec794901d17c78024a50270940304540a733656f0d339380a4600190565b505090565b906000918083526001602052604083209160018060a01b03169182845260205260ff60408420541615600014611f0e5780835260016020526040832082845260205260408320600160ff198254161790557f2f8788117e7eff1d82e926ec794901d17c78024a50270940304540a733656f0d339380a4600190565b6001600160a01b0316600081815260008051602061208e83398151915260205260408120549091906000805160206120ae8339815191529060ff1615611f0e578083526001602052604083208284526020526040832060ff1981541690557ff6391f5c32d9c69d2a47ea670b442974b53935d1edc7fd64eb21e047a839171b339380a4600190565b906000918083526001602052604083209160018060a01b03169182845260205260ff604084205416600014611f0e578083526001602052604083208284526020526040832060ff1981541690557ff6391f5c32d9c69d2a47ea670b442974b53935d1edc7fd64eb21e047a839171b339380a460019056feeb582435d52ef99f7afca0cd57330feb3340a434ae64853903dd3b38ac075cd64d2e7a1e3f5dd6e203f087b15756ccf0e4ccd947fe1b639a38540089a1e47f63a264697066735822122094e7a6c8901abec0de7535da6931aa14266bed48a9d85b6dc8fc1d683b51d68164736f6c634300081600332f8788117e7eff1d82e926ec794901d17c78024a50270940304540a733656f0d",
  "linkReferences": {},
  "deployedLinkReferences": {}
}