{
  "_format": "hh-sol-artifact-1",
  "contractName": "VerifierRegistry",
  "sourceName": "contracts/VerifierRegistry.sol",
  "abi": [
    {
      "inputs": [],
      "stateMutability": "nonpayable",
      "type": "constructor"
    },
    {
      "inputs": [],
      "name": "AccessControlBadConfirmation",
      "type": "error"
    },
    {
      "inputs": [
        {
          "internalType": "address",
          "name": "account",
          "type": "address"
        },
        {
          "internalType": "bytes32",
          "name": "neededRole",
          "type": "bytes32"
        }
      ],
      "name": "AccessControlUnauthorizedAccount",
      "type": "error"
    },
    {
      "inputs": [
        {
          "internalType": "address",
          "name": "owner",
          "type": "address"
        }
      ],
      "name": "OwnableInvalidOwner",
      "type": "error"
    },
    {
      "inputs": [
        {
          "internalType": "address",
          "name": "account",
          "type": "address"
        }
      ],
      "name": "OwnableUnauthorizedAccount",
      "type": "error"
    },
    {
      "anonymous": false,
      "inputs": [
        {
          "indexed": true,
          "internalType": "address",
          "name": "previousOwner",
          "type": "address"
        },
        {
          "indexed": true,
          "internalType": "address",
          "name": "newOwner",
          "type": "address"
        }
      ],
      "name": "OwnershipTransferred",
      "type": "event"
    },
    {
      "anonymous": false,
      "inputs": [
        {
          "indexed": true,
          "internalType": "bytes32",
          "name": "role",
          "type": "bytes32"
        },
        {
          "indexed": true,
          "internalType": "bytes32",
          "name": "previousAdminRole",
          "type": "bytes32"
        },
        {
          "indexed": true,
          "internalType": "bytes32",
          "name": "newAdminRole",
          "type": "bytes32"
        }
      ],
      "name": "RoleAdminChanged",
      "type": "event"
    },
    {
      "anonymous": false,
      "inputs": [
        {
          "indexed": true,
          "internalType": "bytes32",
          "name": "role",
          "type": "bytes32"
        },
        {
          "indexed": true,
          "internalType": "address",
          "name": "account",
          "type": "address"
        },
        {
          "indexed": true,
          "internalType": "address",
          "name": "sender",
          "type": "address"
        }
      ],
      "name": "RoleGranted",
      "type": "event"
    },
    {
      "anonymous": false,
      "inputs": [
        {
          "indexed": true,
          "internalType": "bytes32",
          "name": "role",
          "type": "bytes32"
        },
        {
          "indexed": true,
          "internalType": "address",
          "name": "account",
          "type": "address"
        },
        {
          "indexed": true,
          "internalType": "address",
          "name": "sender",
          "type": "address"
        }
      ],
      "name": "RoleRevoked",
      "type": "event"
    },
    {
      "anonymous": false,
      "inputs": [
        {
          "indexed": true,
          "internalType": "address",
          "name": "subject",
          "type": "address"
        },
        {
          "indexed": false,
          "internalType": "string",
          "name": "protocol",
          "type": "string"
        },
        {
          "indexed": false,
          "internalType": "enum VerifierRegistry.VerificationStatus",
          "name": "status",
          "type": "uint8"
        },
        {
          "indexed": false,
          "internalType": "string",
          "name": "ref",
          "type": "string"
        }
      ],
      "name": "VerificationUpdated",
      "type": "event"
    },
    {
      "anonymous": false,
      "inputs": [
        {
          "indexed": true,
          "internalType": "address",
          "name": "account",
          "type": "address"
        },
        {
          "indexed": false,
          "internalType": "bool",
          "name": "enabled",
          "type": "bool"
        }
      ],
      "name": "VerifierSet",
      "type": "event"
    },
    {
      "inputs": [],
      "name": "DEFAULT_ADMIN_ROLE",
      "outputs": [
        {
          "internalType": "bytes32",
          "name": "",
          "type": "bytes32"
        }
      ],
      "stateMutability": "view",
      "type": "function"
    },
    {
      "inputs": [],
      "name": "VERIFIER_ROLE",
      "outputs": [
        {
          "internalType": "bytes32",
          "name": "",
          "type": "bytes32"
        }
      ],
      "stateMutability": "view",
      "type": "function"
    },
    {
      "inputs": [
        {
          "internalType": "bytes32",
          "name": "role",
          "type": "bytes32"
        }
      ],
      "name": "getRoleAdmin",
      "outputs": [
        {
          "internalType": "bytes32",
          "name": "",
          "type": "bytes32"
        }
      ],
      "stateMutability": "view",
      "type": "function"
    },
    {
      "inputs": [
        {
          "internalType": "address",
          "name": "subject",
          "type": "address"
        },
        {
          "internalType": "string",
          "name": "protocol",
          "type": "string"
        }
      ],
      "name": "getVerification",
      "outputs": [
        {
          "components": [
            {
              "internalType": "enum VerifierRegistry.VerificationStatus",
              "name": "status",
              "type": "uint8"
            },
            {
              "internalType": "string",
              "name": "ref",
              "type": "string"
            },
            {
              "internalType": "uint256",
              "name": "updatedAt",
              "type": "uint256"
            },
            {
              "internalType": "address",
              "name": "verifier",
              "type": "address"
            }
          ],
          "internalType": "struct VerifierRegistry.VerificationRecord",
          "name": "",
          "type": "tuple"
        }
      ],
      "stateMutability": "view",
      "type": "function"
    },
    {
      "inputs": [
        {
          "internalType": "bytes32",
          "name": "role",
          "type": "bytes32"
        },
        {
          "internalType": "address",
          "name": "account",
          "type": "address"
        }
      ],
      "name": "grantRole",
      "outputs": [],
      "stateMutability": "nonpayable",
      "type": "function"
    },
    {
      "inputs": [
        {
          "internalType": "bytes32",
          "name": "role",
          "type": "bytes32"
        },
        {
          "internalType": "address",
          "name": "account",
          "type": "address"
        }
      ],
      "name": "hasRole",
      "outputs": [
        {
          "internalType": "bool",
          "name": "",
          "type": "bool"
        }
      ],
      "stateMutability": "view",
      "type": "function"
    },
    {
      "inputs": [
        {
          "internalType": "address",
          "name": "subject",
          "type": "address"
        },
        {
          "internalType": "string",
          "name": "protocol",
          "type": "string"
        }
      ],
      "name": "isVerified",
      "outputs": [
        {
          "internalType": "bool",
          "name": "",
          "type": "bool"
        }
      ],
      "stateMutability": "view",
      "type": "function"
    },
    {
      "inputs": [],
      "name": "owner",
      "outputs": [
        {
          "internalType": "address",
          "name": "",
          "type": "address"
        }
      ],
      "stateMutability": "view",
      "type": "function"
    },
    {
      "inputs": [
        {
          "internalType": "address",
          "name": "",
          "type": "address"
        },
        {
          "internalType": "string",
          "name": "",
          "type": "string"
        }
      ],
      "name": "records",
      "outputs": [
        {
          "internalType": "enum VerifierRegistry.VerificationStatus",
          "name": "status",
          "type": "uint8"
        },
        {
          "internalType": "string",
          "name": "ref",
          "type": "string"
        },
        {
          "internalType": "uint256",
          "name": "updatedAt",
          "type": "uint256"
        },
        {
          "internalType": "address",
          "name": "verifier",
          "type": "address"
        }
      ],
      "stateMutability": "view",
      "type": "function"
    },
    {
      "inputs": [],
      "name": "renounceOwnership",
      "outputs": [],
      "stateMutability": "nonpayable",
      "type": "function"
    },
    {
      "inputs": [
        {
          "internalType": "bytes32",
          "name": "role",
          "type": "bytes32"
        },
        {
          "internalType": "address",
          "name": "callerConfirmation",
          "type": "address"
        }
      ],
      "name": "renounceRole",
      "outputs": [],
      "stateMutability": "nonpayable",
      "type": "function"
    },
    {
      "inputs": [
        {
          "internalType": "bytes32",
          "name": "role",
          "type": "bytes32"
        },
        {
          "internalType": "address",
          "name": "account",
          "type": "address"
        }
      ],
      "name": "revokeRole",
      "outputs": [],
      "stateMutability": "nonpayable",
      "type": "function"
    },
    {
      "inputs": [
        {
          "internalType": "address",
          "name": "subject",
          "type": "address"
        },
        {
          "internalType": "string",
          "name": "protocol",
          "type": "string"
        },
        {
          "internalType": "enum VerifierRegistry.VerificationStatus",
          "name": "status",
          "type": "uint8"
        },
        {
          "internalType": "string",
          "name": "ref",
          "type": "string"
        }
      ],
      "name": "setVerification",
      "outputs": [],
      "stateMutability": "nonpayable",
      "type": "function"
    },
    {
      "inputs": [
        {
          "internalType": "address",
          "name": "account",
          "type": "address"
        },
        {
          "internalType": "bool",
          "name": "enabled",
          "type": "bool"
        }
      ],
      "name": "setVerifier",
      "outputs": [],
      "stateMutability": "nonpayable",
      "type": "function"
    },
    {
      "inputs": [
        {
          "internalType": "bytes4",
          "name": "interfaceId",
          "type": "bytes4"
        }
      ],
      "name": "supportsInterface",
      "outputs": [
        {
          "internalType": "bool",
          "name": "",
          "type": "bool"
        }
      ],
      "stateMutability": "view",
      "type": "function"
    },
    {
      "inputs": [
        {
          "internalType": "address",
          "name": "newOwner",
          "type": "address"
        }
      ],
      "name": "transferOwnership",
      "outputs": [],
      "stateMutability": "nonpayable",
      "type": "function"
    }
  ],
  "bytecode": "0x6080806040523461008e5733156100785760008054336001600160a01b0319821681178355916001600160a01b03909116907f8be0079c531659141344cd1fd0a4f28419497f9722a3daafe3b4186f6b6457e09080a361005e33610093565b5061006833610112565b50604051610e6190816101b48239f35b631e4fbdf760e01b815260006004820152602490fd5b600080fd5b6001600160a01b031660008181527fa6eef7e35abe7026729641147f7915573c7e97b47efa546f5f6e3230263bcb49602052604081205490919060ff1661010e5781805260016020526040822081835260205260408220600160ff1982541617905533916000805160206110158339815191528180a4600190565b5090565b6001600160a01b031660008181527fb4fd2442cb0653849f414a2f81c1eb01ec27a0fc1bb28000d4ca51d98b75fd0360205260408120549091907f0ce23c3e399818cfee81a7ab0880f714e53d7672b08df0fa62f2843416e1ea099060ff166101ae5780835260016020526040832082845260205260408320600160ff19825416179055600080516020611015833981519152339380a4600190565b50509056fe608080604052600436101561001357600080fd5b60003560e01c90816301ffc9a7146108c35750806322f33876146105c6578063248a9ca3146105975780632f2ff15d1461055857806336568abe14610511578063715018a6146104ca5780638da5cb5b146104a157806391d14854146104545780639b66673e14610363578063a217fddf14610347578063ac9b5671146102c0578063d547741f1461027f578063d8e77cdb146101e6578063e7705db6146101bd578063f2fde38b146101495763fb2a22ea146100cf57600080fd5b346101445760ff61010c60206100e4366109d6565b9060018060a01b03166000526002825260406000208260405194838680955193849201610a25565b8201908152030190205416600481101561012e57602090600260405191148152f35b634e487b7160e01b600052602160045260246000fd5b600080fd5b3461014457602036600319011261014457610162610916565b61016a610d3f565b6001600160a01b039081169081156101a4576000548260018060a01b031982161760005516600080516020610d8c833981519152600080a3005b604051631e4fbdf760e01b815260006004820152602490fd5b34610144576000366003190112610144576020604051600080516020610dec8339815191528152f35b346101445761025f60206102286101fc366109d6565b60018060a09593951b038094166000526002825260406000208260405194838680955193849201610a25565b82019081520301902060ff8154169161027061024660018401610aa7565b9160036002850154940154169160405195868096610a18565b608060208601526080850190610a48565b91604084015260608301520390f35b34610144576040366003190112610144576102be60043561029e61092c565b908060005260016020526102b9600160406000200154610b58565b610cda565b005b34610144576040366003190112610144576102d9610916565b6024359081151591828103610144577f7a6dd775b9b6aa6ebde6f0c51172ef328eb9658e095364751705f28234e7257c91602091610315610d3f565b156103385761032381610b7e565b505b6040519384526001600160a01b031692a2005b61034181610c64565b50610325565b3461014457600036600319011261014457602060405160008152f35b34610144576103c76060610376366109d6565b6040939193519061038682610942565b60008252600060209483818780960152826040820152015260018060a01b038095166000526002825260406000208260405194838680955193849201610a25565b820190815203019020604051926103dd84610942565b6103eb60ff83541685610b4c565b6103f760018301610aa7565b83850190815261044282600360028601549560408901968752015416916060870192835261043060405197878998895288019051610a18565b516080604087015260a0860190610a48565b92516060850152511660808301520390f35b346101445760403660031901126101445761046d61092c565b600435600052600160205260406000209060018060a01b0316600052602052602060ff604060002054166040519015158152f35b34610144576000366003190112610144576000546040516001600160a01b039091168152602090f35b34610144576000366003190112610144576104e3610d3f565b600080546001600160a01b0319811682556001600160a01b0316600080516020610d8c8339815191528280a3005b346101445760403660031901126101445761052a61092c565b336001600160a01b03821603610546576102be90600435610cda565b60405163334bd91960e11b8152600490fd5b34610144576040366003190112610144576102be60043561057761092c565b90806000526001602052610592600160406000200154610b58565b610bfb565b346101445760203660031901126101445760043560005260016020526020600160406000200154604051908152f35b34610144576080366003190112610144576105df610916565b6024356001600160401b038111610144576105fe903690600401610980565b60046044351015610144576064356001600160401b03811161014457610628903690600401610980565b336000908152600080516020610dcc8339815191526020526040902054909290600080516020610dec8339815191529060ff16156108a5575060405161066d81610942565b61067960443582610b4c565b83602082015242604082015233606082015260018060a01b038216600052600260205260406000206020604051809286516106b78184868b01610a25565b8201908152030190208151600481101561012e5760ff80198354169116178155602082015180519060018060401b03821161088f576106f96001840154610a6d565b601f8111610848575b50602090601f83116001146107c0576107b093836107899794600080516020610e0c8339815191529997946003946000926107b5575b505060001982851b1c1916600191821b17908201555b604083015160028201550190606060018060a01b039101511660018060a01b0319825416179055604051938493606085526060850190610a48565b9061079960208501604435610a18565b83820360408501526001600160a01b031695610a48565b0390a2005b015190508b80610738565b90601f198316916001850160005260206000209260005b818110610830575084600080516020610e0c8339815191529997946003946107b098946107899b9860019510610818575b505050811b01600182015561074e565b015160001983871b60f8161c191690558b8080610808565b929360206001819287860151815501950193016107d7565b600184016000526020600020601f840160051c810160208510610888575b601f830160051c8201811061087c575050610702565b60008155600101610866565b5080610866565b634e487b7160e01b600052604160045260246000fd5b6044906040519063e2517d3f60e01b82523360048301526024820152fd5b34610144576020366003190112610144576004359063ffffffff60e01b821680920361014457602091637965db0b60e01b8114908115610905575b5015158152f35b6301ffc9a760e01b149050836108fe565b600435906001600160a01b038216820361014457565b602435906001600160a01b038216820361014457565b608081019081106001600160401b0382111761088f57604052565b601f909101601f19168101906001600160401b0382119082101761088f57604052565b81601f82011215610144578035906001600160401b03821161088f57604051926109b4601f8401601f19166020018561095d565b8284526020838301011161014457816000926020809301838601378301015290565b906040600319830112610144576004356001600160a01b03811681036101445791602435906001600160401b03821161014457610a1591600401610980565b90565b90600482101561012e5752565b60005b838110610a385750506000910152565b8181015183820152602001610a28565b90602091610a6181518092818552858086019101610a25565b601f01601f1916010190565b90600182811c92168015610a9d575b6020831014610a8757565b634e487b7160e01b600052602260045260246000fd5b91607f1691610a7c565b90604051918260008254610aba81610a6d565b90818452602094600191600181169081600014610b2a5750600114610aeb575b505050610ae99250038361095d565b565b600090815285812095935091905b818310610b12575050610ae99350820101388080610ada565b85548884018501529485019487945091830191610af9565b92505050610ae994925060ff191682840152151560051b820101388080610ada565b600482101561012e5752565b80600052600160205260406000203360005260205260ff60406000205416156108a55750565b6001600160a01b03166000818152600080516020610dcc8339815191526020526040812054909190600080516020610dec8339815191529060ff16610bf65780835260016020526040832082845260205260408320600160ff19825416179055600080516020610d6c833981519152339380a4600190565b505090565b906000918083526001602052604083209160018060a01b03169182845260205260ff60408420541615600014610bf65780835260016020526040832082845260205260408320600160ff19825416179055600080516020610d6c833981519152339380a4600190565b6001600160a01b03166000818152600080516020610dcc8339815191526020526040812054909190600080516020610dec8339815191529060ff1615610bf6578083526001602052604083208284526020526040832060ff198154169055600080516020610dac833981519152339380a4600190565b906000918083526001602052604083209160018060a01b03169182845260205260ff604084205416600014610bf6578083526001602052604083208284526020526040832060ff198154169055600080516020610dac833981519152339380a4600190565b6000546001600160a01b03163303610d5357565b60405163118cdaa760e01b8152336004820152602490fdfe2f8788117e7eff1d82e926ec794901d17c78024a50270940304540a733656f0d8be0079c531659141344cd1fd0a4f28419497f9722a3daafe3b4186f6b6457e0f6391f5c32d9c69d2a47ea670b442974b53935d1edc7fd64eb21e047a839171bb4fd2442cb0653849f414a2f81c1eb01ec27a0fc1bb28000d4ca51d98b75fd030ce23c3e399818cfee81a7ab0880f714e53d7672b08df0fa62f2843416e1ea09a18609ea8c0874644c7f8d4823a76ce93d2ed12fd51bcd44e962191c95a7d846a26469706673582212201b980ff64ec11beec8ba7f6d680e7ba41a89cead95566af160b687bd2b31732364736f6c634300081600332f8788117e7eff1d82e926ec794901d17c78024a50270940304540a733656f0d",
  "linkReferences": {},
  "deployedLinkReferences": {}
}